:1000000080317B2A0000203085001B3084000008EE
:10001000031918280130F800F701F70B0D28F80B29
:100020000C284A30F700F70B13281628800B0A28F3
:10003000080021008C0122008C0121008D0122008A
:100040008D0121008E0122008E0110302000BA00A7
:10005000FA30BB000320BA0B28283430650000308A
:10006000660033306700B514351485019E30840076
:10007000FC30800537088004013085008C30840016
:1000800036088000013085008E30840035088000FD
:10009000013085008D3084003408800021001E1658
:1000A0009E121E139E171D1432302000BB00032029
:1000B0008031AE2A21000C1620000C1A6128381459
:1000C000B91421000C1620000C1A381021008C16CF
:1000D00020008C1A6D28B814B91421008C16200049
:1000E0008C1AB81021000C1520000C1D38152100A9
:1000F0000C1520000C19381121008E1620008E1EC0
:10010000B81521008E1620008E1AB81121000E1687
:1001100020000E1E381621000E1620000E1A38126E
:100120008031AF2AB81BA42838189828B81C9E28FC
:1001300021000D1322000D17A228200021000D130D
:1001400022000D13A828200021000D1322000D13FA
:1001500020003918BB283818AF28B81CB528210052
:100160000E1122000E15B928200021000E112200C8
:100170000E11BF28200021000E1122000E112000B8
:10018000381BDA28381CC628B818D428381DCE28C1
:1001900021008E1122008E15D228200021008E1100
:1001A00022008E11D828200021008E1122008E11ED
:1001B000DE28200021008E1122008E112000B81AA6
:1001C000262938181F29B8181F29B91CF228B81D6C
:1001D000F228381EF228B91021008D1322008D1745
:1001E00020003915B9181E29391D0929B81DFF2805
:1001F00021008D1322008D17200039150929B81907
:100200000929381A092921008D1322008D13200095
:10021000391139191E29B819142921008D1322000A
:100220008D13200039111E29B81D1E29381A1E29C8
:1002300021008D1322008D1720003915252921005A
:100240008D1322008D13200039112C2921008D13CC
:1002500022008D13200039118031B02A83183329F0
:10026000850143308400F701F801F901FA01C30167
:10027000C401C501C6014208410440043F040319FA
:1002800071292030C7000310BB0DBC0DBD0DBE0D84
:10029000C30DC40DC50DC60D42084602031D5A29E3
:1002A00041084502031D5A2940084402031D5A29EA
:1002B0003F084302031C6B293F08C3024008031C8C
:1002C000400FC4024108031C410FC5024208031C31
:1002D000420FC6020314F70DF80DF90DFA0DC70B06
:1002E0004329430880004408813F4508823F46086F
:1002F000833F0800A301A201A101A001BA013A08AD
:10030000093C031CA2291430F80021001D08833980
:1003100078049D0002302000BB00032021009D14C2
:100320009D1890291C08FA001B082000A8007A08D4
:10033000A9002808A0072908A13D0030A23DA33D3F
:10034000BA0A7F2983102308BE002208BD002108B5
:10035000BC002008BB00C201C101C0010A30BF00BF
:100360002E217A08A3007908A2007808A100770856
:10037000A0000800A701A601A501A401BA013A083E
:10038000093C031CE2291030F80021001D088339C4
:1003900078049D0002302000BB00032021009D1442
:1003A0009D18D0291C08FA001B082000A8007A0814
:1003B000A9002808A4072908A53D0030A63DA73DAF
:1003C000BA0ABF2983102708BE002608BD002508E9
:1003D000BC002408BB00C201C101C0010A30BF003B
:1003E0002E217A08A7007908A6007808A5007708CA
:1003F000A40008006430BB00032021008E132200FB
:100400008E1721000E1322000E1320007A212108DE
:10041000AB002008AA002B08003C03181C2AFF3A56
:10042000031D162A2A08F43C03181C2AB8162100BA
:100430008D1322008D13200021008E1322008E17B1
:1004400021000E1322000E1720007A212108AD0092
:100450002008AC002D08003C03183B2AFF3A031D7E
:10046000352A2C08F43C03183B2A381721008E113A
:1004700022008E11200021008D1222008D162100F5
:100480000D1222000D122000BA212508AF00240809
:10049000AE002F08003C03185A2AFF3A031D542AC5
:1004A0002E08F43C03185A2AB81721000D13220015
:1004B0000D13200021008D1222008D1621000D1237
:1004C00022000D162000BA212508B1002408B00032
:1004D0003108003C0318792AFF3A031D732A3008BB
:1004E000F43C0318792A391421000E1122000E1150
:1004F00020008031B12A6A30210099001A082000BA
:10050000A301A201A101A001A701A601A501A401C7
:10051000A901A801AB01AA01AD01AC01AF01AE0177
:10052000B101B001B301B201B701B601B501B40127
:100530003810B8103811B8113812B8123813B8136F
:100540003910B914391123008C018D018E0122005C
:100550009201910194019301200019285A289228B0
:06056000FA29AE2A630037
:020000040001F9
:04000E00A43FFF1FED
:00000001FF
;PIC16F1508
;CRC=E41B  CREATED="07-Feb-19 17:10"
