:10000000A031F52B000020308500DC308400000892
:10001000031918280130F800F701F70B0D28F80B29
:100020000C284A30F700F70B13281628800B0A28F3
:10003000080021000F1022000F102000A401240846
:100040000F3C031C502821008E1122008E115F08E6
:10005000E1005E08E00020002408F70003193628BC
:100060002200E035E10DF70B312820000039F700C0
:10007000220061088039FA0077087A0403194528BC
:1000800021008F1022008F14492821008F10220098
:100090008F1021008E1122008E152000A40A1F2827
:1000A00021000F1022000F142000080022005C081D
:1000B0002000A50522005D082000A60526082200D4
:1000C000DF00200025082200DE00200019200800A3
:1000D00021008C0122008C0121008D0122008D0164
:1000E00021008E0122008E0121008F0122008F014C
:1000F0002100101090101011901122009001043076
:10010000DA00FA30DC00200003202200DA0B81281C
:10011000703065001830660011306700083021002B
:100120008F0010149014101590112200DD01DC01D5
:100130002000562004302200DA00FA30DC002000D3
:1001400003202200DA0B9D280030F800043820003C
:100150009C00FF309B007A3021009900143022006F
:10016000DC002000032021008E1022008E102100D0
:100170000E1122000E110C30250093009401950100
:100180001E109E1001309600F030930514302200AE
:10019000DC002000032021000E1122000E111D1092
:1001A0001D1221008E1022008E100C3025009A00A6
:1001B0009B019C011E119E1101309D00F0309A059B
:1001C00014302200DC00200003205116D115500805
:1001D0002200DA00200051082200DB002000520833
:1001E0002200DC00200053082200DD0085019E3043
:1001F0008400F8308005013085008C3084005D0873
:10020000800001308500903084005C08800001305F
:1002100085008D3084005B088000013085008F30C0
:1002200084005A08800021001E169E121E139E177D
:100230001D1414302200DC00200003202200DD0108
:10024000DC01DB01DA015A08F7005B08F8005C0802
:10025000F9005D08FA0000300310F70DF80DF90DF4
:10026000FA0D890DF70DF80DF90DFA0D890DF70D41
:10027000F80DF90DFA0D890DF70DF80DF90DFA0DC0
:10028000890DF70DF80DF90DFA0D890DF70DF80D23
:10029000F90DFA0D890DF70DF80DF90DFA0D890D0F
:1002A0002000A2007A08A1007908A0007808970031
:1002B000770896007014F0147015F5107511F5118B
:1002C0007415F4157416F0157016F0167217F217EF
:1002D0007314A031252DF5189E2921008D122200BE
:1002E0008D1621008E1222008E1221000D13220085
:1002F0000D1321000E1322000E1721000D112200F4
:100300000D1121008D1022008D1021008E1322006E
:100310008E1321000F1222000F1621008F132200CE
:100320008F1321000D1022000D1021008F122200CA
:100330008F1221000F1322000F132000F51CD0296B
:1003400021008D1222008D1621008E1222008E16A1
:1003500021000D1322000D1721000E1322000E178D
:1003600021000D1122000D1121008D1022008D1091
:1003700021008E1322008E1321000F1222000F1273
:1003800021008F1322008F1321000D1022000D1069
:1003900021008F1222008F1221000F1322000F1351
:1003A0002000080021008D1222008D1621008E12DF
:1003B00022008E1621000D1322000D1721000E13AE
:1003C00022000E1721000D1122000D1121008D10A9
:1003D00022008D1021008E1322008E1321000F1297
:1003E00022000F1221008F1322008F1321000D1005
:1003F00022000D1021008F1222008F1221000F13F6
:1004000022000F132000080022005C082000A50431
:1004100022005D082000A60426082200DF0020003C
:1004200025082200DE00200019200800F21D762A8F
:1004300020302200DD00DC012000042208302200F0
:10044000DD00DC012000042210302200DD00DC0190
:100450002000042278302200DC0020000320DF305E
:100460002200DD00FF30DC0020005620F7302200A3
:10047000DD00FF30DC0020005620EF302200DD00E0
:10048000FF30DC002000562050302200DC0020002D
:10049000032020302200DD00DC012000042208308F
:1004A0002200DD00DC012000042210302200DD00EB
:1004B000DC012000042278302200DC002000032030
:1004C000DF302200DD00FF30DC0020005620F73056
:1004D0002200DD00FF30DC0020005620EF3022003B
:1004E000DD00FF30DC0020005620F211721EBC2A15
:1004F00004302200DD00DC01200004220230220052
:10050000DD00DC012000042278302200DC00200025
:100510000320FB302200DD00FF30DC0020005620ED
:10052000FD302200DD00FF30DC002000562050307E
:100530002200DC002000032004302200DD00DC016A
:100540002000042202302200DD00DC012000042211
:1005500078302200DC0020000320FB302200DD0088
:10056000FF30DC0020005620FD302200DD00FF308F
:10057000DC00200056207212F21E1C2B01302200DB
:10058000DD00DC012000042240302200DD00DC011F
:100590002000042280302200DD00DC012000042243
:1005A00078302200DC0020000320FE302200DD0035
:1005B000FF30DC0020005620BF302200DD00FF307D
:1005C000DC00200056207F302200DD00FF30DC0000
:1005D0002000562050302200DC0020000320013093
:1005E0002200DD00DC012000042240302200DD007A
:1005F000DC012000042280302200DD00DC0120002C
:10060000042278302200DC0020000320FE3022008B
:10061000DD00FF30DC0020005620BF302200DD006E
:10062000FF30DC00200056207F302200DD00FF304C
:10063000DC0020005620F21208008318232B013022
:10064000850064308400F701F801F901FA01220005
:10065000E401E501E601E701630862046104600466
:100660000319622B2030E8000310DC0DDD0DDE0DD8
:10067000DF0DE40DE50DE60DE70D63086702031DD0
:100680004B2B62086602031D4B2B61086502031D9C
:100690004B2B60086402031C5C2B6008E4026108B9
:1006A000031C610FE5026208031C620FE602630887
:1006B000031C630FE7020314F70DF80DF90DFA0D93
:1006C000E80B342B640880006508813F6608823F90
:1006D0006708833F20000800BF01BE01C701C601B3
:1006E000C501C401D501D40122005A0D2000D60055
:1006F00022005B0D2000D700D60DD70DFC30D605AB
:1007000015305602D8000030573BD9005508570223
:10071000031CC32B031D902B560854020318C32B34
:10072000F518C32BD40A0319D50A21009D149D186E
:10073000972B1C08FA001B082000BC007A08BD009B
:10074000BD08031DA72B3C08643C0318B12BD22124
:1007500064302200DC0020000320F5147014F21530
:10076000162259085502031CC22B031DBB2B54082B
:1007700058020318C22B3C08C4073D08C53D003091
:10078000C63DC73D862B831047082200DF002000AE
:1007900046082200DE00200045082200DD0020007F
:1007A00044082200DC00E301E201E1011430E00032
:1007B00020001D237808BF007708BE000800F51848
:1007C000122C21008D1222008D1621008E12220083
:1007D0008E1221000D1322000D1321000E13220092
:1007E0000E1721000D1122000D1121008D10220085
:1007F0008D1021008E1322008E1321000F12220073
:100800000F1221008F1322008F1321000D102200E0
:100810000D1421008F1222008F1221000F132200CD
:100820000F132000F51C442C21008D1222008D1680
:1008300021008E1222008E1621000D1322000D17AA
:1008400021000E1322000E1721000D1122000D11A0
:1008500021008D1022008D1021008E1322008E1396
:1008600021000F1222000F1221008F1322008F137C
:1008700021000D1022000D1021008F1222008F1276
:1008800021000F1322000F1320000800111C522C0E
:100890000130A0070318A10A0319A20A0319A30A29
:1008A0001110662C1708FA001608F70017087A02CC
:1008B000031D522C7708111C6F2C0130A007031860
:1008C000A10A0319A20A0319A30A11101708FA00B2
:1008D0001608F70017087A02031D662C7708F70040
:1008E0007A08F8002008F9002108FA0022082200FE
:1008F000DA00DA0CFA0CF90CF80CF70CDA0CFA0C3A
:10090000F90CF80CF70CDA0CFA0CF90CF80CF70CE3
:10091000DA0CFA0CF90CF80CF70CDA0CFA0CF90CEE
:10092000F80CF70CDA0CFA0CF90CF80CF70CDA0CE2
:10093000FA0CF90CF80CF70C2000080022005A08F9
:100940005E022000DC0022005B085F3B2000DD002F
:1009500022005C08603B2000DE0022005D08613B55
:100960002000DF005C08F7005D08F8005E08F90071
:100970005F08FA0008007519EE2C21008D12220084
:100980008D1621008E1222008E1221000D132200DE
:100990000D1321000E1322000E1721000D1122004D
:1009A0000D1121008D1022008D1021008E132200C8
:1009B0008E1721000F1222000F1221008F13220028
:1009C0008F1321000D1022000D1021008F12220024
:1009D0008F1221000F1322000F132000751D202DF0
:1009E00021008D1222008D1621008E1222008E16FB
:1009F00021000D1322000D1721000E1322000E17E7
:100A000021000D1122000D1121008D1022008D10EA
:100A100021008E1322008E1321000F1222000F12CC
:100A200021008F1322008F1321000D1022000D10C2
:100A300021008F1222008F1221000F1322000F13AA
:100A40002000080021008D1222008D1621008E1238
:100A500022008E1621000D1322000D1721000E1307
:100A600022000E1721000D1122000D1121008D1002
:100A700022008D1021008E1322008E1321000F12F0
:100A800022000F1221008F1322008F1321000D105E
:100A900022000D1021008F1222008F1221000F134F
:100AA00022000F1320000800C101C001CB01CA01C0
:100AB000C901C801D501D40122005A0D2000D60079
:100AC00022005B0D2000D700D60DD70DFC30D605D7
:100AD00015305602D8000030573BD9005508570250
:100AE000031CAD2D031D782D560854020318AD2D9F
:100AF0007519AD2DD40A0319D50A21009D149D182E
:100B00007F2D1C08FA001B082000BC007A08BD00DD
:100B1000BD08031D8F2D3C08643C0318992D222528
:100B200064302200DC00200003207515F0147216DA
:100B3000162259085502031CAC2D031DA32D540881
:100B400058020318AC2D7519AC2D3C08C8073D0898
:100B5000C93D0030CA3DCB3D6E2D83104B082200AD
:100B6000DF0020004A082200DE00200049082200A1
:100B7000DD00200048082200DC00E301E201E10181
:100B80001430E00020001D237808C1007708C00061
:100B900008007519FC2D21008D1222008D162100F0
:100BA0008E1222008E1221000D1322000D1321003F
:100BB0000E1322000E1721000D1122000D1121002D
:100BC0008D1022008D1021008E1322008E13210023
:100BD0000F1222000F1221008F1322008F17210005
:100BE0000D1022000D1021008F1222008F12210003
:100BF0000F1322000F132000751D2E2E21008D12C1
:100C000022008D1621008E1222008E1621000D1357
:100C100022000D1721000E1322000E1721000D11C6
:100C200022000D1121008D1022008D1021008E1345
:100C300022008E1321000F1222000F1221008F13A9
:100C400022008F1321000D1022000D1021008F12A1
:100C500022008F1221000F1322000F132000080022
:100C6000F519632E21008D1222008D1621008E129F
:100C700022008E1621000D1322000D1721000E13E5
:100C800022000E1321000D1122000D1121008D10E4
:100C900022008D1021008E1322008E1321000F12CE
:100CA00022000F1221008F1322008F1321000D103C
:100CB00022000D1021008F1222008F1221000F132D
:100CC00022000F172000F51D952E21008D12220005
:100CD0008D1621008E1222008E1621000D13220087
:100CE0000D1721000E1322000E1721000D112200F6
:100CF0000D1121008D1022008D1021008E13220075
:100D00008E1321000F1222000F1221008F132200D8
:100D10008F1321000D1022000D1021008F122200D0
:100D20008F1221000F1322000F1320000800210052
:100D30008D1222008D1621008E1222008E162100A7
:100D40000D1322000D1721000E1322000E17210093
:100D50000D1122000D1121008D1022008D10210097
:100D60008E1322008E1321000F1222000F12210079
:100D70008F1322008F1321000D1022000D1021006F
:100D80008F1222008F1221000F1322000F13200058
:100D90000800C301C201CF01CE01CD01CC01D501B4
:100DA000D40122005A0D2000D60022005B0D200045
:100DB000D700D60DD70DFC30D60515305602D80019
:100DC0000030573BD90055085702031C202F031D44
:100DD000ED2E560854020318202FF519202FD40A9F
:100DE0000319D50A21009D149D18F42E1C08FA0041
:100DF0001B082000BC007A08BD00BD08031D042F9D
:100E00003C08643C03180E2F972664302200DC0057
:100E100020000320F5157015F21616225908550208
:100E2000031C1F2F031D182F5408580203181F2FCF
:100E30003C08CC073D08CD3D0030CE3DCF3DE32EF4
:100E400083104F082200DF0020004E082200DE0041
:100E500020004D082200DD0020004C082200DC00AC
:100E6000E301E201E1011430E00020001D237808D5
:100E7000C3007708C2000800F5196F2F21008D12FA
:100E800022008D1621008E1222008E1621000D13D5
:100E900022000D1721000E1322000E1321000D1148
:100EA00022000D1121008D1022008D1021008E13C3
:100EB00022008E1321000F1222000F1221008F1327
:100EC00022008F1321000D1022000D1021008F121F
:100ED00022008F1621000F1322000F132000F51D92
:100EE000A12F21008D1222008D1621008E122200CA
:100EF0008E1621000D1322000D1721000E13220063
:100F00000E1721000D1122000D1121008D1022005D
:100F10008D1021008E1322008E1321000F1222004B
:100F20000F1221008F1322008F1321000D102200B9
:100F30000D1021008F1222008F1221000F132200AA
:100F40000F1320000800F030250093059A052200B9
:100F5000DD01DC0120005620D22122259726210028
:100F60000F1122000F1121008C1322008C1320007E
:100F7000A701A801AB01AF01B6012200B501B40180
:100F8000B701B601F1137210F210A03120002E2D1E
:100F90007018D62FF518D62F390823009100951315
:100FA000151413082000AE00AF01D82FAE01AF0119
:100FB000F018E52F7519E52F3A08230091009513D5
:100FC000151413082000B200E62FB2017019F42F97
:100FD000F519F42F3B0823009100951315141308FD
:100FE0002000B500B601F62FB501B601A031312DB4
:101000002C30F80021001D08833978049D0014302D
:101010002200DC00803120000320883180316B21E8
:10102000883101302200DB00F430DA00803120000A
:101030006C2388312200B901B8013908023C031C35
:101040006728031D27283808ED3C031C67288031DA
:1010500020006B2188312200DB013C30DA00803136
:1010600020006C238831F51C45288031D22188313D
:1010700064302200DC0080312000032088310230FF
:101080002200B900EE30B8002000BF08031D4C2834
:101090003E08283C03186228F51862288031D221C6
:1010A000883164302200DC00803120000320883148
:1010B00070107411F011721302302200B900EE307A
:1010C000B80020002200B80A0319B90A1D287018B8
:1010D0001629F51816292430F80021001D08833937
:1010E00078049D0014302200DC00803120000320B1
:1010F00088318031DF23883101302200DB00F43079
:10110000DA00803120006C23883180314624883118
:101110007A08E3007908E2007808E1007708E00047
:101120007215721DC028F518C0288031DF23883160
:101130002200DB013C30DA00803120006C23883152
:101140008031462488317A08E7007908E60078087B
:10115000E5007708E400BF08031DB2283E08283CDC
:101160000318BF28F518BF2872118031D2218831A9
:1011700064302200DC008031200003208831912877
:1011800063082200DD00200062082200DC0020004D
:1011900061082200DB00200060082200DA00200045
:1011A00067082200E100200066082200E00020001D
:1011B00065082200DF00200064082200DE00803184
:1011C00020009E2488317A08EB007908EA0078082C
:1011D000E9007708E8006B082100EF0020006A08AA
:1011E0002100EE00200069082100ED0020006808C1
:1011F0002100EC0003102000680D2100BC0020003D
:10120000690D2100BD0020006A0D2100BE002000F4
:101210006B0D2100BF00031020006B0CEF006A0C67
:10122000EE00690CED00680CEC0022002C30F80098
:1012300021001D08833978049D0014302200DC0051
:1012400080312000032088318031BB248831013077
:101250002200DB00F430DA00803120005425883190
:101260002200BB01BA013B08023C031C7D29031D7F
:101270003D293A08ED3C031C7D2980312000BB2428
:1012800088312200DB013C30DA0080312000542517
:101290008831751D5B298031222588316430220018
:1012A000DC00803120000320883102302200BB00A6
:1012B000EE30BA002000C108031D62294008283C16
:1012C00003187829751978298031222588316430EE
:1012D0002200DC008031200003208831F010F4115E
:1012E0007012F21302302200BB00EE30BA00200070
:1012F0002200BA0A0319BB0A3329F018212A7519EA
:10130000212A2430F80021001D08833978049D002B
:1013100014302200DC00803120000320883180312D
:10132000C925883101302200DB00F430DA00803139
:101330002000542588318031462488317A082100E4
:10134000A3007908A2007808A1007708A000721510
:10135000721DDB297519DB2980312000C9258831F0
:101360002200DB013C30DA00803120005425883136
:101370008031462488317A082100A7007908A60028
:101380007808A5007708A4002000C108031DCC2917
:101390004008283C0318D9297519D92972118031C0
:1013A0002225883164302200DC00803120000320B7
:1013B00088312100A82923082200DD00210022080D
:1013C0002200DC00210021082200DB00210020088F
:1013D0002200DA00210027082200E100210026086F
:1013E0002200E000210025082200DF00210024085F
:1013F0002200DE00803120009E2488317A082100FE
:10140000AB007908AA007808A9007708A8002B0883
:101410002200A30021002A082200A200210029089E
:101420002200A100210028082200A00003102100B2
:10143000280DC000290DC1002A0DC2002B0DC300CC
:1014400022002C30F80021001D08833978049D000B
:1014500014302200DC0080312000032088318031EC
:101460003026883101302200DB00F430DA00803190
:101470002000C92688312200BD01BC013D08023C84
:10148000031C882A031D482A3C08ED3C031C882ABB
:1014900080312000302688312200DB013C30DA0028
:1014A00080312000C9268831F51D662A80319726B3
:1014B000883164302200DC00803120000320883134
:1014C00002302200BD00EE30BC002000C308031D26
:1014D0006D2A4208283C0318832AF519832A803193
:1014E0009726883164302200DC0080312000032000
:1014F000883170117412F012731002302200BD0096
:10150000EE30BC0020002200BC0A0319BD0A3E2AAE
:101510007019352BF519352B2C30F80021001D08DA
:10152000833978049D0014302200DC0080312000D3
:101530000320883180313C27883101302200DB00D4
:10154000F430DA0080312000C92688318031462409
:1015500088317A082100AF007908AE007808AD0024
:101560007708AC007215721DE62AF519E62A80315B
:1015700020003C2788312200DB013C30DA0080313A
:101580002000C92688318031462488317A0821001C
:10159000B3007908B2007808B1007708B0002000E5
:1015A000C308031DD72A4208283C0318E42AF5196A
:1015B000E42A721180319726883164302200DC00E1
:1015C00080312000032088312100B32A2F08220017
:1015D000DD0021002E082200DC0021002D08220061
:1015E000DB0021002C082200DA0021003308220051
:1015F000E100210032082200E00021003108220031
:10160000DF00210030082200DE00803120009E240F
:1016100088317A082100B7007908B6007808B5004B
:101620007708B40037082200A700210036082200FE
:10163000A600210035082200A50021003408220060
:10164000A40003102100340DC400350DC500360D73
:10165000C600370DC7000310370CBB00360CBA00AC
:10166000350CB900340CB8002200A0312000282D20
:10167000F01DD82B01302200BE070318BF0A031942
:10168000C00A0319C10A3E08103C031D6B2B3F081A
:10169000273C031D6B2BC008031D6B2BC108031DCA
:1016A0006B2B2030DD00DC018031200004228831EA
:1016B000F7302200DD00FF30DC00803120005620B2
:1016C0008831EF302200DD00FF30DC008031200067
:1016D0005620883122003E08203C031D982B3F08ED
:1016E0004E3C031D982BC008031D982BC108031DF9
:1016F000982BC101C001BF01BE01DF30DD00FF300A
:10170000DC008031200056208831F7302200DD00D7
:10171000FF30DC008031200056208831EF3022007D
:10172000DD00FF30DC0080312000562088312200AF
:10173000CD01CC01CB01CA0121000C1620000C1AEE
:10174000D72B01302200CA070318CB0A0319CC0A91
:101750000319CD0A4A08403C031DD52B4B080D3C0C
:10176000031DD52B4C08033C031DD52BCD08031DB1
:10177000D52BF011DF30DD00FF30DC0080312000A0
:1017800056208831F7302200DD00FF30DC00803148
:10179000200056208831EF302200DD00FF30DC00D1
:1017A000803120005620883122009C2B2000382BCD
:1017B000701E542C01302200C2070318C30A0319FB
:1017C000C40A0319C50A4208103C031D022C430831
:1017D000273C031D022CC408031D022CC508031D51
:1017E000022C0430DD00DC0180312000042288312D
:1017F000FD302200DD00FF30DC008031200056206B
:10180000883122004208203C031D1D2C43084E3C19
:10181000031D1D2CC408031D1D2CC508031D1D2CF4
:10182000FB30DD00FF30DC008031200056208831A5
:101830002200C501C401C301C201D101D001CF0101
:10184000CE012100101420001018532C013022006A
:10185000CE070318CF0A0319D00A0319D10A4E087C
:10186000403C031D512C4F080D3C031D512C5008CA
:10187000033C031D512CD108031D512C7012FB3069
:10188000DD00FF30DC008031200056208831FD3043
:101890002200DD00FF30DC0080312000562088313E
:1018A0002200212C2000D82BF01EF22C0130220027
:1018B000C6070318C70A0319C80A0319C90A460844
:1018C000103C031D852C4708273C031D852CC808A8
:1018D000031D852CC908031D852C0130DD00DC01AA
:1018E000803120000422883140302200DD00DC01FC
:1018F000803120000422883180302200DD00DC01AC
:10190000803120000422883122004608203C031D3B
:10191000B22C47084E3C031DB22CC808031DB22C44
:10192000C908031DB22CC901C801C701C601FE3098
:10193000DD00FF30DC008031200056208831BF30D0
:101940002200DD00FF30DC0080312000562088318D
:101950007F302200DD00FF30DC0080312000562087
:1019600088312200D501D401D301D20121008F1585
:1019700020008F19F12C01302200D2070318D30A5E
:101980000319D40A0319D50A5208403C031DEF2C51
:1019900053080D3C031DEF2C5408033C031DEF2C92
:1019A000D508031DEF2CF012FE30DD00FF30DC0007
:1019B0008031200056208831BF302200DD00FF300A
:1019C000DC0080312000562088317F302200DD008D
:1019D000FF30DC0080312000562088312200B62CF8
:1019E0002000542CA0312B2D22005A085B06803990
:1019F000DD00DA1FFD2CDA09DA0ADB1F012DDB0915
:101A0000DB0A5B08F8015A020318092D5A08F7008F
:101A1000152DF7010830DC00DA0DF70D5B087702B1
:101A20000318F700F80DDC0B0C2DDD1F192DF8093C
:101A3000F80A2000080070193B2D35082200DA0052
:101A40000330DB002000F424F708031D292D741057
:101A50003A2D7414F31F3A2DF31380314624883144
:101A60007A082200AB007908AA007808A900770854
:101A7000A80020003C2D74100800741C822DF31B5C
:101A8000812D8031462488317A082200AF00790800
:101A9000AE007808AD007708AC002B08DD002A08FE
:101AA000DC002908DB002808DA002F08E1002E08F6
:101AB000E0002D08DF002C08DE00803120009E248D
:101AC00088317A082200B3007908B2007808B100A2
:101AD0007708B000B308031D7B2DB208031D7B2DD2
:101AE00031080A3C0318802DFF3A031D7B2D300876
:101AF000B83C0318802DF31721008C1322008C179B
:101B00002000872DF31721008C1322008C13200056
:101B1000080028082200DA000430DB002000F4244A
:101B2000F7080319992D21000F1122000F159D2D83
:101B3000200021000F1122000F11200008002100B9
:101B40000E1420000E18E82D701FE82D7013A70A40
:101B500027082200DA000230DB002000F424F70816
:101B6000031DC42DFF302200DD00F730DC00803182
:101B7000200056208831A7012A08A8003108AE00AD
:101B80003408B2003808B50027082200DA00023015
:101B9000DB002000F424770BE82D2200DD01083063
:101BA000DC00803120000422883175142808AA0046
:101BB0002B08AD002E08B1003208B4003508B8007B
:101BC0000330A800AE01B201B5011B253D258925D2
:101BD00021000E1420000E187017080021000C17A9
:101BE00020000C1B122EF01F122EF01327082200CB
:101BF000DA000230DB002000F424770B112EFF30D6
:101C00002200DD00F730DC008031200056208831D2
:101C1000A7012A08A8003108AE003408B20038082D
:101C2000B500A80A21000C1720000C1BF0170800B3
:101C300021001015200010193C2E711C3C2E711033
:101C400027082200DA000230DB002000F424770BA2
:101C50003B2EFF302200DD00F730DC008031200019
:101C600056208831A7012A08A8003108AE003408A0
:101C7000B2003808B500AB0A210010152000101979
:101C80007114080021000C1620000C1A832EF11C80
:101C9000832EF1107018822EF518822E270822004C
:101CA000DA000230DB002000F424770B692EFF30CD
:101CB0002200DD00F730DC00803120005620883122
:101CC000A7012A08A8003108AE003408B20038087D
:101CD000B500AE010B08F7008B1339082300910003
:101CE00020002E08230093009513151555309600FB
:101CF000AA309600951495187B2E151177088B0441
:101D0000842E2000F215230021000C1620000C1A4E
:101D1000F11421008C1620008C1ACB2E711DCB2EB5
:101D200071117018CA2EF518CA2E27082200DA0081
:101D30000230DB002000F424770BB02EFF302200AD
:101D4000DD00F730DC008031200056208831A7010B
:101D50002A08A8003108AE003408B2003808B500DF
:101D60000130AE000B08F7008B13390823009100F7
:101D700020002E082300930095131515553096006A
:101D8000AA30960095149518C32E151177088B0468
:101D9000CC2E2000F215230021008C1620008C1A76
:101DA000711521000E1620000E1A132FF11D132F8E
:101DB000F1117018122FF518122F27082200DA00DF
:101DC0000230DB002000F424770BF82EFF302200D5
:101DD000DD00F730DC008031200056208831A7017B
:101DE0002A08A8003108AE003408B2003808B5004F
:101DF0000230AE000B08F7008B1339082300910066
:101E000020002E08230093009513151555309600D9
:101E1000AA309600951495180B2F151177088B048E
:101E2000142F2000F215230021000E1620000E1A98
:101E3000F115080021001014200010185B2F711EEE
:101E40005B2F7112F0185A2F75195A2F270822008C
:101E5000DA000230DB002000F424770B412FFF3042
:101E60002200DD00F730DC00803120005620883170
:101E7000A7012A08A8003108AE003408B2003808CB
:101E8000B500B2010B08F7008B133A08230091004C
:101E90002000320823009300951315155530960045
:101EA000AA30960095149518532F151177088B04B6
:101EB0005C2F20007216230021001014200010183F
:101EC00071162100901420009018A32FF11EA32F4B
:101ED000F112F018A22F7519A22F27082200DA009C
:101EE0000230DB002000F424770B882FFF30220023
:101EF000DD00F730DC008031200056208831A7015A
:101F00002A08A8003108AE003408B2003808B5002D
:101F10000130B2000B08F7008B133A082300910040
:101F200020003208230093009513151555309600B4
:101F3000AA309600951495189B2F151177088B04DD
:101F4000A42F200072162300210090142000901866
:101F5000F116080021008F1520008F19EB2F711F3B
:101F6000EB2F71137019EA2FF519EA2F27082200B9
:101F7000DA000230DB002000F424770BD12FFF3091
:101F80002200DD00F730DC0080312000562088314F
:101F9000A7012A08A8003108AE003408B2003808AA
:101FA000B500B50A0B08F7008B133B08230091001E
:101FB0002000350823009300951315155530960021
:101FC000AA30960095149518E32F151177088B0405
:101FD000EC2F2000F216230021008F1520008F190E
:041FE000711708006D
:1020000088319F2590318831EE259031883118260E
:10201000903188314226903188311A2790318831A9
:10202000AA279031080028082200DA000430DB00DB
:1020300088312000F4249031F708031D4628270832
:102040002200DA000230DB0088312000F4249031D5
:10205000F708031D4628FF302200DD00EF30DC00CA
:102060008031200056209031FF302200DD00DF302B
:10207000DC008031200056209031FF302200DD004E
:10208000BF30DC008031200056209031280822002B
:10209000DA000430DB0088312000F4249031770B23
:1020A000772827082200DA000230DB008831200080
:1020B000F4249031F708031D77282200DD01103049
:1020C000DC008031200004229031FF302200DD004E
:1020D000DF30DC008031200056209031FF302200BC
:1020E000DD00BF30DC008031200056209031280810
:1020F0002200DA000430DB0088312000F424903123
:102100007708023C031DA92827082200DA000230C4
:10211000DB0088312000F4249031F708031DA92842
:102120002200DD011030DC008031200004229031DB
:102130002200DD012030DC008031200004229031BB
:10214000FF302200DD00BF30DC008031200056204F
:10215000903128082200DA000430DB0088312000AA
:10216000F42490317708033C031DDA282708220065
:10217000DA000230DB0088312000F4249031F708C7
:10218000031DDA282200DD011030DC008031200040
:10219000042290312200DD012030DC00803120005B
:1021A000042290312200DD014030DC00803120002B
:1021B0000422903108002B082200DA000330DB00F3
:1021C00088312000F4249031F708031DF928FF30EE
:1021D0002200DD007F30DC0080312000562090316D
:1021E000FF302200DD00FE30DC0080312000562070
:1021F00090312B082200DA000330DB008831200008
:10220000F4249031770B15292200DD018030DC00A9
:102210008031200004229031FF302200DD00FE30AA
:10222000DC0080312000562090312B082200DA009B
:102230000330DB0088312000F42490317708023C21
:10224000031D32292200DD018030DC0080312000B6
:10225000042290312200DD010130DC0080312000B9
:102260000422903108007018CE29F518CE292E08C6
:102270002200DA000330DB0088312000F4249031A2
:10228000F708031D692927082200DA000230DB0065
:1022900088312000F4249031F708031D692920308B
:1022A0002200DD00DC018031200004229031F73073
:1022B0002200DD00FF30DC0080312000562090310C
:1022C000EF302200DD00FF30DC008031200056209E
:1022D00090312E082200DA000330DB008831200024
:1022E000F4249031770B9A2927082200DA00023073
:1022F000DB0088312000F4249031F708031D9A296F
:10230000DF302200DD00FF30DC008031200056206D
:10231000903108302200DD00DC01803120000422F1
:102320009031EF302200DD00FF30DC0080312000F2
:10233000562090312E082200DA000330DB0088316D
:102340002000F42490317708023C031DCD29270892
:102350002200DA000230DB0088312000F4249031C2
:10236000F708031DCD29DF302200DD00FF30DC003F
:102370008031200056209031F7302200DD00FF3000
:10238000DC00803120005620903110302200DD002A
:10239000DC018031200004229031E929DF30220065
:1023A000DD00FF30DC008031200056209031F73016
:1023B0002200DD00FF30DC0080312000562090310B
:1023C000EF302200DD00FF30DC008031200056209D
:1023D00090310800F018402A7519402A320822006E
:1023E000DA000230DB0088312000F4249031F70855
:1023F000031D172A27082200DA000230DB0088318B
:102400002000F4249031F708031D172A043022001D
:10241000DD00DC018031200004229031FD302200FB
:10242000DD00FF30DC008031200056209031320882
:102430002200DA000230DB0088312000F4249031E1
:10244000770B3F2A27082200DA000230DB008831B0
:102450002000F4249031F708031D3F2AFB302200AE
:10246000DD00FF30DC00803120005620903102304A
:102470002200DD00DC018031200004229031522A4C
:10248000FD302200DD00FF30DC00803120005620CE
:102490009031FB302200DD00FF30DC008031200075
:1024A0005620903108007019ED2AF519ED2A3508EB
:1024B0002200DA000330DB0088312000F424903160
:1024C000F708031D892A27082200DA000230DB0002
:1024D00088312000F4249031F708031D892A013047
:1024E0002200DD00DC018031200004229031BF3069
:1024F0002200DD00FF30DC008031200056209031CA
:102500007F302200DD00FF30DC00803120005620CB
:10251000903135082200DA000330DB0088312000DA
:10252000F4249031770BBA2A27082200DA0002300F
:10253000DB0088312000F4249031F708031DBA2A0B
:10254000FE302200DD00FF30DC008031200056200C
:10255000903140302200DD00DC0180312000042277
:1025600090317F302200DD00FF30DC008031200020
:102570005620903135082200DA000330DB00883124
:102580002000F42490317708023C031DEC2A270830
:102590002200DA000230DB0088312000F424903180
:1025A000F708031DEC2AFE302200DD00FF30DC00BE
:1025B000803120005620903140302200DD00DC01C7
:1025C000803120000422903180302200DD00DC01C7
:1025D0008031200004229031082BFE302200DD00E3
:1025E000FF30DC008031200056209031BF302200C7
:1025F000DD00FF30DC0080312000562090317F303C
:102600002200DD00FF30DC008031200056209031B8
:1026100008008031162290311320DB207018122B15
:10262000F51C3321F018162B751DEA2170191A2B91
:10263000F51D532208008831EE2590318831182687
:10264000903188314226903188311A279031883173
:10265000AA27903127082200DA000230DB008831F7
:102660002000F4249031770B742B21000E142000ED
:102670000E186E2B701F6E2B7013A70A27082200EE
:10268000DA000230DB0088312000F4249031F708B2
:10269000031D6E2BFF302200DD00F730DC0080319F
:1026A000200056209031A7012A08A8003108AE006A
:1026B0003408B2003808B500F414FF30A900220035
:1026C000B501B40125009801883120001B25903107
:1026D00088313D25903188318925903121000E14B3
:1026E00020000E187017832B27082200DA00023012
:1026F000DB0088312000F4249031F708031D832B80
:1027000088319F259031080028082200DA00043023
:10271000DB0088312000F4249031F708031D9B2B47
:10272000A8012808A9002200B501B40125009801DC
:10273000F0309A05200028082200DA000430DB007F
:1027400088312000F4249031770B0C2C2808A90044
:1027500022001D101D1221008E1022008E100C3040
:1027600025009A009B019C011E119E1101309D00C5
:102770002200B408031D002CB508031D002CD9014C
:10278000D801B501B401F418FF2B3508023C031C35
:10279000FF2B031DCF2B3408073C031CFF2BB40A6F
:1027A0000319B50A3508F9003408F800F90CF80CDB
:1027B000F90CF80CF90C780825009800F90C790C44
:1027C0003039F7001A08CF3977049A000530220013
:1027D000DC0080312000032090312200D80A031948
:1027E000D90AD908031DF82B5808323C0318FE2BD0
:1027F000D901D80120001B2309232200C32B0B2C55
:102800000230B5000830B4008230250098001A0864
:10281000CF399A002200200028082200DA00043074
:10282000DB0088312000F42490317708023C031D3E
:10283000CB2C2808A90022001D101D1221008E108B
:1028400022008E100C3025009A009B019C011E1165
:102850009E1101309D002200B408031D732CB508A1
:10286000031D732CD901D801B501B401F418722CE1
:102870003508023C031C722C031D422C3408753CA5
:10288000031C722CB40A0319B50A3508F900340880
:10289000F800F90CF80CF90CF80CF90C7808250084
:1028A0009800F90C790C3039F7001A08CF39770401
:1028B0009A0005302200DC00803120000320903196
:1028C0002200D80A0319D90AD908031D6B2C58080D
:1028D000323C0318712CD901D80120001B23092395
:1028E0002200362CCA2C3408083C031DBE2C3508A7
:1028F000023C031DBE2CD901D8010230B5000830BE
:10290000B400F418BD2C3508023C031CBD2C031D7B
:102910008D2C3408753C031CBD2CB40A0319B50A70
:102920003508F9003408F800F90CF80CF90CF80C2B
:10293000F90C780825009800F90C790C3039F7006B
:102940001A08CF3977049A0005302200DC00803164
:102950002000032090312200D80A0319D90AD9088F
:10296000031DB62C5808323C0318BC2CD901D801E1
:1029700020001B2309232200812CCA2C0230B50021
:102980007630B4009D30250098001A08CF392038E1
:102990009A002200200028082200DA000430DB0020
:1029A00088312000F42490317708033C031DD42D96
:1029B0002808A90022001D101D1221008E102200DF
:1029C0008E100C3025009A009B019C011E119E1157
:1029D00001309D002200B408031D322DB508031DEF
:1029E000322DD901D801B501B401F418312D3508C3
:1029F000033C031C312D031D012D34083D3C031CF9
:102A0000312DB40A0319B50A3508F9003408F80065
:102A1000F90CF80CF90CF80CF90C78082500980062
:102A2000F90C790C3039F7001A08CF3977049A007D
:102A300005302200DC00803120000320903122008C
:102A4000D80A0319D90AD908031D2A2D5808323C7F
:102A50000318302DD901D80120001B23092322009F
:102A6000F52CD42D3408083C031D7D2D3508023C7F
:102A7000031D7D2DD901D8010230B5000830B40006
:102A8000F4187C2D3508033C031C7C2D031D4C2DB4
:102A900034083D3C031C7C2DB40A0319B50A3508E3
:102AA000F9003408F800F90CF80CF90CF80CF90CE2
:102AB000780825009800F90C790C3039F7001A08CD
:102AC000CF3977049A0005302200DC0080312000E5
:102AD000032090312200D80A0319D90AD908031D0E
:102AE000752D5808323C03187B2DD901D8012000E0
:102AF0001B2309232200402DD42D3408763C031DCE
:102B0000C82D3508023C031DC82DD901D80102305B
:102B1000B5007630B400F418C72D3508033C031C0B
:102B2000C72D031D972D34083D3C031CC72DB40A47
:102B30000319B50A3508F9003408F800F90CF80C47
:102B4000F90CF80CF90C780825009800F90C790CB0
:102B50003039F7001A08CF3977049A00053022007F
:102B6000DC0080312000032090312200D80A0319B4
:102B7000D90AD908031DC02D5808323C0318C62DA8
:102B8000D901D80120001B23092322008B2DD42D2D
:102B90000330B5003E30B400CF30250098001A084D
:102BA000CF3920389A00220020000800751CE62D3D
:102BB00027082200DA000230DB0088312000F424EC
:102BC0009031F708031DE62D751084230800F31CCF
:102BD0004B2EF5184B2E8031462490317A08210077
:102BE000CF007908CE007808CD007708CC004B08DC
:102BF0002200DD0021004A082200DC0021004908F3
:102C00002200DB00210048082200DA0021004F08E2
:102C10002200E10021004E082200E00021004D08C2
:102C20002200DF0021004C082200DE00803120005D
:102C30009E2490317A082100D3007908D2007808C8
:102C4000D1007708D0003F085302031C4C2E031D0F
:102C5000392E3E085202031C4C2E031D392E3D080E
:102C60005102031C4C2E031D392E50083C02031840
:102C70004C2E731D4C2E80312000D22190316430B7
:102C80002200DC008031200003209031F31070140A
:102C9000F117F2157217210020000800F31DB22E63
:102CA0007519B22E8031462490317A082100DB005C
:102CB0007908DA007808D9007708D8005708220088
:102CC000DD00210056082200DC002100550822000A
:102CD000DB00210054082200DA0021005B082200FA
:102CE000E10021005A082200E000210059082200DA
:102CF000DF00210058082200DE00803120009E24E1
:102D000090317A082100DF007908DE007808DD00C4
:102D10007708DC0043085F02031CB32E031DA02EBE
:102D200042085E02031CB32E031DA02E41085D0263
:102D3000031CB32E031DA02E5C0840020318B32E03
:102D4000731EB32E80312000222590316430220082
:102D5000DC008031200003209031F311F014721454
:102D60007216F217210020000800F31E1F2FF5191C
:102D70001F2F8031462490317A082100E70079081E
:102D8000E6007808E5007708E40063082200DD002B
:102D9000210062082200DC00210061082200DB0023
:102DA000210060082200DA00210067082200E1000B
:102DB000210066082200E000210065082200DF00F3
:102DC000210064082200DE00803120009E24903122
:102DD0007A082100EB007908EA007808E900770812
:102DE000E80047086B02031C202F031D072F46082D
:102DF0006A02031C202F031D072F45086902031CCC
:102E0000202F031D072F680844020318202F731F6B
:102E1000202F803120009726903164302200DC0082
:102E20008031200003209031F3127015F214F21655
:102E3000731488311B25903188313D259031210054
:102E40002000080098310020903198311D249031E5
:102E5000A03100209031842398310926903113202D
:102E6000DB203321EA21532288311B259031883120
:0E2E70003D259031883189259031A031342DD7
:103000007018012CF518012C2E082200DA0003306C
:10301000DB0088312000F4249831F708031DE928EB
:10302000F518E9282430F80021001D0883397804B8
:103030009D0014302200DC008031200003209831F4
:10304000AE012E08B0008031DF239831013022001C
:10305000DB00F430DA00803120006C2398318031BD
:10306000462498317A082100CB007908CA007808F4
:10307000C9007708C800F314731580312000462476
:1030800098317A08E3007908E2007808E1007708CF
:10309000E0002200D701D601F113F11BE828F51852
:1030A000E828D60A0319D70AD708031D5B28560853
:1030B000053C03186828D701D60190312000002074
:1030C00098319031092398319031D62598312200DA
:1030D00080312000462498317A08E7007908E6001C
:1030E0007808E5007708E40063082200DD0020008E
:1030F00062082200DC00200061082200DB002000C2
:1031000060082200DA00200067082200E1002000A9
:1031100066082200E000200065082200DF00200091
:1031200064082200DE00803120009E2498317A0855
:10313000EB007908EA007808E9007708E8008031B8
:10314000DF2398312200DB013C30DA00803120009F
:103150006C239831BF08031DB1283E08283C031892
:10316000E328F518E32821006F0820006B02031CF8
:10317000E328031DD32821006E0820006A02031CE7
:10318000E328031DD32821006D0820006902031CD9
:10319000E328031DD328680821006C02031CD228F1
:1031A0002000E3282000F518E3288031D22198314F
:1031B00064302200DC008031200003209831F117B8
:1031C000F3107311AF019031E725983122004D289B
:1031D00020002E082200DA000330DB0088312000B6
:1031E000F4249831770BCD29F518CD292C30F8002F
:1031F00021001D08833978049D0014302200DC0072
:1032000080312000032098312E08B00080316B21DE
:10321000983101302200DB00F430DA0080312000E8
:103220006C2398318031462498317A082100CB00F4
:103230007908CA007808C9007708C800F314731524
:1032400080312000462498317A08E3007908E200B2
:103250007808E1007708E0002200D701D601F113D9
:10326000F11BCC29F518CC29D60A0319D70AD7089F
:10327000031D3E295608053C03184B29D701D601EA
:1032800090312000002098319031092398319031FD
:10329000D6259831220080312000462498317A08C2
:1032A000E7007908E6007808E5007708E40063089D
:1032B0002200DD00200062082200DC0020006108FE
:1032C0002200DB00200060082200DA0020006708EE
:1032D0002200E100200066082200E00020006508CE
:1032E0002200DF00200064082200DE008031200080
:1032F0009E2498317A08EB007908EA007808E90002
:103300007708E80080316B2198312200DB013C30E6
:10331000DA00803120006C239831BF08031D942906
:103320003E08283C0318C729F518C72921006F0853
:1033300020006B02031CC729031DB62921006E085B
:1033400020006A02031CC729031DB62921006D084D
:1033500020006902031CC729031DB6296808210043
:103360006C02031CB5292000C7292000F518C729C5
:103370008031D221983164302200DC00803120007D
:1033800003209831F117F31073110130AF00903121
:10339000E72598312200302920002E082200DA008B
:1033A0000330DB0088312000F42498317708023C98
:1033B000031D002CF518002C2E08B0002F08220049
:1033C000DA000330DB0088312000F4249831F7085C
:1033D000031D002BF518002B2430F80021001D08D8
:1033E000833978049D0014302200DC0080312000F5
:1033F000032098318031DF23983101302200DB0037
:103400002C30DA00803120006C2398318031D221B9
:10341000983164302200DC00803120000320983194
:10342000BF08031D1C2A3E080E3C031C1C2AF5186D
:103430001C2A70147217F215BF08031D232A3E08B8
:103440000F3C0318282AF518282A70107213F2115D
:103450002C30F80021001D08833978049D001430B9
:103460002200DC0080312000032098317018002BEE
:10347000F518002B80316B21983101302200DB00E0
:10348000F430DA00803120006C23983180314624FA
:1034900098317A08E3007908E2007808E1007708BB
:1034A000E0002200D701D601F113F11BFF2AF51825
:1034B000FF2A803120006B2198312200DB013C3053
:1034C000DA00803120006C2398312200D60A0319DB
:1034D000D70AD708031D702A5608053C03187D2A11
:1034E000D701D60190312000002098319031092376
:1034F00098319031D6259831220080312000462421
:1035000098317A08E7007908E6007808E50077083E
:10351000E40063082200DD00200062082200DC00D5
:10352000200061082200DB00200060082200DA0091
:10353000200067082200E100200066082200E00069
:10354000200065082200DF00200064082200DE0061
:10355000803120009E2498317A08EB007908EA0037
:103560007808E9007708E800B0306C022200DA0041
:10357000043020006D3B2200DB00003020006E3B59
:103580002200DC00003020006F3B2200DD005A08E2
:10359000F7005B08F8005C08F9005D08FA005D08B8
:1035A00020006B02031CFD2A031DEE2A22005C088A
:1035B00020006A02031CFD2A031DEE2A22005B087C
:1035C00020006902031CFD2A031DEE2A6808220060
:1035D0005A02031CED2A2000FD2A2000F518FD2ABE
:1035E0008031D221983164302200DC00803120000B
:1035F00003209831F1170230AF002200552A200035
:103600002F082200DA000330DB0088312000F42488
:103610009831770B002CF518002C2C30F800210085
:103620001D08833978049D0014302200DC008031AD
:1036300020000320983180316B2198310130220025
:10364000DB002C30DA00803120006C23983180318F
:10365000D221983164302200DC0080312000032028
:103660009831BF08031D402B3E080E3C031C402B25
:10367000F518402B8031D221983170147217F21551
:10368000BF08031D472B3E080F3C03184C2BF518B1
:103690004C2B70107213F2112430F80021001D0819
:1036A000833978049D0014302200DC008031200032
:1036B000032098317018002CF518002C8031DF237E
:1036C000983101302200DB00F430DA008031200034
:1036D0006C2398318031462498317A08E3007908C8
:1036E000E2007808E1007708E0002200D701D60167
:1036F000F113F11BFF2BF518FF2B80312000DF2386
:1037000098312200DB013C30DA00803120006C234C
:1037100098312200D60A0319D70AD708031D942B23
:103720005608053C0318A12BD701D6019031200083
:10373000002098319031092398319031D625983165
:10374000220080312000462498317A08E700790869
:10375000E6007808E5007708E40063082200DD0051
:10376000200062082200DC00200061082200DB004B
:10377000200060082200DA00200067082200E10033
:10378000200066082200E000200065082200DF001B
:10379000200064082200DE00803120009E24983141
:1037A0007A08EB007908EA007808E9007708E80071
:1037B0006F086B02031CFD2B031DEE2B6E086A02C3
:1037C000031CFD2B031DEE2B6D086902031CFD2B52
:1037D000031DEE2B68086C020318FD2BF518FD2B5A
:1037E0008031D221983164302200DC008031200009
:1037F00003209831F1170230AF002200792B20000E
:103800001C2CDF302200DD00FF30DC008031200086
:1038100056209831F7302200DD00FF30DC00803187
:10382000200056209831EF302200DD00FF30DC0010
:1038300080312000562098310800F018F62D7519B7
:10384000F62D32082200DA000230DB008831200039
:10385000F4249831F708031D0C2D75190C2D243014
:10386000F80021001D08833978049D0014302200DF
:10387000DC008031200003209831B2013208B3000F
:103880008031C925983101302200DB00F430DA00A4
:1038900080312000542598318031462498317A08AF
:1038A0002100D7007908D6007808D5007708D40021
:1038B000F315731680312000462498317A082100D0
:1038C000A3007908A2007808A1007708A0002200D0
:1038D000D701D601721072180B2D75190B2DD60A4F
:1038E0000319D70AD708031D792C5608053C03187D
:1038F000862CD701D60190312000002098319031DC
:10390000092398319031D62598312200803120004A
:10391000462498317A082100A7007908A600780883
:10392000A5007708A40023082200DD00210022085A
:103930002200DC00210021082200DB0021002008F9
:103940002200DA00210027082200E10021002608D9
:103950002200E000210025082200DF0021002408C9
:103960002200DE00803120009E2498317A08210058
:10397000AB007908AA007808A9007708A800803170
:103980002000C92598312200DB013C30DA0080316B
:10399000200054259831C108031DD22C4008283C32
:1039A0000318042D7519042D2200230821002B0271
:1039B000031C052D031DF42C2200220821002A02DD
:1039C000031C052D031DF42C2200210821002902CF
:1039D000031C052D031DF42C280822002002031CC3
:1039E000F32C2100052D21007519052D80312000B3
:1039F0002225983164302200DC0080312000032031
:103A000098317214F31173122100903120004E2668
:103A1000983122006B2C200032082200DA0002309C
:103A2000DB0088312000F4249831770BF52D7519CF
:103A3000F52D2C30F80021001D08833978049D00F5
:103A400014302200DC00803120000320983132083D
:103A5000B3008031BB24983101302200DB00F43008
:103A6000DA00803120005425983180314624983185
:103A70007A082100D7007908D6007808D5007708A1
:103A8000D400F315731680312000462498317A084B
:103A90002100A3007908A2007808A1007708A000FF
:103AA0002200D701D60172107218F42D7519F42D69
:103AB000D60A0319D70AD708031D622D5608053CFC
:103AC00003186F2DD701D6019031200000209831C6
:103AD0009031092398319031D625983122008031D8
:103AE0002000462498317A082100A7007908A60012
:103AF0007808A5007708A40023082200DD00210033
:103B000022082200DC00210021082200DB00210025
:103B100020082200DA00210027082200E10021000D
:103B200026082200E000210025082200DF002100F5
:103B300024082200DE00803120009E2498317A087B
:103B40002100AB007908AA007808A9007708A8002E
:103B500080312000BB2498312200DB013C30DA00A8
:103B60008031200054259831C108031DBB2D400829
:103B7000283C0318ED2D7519ED2D22002308210096
:103B80002B02031CEE2D031DDD2D22002208210037
:103B90002A02031CEE2D031DDD2D22002108210029
:103BA0002902031CEE2D031DDD2D28082200200212
:103BB000031CDC2D2100EE2D21007519EE2D803126
:103BC00020002225983164302200DC008031200062
:103BD000032098317214F3117312210090312000E8
:103BE0004E2698312200542D2000082EFD30220050
:103BF000DD00FF30DC008031200056209831FB30A2
:103C00002200DD00FF30DC0080312000562098319A
:103C100008002B082200DA000330DB008831200086
:103C2000F4249831F708031D202EAB012B08AC00BB
:103C30002200B701B60125009101F0309305200064
:103C40002B082200DA000330DB0088312000F42446
:103C50009831770B9A2E2B08AC0021000E11220010
:103C60000E110C3025009300940195011E109E103A
:103C7000013096002200B608031D8F2EB708031DE1
:103C80008F2ED901D801B701B6013708023C031CB9
:103C9000832E031D4F2E36086C3C031C832E3708E1
:103CA000F9003608F800F90CF80CF90CF80CF90CCE
:103CB000780825009100F90C790C3039F7001308C9
:103CC000CF397704930005302200DC0080312000DA
:103CD000032098312200D80A0319D90AD908031DF4
:103CE000752E5808323C03187F2ED901D801903127
:103CF0002000002098319031092398312200B60A23
:103D00000319B70A452E0230B7006C30B6009B305D
:103D1000250091001308CF399300992E220002301C
:103D2000B7006C30B6009B30250091001308CF39E6
:103D3000930020002B082200DA000330DB008831DA
:103D40002000F42498317708023C031D612F2B08D2
:103D5000AC0021000E1122000E110C302500930042
:103D6000940195011E109E10013096002200B608A5
:103D7000031D052FB708031D052FD901D801B70171
:103D8000B6013708033C031CF92E3708F900360842
:103D9000F800F90CF80CF90CF80CF90C780825006F
:103DA0009100F90C790C3039F7001308CF397704FA
:103DB000930005302200DC00803120000320983180
:103DC0002200D80A0319D90AD908031DEB2E580876
:103DD000323C0318F52ED901D80190312000002083
:103DE00098319031092398312200B60A0319B70A95
:103DF000C12E0330B700FF30B60025009100130834
:103E0000CF3930389300612F220036086C3C031DF7
:103E1000572F3708023C031D572FD901D801023014
:103E2000B7006C30B6003708033C031C4B2F370833
:103E3000F9003608F800F90CF80CF90CF80CF90C3C
:103E4000780825009100F90C790C3039F700130837
:103E5000CF397704930005302200DC008031200048
:103E6000032098312200D80A0319D90AD908031D62
:103E70003D2F5808323C0318472FD901D801903103
:103E80002000002098319031092398312200B60A91
:103E90000319B70A132F0330B700FF30B60025000F
:103EA00091001308CF3930389300612F220003307E
:103EB000B700FF30B600250091001308CF39303825
:063EC00093002000080041
:104000007019D92BF519D92B35082200DA000330A5
:10401000DB0088312000F424A031F708031DF028CC
:10402000F519F0282C30F80021001D088339780498
:104030009D0014302200DC00803120000320A031DC
:10404000B5013508B70080313C27A031013022008E
:10405000DB00F430DA0080312000C926A031F316ED
:10406000731780314624A0317A082100E3007908D3
:10407000E2007808E1007708E00080312000462463
:10408000A0317A082100AF007908AE007808AD00B1
:104090007708AC002200D701D601F210F218EF2801
:1040A000F519EF28D60A0319D70AD708031D5C288B
:1040B0005608053C03186928D701D6019031200025
:1040C0000020A03190310923A0319031D625A031B4
:1040D0002200803120004624A0317A082100B3005C
:1040E0007908B2007808B1007708B0002F082200E4
:1040F000DD0021002E082200DC0021002D08220016
:10410000DB0021002C082200DA0021003308220005
:10411000E100210032082200E000210031082200E5
:10412000DF00210030082200DE00803120009E24C4
:10413000A0317A082100B7007908B6007808B500E8
:104140007708B400803120003C27A0312200DB0139
:104150003C30DA0080312000C926A031C308031D9D
:10416000B5284208283C0318E828F519E828220059
:10417000270821003702031CE928031DD728220045
:10418000260821003602031CE928031DD728220037
:10419000250821003502031CE928031DD72834080F
:1041A00022002402031CD6282100E9282100F51949
:1041B000E928803120009726A03164302200DC00FD
:1041C000803120000320A031F214F3127313B601E2
:1041D000210090312000B526A03122004E28200079
:1041E00035082200DA000330DB0088312000F42497
:1041F000A031770BEB2AF519EB2A3508B700360802
:104200002200DA000330DB0088312000F424A031E2
:10421000F708031DF429F519F4292C30F8002100C2
:104220001D08833978049D0014302200DC008031A1
:1042300020000320A03180313C27A0310130220032
:10424000DB002C30DA0080312000C926A03180311B
:104250009726A03164302200DC008031200003204A
:10426000A031C308031D3D2942080E3C031C3D2913
:10427000F5193D2970157314F216C308031D44295E
:1042800042080F3C03184929F51949297011731088
:10429000F2127019F429F519F42980313026A03171
:1042A00001302200DB00F430DA0080312000C92622
:1042B000A03180314624A0317A082100AF0079086E
:1042C000AE007808AD007708AC002200D701D60117
:1042D000F210F218F329F519F32980312000302665
:1042E000A0312200DB013C30DA0080312000C926F9
:1042F000A0312200D60A0319D70AD708031D842942
:104300005608053C03189129D701D60190312000A9
:104310000020A03190310923A0319031D625A03161
:104320002200803120004624A0317A082100B30009
:104330007908B2007808B1007708B0002F08220091
:10434000DD0021002E082200DC0021002D082200C3
:10435000DB0021002C082200DA00210033082200B3
:10436000E100210032082200E00021003108220093
:10437000DF00210030082200DE00803120009E2472
:10438000A0317A082100B7007908B6007808B50096
:104390007708B4003B083702031CF129031DE0290C
:1043A0003A083602031CF129031DE02939083502B9
:1043B000031CF129031DE029340838020318F129F0
:1043C000F519F129803120009726A03164302200B0
:1043D000DC00803120000320A031F2140230B6004E
:1043E000210022006929200036082200DA0003306B
:1043F000DB0088312000F424A031770BEB2AF5197B
:10440000EB2A2C30F80021001D08833978049D0028
:1044100014302200DC00803120000320A0318031E4
:104420003026A03101302200DB002C30DA00803150
:104430002000C926A03180319726A03164302200A7
:10444000DC00803120000320A031C308031D342A82
:1044500042080E3C031C342AF519342A8031972671
:10446000A03170157314F216C308031D3B2A4208CD
:104470000F3C0318402AF519402A70117310F212EC
:104480007019EB2AF519EB2A80313C27A031013055
:104490002200DB00F430DA0080312000C926A03190
:1044A00080314624A0317A082100AF007908AE009F
:1044B0007808AD007708AC002200D701D601F210D1
:1044C000F218EA2AF519EA2A803120003C27A031A7
:1044D0002200DB013C30DA0080312000C926A03107
:1044E0002200D60A0319D70AD708031D7B2A5608CB
:1044F000053C0318882AD701D601903120000020FE
:10450000A03190310923A0319031D625A03122006D
:10451000803120004624A0317A082100B3007908B8
:10452000B2007808B1007708B0002F082200DD0043
:1045300021002E082200DC0021002D082200DB00D3
:1045400021002C082200DA00210033082200E100BB
:10455000210032082200E000210031082200DF00A3
:10456000210030082200DE00803120009E24A0318E
:104570007A082100B7007908B6007808B5007708F6
:10458000B4003B083702031CE82A031DD72A3A0867
:104590003602031CE82A031DD72A39083502031CFA
:1045A000E82A031DD72A340838020318E82AF51927
:1045B000E82A803120009726A03164302200DC00F8
:1045C000803120000320A031F2140230B600210017
:1045D0002200602A200035082200DA000330DB00C8
:1045E00088312000F424A0317708023C031DD82B29
:1045F000F519D82B2C30F80021001D0883397804D8
:104600009D0014302200DC00803120000320A03106
:104610003508B70080313026A03101302200DB00A0
:10462000F430DA0080312000C926A031F316731768
:1046300080314624A0317A082100E3007908E200A5
:104640007808E1007708E000803120004624A0319E
:104650007A082100AF007908AE007808AD0077082D
:10466000AC002200D701D601F210F218D72BF519B1
:10467000D72BD60A0319D70AD708031D432B560890
:10468000053C0318502BD701D601903120000020A3
:10469000A03190310923A0319031D625A0312200DC
:1046A000803120004624A0317A082100B300790827
:1046B000B2007808B1007708B0002F082200DD00B2
:1046C00021002E082200DC0021002D082200DB0042
:1046D00021002C082200DA00210033082200E1002A
:1046E000210032082200E000210031082200DF0012
:1046F000210030082200DE00803120009E24A031FD
:104700007A082100B7007908B6007808B500770864
:10471000B400803120003026A0312200DB013C3083
:10472000DA0080312000C926A031C308031D9C2B6C
:104730004208283C0318D02BF519D02B220027085B
:1047400021003702031CD12B031DBE2B220026089B
:1047500021003602031CD12B031DBE2B220025088D
:1047600021003502031CD12B031DBE2B340822006F
:104770002402031CBD2B2100D12B2100F519D12BC4
:10478000803120009726A03164302200DC00803187
:1047900020000320A031F214F31273130130B6008D
:1047A000210090312000B526A0312200352B2000B9
:1047B000F42BFE302200DD00FF30DC0080312000D1
:1047C0005620A031BF302200DD00FF30DC008031F8
:1047D00020005620A0317F302200DD00FF30DC00B9
:1047E000803120005620A03108006A302100990055
:1047F0002000A301A201A101A00122009D123530D9
:104800002000980099019601970196011110A401CA
:10481000A601A501FF30A700A800A900AA00AB00CF
:10482000AC00AD00AE00AF00B000B100B200B3000C
:10483000B400B500B600B700B8000130B9000230CE
:10484000BA000330BB00BD01BC01BF01BE01C10104
:10485000C001C301C201C701C601C501C401CB012A
:10486000CA01C901C801CF01CE01CD01CC01D301DC
:10487000D201D101D001D501D401D701D601D9018E
:10488000D801DB01DA01DF01DE01DD01DC01E3013A
:10489000E201E101E001E701E601E501E401EB01EC
:1048A000EA01E901E801EF01EE01ED01EC0121006F
:1048B000A301A201A101A001A701A601A501A401D4
:1048C000AB01AA01A901A801AF01AE01AD01AC0184
:1048D000B301B201B101B001B701B601B501B40134
:1048E000BB01BA01B901B801BF01BE01BD01BC01E4
:1048F000C301C201C101C001C701C601C501C40194
:10490000CB01CA01C901C801CF01CE01CD01CC0143
:10491000D301D201D101D001D701D601D501D401F3
:10492000DB01DA01D901D801DF01DE01DD01DC01A3
:10493000E301E201E101E001E701E601E501E40153
:10494000EB01EA01E901E801EF01EE01ED01EC0103
:104950002200A301A201A101A001A701A601A501B6
:10496000A401AB01AA01A901A801AF01AE01AD01EB
:10497000AC01B301B201B101B001B501B401B7019D
:10498000B601B901B801BB01BA01BD01BC01C10149
:10499000C001BF01BE01C501C401C301C201C901FB
:1049A000C801C701C601CD01CC01CB01CA01D101AB
:1049B000D001CF01CE01D501D401D301D201D7015D
:1049C000D601D901D8017010F0107011F0117012D9
:1049D000F0127013F0137110F1107111F1117112C6
:1049E000F1127113F1137210F2107215F2117212AA
:1049F000F2127213F2137310F3107311F311731296
:104A0000F3127313F3137410F4107411F41174127D
:104A1000F4127413F4137510F5107511F511751265
:104A2000F51275132F0091019201980199019A01D5
:104A300023008C018D018F019001220092019101D0
:104A400094019301803120006828A031883100282A
:104A5000A0318831382BA0318031A32FA031803193
:104A6000C82FA0319031222FA03188319F25A0314D
:104A70008831EE25A03188311826A03188314226B0
:104A8000A03188311A27A0318831AA27A03190316E
:0E4A90000923A031A8310028A031352D630084
:1050000080311622A831721F9829F518982924306A
:10501000F80021001D08833978049D001430220017
:10502000DC00803120000320A8318031DF23A8314B
:1050300001302200DB00F430DA00803120006C23E4
:10504000A83190310020A83190310923A831803156
:10505000D221A83164302200DC00803120000320FE
:10506000A831BF08031D38283E08283C031898299A
:10507000F51898298031D221A83170107213741D4F
:1050800068292C30F80021001D08833978049D0020
:1050900014302200DC00803120000320A831803150
:1050A0006B21A83101302200DB00F430DA008031BE
:1050B00020006C23A8312200D701D601F412F41A83
:1050C0009E28F5189E28D60A0319D70AD708031D6B
:1050D0006D285608053C03187728D701D601903172
:1050E00020000020A83190310923A831220080310E
:1050F00020006B21A8312200DB013C30DA00803136
:1051000020006C23A831BF08031D8A283E08283CD4
:1051100003189C28F5189C287010F113F0117213D5
:105120007411F4168031D221A83164302200DC00E1
:10513000803120000320A83122005F282430F800AD
:1051400021001D08833978049D0014302200DC0002
:10515000803120000320A8318031DF23A8310130C5
:105160002200DB00F430DA00803120006C23A8310B
:1051700080314624A8317A08E3007908E2007808F3
:10518000E1007708E0002200D701D601F412F41AFA
:105190000E29F5180E2980312000DF23A8312200C6
:1051A000DB013C30DA00803120006C23A831220082
:1051B000D60A0319D70AD708031DE2285608053C6A
:1051C0000318EC28D701D601903120000020A83127
:1051D00090310923A8312200803120004624A831D3
:1051E0007A08E7007908E6007808E5007708E40027
:1051F000BF08031DFF283E08283C03180C29F5189A
:105200000C29F4168031D221A83164302200DC0050
:10521000803120000320A8312200C7287018692996
:10522000F5186929200063082200DD0020006208CB
:105230002200DC00200061082200DB002000600862
:105240002200DA00200067082200E1002000660842
:105250002200E000200065082200DF002000640832
:105260002200DE00803120009E24A8317A08EB0065
:105270007908EA007808E9007708E8006B0821005F
:10528000EF0020006A082100EE00200069082100DC
:10529000ED00200068082100EC0003102000680DDC
:1052A0002100BC002000690D2100BD0020006A0D16
:1052B0002100BE0020006B0D2100BF000310200064
:1052C0006B0CEF006A0CEE00690CED00680CEC0052
:1052D00022002000AF01B10198310020A831270839
:1052E0002200DA000230DB0088312000F424A831EB
:1052F000770B952920302200DD00DC018031200071
:105300000422A831F7302200DD00FF30DC008031BC
:1053100020005620A831EF302200DD00FF30DC00F5
:10532000803120005620A831982990313321A831AE
:10533000F21F192B7519192B2C30F80021001D08AC
:10534000833978049D0014302200DC008031200075
:105350000320A8318031BB24A83101302200DB00BA
:10536000F430DA00803120005425A831903100203B
:10537000A83190310923A83180312225A831643029
:105380002200DC00803120000320A831C108031D69
:10539000CD294008283C0318192B7519192B803189
:1053A0002225A831F010F213F41DF42A7519F42AFD
:1053B0002C30F80021001D08833978049D0014303A
:1053C0002200DC00803120000320A8318031BB2482
:1053D000A83101302200DB00F430DA0080312000F7
:1053E0005425A8312200D701D6017413741B352A25
:1053F0007519352AD60A0319D70AD708031D042AB6
:105400005608053C03180E2AD701D601903120001A
:105410000020A83190310923A831220080312000DA
:10542000BB24A8312200DB013C30DA0080312000AF
:105430005425A831C108031D212A4008283C03181F
:10544000332A7519332AF01072107012F213F41106
:10545000741780312225A83164302200DC008031AD
:1054600020000320A8312200F6292430F800210072
:105470001D08833978049D0014302200DC0080313F
:1054800020000320A8318031C925A8310130220035
:10549000DB00F430DA00803120005425A83180315F
:1054A0004624A8317A082100A3007908A2007808D0
:1054B000A1007708A0002200D701D6017413741B45
:1054C000A82A7519A82A80312000C925A8312200F0
:1054D000DB013C30DA00803120005425A831220065
:1054E000D60A0319D70AD708031D7A2A5608053C9D
:1054F0000318842AD701D601903120000020A8315A
:1055000090310923A8312200803120004624A8319F
:105510007A082100A7007908A6007808A500770876
:10552000A4002000C108031D992A4008283C031844
:10553000A62A7519A62A741780312225A83164304D
:105540002200DC00803120000320A83122005F2AE5
:10555000F018F32A7519F32A210023082200DD0030
:10556000210022082200DC00210021082200DB00AB
:10557000210020082200DA00210027082200E10093
:10558000210026082200E000210025082200DF007B
:10559000210024082200DE00803120009E24A83152
:1055A0007A082100AB007908AA007808A9007708DA
:1055B000A8002B082200A30021002A082200A20034
:1055C000210029082200A100210028082200A000B3
:1055D00003102100280DC000290DC1002A0DC200B2
:1055E0002B0DC300220020000130B40098311D248F
:1055F000A83127082200DA000230DB0088312000C1
:10560000F424A831770B162B02302200DD00DC01D8
:10561000803120000422A831FB302200DD00FF3061
:10562000DC00803120005620A831192B9031EA216E
:10563000A831731C9D2CF5199D2C2C30F8002100ED
:105640001D08833978049D0014302200DC0080316D
:1056500020000320A83180313C27A83101302200EE
:10566000DB00F430DA0080312000C926A831903107
:105670000020A83190310923A83180319726A83124
:1056800064302200DC00803120000320A831C308F0
:10569000031D4E2B4208283C03189D2CF5199D2C08
:1056A00080319726A83170117310741E6F2CF51974
:1056B0006F2C2C30F80021001D08833978049D00E0
:1056C00014302200DC00803120000320A83180311A
:1056D0003026A83101302200DB00F430DA008031BE
:1056E0002000C926A8312200D701D601F413F41BEB
:1056F000B62BF519B62BD60A0319D70AD708031DFE
:10570000852B5608053C03188F2BD701D601903105
:1057100020000020A83190310923A83122008031D7
:1057200020003026A8312200DB013C30DA00803135
:105730002000C926A831C308031DA22B4208283C1B
:105740000318B42BF519B42B7011F210F01273106A
:105750007412F41780319726A83164302200DC00DF
:10576000803120000320A8312200772B80312000D7
:105770003C27A83101302200DB00F430DA00803110
:105780002000C926A83180314624A8317A0821009A
:10579000AF007908AE007808AD007708AC002200B1
:1057A000D701D601F413F41B1A2CF5191A2CD60ABA
:1057B0000319D70AD708031DE12B5608053C031827
:1057C000EB2BD701D601903120000020A831903179
:1057D0000923A8312200803120004624A8317A080C
:1057E0002100B3007908B2007808B1007708B00052
:1057F000803120003C27A8312200DB013C30DA0058
:1058000080312000C926A831C308031D0B2C420893
:10581000283C0318182CF519182CF41780319726FA
:10582000A83164302200DC00803120000320A83140
:105830002200D32B70196E2CF5196E2C21002F0825
:105840002200DD0021002E082200DC0021002D08AE
:105850002200DB0021002C082200DA00210033089E
:105860002200E100210032082200E000210031087E
:105870002200DF00210030082200DE0080312000FD
:105880009E24A8317A082100B7007908B60078086C
:10589000B5007708B40037082200A70021003608B9
:1058A0002200A600210035082200A50021003408AE
:1058B0002200A40003102100340DC400350DC500E2
:1058C000360DC600370DC7000310370CBB00360C71
:1058D000BA00350CB900340CB80022002000B60123
:1058E000B801A0310020A83127082200DA000230D8
:1058F000DB0088312000F424A831770B9A2C01308A
:105900002200DD00DC01803120000422A831BF30FC
:105910002200DD00FF30DC00803120005620A8315D
:105920007F302200DD00FF30DC0080312000562077
:10593000A8319D2C90315322A83188318925A83176
:10594000290828020319A82CF41090318423A831C7
:105950002C082B020319AF2C98310926A831701896
:10596000BA2CF518BA2C30082E020319BA2C98312B
:105970000020A831F018C52C7519C52C3308320247
:105980000319C52C98311D24A83188311B25A83155
:1059900088313D25A8317019D62CF519D62C370839
:1059A00035020319D62CA0310020A831A0314C2D8E
:020000040001F9
:04000E002439FF1E74
:00000001FF
;PIC16F1939
;CRC=53CE  CREATED="17-Mar-19 13:38"
