:100000008831D22C00002030850047308400000861
:10001000031918280130F800F701F70B0D28F80B29
:100020000C284A30F700F70B13281628800B0A28F3
:10003000080021008C0122008C0121008D0122008A
:100040008D0121008E0122008E0121008F012200EE
:100050008F012100101090101011901122009001BA
:1000600004302000E300FA30E7000320E30B3328DC
:1000700028306500E8306600C1306700003021009C
:100080008F00101090101011901502302000E70022
:100090000320E601E501E401E3016608A10065082B
:1000A000A000640897006308960088316D2DAE01AA
:1000B000AF01A201A301A401A501A601A701A80106
:1000C000FF30A900AA00AB00AC00AD008831702D54
:1000D0005F1B742830082300910095131514130832
:1000E0002000A400A7017628A401A701DF1B812816
:1000F0003208230091009513151413082000A50061
:100100008228A50160188E283308230091009513DA
:10011000151413082000A600A8019028A601A80124
:100120008831732D20302100A400A001A101A2017B
:10013000A30120006A08FA006908F9006808F800BD
:100140006708F7000310771CC1286B082100A0077F
:1001500020006C0803186C0FAE28B1282100A107FD
:1001600020006D0803186D0FB628B9282100A207DA
:1001700020006E0803186E0FBE28C1282100A307B7
:1001800020002100A30CA20CA10CA00CFA0CF90C6D
:10019000F80CF70CA40BCD28CF282000A2282000B3
:1001A0000800111CD828A00A0319A10A1110E72879
:1001B0001708FA001608F70017087A02031DD82856
:1001C0007708111CF028A00A0319A10A11101708BA
:1001D000FA001608F70017087A02031DE7287708C7
:1001E000F7007A08F8002008F9002108FA00080052
:1001F00067086B02D90068086C3BDA0069086D3B40
:10020000DB006A086E3BDC005908F7005A08F8006A
:100210005B08F9005C08FA0008006708111E0E2947
:1002200023009A0020000800911EA929911E16297A
:10023000230019082000AF002F08513C0319DD17D7
:100240002F08523C03195E142F08533C0319DE1487
:100250002F08543C03195E152F08553C0319DE1571
:100260002F08563C03195E162F08573C0319DE165B
:100270002F08583C03195E172F08593C0319DE1745
:100280002F08603C03195F142F08613C0319DF1429
:100290002F08623C03195F152F08633C0319DF1513
:1002A0002F08643C03195F162F08653C0319DF16FD
:1002B0002F08913C031D65295F171430E7000320C8
:1002C0009430E7000D21AF0161152F08923C031D0A
:1002D0007229DF171430E70003209530E7000D2165
:1002E000AF01E1152F08933C031D7F2960141430E2
:1002F000E70003209630E7000D21AF0161162F08BB
:10030000813C031D8D295F131430E70003208430E6
:10031000E7000D21AF01FF30AB002F08823C031D29
:100320009B29DF131430E70003208530E7000D21FF
:10033000AF01FF30AC002F08833C031DA9296010DA
:100340001430E70003208630E7000D21AF01FF30B5
:10035000AD0008006608EA006508E9006408E800E6
:100360006308E700EE01ED010330EC00E830EB003C
:1003700092207A08E6007908E5007808E40077081A
:10038000E300D1207A08D0007908CF007808CE00A9
:100390007708CD00D1200A307707D1000030783DB2
:1003A000D2000030793DD30000307A3DD4005008AF
:1003B000EA004F08E9004E08E8004D08E70054083D
:1003C000EE005308ED005208EC005108EB00F82055
:1003D0007A08D8007908D7007808D6007708D500C1
:1003E00058086602031C2A2A031D062A57086502BC
:1003F000031C2A2A031D062A56086402031C2A2A03
:10040000031D062A6308550203182A2AD1207A08F8
:10041000D4007908D3007808D2007708D1005008BA
:10042000EA004F08E9004E08E8004D08E7005408CC
:10043000EE005308ED005208EC005108EB00F820E4
:100440007A08D8007908D7007808D6007708D50050
:100450001421F02908006408F80163020318332A04
:100460006308F7003F2AF7010830E500E30DF70DB8
:10047000640877020318F700F80DE50B362A080028
:1004800021000E1420000E184F2A5D1C4F2A5D100B
:10049000A20AE601E501E4016430E300AA2121009B
:1004A0000E1420000E185D1421000E1620000E1AE6
:1004B000632ADD1C632ADD10A30AE601E501E401DD
:1004C0006430E300AA2121000E1620000E1ADD146C
:1004D00021008D1520008D19772A5D1D772A5D1169
:1004E000A401E601E501E4016430E300AA21210052
:1004F0008D1520008D195D1521008C1620008C1A99
:100500008C2ADD1D8C2ADD110130A400E601E501F5
:10051000E4016430E300AA2121008C1620008C1A2B
:10052000DD1521008C1520008C19A12A5D1EA12A41
:100530005D120230A400E601E501E4016430E3004D
:10054000AA2121008C1520008C195D1621008E1621
:1005500020008E1AB52ADD1EB52ADD12A50AE60195
:10056000E501E4016430E300AA2121008E16200099
:100570008E1ADD1621008D1620008D1AC92A5D1FE6
:10058000C92A5D13A60AE601E501E4016430E3002F
:10059000AA2121008D1620008D1A5D17220803392B
:1005A000031DDF2A21000F1022000F1021008F10E1
:1005B00022008F1021000F1122000F1120002208AD
:1005C0000339013C031DF12A21000F1022000F14F2
:1005D00021008F1022008F1021000F1122000F1117
:1005E000200022080339023C031D032B21000F10B9
:1005F00022000F1421008F1022008F1421000F11F0
:1006000022000F11200022080339033C031D152B83
:1006100021000F1022000F1421008F1022008F14D0
:1006200021000F1122000F1520002308E3000330E2
:10063000E4002B22F708031D262B21008F11220036
:100640008F1121000F1222000F1220002308E30057
:100650000330E4002B22770B362B21008F11220070
:100660008F1521000F1222000F1220002308E30033
:100670000330E4002B227708023C031D482B2100A5
:100680008F1122008F1521000F1222000F1620005B
:100690002408E3000330E4002B22F708031D5D2B40
:1006A00021000D1122000D1521000C1222000C1248
:1006B00021000C1122000C1120002408E30003305B
:1006C000E4002B22770B712B21000D1122000D115C
:1006D00021000C1222000C1621000C1122000C111A
:1006E00020002408E3000330E4002B227708023CBA
:1006F000031D872B21000D1122000D1121000C126A
:1007000022000C1221000C1122000C1520002508DB
:100710000139031D902B21008F1322008F1320001D
:1007200025080139013C031D9A2B21008F1322005B
:100730008F1720002608E3000330E4002B22F7087F
:10074000031DAF2B21001010220010142100901067
:100750002200901021001011220010112000260804
:10076000E3000330E4002B22770BC32B2100101091
:10077000220010102100901022009014210010116E
:100780002200101120002608E3000330E4002B2291
:100790007708023C031DD82B2100101022001010F6
:1007A0002100901022009014210010112200101539
:1007B000200008006608EA006508E9006408E8000F
:1007C0006308E700EE01ED010330EC00E830EB00D8
:1007D00092207A08E6007908E5007808E4007708B6
:1007E000E300D1207A08D0007908CF007808CE0045
:1007F0007708CD00D1200A307707D1000030783D4E
:10080000D2000030793DD30000307A3DD40050084A
:10081000EA004F08E9004E08E8004D08E7005408D8
:10082000EE005308ED005208EC005108EB00F820F0
:100830007A08D8007908D7007808D6007708D5005C
:1008400058086602031CBA2C031D362C5708650293
:10085000031CBA2C031D362C56086402031CBA2C48
:10086000031D362C630855020318BA2CD1207A08D0
:10087000D4007908D3007808D2007708D100500856
:10088000EA004F08E9004E08E8004D08E700540868
:10089000EE005308ED005208EC005108EB00F82080
:1008A0007A08D8007908D7007808D6007708D500EC
:1008B000911EB92C911E5A2C230019082000AF005C
:1008C0002F0B632C60122F08053C031D6A2C5F1749
:1008D000E014E0122F08063C031D712C5F13E0109A
:1008E000E0122F08083C031D782CDF1760156013F9
:1008F0002F08093C031D7F2CDF13601160132F08A4
:10090000113C031D862C6014E015E0132F08123CE7
:10091000031D8D2C6010E011E0132F08033C031918
:1009200061102F08153C0319E1102F08173C03191B
:10093000E1162F08193C031961172F08203C0319F1
:10094000E1172F08213C031962142F08223C0319D8
:10095000E2142F08233C031962152F08243C0319C5
:10096000E2152F08253C031962162F08263C0319AF
:10097000E216202C08006016601EC62C4022E601FC
:10098000E501E4016430E300DA23BC2CE016E01E4C
:10099000D42C40220230E7000D21E601E501E401FC
:1009A0006430E300DA23C72C6017601FE22C40227A
:1009B0000730E7000D21E601E501E4016430E300C2
:1009C000DA23D52CE017E01FF02C40221030E7008E
:1009D0000D21E601E501E4016430E300DA23E32CB4
:1009E0006114611CFE2C40221330E7000D21E6014A
:1009F000E501E4016430E300DA23F12C0430E70080
:100A00000D218831792DE01C802D0130B5070318A8
:100A1000B60A0319B70A0319B80A3508C43C031DFE
:100A2000282D3608093C031D282DB708031D282D45
:100A3000B808031D282D21000D1122000D152100DD
:100A40000C1222000C1221000C1122000C112000AB
:100A50003508883C031D472D3608133C031D472DE0
:100A6000B708031D472DB808031D472DB801B7016E
:100A7000B601B50121000D1122000D1121000C124B
:100A800022000C1221000C1122000C112000BC01CC
:100A9000BB01BA01B90121008D1520008D197F2DF0
:100AA0000130B9070318BA0A0319BB0A0319BC0AB3
:100AB0003908503C031D7E2D3A08C33C031D7E2D92
:100AC000BB08031D7E2DBC08031D7E2DBC01BB0190
:100AD000BA01B901E01021000D1122000D11210011
:100AE0000C1222000C1221000C1122000C1120000B
:100AF000E601E501E4013230E300DA234B2D032D5A
:100B0000601DE52D0130BD070318BE0A0319BF0A99
:100B10000319C00A3D08C43C031D9D2D3E08093C35
:100B2000031D9D2DBF08031D9D2DC008031D9D2D78
:100B300021008F1322008F1720003D08883C031DE1
:100B4000B42D3E08133C031DB42DBF08031DB42D66
:100B5000C008031DB42DC001BF01BE01BD012100AD
:100B60008F1322008F132000C401C301C201C101F1
:100B700021008E1620008E1AE42D0130C1070318C3
:100B8000C20A0319C30A0319C40A4108503C031DD1
:100B9000E32D4208C33C031DE32DC308031DE32DD1
:100BA000C408031DE32DC401C301C201C1016011CA
:100BB00021008F1322008F132000E601E501E401DC
:100BC0003230E300DA23B82D802DE01D622E013093
:100BD000C5070318C60A0319C70A0319C80A450836
:100BE000C43C031D0A2E4608093C031D0A2EC708F3
:100BF000031D0A2EC808031D0A2E21001010220012
:100C000010142100901022009014210010112200D5
:100C1000101520004508883C031D292E4608133C6A
:100C2000031D292EC708031D292EC808031D292EC0
:100C3000C801C701C601C501210010102200101013
:100C4000210090102200901021001011220010119C
:100C50002000CC01CB01CA01C90121008D16200062
:100C60008D1A612E0130C9070318CA0A0319CB0A6D
:100C70000319CC0A4908503C031D602E4A08C33CA6
:100C8000031D602ECB08031D602ECC08031D602EB3
:100C9000CC01CB01CA01C901E011210010102200D2
:100CA000101021009010220090102100101122003D
:100CB00010112000E601E501E4013230E300DA23FF
:100CC0002D2EE52DE114E11C6F2E1430E7000D21CF
:100CD000E601E501E4013230E300DA23632E8831D6
:100CE0007C2DE601E501E4016430E300DA23E11242
:100CF000E11A842E1630E7000D21E601E501E4013A
:100D00003230E300DA23782EE113E11B912E3130EB
:100D1000E7000D21E601E501E4013230E300DA23CA
:100D2000852E621062189E2E3530E7000D21E601F7
:100D3000E501E4013230E300DA23922E2408E300D7
:100D40000330E4002B22F708031DA82E3830AE0034
:100D50002408E3000330E4002B22770BB12E393056
:100D6000AE002408E3000330E4002B227708023CA5
:100D7000031DBC2E3A30AE00E210E218C92E2E0838
:100D8000E7000D21E601E501E4013230E300DA235A
:100D9000BD2E2708E3000330E4002B22F708031DD3
:100DA000D32E3B30AE002708E3000330E4002B22B3
:100DB000770BDC2E3C30AE002708E3000330E40064
:100DC0002B227708023C031DE72E3B30AE00621158
:100DD0006219F42E2E08E7000D21E601E501E40179
:100DE0003230E300DA23E82E25080139031DFA2EFC
:100DF0003E30AE0025080139013C031D012F3F3074
:100E0000AE00E211E2190E2F2E08E7000D21E601D7
:100E1000E501E4013230E300DA23022F2608E30083
:100E20000330E4002B22F708031D182F4030AE00DA
:100E30002608E3000330E4002B22770B212F4130FA
:100E4000AE002608E3000330E4002B227708023CC2
:100E5000031D2C2F4230AE006212621A392F2E0869
:100E6000E7000D21E601E501E4013230E300DA2379
:100E70002D2F2808E3000330E4002B22F708031D80
:100E8000432F4330AE002808E3000330E4002B2258
:100E9000770B4C2F4430AE002808E3000330E40009
:100EA0002B227708023C031D572F4330AE00E2127D
:100EB000E21A642F2E08E7000D21E601E501E401A6
:100EC0003230E300DA23582F6113611B712F183081
:100ED000E7000D21E601E501E4013230E300DA2309
:100EE000652F88317F2D21000E1420000E18822FCF
:100EF0005D1C822F5D10A20AE601E501E401643069
:100F0000E300AA2121000E1420000E185D14883180
:100F1000852D21000E1620000E1A982FDD1C982F0B
:100F2000DD10A30AE601E501E4016430E300AA2133
:100F300021000E1620000E1ADD148831882D2100A4
:100F40008D1520008D19B22F5D1DB22F5F1BB12FA3
:100F50005D11A401E601E501E4016430E300AA218A
:100F6000B22F611521008D1520008D195D1521000E
:100F70008C1620008C1ACB2FDD1DCB2F5F1BCA2FA8
:100F8000DD110130A400E601E501E4016430E30075
:100F9000AA21CB2F611521008C1620008C1ADD159B
:100FA00021008C1520008C19E42F5D1EE42F5F1B9F
:100FB000E32F5D120230A400E601E501E401643094
:100FC000E300AA21E42F611521008C1520008C1963
:060FD0005D1688318B2D37
:1010000021008E1620008E1A1528DD1E1528DF1BE4
:101010001428DD12A50AE601E501E4016430E300CD
:101020008031AA2188311528E11521008E16200073
:101030008E1ADD1688318D2D21008D1620008D1A17
:1010400031285D1F3128601830285D13A60AE6019B
:10105000E501E4016430E3008031AA2188313128C0
:10106000611621008D1620008D1A5D1788318E2D96
:10107000611D872821000D1122000D1521000C1281
:1010800022000C1621000C1122000C152000E60194
:10109000E501E4012830E3008031AA2188312100F4
:1010A0000D1122000D1121000C1222000C12210042
:1010B0000C1122000C112000E601E501E4011430BE
:1010C000E3008031AA21883121000D1122000D1585
:1010D00021000C1222000C1621000C1122000C150C
:1010E0002000E601E501E4012830E3008031AA2177
:1010F000883121000D1122000D1121000C12220057
:101100000C1221000C1122000C1120006111E11DB4
:10111000B62821008F1322008F172000E601E50179
:10112000E4012830E3008031AA21883121008F13A7
:1011300022008F132000E601E501E4011430E300F2
:101140008031AA21883121008F1322008F172000BF
:10115000E601E501E4012830E3008031AA2188316D
:1011600021008F1322008F132000E111611E052939
:101170002100101022001014210090102200901461
:1011800021001011220010152000E601E501E40104
:101190002830E3008031AA2188312100101022007C
:1011A0001010210090102200901021001011220038
:1011B00010112000E601E501E4011430E300803164
:1011C000AA21883121001010220010142100901053
:1011D0002200901421001011220010152000E601B9
:1011E000E501E4012830E3008031AA2188312100A3
:1011F00010102200101021009010220090102100E9
:101200001011220010112000611229082202031976
:101210009D2922080339031D2E29A2012208A900B5
:10122000DD13DD1B21293130E70080310D218831AC
:10123000E601E501E4013230E3008031AA21883182
:10124000112921000F1022000F1021008F10220001
:101250008F1021000F1122000F11200022080339E6
:10126000013C031D53292208A9005E105E1846297F
:101270003230E70080310D218831E601E501E401DB
:101280003230E3008031AA218831362921000F1045
:1012900022000F1421008F1022008F1021000F1147
:1012A00022000F11200022080339023C031D782977
:1012B0002208A900DE10DE186B293330E7008031E8
:1012C0000D218831E601E501E4013230E30080318F
:1012D000AA2188315B2921000F1022000F14210060
:1012E0008F1022008F1421000F1122000F112000F7
:1012F00022080339033C031D9D292208A9005E1121
:101300005E1990293430E70080310D218831E601E3
:10131000E501E4013230E3008031AA2188318029DF
:1013200021000F1022000F1421008F1022008F14B3
:1013300021000F1122000F1520002A082302031993
:10134000142A2308E3000330E40080312B22883183
:10135000F708031DC829A3012308AA00DE11DE191E
:10136000BF293530E70080310D218831E601E501E4
:10137000E4013230E3008031AA218831AF29210015
:101380008F1122008F1121000F1222000F12200056
:101390002308E3000330E40080312B228831770BEF
:1013A000ED292308AA005E125E1AE4293630E70010
:1013B00080310D218831E601E501E4013230E3009E
:1013C0008031AA218831D42921008F1122008F1564
:1013D00021000F1222000F1220002308E300033027
:1013E000E40080312B2288317708023C031D142A47
:1013F0002308AA00DE12DE1A0B2A3730E7008031FC
:101400000D218831E601E501E4013230E30080314D
:10141000AA218831FB2921008F1122008F1521007C
:101420000F1222000F1620005F1B372B2B082402FF
:101430000319372B5F1B2A2B2408E3000330E40039
:1014400080312B228831F708031D752AA401A701DA
:101450002408AB005E135E1B3B2A3830E700803166
:101460000D218831E601E501E4013230E3008031ED
:10147000AA2188312B2A0B08F7008B133008230090
:101480009100200024082300930095131515553072
:101490009600AA309600951495184C2A15117708D5
:1014A0008B040B08F7008B132000310823009100F8
:1014B000200027082300930095131515553096003A
:1014C000AA30960095149518632A151177088B0495
:1014D00021000D1122000D1521000C1222000C120A
:1014E00021000C1122000C1120002408E30003301D
:1014F000E40080312B228831770BCE2A0130A40002
:10150000A7002408AB00DE13DE1B942A3930E70065
:1015100080310D218831E601E501E4013230E3003C
:101520008031AA218831842A0B08F7008B133008F8
:101530002300910020002408230093009513151523
:1015400055309600AA30960095149518A52A1511C5
:1015500077088B040B08F7008B1320003108230059
:10156000910020002708230093009513151555308E
:101570009600AA30960095149518BC2A1511770884
:101580008B0421000D1122000D1121000C122200EC
:101590000C1621000C1122000C1120002408E3007D
:1015A0000330E40080312B2288317708023C031D90
:1015B000292B0230A400A7002408AB005F105F189D
:1015C000EF2A3A30E70080310D218831E601E5014C
:1015D000E4013230E3008031AA218831DF2A0B0890
:1015E000F7008B133008230091002000240823000B
:1015F00093009513151555309600AA309600951452
:101600009518002B151177088B040B08F7008B1326
:1016100020003108230091002000270823009300B8
:101620009513151555309600AA3096009514951807
:10163000172B151177088B0421000D1122000D11B5
:1016400021000C1222000C1221000C1122000C159A
:101650002000372B21000D1122000D1121000C124A
:1016600022000C1221000C1122000C112000DF1BA3
:10167000AB2B2C0825020319AB2BDF1BA62B25084F
:101680000139031D722BA5012508AC00DF10DF18FE
:10169000572B3E30E70080310D218831E601E5010E
:1016A000E4013230E3008031AA218831472B0B0856
:1016B000F7008B1332082300910020002508230037
:1016C00093009513151555309600AA309600951481
:1016D0009518682B151177088B0421008F132200B1
:1016E0008F13200025080139013C031DA52B250877
:1016F000AC005F115F198A2B3F30E70080310D216C
:101700008831E601E501E4013230E3008031AA21AD
:1017100088317A2B0B08F7008B13320823009100D5
:1017200020002508230093009513151555309600C9
:10173000AA309600951495189B2B151177088B04E9
:1017400021008F1322008F172000AB2B21008F1355
:1017500022008F1320006018D02C2D0826020319B8
:10176000D02C6018C32C2608E3000330E40080313D
:101770002B228831F708031D0C2CA601A80126088E
:10178000AD00DF11DF19D22B4030E70080310D2191
:101790008831E601E501E4013230E3008031AA211D
:1017A0008831C22B0B08F7008B13330823009100FC
:1017B0002000260823009300951315155530960038
:1017C000AA30960095149518E32B151177088B0411
:1017D0000B08F7008B132000340823009100200031
:1017E0002808230093009513151555309600AA304C
:1017F000960095149518FA2B151177088B04210083
:1018000010102200101421009010220090102100CE
:1018100010112200101120002608E3000330E4001C
:1018200080312B228831770B662C0130A6000230E4
:10183000A8002608AD005F125F1A2C2C4130E7008B
:1018400080310D218831E601E501E4013230E30009
:101850008031AA2188311C2C0B08F7008B13330828
:1018600023009100200026082300930095131515EE
:1018700055309600AA309600951495183D2C1511F8
:1018800077088B040B08F7008B1320003408230023
:10189000910020002808230093009513151555305A
:1018A0009600AA30960095149518542C15117708B7
:1018B0008B04210010102200101021009010220033
:1018C0009014210010112200101120002608E300BE
:1018D0000330E40080312B2288317708023C031D5D
:1018E000C22C0230A6000130A8002608AD00DF128D
:1018F000DF1A882C4230E70080310D218831E60163
:10190000E501E4013230E3008031AA218831782CEE
:101910000B08F7008B1333082300910020002608E2
:10192000230093009513151555309600AA309600A4
:1019300095149518992C151177088B040B08F7004E
:101940008B13200034082300910020002808230076
:1019500093009513151555309600AA3096009514EE
:101960009518B02C151177088B0421001010220057
:10197000101021009010220090142100101122005C
:1019800010152000D02C2100101022001010210072
:101990009010220090102100101122001011200040
:1019A00088318F2D6A30210099002000A101A0010B
:1019B00022009D12053020009800990196019701A0
:1019C0009601111023009F1119309B00A6309E0034
:1019D00090309D002000A201A301A401A501A60151
:1019E000A701A801FF30A900AA00AB00AC00AD0020
:1019F000AE01AF010130B0000230B1000330B200DF
:101A00000430B3000530B400B801B701B601B50128
:101A1000BC01BB01BA01B901C001BF01BE01BD01DA
:101A2000C401C301C201C101C801C701C601C5018A
:101A3000CC01CB01CA01C901D001CF01CE01CD013A
:101A4000D401D301D201D101D801D701D601D501EA
:101A5000DC01DB01DA01D9015D10DD105D11DD1162
:101A60005D12DD125D13DD135E10DE105E11DE11FE
:101A70005E12DE125E13DE135F10DF105F11DF11E6
:101A80005F12DF125F13DF136010E0106011E011CE
:101A90006012E0126013E0136110E1106111E111B6
:101AA0006112E1126113E1136210E2106211E2119E
:101AB0006212E2122F0091019201980199019A019C
:101AC00023008C018D018F01900122009201910170
:101AD00094019301803120001928883180315728E2
:101AE00088318031682888318031402288318031C6
:101AF000BB2C88318031032D88318031712E8831A3
:101B00008031142188318031732F88318031892FC1
:101B1000883180319F2F883100281C283828802D5B
:021B2000630060
:020000040001F9
:04000E00A439FF1EF4
:00000001FF
;PIC16F1939
;CRC=6796  CREATED="04-Feb-19 07:41"
