:100000009031E52E000020308500A43084000008E7
:10001000031918280130F800F701F70B0D28F80B29
:100020000C284A30F700F70B13281628800B0A28F3
:10003000080021008C0122008C0121008D0122008A
:100040008D0121008E0122008E0121008F012200EE
:100050008F012100101090101011901122009001BA
:100060000430A000FA30A400200003202200A00BDE
:10007000322820306500C0306600803067000030D4
:1000800021008F00101090101011901502302200E6
:10009000A4002000032021001E109E101E112030FD
:1000A00023008C00003090008D008F0021001E1670
:1000B0009E121E139E171D1402302200A400200061
:1000C00003202200A301A201A101A0012308200016
:1000D000A100220022082000A00022002108200008
:1000E000970022002008200096009031DA2F21008E
:1000F0008E1222008E1621000F1122000F112100F6
:100100008F1122008F1521000E1222000E122000E6
:100110000800220024082000111E8C2823009A00C9
:1001200020000800911EAC29911E94282300190874
:100130002000A2002208313C031DAA28A30114308C
:100140002200A4002000032051302200A40020003F
:100150008920A2012208323C031DBB280130A300E4
:1001600014302200A4002000032052302200A400FA
:1001700020008920A2012208333C031DCC28023034
:10018000A30014302200A4002000032053302200DA
:10019000A40020008920A2012208343C031DDD2890
:1001A0000330A30014302200A400200003205430A8
:1001B0002200A40020008920A2012208353C031D52
:1001C000ED28A40114302200A400200003205530A3
:1001D0002200A40020008920A2012208363C031D31
:1001E000FE280130A40014302200A40020000320C7
:1001F00056302200A40020008920A2012208373CAA
:10020000031D0F290230A40014302200A400200096
:10021000032057302200A40020008920A2012208D8
:10022000383C031D1F29A50114302200A400200022
:10023000032058302200A40020008920A2012208B7
:10024000393C031D30290130A50014302200A400E0
:100250002000032059302200A40020008920A201A0
:1002600022083A3C031D41290230A5001430220027
:10027000A4002000032060302200A4002000892078
:10028000A20122083E3C031D5129A6011430220080
:10029000A4002000032061302200A4002000892057
:1002A000A20122083F3C031D62290130A600143040
:1002B0002200A4002000032062302200A4002000BD
:1002C0008920A2012208403C031D7229A701143095
:1002D0002200A4002000032063302200A40020009C
:1002E0008920A2012208413C031D83290130A70077
:1002F00014302200A4002000032064302200A40057
:1003000020008920A2012208423C031D94290230CA
:10031000A70014302200A400200003206530220032
:10032000A40020008920A2012208943C031972161F
:100330002208953C0319F2162208963C03197217FD
:100340002208843C0319F2142208853C0319721513
:100350002208863C0319F21508001030F80021002D
:100360001D08833978049D002000B901B801AF0150
:100370002F08093C031CD32902302200A4002000CE
:100380000320922021009D149D18C4291C08FA0006
:100390001B082000B6007A08B7003608B8073708EF
:1003A000B93DAF0AB82939082200A1002000380859
:1003B0002200A000A3010A30A200F801F901F70110
:1003C000FA012308031DE72922080319012A103026
:1003D000A4000310A00DA10DF70DFA0D23087A0259
:1003E000031DF42922087702031CFD292208F702C5
:1003F000031CFA032308FA020314F80DF90DA40BE9
:10040000E92979082000B7007808B6000800210023
:100410008E1222008E1221008F1122008F112100D6
:100420000E1222000E122000080021008E1222005F
:100430008E1621000F1122000F1521000E1222002E
:100440000E1621008F1122008F1521008F1022001F
:100450008F1021000F1022000F1020000800210033
:100460008E1222008E1221000F1122000F11210086
:100470000E1222000E1221008F1122008F11210076
:100480008F1022008F1021000F1022000F1020006B
:10049000080021000F1122000F1521008E122200EA
:1004A0008E1221000F1022000F1421008F10220045
:1004B0008F102000080021000F1122000F112100D1
:1004C0000F1022000F1021008F1022008F1020002B
:1004D00008006E14F015EE17EE157017EE14701676
:1004E0006F146E16F0176E15F016EF14EE167114E9
:1004F0007720FA302200A40020000320B101B001CF
:100500003108013C031CAB2A031D8A2A30082B3C0E
:10051000031CAB2A772014302200A4002000032003
:10052000AD21B708031D982A3608283C0318A72ACE
:100530006E10F011EE117013EE130130B1002C307B
:10054000B000072214302200A40020000320B00ACB
:100550000319B10A802A1522FA302200A4002000D3
:100560000320B301B2013308013C031CDE2A031D42
:10057000BD2A32082B3C031CDE2A1522143022002F
:10058000A40020000320AD21B708031DCB2A3608A4
:10059000463C0318DA2AEE1070126E12F0136F1038
:1005A0000130B3002C30B2002F2214302200A400FE
:1005B00020000320B20A0319B30AB32A4922FA30F1
:1005C0002200A40020000320B501B4013508013C3D
:1005D000031C112B031DF02A34082B3C031C112B88
:1005E000492214302200A40020000320AD21B708C6
:1005F000031DFE2A3608283C03180D2B6E11F0123D
:10060000EE127110EF100130B5002C30B4005B22F7
:1006100014302200A40020000320B40A0319B50AF4
:10062000E62A9031DD2F21008E1222008E16210045
:100630000F1122000F1121008F1122008F112100B4
:100640000E1222000E1620000800111C2C2BA00AEE
:100650000319A10A11103B2B1708FA001608F7001E
:1006600017087A02031D2C2B7708111C442BA00AB3
:100670000319A10A11101708FA001608F700170845
:100680007A02031D3B2B7708F7007A08F800200850
:10069000F9002108FA00080021008E1222008E16AF
:1006A00021000F1122000F1521000E1222000E1240
:1006B00021008F1122008F1121008F1022008F1432
:1006C00021000F1022000F142000080021000F113C
:1006D00022000F1521008E1222008E1221000F1011
:1006E00022000F1021008F1022008F14200008001C
:1006F0002200240828022000BA0022002508293BF5
:100700002000BB00220026082A3B2000BC0022005B
:1007100027082B3B2000BD003A08F7003B08F800F3
:100720003C08F9003D08FA0008006E18C32B6E174C
:100730001323FA302200A4002000032025237A0886
:10074000C1007908C0007808BF007708BE006E1F9E
:10075000C32B25237A08C5007908C4007808C30094
:100760007708C2001323AD21B708031DBB2B360841
:10077000283C0318C22B6E13072214302200A40059
:1007800020000320A72BEE18F12B6E174C23FA3014
:100790002200A4002000032025237A08D90079082C
:1007A000D8007808D7007708D6006E1FF12B2523D4
:1007B0007A08DD007908DC007808DB007708DA00C9
:1007C0004C23AD21B708031DE92B3608463C03181E
:1007D000F02B6E132F2214302200A40020000320DF
:1007E000D52B6E19212C6E176623FA302200A40037
:1007F0002000032025237A08ED007908EC00780812
:10080000EB007708EA006E1F212C25237A082100CF
:10081000A3007908A2007808A1007708A0002000B2
:100820006623AD21B708031D192C3608283C031890
:10083000202C6E135B2214302200A4002000032021
:10084000032C6E18842C41082200A70020004008C9
:100850002200A60020003F082200A50020003E083C
:100860002200A400200045082200AB00200044081C
:100870002200AA00200043082200A900200042080C
:100880002200A800200078237A08C9007908C8004F
:100890007808C7007708C60040304602CE000D3009
:1008A000473BCF000330483BD0000030493BD100EC
:1008B0000310460DCA00470DCB00480DCC00490D72
:1008C000CD000310490C2200A3002000480C220098
:1008D000A2002000470C2200A1002000460C2200AC
:1008E000A000E03020022000D20093302200213B03
:1008F0002000D30004302200223B2000D40000302E
:100900002200233B2000D500EE18C42C59082200F9
:10091000A700200058082200A60020005708220047
:10092000A500200056082200A40020005D08220037
:10093000AB0020005C082200AA0020005B08220017
:10094000A90020005A082200A800200078237A0875
:10095000E1007908E0007808DF007708DE00403029
:100960005E02E6000D305F3BE7000330603BE800CD
:100970000030613BE90003105E0DE2005F0DE30013
:10098000600DE400610DE5006E19292D6D0822004F
:10099000A70020006C082200A60020006B0822009F
:1009A000A50020006A082200A400210023082200DC
:1009B000AB00210022082200AA0021002108220009
:1009C000A900210020082200A800200078237A082E
:1009D0002100A7007908A6007808A5007708A400E0
:1009E00040302402AC000D30253BAD000330263BE7
:1009F000AE000030273BAF000310240DA800250DEA
:100A0000A900260DAA00270DAB000310270C220019
:100A1000A3002100260C2200A2002100250C2200A8
:100A2000A1002100240C2200A000F03020022100AF
:100A3000B00049302200213B2100B10002302200E9
:100A4000223B2100B20000302200233B2100B300F2
:100A500020009031E02F20302200B000AC01AD0129
:100A6000AE01AF012708FA002608F9002508F800B2
:100A70002408F7000310771C4B2D2808AC07290821
:100A80000318290FAD072A0803182A0FAE072B08F1
:100A900003182B0FAF07AF0CAE0CAD0CAC0CFA0C5F
:100AA000F90CF80CF70CB00B3A2D20000800911E41
:100AB0009E2E911E592D230019082000A200220805
:100AC000023C0319EF122208073C03196F13220896
:100AD000103C0319EF132208133C0319701022086D
:100AE000043C0319F0102208143C03197011220869
:100AF000163C031D862DF21714302200A40020009E
:100B0000032017302200A400200089202208183C6E
:100B1000031D952D731414302200A400200003201F
:100B200019302200A400200089202208313C031D36
:100B3000A52DA30114302200A400200003202030A2
:100B40002200A40020008920A2012208353C031DB8
:100B5000B52DA40114302200A40020000320213070
:100B60002200A40020008920A2012208383C031D95
:100B7000C52DA50114302200A4002000032022303E
:100B80002200A40020008920A2012208393C031D74
:100B9000D62D0130A50014302200A400200003202F
:100BA00022302200A40020008920A20122083A3C21
:100BB000031DE72D0230A50014302200A400200000
:100BC000032022302200A40020008920A201220854
:100BD0003B3C031DF72DAD0114302200A400200082
:100BE000032023302200A40020008920A201220833
:100BF0003C3C031D082E0130AD0014302200A4003F
:100C00002000032023302200A40020008920A2011C
:100C100022083D3C031D192E0230AD001430220085
:100C2000A4002000032023302200A40020008920FB
:100C3000A20122083E3C031D292EA60114302200E9
:100C4000A4002000032024302200A40020008920DA
:100C5000A20122083F3C031D3A2E0130A6001430A9
:100C60002200A4002000032024302200A400200041
:100C70008920A2012208403C031D4A2EA7011430FE
:100C80002200A4002000032025302200A400200020
:100C90008920A2012208413C031D5B2E0130A700E0
:100CA00014302200A4002000032025302200A400DC
:100CB00020008920A2012208423C031D6C2E023034
:100CC000A70014302200A4002000032025302200B9
:100CD000A40020008920A2012208433C031D7C2E91
:100CE000AE0114302200A400200003202630220090
:100CF000A40020008920A2012208443C031D8D2E5F
:100D00000130AE0014302200A40020000320263061
:100D10002200A40020008920A2012208453C031DD6
:100D20009E2E0230AE0014302200A40020000320CA
:100D300026302200A40020008920A2010800220001
:100D40002308A7002208A6002108A5002008A40067
:100D5000AB01AA010330A900E830A80020002B2530
:100D60007A082200A3007908A2007808A100770879
:100D7000A000200025237A082100B7007908B600DA
:100D80007808B5007708B400200025237A082200EF
:100D9000A7007908A6007808A5007708A4000A3003
:100DA00024072100B80000302200253D2100B900B1
:100DB00000302200263D2100BA0000302200273DED
:100DC0002100BB0037082200A700210036082200BE
:100DD000A600210035082200A500210034082200C9
:100DE000A40021003B082200AB0021003A082200A9
:100DF000AA00210039082200A90021003808220099
:100E0000A800200078237A082100BF007908BE00DE
:100E10007808BD007708BC003F0822002302031CAD
:100E2000652F031D2B2F21003E0822002202031CE8
:100E3000652F031D2B2F21003D0822002102031CDA
:100E4000652F031D2B2F200821003C02031C2A2F95
:100E50002200652F2200200025237A082100BB00F4
:100E60007908BA007808B9007708B8003708220076
:100E7000A700210036082200A60021003508220024
:100E8000A500210034082200A40021003B08220014
:100E9000AB0021003A082200AA00210039082200F4
:100EA000A900210038082200A800200078237A0831
:100EB0002100BF007908BE007808BD007708BC009B
:100EC0002000572521000C2F220020000800EF16DB
:100ED000EF1E782F01302200A4002000892022007C
:100EE000A301A201A1013230A00020009F26682F9B
:100EF0006F176F1F922F6E1C822F05302200A400E7
:100F0000200089206E18892F06302200A4002000BE
:100F100089202200A301A201A1013230A0002000FB
:100F20009F26792FEF17EF1FAC2FEE1C9C2F083058
:100F30002200A40020008920EE18A32F09302200EF
:100F4000A400200089202200A301A201A1013230C7
:100F5000A00020009F26932F7014701CC62F6E1DBA
:100F6000B62F11302200A400200089206E19BD2F59
:100F700012302200A400200089202200A301A20137
:100F8000A1013230A00020009F26AD2FF014F01CEC
:100F9000D72F03302200A400200089202200A301C3
:100FA000A201A1013230A00020009F26C72F70159A
:100FB000701DE32F2200A301A201A1013230A00085
:100FC00020009F26D82F15302200A4002000892061
:100FD0009031E32FA301A401A501A601A701AD0152
:100FE000AE01FF30A800A900AA00AB00AC00903110
:020FF000E62FEA
:10100000F213F21B0728803157258831012873100D
:1010100073180E2880315725883108289031E92F20
:1010200022002308A7002208A6002108A500200806
:10103000A400AB01AA010330A900E830A800803168
:1010400020002B2588317A082200A3007908A2000D
:101050007808A1007708A00080312000252388317E
:101060007A082100B7007908B6007808B50077083B
:10107000B40080312000252388317A082200A7009F
:101080007908A6007808A5007708A4000A3024078C
:101090002100B80000302200253D2100B9000030B9
:1010A0002200263D2100BA0000302200273D210009
:1010B000BB0037082200A700210036082200A60046
:1010C000210035082200A500210034082200A400D8
:1010D00021003B082200AB0021003A082200AA00B0
:1010E000210039082200A900210038082200A800A8
:1010F00080312000782388317A082100BF007908E8
:10110000BE007808BD007708BC003F08220023021B
:10111000031CE428031DA42821003E08220022020B
:10112000031CE428031DA42821003D0822002102FD
:10113000031CE428031DA428200821003C02031CF2
:10114000A3282200E42822008031200025238831B2
:101150007A082100BB007908BA007808B90077083E
:10116000B80037082200A700210036082200A60098
:10117000210035082200A500210034082200A40027
:1011800021003B082200AB0021003A082200AA00FF
:10119000210039082200A900210038082200A800F7
:1011A00080312000782388317A082100BF00790837
:1011B000BE007808BD007708BC0080312000922076
:1011C000883121008528220020000800701F022A93
:1011D0008031132388312200A301A201A101FA303A
:1011E000A000200010208031AD21883180310722FD
:1011F00088312200A301A201A1011430A000200027
:101200001020B708031D08293608283C0318022AB5
:101210006E107013FF30AA00AD01F210F2182029F1
:1012200081302200A40080312000892088312200F2
:10123000A301A201A1013230A000200010200E293C
:101240002200A301A201A1016430A000200010200F
:10125000EE1F022A8031772088312200A301A201EB
:10126000A101FA30A000200010206F116F195F2932
:101270008031772088312200A301A201A10114301E
:10128000A000200010208031AD218831B708031D57
:101290004D293608283C03185E296E10F011EE1116
:1012A0007013EE136F158031072288312200A301DD
:1012B000A201A1011430A0002000102036298031A5
:1012C000132388312200A301A201A101FA30A0005A
:1012D000200010208031252388317A08C100790848
:1012E000C0007808BF007708BE006F116F199D29F4
:1012F0008031132388318031252388317A08C50055
:101300007908C4007808C3007708C2008031AD2195
:101310008831B708031D90293608283C03189C29FA
:101320006F158031072288312200A301A201A1019B
:101330001430A0002000102076296E18022A4108DF
:101340002200A700200040082200A60020003F083D
:101350002200A50020003E082200A400200045082D
:101360002200AB00200044082200AA00200043080D
:101370002200A900200042082200A800803120009D
:10138000782388317A08C9007908C8007808C7002E
:101390007708C60040304602CE000D30473BCF00F4
:1013A0000330483BD0000030493BD1000310460DCC
:1013B000CA00470DCB00480DCC00490DCD000310ED
:1013C000490C2200A3002000480C2200A2002000AB
:1013D000470C2200A1002000460C2200A000E030B3
:1013E00020022000D20093302200213B2000D300B5
:1013F00004302200223B2000D40000302200233B96
:101400002000D500F01FFA2A8031152288312200F1
:10141000A301A201A101FA30A00020001020803118
:10142000AD21883180312F2288312200A301A20111
:10143000A1011430A00020001020B708031D242AA9
:101440003608463C0318FA2AEE10F013FF30AB00C2
:10145000721172193B2A82302200A40080312000D0
:10146000892088312200A301A201A1013230A0000D
:1014700020001020292A2200A301A201A10164302A
:10148000A000200010206F1CFA2A8031152288311C
:101490002200A301A201A101FA30A0002000102027
:1014A000EF11EF197A2A8031152288312200A30129
:1014B000A201A1011430A000200010208031AD2134
:1014C0008831B708031D682A3608463C0318792A74
:1014D000EE1070126E12F0136F10EF1580312F2284
:1014E00088312200A301A201A1011430A000200034
:1014F0001020512A80314C2388312200A301A201FF
:10150000A101FA30A000200010208031252388316D
:101510007A08D9007908D8007808D7007708D6006B
:10152000EF11EF19B82A80314C23883180312523FF
:1015300088317A08DD007908DC007808DB0077085C
:10154000DA008031AD218831B708031DAB2A360897
:10155000463C0318B72AEF1580312F22883122002C
:10156000A301A201A1011430A00020001020912AA3
:10157000EE18FA2A59082200A70020005808220075
:10158000A600200057082200A500200056082200CF
:10159000A40020005D082200AB0020005C082200AF
:1015A000AA0020005B082200A90020005A0822009F
:1015B000A80080312000782388317A08E10079087A
:1015C000E0007808DF007708DE0040305E02E600C9
:1015D0000D305F3BE7000330603BE8000030613BCB
:1015E000E90003105E0DE2005F0DE300600DE40012
:1015F000610DE500711C192C8031662388312200B1
:10160000A301A201A101FA30A00020001020803126
:10161000AD21883180315B2288312200A301A201F3
:10162000A1011430A00020001020B708031D1C2BBE
:101630003608283C0318192C6E117110FF30AC00CD
:10164000AE01F211F219342B83302200A400803154
:101650002000892088312200A301A201A10132309B
:10166000A00020001020222B2200A301A201A10132
:101670006430A00020001020EF1C192C803149227A
:1016800088312200A301A201A101FA30A0002000AC
:1016900010206F126F1A732B80314922883122007B
:1016A000A301A201A1011430A0002000102080316C
:1016B000AD218831B708031D612B3608283C03187B
:1016C000722B6E11F012EE127110EF106F16803146
:1016D0005B2288312200A301A201A1011430A000E5
:1016E000200010204A2B8031662388312200A3017C
:1016F000A201A101FA30A000200010208031252392
:1017000088317A08ED007908EC007808EB0077085A
:10171000EA006F126F1AB32B803166238831803153
:10172000252388317A082100A3007908A2007808CF
:10173000A1007708A00080312000AD218831B708D2
:10174000031DA62B3608283C0318B22B6F168031D8
:101750005B2288312200A301A201A1011430A00064
:10176000200010208A2B6E19192C6D082200A7006A
:1017700020006C082200A60020006B082200A500B3
:1017800020006A082200A400210023082200AB00E8
:10179000210022082200AA00210021082200A9001D
:1017A000210020082200A800803120007823883101
:1017B0007A082100A7007908A6007808A500770814
:1017C000A40040302402AC000D30253BAD000330B6
:1017D000263BAE000030273BAF000310240DA800CD
:1017E000250DA900260DAA00270DAB000310270C1C
:1017F0002200A3002100260C2200A2002100250CBB
:101800002200A1002100240C2200A000F0302002C0
:101810002100B00049302200213B2100B1000230FC
:101820002200223B2100B20000302200233B210095
:10183000B3002000080023080339031D2F2CA30147
:101840002308A80021008D1022008D1021000D1109
:1018500022000D1121000D1022000D102000230880
:101860000339013C031D432C2308A80021008D10DF
:1018700022008D1421000D1122000D1121000D10E8
:1018800022000D10200023080339023C031D572CB1
:101890002308A80021008D1022008D1421000D11B5
:1018A00022000D1521000D1022000D10200023082C
:1018B0000339033C031D6A2C2308A80021008D1066
:1018C00022008D1421000D1122000D1521000D1094
:1018D00022000D142000080022002108F801200237
:1018E0000318752C2008F700812CF7010830A2009E
:1018F000A00DF70D210877020318F700F80DA20BD1
:10190000782C2000080024082200A0000330A10049
:1019100020006C24F708031D992CA4012408A900B9
:1019200021000D1222000D1221008D1122008D11B7
:10193000200024082200A0000330A10020006C2415
:10194000770BAD2C2408A90021000D1222000D16E2
:1019500021008D1122008D11200024082200A000FA
:101960000330A10020006C247708023C031DC22C28
:101970002408A90021000D1222000D1621008D114E
:1019800022008D15200008008031252388317A0837
:101990002100C7007908C6007808C5007708C40090
:1019A00043082200A700210042082200A6002100CF
:1019B00041082200A500210040082200A4002100C7
:1019C00047082200AB00210046082200AA0021009F
:1019D00045082200A900210044082200A800803107
:1019E0002000782388317A082100CB007908CA00CA
:1019F0007808C9007708C80020004D0821004B0274
:101A0000031C412D031D1C2D20004C0821004A02FF
:101A1000031C412D031D1C2D20004B0821004902F1
:101A2000031C412D031D1C2D480820004A02031CE5
:101A30001B2D2100412D2100711D412D80312000E1
:101A4000072288312200A301A201A1011430A000C5
:101A5000200010206E14F01570177212721A402DAB
:101A600091302200A400803120008920883122009A
:101A7000A301A201A1013230A000200010202E2DD0
:101A80002100200008008031252388317A082100B8
:101A9000D3007908D2007808D1007708D0004F0829
:101AA0002200A70021004E082200A60021004D08B8
:101AB0002200A50021004C082200A40021005308A8
:101AC0002200AB00210052082200AA002100510888
:101AD0002200A900210050082200A8008031200027
:101AE000782388317A082100D7007908D600780851
:101AF000D5007708D4002000650821005702031C98
:101B0000C02D031D9B2D2000640821005602031CDC
:101B1000C02D031D9B2D2000630821005502031CCE
:101B2000C02D031D9B2D540820006202031C9A2D1A
:101B30002100C02D2100711EC02D803120002F22D8
:101B400088312200A301A201A1011430A0002000CD
:101B50001020EE147016F017F212F21ABF2D923008
:101B60002200A40080312000892088312200A301B6
:101B7000A201A1013230A00020001020AD2D2100D3
:101B80002000080026080139031D6B2EA601260837
:101B9000AB00EE186B2E80314C2388312200A3015C
:101BA000A201A101C830A00020001020803125230F
:101BB00088317A082100CF007908CE007808CD005E
:101BC0007708CC002200A301A201A1013230A000BD
:101BD00020001020F11571168031252388317A08F4
:101BE000D9007908D8007808D7007708D600701295
:101BF000701A6B2E8031252388317A08DD00790830
:101C0000DC007808DB007708DA0059082200A7001A
:101C1000200058082200A600200057082200A50036
:101C2000200056082200A40020005D082200AB001E
:101C300020005C082200AA0020005B082200A90006
:101C400020005A082200A800803120007823883123
:101C50007A08E1007908E0007808DF007708DE0004
:101C600080314C2388312200A301A201A10114304C
:101C7000A000200010208031AD218831B708031D5D
:101C8000452E3608463C0318692E69086102031C7C
:101C9000692E031D5B2E68086002031C692E031D5C
:101CA0005B2E67085F02031C692E031D5B2E5E0816
:101CB00066020318692E80312F2288312200A30189
:101CC000A201A1011430A000200010207016F11113
:101CD00071124325F82D26080139013C031D142FEC
:101CE0002608AB00EE18142F80311522883122000F
:101CF000A301A201A101C830A00020001020803162
:101D0000252388317A082100CF007908CE00780891
:101D1000CD007708CC002200A301A201A10132303E
:101D2000A00020001020F115711680312523883184
:101D30007A08D9007908D8007808D7007708D60043
:101D40007012701A142F8031252388317A08DD0033
:101D50007908DC007808DB007708DA0059082200EF
:101D6000A700200058082200A600200057082200E3
:101D7000A500200056082200A40020005D082200D3
:101D8000AB0020005C082200AA0020005B082200B3
:101D9000A90020005A082200A800803120007823E2
:101DA00088317A08E1007908E0007808DF007708D8
:101DB000DE008031152288312200A301A201A10199
:101DC0001430A000200010208031AD218831B708E8
:101DD000031DEE2E3608463C0318122F69086102D7
:101DE000031C122F031D042F68086002031C122F0E
:101DF000031D042F67085F02031C122F031D042F0D
:101E00005E0866020318122F80312F2288312200CB
:101E1000A301A201A1011430A0002000102070161F
:101E2000F11171124325A12E08006E19352F2708D4
:101E30002200A0000330A10020006C24F708031D3D
:101E4000232F7210342F7214F11F342FF1138031AD
:101E5000252388317A082100E7007908E600780810
:101E6000E5007708E4002000362F72100800721C8D
:101E70008F2FF11B8E2F8031252388317A08210086
:101E8000EB007908EA007808E9007708E8006708BD
:101E90002200A700210066082200A6002100650894
:101EA0002200A500210064082200A40021006B0884
:101EB0002200AB0021006A082200AA002100690864
:101EC0002200A900210068082200A800803120001B
:101ED000782388317A082100EF007908EE0078082D
:101EE000ED007708EC00EF08031D882F6E081D3CFD
:101EF00003188D2FFF3A031D882F6D08833C0318AC
:101F00008D2FFF3A031D882F6C08803C03188D2FFE
:101F1000F1178D1222008D1621002000942FF11749
:101F200021008D1222008D1220000800E6201B24C3
:101F30008324903100208831C2259031AF2388312D
:101F4000152737279031EC2FE6201527372728084B
:101F50002302031D1B2429082402031D832490311E
:101F6000F22F6E18BA2F2A0825020319BA2F9031C2
:101F700000208831EE18C02F2B082602031DC22531
:101F80006E19C92F2C0827020319C92F9031AF23CE
:061F900088319031F52FAD
:1020000025082200A0000330A100883120006C24A4
:102010009031F708031DBC28A5012508AA006E18F9
:10202000BC288031132390312200A301A201A10119
:10203000C830A00088312000102090318031252345
:1020400090317A082100C3007908C2007808C100E5
:102050007708C0002200A301A201A1013230A00034
:102060008831200010209031F11471158031252322
:1020700090317A08C1007908C0007808BF0077085D
:10208000BE00F011F019BC288031252390317A0868
:10209000C5007908C4007808C3007708C200410869
:1020A0002200A700200040082200A60020003F08D0
:1020B0002200A50020003E082200A40020004508C0
:1020C0002200AB00200044082200AA0020004308A0
:1020D0002200A900200042082200A8008031200030
:1020E000782390317A08C9007908C8007808C700B9
:1020F0007708C6008031132390312200A301A2018A
:10210000A1011430A00088312000102090318031CE
:10211000AD219031B708031D91283608283C0318DB
:10212000B82851084902031CB828031DA7285008E5
:102130004802031CB828031DA7284F084702031CA8
:10214000B828031DA72846084E020318B828803176
:10215000072290312200A301A201A1011430A000A6
:102160008831200010209031F015F1107111AD016F
:102170008831C4249031422825082200A000033071
:10218000A100883120006C249031770B7729250835
:10219000AA006E1877298031772090312200A301A0
:1021A000A201A101C830A000883120001020903188
:1021B0008031252390317A082100C3007908C200BC
:1021C0007808C1007708C0002200A301A201A10184
:1021D0003230A0008831200010209031F1147115A8
:1021E0008031252390317A08C1007908C000780831
:1021F000BF007708BE00F011F01977298031252340
:1022000090317A08C5007908C4007808C3007708BF
:10221000C20041082200A700200040082200A600BA
:1022200020003F082200A50020003E082200A40054
:10223000200045082200AB00200044082200AA002C
:10224000200043082200A900200042082200A80024
:1022500080312000782390317A08C9007908C800BD
:102260007808C7007708C6008031772090312200B7
:10227000A301A201A1011430A00088312000102088
:1022800090318031AD219031B708031D4B293608BC
:10229000283C0318732951084902031C7329031DA4
:1022A000612950084802031C7329031D61294F0846
:1022B0004702031C7329031D612946084E020318B7
:1022C00073298031072290312200A301A201A101CC
:1022D0001430A0008831200010209031F015F1104A
:1022E00071110130AD008831C4249031FC282508DB
:1022F0002200A0000330A100883120006C2490311E
:102300007708023C031D2F2B2508AA002D08220068
:10231000A0000330A100883120006C249031F70820
:10232000031D5B2A8031132390312200A301A201F7
:10233000A101FA30A00088312000102090318031B6
:10234000AD2190318031072290312200A301A201FA
:10235000A1011430A0008831200010209031B7086E
:10236000031DCE2936080E3C031CCE296E147017AF
:102370007212721ACD2991302200A40080312000FF
:10238000892090312200A301A201A1013230A000D6
:102390008831200010209031B929D0296E10701397
:1023A0006E185B2A8031772090312200A301A201B0
:1023B000A101FA30A0008831200010209031803136
:1023C000252390317A08C1007908C0007808BF0041
:1023D0007708BE00F011F0195B2A8031922090310D
:1023E0008031252390317A08C5007908C400780827
:1023F000C3007708C20041082200A700200040085F
:102400002200A60020003F082200A50020003E0870
:102410002200A400200045082200AB002000440850
:102420002200AA00200043082200A9002000420840
:102430002200A80080312000782390317A08C9005A
:102440007908C8007808C7007708C600803177206F
:10245000903120305207F700A130533DF80007308B
:10246000543DF9000030553DFA004902031C5A2A38
:10247000031D4A2A79084802031C5A2A031D4A2AC6
:1024800078084702031C5A2A031D4A2A4608770285
:1024900003185A2A8031072290312200A301A20199
:1024A000A1011430A0008831200010209031F015D7
:1024B0000230AD00EB292D082200A0000330A1005E
:1024C000883120006C249031770B2F2B80317720BE
:1024D00090312200A301A201A101FA30A0008831AD
:1024E0002000102090318031AD21903180310722C1
:1024F00090312200A301A201A1011430A000883173
:10250000200010209031B708031DA22A36080E3C87
:10251000031CA22A6E1470177212721AA12A91302B
:102520002200A40080312000892090312200A301E4
:10253000A201A1013230A00088312000102090318A
:102540008D2AA42A6E1070136E182F2B803113233E
:1025500090312200A301A201A101FA30A00088312C
:102560002000102090318031252390317A08C1005D
:102570007908C0007808BF007708BE00F011F01994
:102580002F2B8031922090318031252390317A0891
:10259000C5007908C4007808C3007708C200410864
:1025A0002200A700200040082200A60020003F08CB
:1025B0002200A50020003E082200A40020004508BB
:1025C0002200AB00200044082200AA00200043089B
:1025D0002200A900200042082200A800803120002B
:1025E000782390317A08C9007908C8007808C700B4
:1025F0007708C60080311323903120305202F70053
:10260000A130533BF8000730543BF9000030553BF4
:10261000FA004902031C2E2B031D1E2B79084802C9
:10262000031C2E2B031D1E2B78084702031C2E2B88
:10263000031D1E2B4608770203182E2B803107221C
:1026400090312200A301A201A1011430A000883121
:10265000200010209031F0150230AD00BF2A080094
:102660008031252390317A082100DF007908DE00CF
:102670007808DD007708DC005B082200A700210055
:102680005A082200A600210059082200A5002100B6
:1026900058082200A40021005F082200AB0021009E
:1026A0005E082200AA0021005D082200A900210086
:1026B0005C082200A80080312000782390317A083D
:1026C0002100E3007908E2007808E1007708E000E3
:1026D0002B086302031CAD2B031D7E2B2A0862020C
:1026E000031CAD2B031D7E2B29086102031CAD2B9F
:1026F000031D7E2B600828020318AD2B711FAD2B24
:10270000803120005B2290312200A301A201A101AF
:102710001430A00088312000102090316E15F01682
:102720007114883115279031883137279031721311
:10273000721BAC2B93302200A40080312000892032
:1027400090312200A301A201A1013230A000883102
:10275000200010209031982B21002000080027082D
:102760002200A0000330A100883120006C249031A9
:10277000F708031D712CA7012708AC006E19712CF6
:102780008031662390312200A301A201A101C8304B
:10279000A000883120001020903180312523903115
:1027A0007A082100DB007908DA007808D900770878
:1027B000D8002200A301A201A1013230A00088317B
:1027C000200010209031F1167117803125239031AF
:1027D0007A08ED007908EC007808EB007708EA0049
:1027E000F012F01A712C8031252390317A082100E3
:1027F000A3007908A2007808A1007708A0002000B3
:102800006D082200A70020006C082200A60020000E
:102810006B082200A50020006A082200A400210005
:1028200023082200AB00210022082200AA00210078
:1028300021082200A900210020082200A8008031E0
:102840002000782390317A082100A7007908A6009B
:102850007808A5007708A400803120006623903115
:102860002200A301A201A1011430A00088312000A0
:10287000102090318031AD219031B708031D442CD8
:102880003608283C03186D2C21002F082702031C52
:102890006E2C031D5B2C2E082602031C6E2C031DC0
:1028A0005B2C2D082502031C6E2C031D5B2C2408B9
:1028B0002C0203186E2C803120005B229031220004
:1028C000A301A201A1011430A00088312000102032
:1028D0009031F016F1127113AE0121002000302367
:1028E000F12B27082200A0000330A100883120002E
:1028F0006C249031770B212E2708AC002E08220083
:10290000A0000330A100883120006C249031F7082A
:10291000031D502D8031662390312200A301A201B6
:10292000A101FA30A00088312000102090318031C0
:10293000AD21903180315B2290312200A301A201B0
:10294000A1011430A0008831200010209031B70878
:10295000031DC62C36080E3C031CC62C6E157114C4
:102960007213721BC52C93302200A400803120000A
:10297000892090312200A301A201A1013230A000E0
:102980008831200010209031B12CC82C6E117110AC
:102990006E19502D8031492290312200A301A201ED
:1029A000A101FA30A0008831200010209031803140
:1029B000252390317A08ED007908EC007808EB00C7
:1029C0007708EA00F012F01A502D803192209031F1
:1029D0008031252390317A082100A3007908A200D4
:1029E0007808A1007708A00020006D082200A70049
:1029F00020006C082200A60020006B082200A50021
:102A000020006A082200A400210023082200AB0055
:102A1000210022082200AA00210021082200A9008A
:102A2000210020082200A800803120007823903166
:102A30007A082100A7007908A6007808A500770881
:102A4000A400803120004922903121003308270260
:102A5000031C4E2D031D3C2D32082602031C4E2D57
:102A6000031D3C2D31082502031C4E2D031D3C2D5A
:102A70002408300203184E2D803120005B22903153
:102A80002200A301A201A1011430A000883120007E
:102A900010209031F0160230AE0021002000E32C0F
:102AA0002E082200A0000330A100883120006C24F1
:102AB0009031770B212E8031492290312200A301E1
:102AC000A201A101FA30A00088312000102090312D
:102AD0008031AD21903180315B2290312200A30101
:102AE000A201A1011430A0008831200010209031F3
:102AF000B708031D972D36080E3C031C972D6E1545
:102B000071147213721B962D93302200A400803131
:102B10002000892090312200A301A201A1013230BE
:102B2000A0008831200010209031822D992D6E1147
:102B300071106E19212E8031662390312200A3017D
:102B4000A201A101FA30A0008831200010209031AC
:102B50008031252390317A08ED007908EC0078085F
:102B6000EB007708EA00F012F01A212E8031922053
:102B700090318031252390317A082100A300790813
:102B8000A2007808A1007708A00020006D082200AC
:102B9000A70020006C082200A60020006B0822007D
:102BA000A50020006A082200A400210023082200BA
:102BB000AB00210022082200AA00210021082200E7
:102BC000A900210020082200A800803120007823DD
:102BD00090317A082100A7007908A6007808A5009E
:102BE0007708A4008031200066239031210033084B
:102BF0002702031C1F2E031D0D2E32082602031C64
:102C00001F2E031D0D2E31082502031C1F2E031D30
:102C10000D2E2408300203181F2E803120005B2265
:102C200090312200A301A201A1011430A00088313B
:102C3000200010209031F0160230AE00210020005C
:102C4000B42D27082200A0000330A1008831200005
:102C50006C2490317708023C031DE42E2708AC0059
:102C60006E19E42E8031492290312200A301A20185
:102C7000A101C830A000883120001020903180319F
:102C8000252390317A082100DB007908DA007808E2
:102C9000D9007708D8002200A301A201A101323097
:102CA000A0008831200010209031F116711780317A
:102CB000252390317A08ED007908EC007808EB00C4
:102CC0007708EA00F012F01AE42E803125239031C3
:102CD0007A082100A3007908A2007808A1007708EB
:102CE000A00020006D082200A70020006C08220030
:102CF000A60020006B082200A50020006A08220020
:102D0000A400210023082200AB0021002208220099
:102D1000AA00210021082200A90021002008220089
:102D2000A80080312000782390317A082100A70084
:102D30007908A6007808A5007708A4008031200053
:102D4000492290312200A301A201A1011430A00068
:102D500088312000102090318031AD219031B708AA
:102D6000031DB62E3608283C0318E02E21002F083C
:102D70002702031CE12E031DCD2E2E082602031C64
:102D8000E12E031DCD2E2D082502031CE12E031D6F
:102D9000CD2E24082C020318E12E803120005B2266
:102DA00090312200A301A201A1011430A0008831BA
:102DB000200010209031F016F11271130130AE0096
:102DC000210020003023632E08006A302100990082
:102DD0001A082000A101A00122009D120530200048
:102DE00098009901960197019601111023009F11F7
:102DF00019309B00A6309E0090309D002000A2015B
:102E0000A301A401A501A601A701FF30A800A90004
:102E1000AA00AB00AC00AD01AE01AF01B101B00141
:102E2000B301B201B501B401B701B601B901B801EE
:102E3000BD01BC01BB01BA01C101C001BF01BE019E
:102E4000C501C401C301C201C901C801C701C6014E
:102E5000CD01CC01CB01CA01D101D001CF01CE01FE
:102E6000D501D401D301D201D901D801D701D601AE
:102E7000DD01DC01DB01DA01E101E001DF01DE015E
:102E8000E501E401E301E201E901E801E701E6010E
:102E9000ED01EC01EB01EA012100A301A201A10176
:102EA000A001A701A601A501A401AB01AA01A901E6
:102EB000A801AF01AE01AD01AC01B301B201B10196
:102EC000B001B701B601B501B401BB01BA01B90146
:102ED000B801BF01BE01BD01BC01C301C201C101F6
:102EE000C001C701C601C501C401CB01CA01C901A6
:102EF000C801CF01CE01CD01CC01D301D201D10156
:102F0000D001D701D601D501D401DB01DA01D90105
:102F1000D801DF01DE01DD01DC01E301E201E101B5
:102F2000E001E701E601E501E401EB01EA01E90165
:102F3000E801EF01EE01ED01EC0120006E10EE1052
:102F40006E11EE116E12EE126E17EE136F10EF107F
:102F50006F11EF116F12EF126F13EF137010F0106B
:102F60007011F0117012F0127013F0137110F11053
:102F70007111F1117112F1127113F1137210F2103B
:102F80007211F2117212F2127213F21373102F00F7
:102F900091019201980199019A0123008C018D0100
:102FA0008F019001220092019101940193018031DF
:102FB0002000192890318031692A90318031952B79
:102FC00090318031672F90318031EA2F90318831F4
:102FD000002890318831962F9031803192209031A5
:102FE0008831A42F90318831B12F9031ED2F6300BB
:020000040001F9
:04000E00A439FF1EF4
:00000001FF
;PIC16F1939
;CRC=2D21  CREATED="04-Feb-19 07:44"
