:100000008831152D0000203085004730840000081D
:10001000031918280130F800F701F70B0D28F80B29
:100020000C284A30F700F70B13281628800B0A28F3
:10003000080021008C0122008C0121008D0122008A
:100040008D0121008E0122008E0121008F012200EE
:100050008F012100101090101011901122009001BA
:1000600004302000E300FA30E7000320E30B3328DC
:1000700028306500E8306600C1306700003021009C
:100080008F00101090101011901502302000E70022
:100090000320E601E501E401E3016608A10065082B
:1000A000A00064089700630896008831B12DAE0166
:1000B000AF01A201A301A401A501A601A701A80106
:1000C000FF30A900AA00AB00AC00AD008831B42D10
:1000D000DF1B7428300823009100951315141308B2
:1000E0002000A400A7017628A401A7016018812898
:1000F0003208230091009513151413082000A50061
:100100008228A501E0188E2833082300910095135A
:10011000151413082000A600A8019028A601A80124
:100120008831B72D20302100A400A001A101A20137
:10013000A30120006A08FA006908F9006808F800BD
:100140006708F7000310771CC1286B082100A0077F
:1001500020006C0803186C0FAE28B1282100A107FD
:1001600020006D0803186D0FB628B9282100A207DA
:1001700020006E0803186E0FBE28C1282100A307B7
:1001800020002100A30CA20CA10CA00CFA0CF90C6D
:10019000F80CF70CA40BCD28CF282000A2282000B3
:1001A0000800111CD828A00A0319A10A1110E72879
:1001B0001708FA001608F70017087A02031DD82856
:1001C0007708111CF028A00A0319A10A11101708BA
:1001D000FA001608F70017087A02031DE7287708C7
:1001E000F7007A08F8002008F9002108FA00080052
:1001F00067086B02D90068086C3BDA0069086D3B40
:10020000DB006A086E3BDC005908F7005A08F8006A
:100210005B08F9005C08FA0008006708111E0E2947
:1002200023009A0020000800911EAD29911E162976
:10023000230019082000AF002F08513C0319DD17D7
:100240002F08523C03195E142F08533C0319DE1487
:100250002F08543C03195E152F08553C0319DE1571
:100260002F08563C03195E162F08573C0319DE165B
:100270002F08583C03195E172F08593C0319DE1745
:100280002F08603C03195F142F08613C0319DF1429
:100290002F08623C03195F152F08633C0319DF1513
:1002A0002F08643C03195F162F08653C0319DF16FD
:1002B0002F08663C03195F172F08913C031D69291D
:1002C000DF171430E70003209430E7000D21AF0161
:1002D000E1152F08923C031D762960141430E700C5
:1002E00003209530E7000D21AF0161162F08933CE4
:1002F000031D8329E0141430E70003209630E70043
:100300000D21AF01E1162F08813C031D9129DF1358
:100310001430E70003208430E7000D21AF01FF30E7
:10032000AB002F08823C031D9F2960101430E700AA
:1003300003208530E7000D21AF01FF30AC002F080E
:10034000833C031DAD29E0101430E7000320863004
:10035000E7000D21AF01FF30AD0008006608EA009C
:100360006508E9006408E8006308E700EE01ED01B4
:100370000330EC00E830EB0092207A08E6007908C0
:10038000E5007808E4007708E300D1207A08D0007F
:100390007908CF007808CE007708CD00D1200A3048
:1003A0007707D1000030783DD2000030793DD3008E
:1003B00000307A3DD4005008EA004F08E9004E08AA
:1003C000E8004D08E7005408EE005308ED0052081D
:1003D000EC005108EB00F8207A08D8007908D70023
:1003E0007808D6007708D50058086602031C2E2A24
:1003F000031D0A2A57086502031C2E2A031D0A2A18
:1004000056086402031C2E2A031D0A2A630855029B
:1004100003182E2AD1207A08D4007908D30078084E
:10042000D2007708D1005008EA004F08E9004E08D2
:10043000E8004D08E7005408EE005308ED005208AC
:10044000EC005108EB00F8207A08D8007908D700B2
:100450007808D6007708D5001421F429080064082C
:10046000F80163020318372A6308F700432AF701EB
:100470000830E500E30DF70D640877020318F70074
:10048000F80DE50B3A2A080021000E1420000E1882
:10049000532A5D1C532A5D10A20AE601E501E4011E
:1004A0006430E300AE2121000E1420000E185D140C
:1004B00021000E1620000E1A672ADD1C672ADD10A7
:1004C000A30AE601E501E4016430E300AE21210066
:1004D0000E1620000E1ADD1421008D1520008D1936
:1004E0007B2A5D1D7B2A5D11A401E601E501E40183
:1004F0006430E300AE2121008D1520008D195D15BB
:1005000021008C1620008C1A902ADD1D902ADD1106
:100510000130A400E601E501E4016430E300AE210E
:1005200021008C1620008C1ADD1521008C1520006E
:100530008C19A52A5D1EA52A5D120230A400E601D1
:10054000E501E4016430E300AE2121008C152000B8
:100550008C195D1621008E1620008E1AB92ADD1E18
:10056000B92ADD12A50AE601E501E4016430E300E1
:10057000AE2121008E1620008E1ADD1621008D1668
:1005800020008D1ACD2A5D1FCD2A5D13A60AE60133
:10059000E501E4016430E300AE2121008D16200066
:1005A0008D1A5D1722080339031DE32A21000F105D
:1005B00022000F1021008F1022008F1021000F1138
:1005C00022000F11200022080339013C031DF52AE7
:1005D00021000F1022000F1421008F1022008F1015
:1005E00021000F1122000F11200022080339023CC4
:1005F000031D072B21000F1022000F1421008F1064
:1006000022008F1421000F1122000F112000220858
:100610000339033C031D192B21000F1022000F1476
:1006200021008F1022008F1421000F1122000F15BE
:1006300020002308E3000330E4002F22F708031D05
:100640002A2B21008F1122008F1121000F1222006E
:100650000F1220002308E3000330E4002F22770B61
:100660003A2B21008F1122008F1521000F1222003A
:100670000F1220002308E3000330E4002F22770844
:10068000023C031D4C2B21008F1122008F152100ED
:100690000F1222000F1620002408E3000330E400AC
:1006A0002F22F708031D612B21000D1122000D15CB
:1006B00021000C1222000C1221000C1122000C113E
:1006C00020002408E3000330E4002F22770B752B71
:1006D00021000D1122000D1121000C1222000C1618
:1006E00021000C1122000C1120002408E30003302B
:1006F000E4002F227708023C031D8B2B21000D11F3
:1007000022000D1121000C1222000C1221000C11EC
:1007100022000C15200025080139031D942B21000F
:100720008F1322008F13200025080139013C031D7F
:100730009E2B21008F1322008F17200026080339DB
:10074000031DAF2B21001010220010142100901067
:100750002200901021001011220010112000260804
:100760000339013C031DC12B210010102200101081
:10077000210090102200901421001011220010116D
:10078000200026080339023C031DD32B2100101042
:100790002200101021009010220090102100101152
:1007A00022001015200026080339033C031DE42B0A
:1007B000210010102200101021009010220090142F
:1007C0002100101122001015200008006608EA0020
:1007D0006508E9006408E8006308E700EE01ED0140
:1007E0000330EC00E830EB0092207A08E60079084C
:1007F000E5007808E4007708E300D1207A08D0000B
:100800007908CF007808CE007708CD00D1200A30D3
:100810007707D1000030783DD2000030793DD30019
:1008200000307A3DD4005008EA004F08E9004E0835
:10083000E8004D08E7005408EE005308ED005208A8
:10084000EC005108EB00F8207A08D8007908D700AE
:100850007808D6007708D50058086602031CC62C15
:10086000031D422C57086502031CC62C031D422C95
:1008700056086402031CC62C031D422C6308550253
:100880000318C62CD1207A08D4007908D300780840
:10089000D2007708D1005008EA004F08E9004E085E
:1008A000E8004D08E7005408EE005308ED00520838
:1008B000EC005108EB00F8207A08D8007908D7003E
:1008C0007808D6007708D500911EC52C911E662C9D
:1008D000230019082000AF002F0B6F2CE0122F0807
:1008E000053C031D762CDF17601560132F08063CAE
:1008F000031D7D2CDF13601160132F08083C031DBE
:10090000842C6014E015E0132F08093C031D8B2C88
:100910006010E011E0132F08113C031D922CE0142D
:10092000601661102F08123C031D992CE010601214
:1009300061102F08033C0319E1102F08153C03191F
:1009400061112F08173C031961172F08193C03196F
:10095000E1172F08203C031962142F08213C0319CA
:10096000E2142F08223C031962152F08233C0319B7
:10097000E2152F08243C031962162F08253C0319A1
:10098000E2162F08263C031962172C2C0800E016EB
:10099000E01ED22C4422E601E501E4016430E300CC
:1009A000E623C82C6017601FE02C44220230E700C9
:1009B0000D21E601E501E4016430E300E623D32CD8
:1009C000E017E01FEE2C44220730E7000D21E6017E
:1009D000E501E4016430E300E623E12C6114611CCD
:1009E000FC2C44221030E7000D21E601E501E40172
:1009F0006430E300E623EF2CE114E11C0A2D4422CD
:100A00001330E7000D21E601E501E4016430E30065
:100A1000E623FD2C0430E7000D218831BD2D601D3B
:100A20008C2D0130B5070318B60A0319B70A03194C
:100A3000B80A3508C43C031D342D3608093C031D93
:100A4000342DB708031D342DB808031D342D2100A3
:100A50000D1122000D1521000C1222000C12210094
:100A60000C1122000C1120003508883C031D532D69
:100A70003608133C031D532DB708031D532DB8082A
:100A8000031D532DB801B701B601B50121000D11A9
:100A900022000D1121000C1222000C1221000C1159
:100AA00022000C112000BC01BB01BA01B9012100D8
:100AB0008D1520008D198B2D0130B9070318BA0A46
:100AC0000319BB0A0319BC0A3908503C031D8A2DBF
:100AD0003A08C33C031D8A2DBB08031D8A2DBC08A0
:100AE000031D8A2DBC01BB01BA01B90160112100AF
:100AF0000D1122000D1121000C1222000C122100F8
:100B00000C1122000C112000E601E501E401323055
:100B1000E300E623572D0F2DE01DF12D0130BD0719
:100B20000318BE0A0319BF0A0319C00A3D08C43CD2
:100B3000031DA92D3E08093C031DA92DBF08031D57
:100B4000A92DC008031DA92D21008F1322008F1786
:100B500020003D08883C031DC02D3E08133C031DAA
:100B6000C02DBF08031DC02DC008031DC02DC0012E
:100B7000BF01BE01BD0121008F1322008F13200091
:100B8000C401C301C201C10121008E1620008E1ACA
:100B9000F02D0130C1070318C20A0319C30A031953
:100BA000C40A4108503C031DEF2D4208C33C031DFD
:100BB000EF2DC308031DEF2DC408031DEF2DC40145
:100BC000C301C201C101E01121008F1322008F1364
:100BD0002000E601E501E4013230E300E623C42D04
:100BE0008C2D601E6E2E0130C5070318C60A03192E
:100BF000C70A0319C80A4508C43C031D162E460837
:100C0000093C031D162EC708031D162EC808031D18
:100C1000162E210010102200101421009010220026
:100C20009014210010112200101520004508883C66
:100C3000031D352E4608133C031D352EC708031D22
:100C4000352EC808031D352EC801C701C601C501D0
:100C5000210010102200101021009010220090108E
:100C600021001011220010112000CC01CB01CA017B
:100C7000C90121008D1620008D1A6D2E0130C90783
:100C80000318CA0A0319CB0A0319CC0A4908503CB5
:100C9000031D6C2E4A08C33C031D6C2ECB08031D9C
:100CA0006C2ECC08031D6C2ECC01CB01CA01C901EE
:100CB000601221001010220010102100901022005C
:100CC000901021001011220010112000E601E50112
:100CD000E4013230E300E623392EF12D6115611D68
:100CE0007B2E1430E7000D21E601E501E4013230EE
:100CF000E300E6236F2E8831C02DE601E501E40113
:100D00006430E300E6236113611B902E1630E70088
:100D10000D21E601E501E4013230E300E623842EF3
:100D2000621062189D2E3130E7000D21E601E501C9
:100D3000E4013230E300E623912EE210E218AA2EFD
:100D40003530E7000D21E601E501E4013230E30032
:100D5000E6239E2E2408E3000330E4002F22F70848
:100D6000031DB42E3830AE002408E3000330E40045
:100D70002F22770BBD2E3930AE002408E30003305C
:100D8000E4002F227708023C031DC82E3A30AE0043
:100D900062116219D52E2E08E7000D21E601E5014A
:100DA000E4013230E300E623C92E2708E3000330D4
:100DB000E4002F22F708031DDF2E3B30AE0027088A
:100DC000E3000330E4002F22770BE82E3C30AE0026
:100DD0002708E3000330E4002F227708023C031DBC
:100DE000F32E3D30AE00E211E219002F2E08E7008D
:100DF0000D21E601E501E4013230E300E623F42EA3
:100E000025080139031D062F3E30AE0025080139A3
:100E1000013C031D0D2F3F30AE006212621A1A2FE3
:100E20002E08E7000D21E601E501E4013230E30080
:100E3000E6230E2F26080339031D202F4030AE0075
:100E400026080339013C031D272F4130AE00260838
:100E50000339023C031D2E2F4230AE002608033911
:100E6000033C031D352F4330AE00E212E21A422F3D
:100E70002E08E7000D21E601E501E4013230E30030
:100E8000E623362F28080339031D482F4430AE00CF
:100E900028080339013C031D4F2F4530AE002808B8
:100EA0000339023C031D562F4630AE002808033993
:100EB000033C031D5D2F4730AE006213621B6A2F97
:100EC0002E08E7000D21E601E501E4013230E300E0
:100ED000E6235E2FE113E11B772F1830E7000D2189
:100EE000E601E501E4013230E300E6236B2F8831AF
:100EF000C32D21000E1420000E18882F5D1C882F92
:100F00005D10A20AE601E501E4016430E300AE21D0
:100F100021000E1420000E185D148831C92D210007
:100F20000E1620000E1A9E2FDD1C9E2FDD10A30A28
:100F3000E601E501E4016430E300AE2121000E1674
:100F400020000E1ADD148831CC2D21008D152000D3
:100F50008D19B82F5D1DB82FDF1BB72F5D11A401B0
:100F6000E601E501E4016430E300AE21B82FE115AC
:100F700021008D1520008D195D1521008C16200093
:100F80008C1AD12FDD1DD12FDF1BD02FDD110130A9
:100F9000A400E601E501E4016430E300AE21D12FB5
:100FA000E11521008C1620008C1ADD1521008C150E
:100FB00020008C19EA2F5D1EEA2FDF1BE92F5D123E
:100FC0000230A400E601E501E4016430E300AE2153
:100FD000EA2FE11521008C1520008C195D1688314F
:020FE000CF2D13
:1010000021008E1620008E1A1528DD1E1528601866
:101010001428DD12A50AE601E501E4016430E300CD
:101020008031AE2188311528611621008E162000EE
:101030008E1ADD168831D12D21008D1620008D1AD3
:1010400031285D1F3128E01830285D13A60AE6011B
:10105000E501E4016430E3008031AE2188313128BC
:10106000E11621008D1620008D1A5D178831D22DD2
:10107000E11D872821000D1122000D1521000C1201
:1010800022000C1621000C1122000C152000E60194
:10109000E501E4012830E3008031AE2188312100F0
:1010A0000D1122000D1121000C1222000C12210042
:1010B0000C1122000C112000E601E501E4011430BE
:1010C000E3008031AE21883121000D1122000D1581
:1010D00021000C1222000C1621000C1122000C150C
:1010E0002000E601E501E4012830E3008031AE2173
:1010F000883121000D1122000D1121000C12220057
:101100000C1221000C1122000C112000E111611EB3
:10111000B62821008F1322008F172000E601E50179
:10112000E4012830E3008031AE21883121008F13A3
:1011300022008F132000E601E501E4011430E300F2
:101140008031AE21883121008F1322008F172000BB
:10115000E601E501E4012830E3008031AE21883169
:1011600021008F1322008F1320006112E11E052938
:101170002100101022001014210090102200901461
:1011800021001011220010152000E601E501E40104
:101190002830E3008031AE21883121001010220078
:1011A0001010210090102200901021001011220038
:1011B00010112000E601E501E4011430E300803164
:1011C000AE2188312100101022001014210090104F
:1011D0002200901421001011220010152000E601B9
:1011E000E501E4012830E3008031AE21883121009F
:1011F00010102200101021009010220090102100E9
:101200001011220010112000E112290822020319F6
:101210009D2922080339031D2E29A2012208A900B5
:10122000DD13DD1B21293130E70080310D218831AC
:10123000E601E501E4013230E3008031AE2188317E
:10124000112921000F1022000F1021008F10220001
:101250008F1021000F1122000F11200022080339E6
:10126000013C031D53292208A9005E105E1846297F
:101270003230E70080310D218831E601E501E401DB
:101280003230E3008031AE218831362921000F1041
:1012900022000F1421008F1022008F1021000F1147
:1012A00022000F11200022080339023C031D782977
:1012B0002208A900DE10DE186B293330E7008031E8
:1012C0000D218831E601E501E4013230E30080318F
:1012D000AE2188315B2921000F1022000F1421005C
:1012E0008F1022008F1421000F1122000F112000F7
:1012F00022080339033C031D9D292208A9005E1121
:101300005E1990293430E70080310D218831E601E3
:10131000E501E4013230E3008031AE2188318029DB
:1013200021000F1022000F1421008F1022008F14B3
:1013300021000F1122000F1520002A082302031993
:10134000142A2308E3000330E40080312F2288317F
:10135000F708031DC829A3012308AA00DE11DE191E
:10136000BF293530E70080310D218831E601E501E4
:10137000E4013230E3008031AE218831AF29210011
:101380008F1122008F1121000F1222000F12200056
:101390002308E3000330E40080312F228831770BEB
:1013A000ED292308AA005E125E1AE4293630E70010
:1013B00080310D218831E601E501E4013230E3009E
:1013C0008031AE218831D42921008F1122008F1560
:1013D00021000F1222000F1220002308E300033027
:1013E000E40080312F2288317708023C031D142A43
:1013F0002308AA00DE12DE1A0B2A3730E7008031FC
:101400000D218831E601E501E4013230E30080314D
:10141000AE218831FB2921008F1122008F15210078
:101420000F1222000F162000DF1B372B2B0824027F
:101430000319372BDF1B2A2B2408E3000330E400B9
:1014400080312F228831F708031D752AA401A701D6
:101450002408AB005E135E1B3B2A3830E700803166
:101460000D218831E601E501E4013230E3008031ED
:10147000AE2188312B2A0B08F7008B13300823008C
:101480009100200024082300930095131515553072
:101490009600AA309600951495184C2A15117708D5
:1014A0008B040B08F7008B132000310823009100F8
:1014B000200027082300930095131515553096003A
:1014C000AA30960095149518632A151177088B0495
:1014D00021000D1122000D1521000C1222000C120A
:1014E00021000C1122000C1120002408E30003301D
:1014F000E40080312F228831770BCE2A0130A400FE
:10150000A7002408AB00DE13DE1B942A3930E70065
:1015100080310D218831E601E501E4013230E3003C
:101520008031AE218831842A0B08F7008B133008F4
:101530002300910020002408230093009513151523
:1015400055309600AA30960095149518A52A1511C5
:1015500077088B040B08F7008B1320003108230059
:10156000910020002708230093009513151555308E
:101570009600AA30960095149518BC2A1511770884
:101580008B0421000D1122000D1121000C122200EC
:101590000C1621000C1122000C1120002408E3007D
:1015A0000330E40080312F2288317708023C031D8C
:1015B000292B0230A400A7002408AB005F105F189D
:1015C000EF2A3A30E70080310D218831E601E5014C
:1015D000E4013230E3008031AE218831DF2A0B088C
:1015E000F7008B133008230091002000240823000B
:1015F00093009513151555309600AA309600951452
:101600009518002B151177088B040B08F7008B1326
:1016100020003108230091002000270823009300B8
:101620009513151555309600AA3096009514951807
:10163000172B151177088B0421000D1122000D11B5
:1016400021000C1222000C1221000C1122000C159A
:101650002000372B21000D1122000D1121000C124A
:1016600022000C1221000C1122000C112000601825
:10167000AB2B2C0825020319AB2B6018A62B2508D1
:101680000139031D722BA5012508AC00DF10DF18FE
:10169000572B3E30E70080310D218831E601E5010E
:1016A000E4013230E3008031AE218831472B0B0852
:1016B000F7008B1332082300910020002508230037
:1016C00093009513151555309600AA309600951481
:1016D0009518682B151177088B0421008F132200B1
:1016E0008F13200025080139013C031DA52B250877
:1016F000AC005F115F198A2B3F30E70080310D216C
:101700008831E601E501E4013230E3008031AE21A9
:1017100088317A2B0B08F7008B13320823009100D5
:1017200020002508230093009513151555309600C9
:10173000AA309600951495189B2B151177088B04E9
:1017400021008F1322008F172000AB2B21008F1355
:1017500022008F132000E018132D2D0826020319F4
:10176000132DE018062D26080339031D062CA601AB
:10177000A8012608AD00DF11DF19CC2B4030E700AF
:1017800080310D218831E601E501E4013230E300CA
:101790008031AE218831BC2B0B08F7008B13330846
:1017A00023009100200026082300930095131515AF
:1017B00055309600AA30960095149518DD2B15111A
:1017C00077088B040B08F7008B13200034082300E4
:1017D000910020002808230093009513151555301B
:1017E0009600AA30960095149518F42B15117708D9
:1017F0008B042100101022001014210090102200F0
:101800009010210010112200101120002608033929
:10181000013C031D5B2C0130A600A8002608AD008A
:101820005F125F1A212C4130E70080310D21883191
:10183000E601E501E4013230E3008031AE21883178
:10184000112C0B08F7008B133308230091002000A4
:101850002608230093009513151555309600AA30DD
:10186000960095149518322C151177088B040B08E7
:10187000F7008B1320003408230091002000280873
:10188000230093009513151555309600AA30960045
:1018900095149518492C151177088B042100101008
:1018A000220010102100901022009014210010112D
:1018B00022001011200026080339023C031DB02C21
:1018C0000230A600A8002608AD00DF12DF1A762C31
:1018D0004230E70080310D218831E601E501E40165
:1018E0003230E3008031AE218831662C0B08F700DE
:1018F0008B13330823009100200026082300930057
:101900009513151555309600AA3096009514951824
:10191000872C151177088B040B08F7008B13200018
:101920003408230091002000280823009300951319
:10193000151555309600AA309600951495189E2CD2
:10194000151177088B0421001010220010102100BF
:10195000901022009010210010112200101520007C
:1019600026080339033C031D052D0330A600A800FB
:101970002608AD005F135F1BCB2C4330E70080319E
:101980000D218831E601E501E4013230E3008031C8
:10199000AE218831BB2C0B08F7008B1333082300D2
:1019A000910020002608230093009513151555304B
:1019B0009600AA30960095149518DC2C151177081E
:1019C0008B040B08F7008B132000340823009100D0
:1019D0002000280823009300951315155530960014
:1019E000AA30960095149518F32C151177088B04DE
:1019F00021001010220010102100901022009014DD
:101A000021001011220010152000132D21001010AC
:101A100022001010210090102200901021001011BF
:101A20002200101120008831D32D6A302100990046
:101A30002000A101A00122009D1205302000980085
:101A40009901960197019601111023009F111930F9
:101A50009B00A6309E0090309D002000A201A301B3
:101A6000A401A501A601A701A801FF30A900AA00B1
:101A7000AB00AC00AD00AE01AF010130B0000230F0
:101A8000B1000330B2000430B3000530B400B80137
:101A9000B701B601B501BC01BB01BA01B901C00172
:101AA000BF01BE01BD01C401C301C201C101C80122
:101AB000C701C601C501CC01CB01CA01C901D001D2
:101AC000CF01CE01CD01D401D301D201D101D80182
:101AD000D701D601D501DC01DB01DA01D9015D10A6
:101AE000DD105D11DD115D12DD125D13DD135E1081
:101AF000DE105E11DE115E12DE125E13DE135F1069
:101B0000DF105F11DF115F12DF125F13DF13601050
:101B1000E0106011E0116012E0126013E013611038
:101B2000E1106111E1116112E1126113E113621020
:101B3000E2106211E2116212E21262132F009101AF
:101B40009201980199019A0123008C018D018F0166
:101B500090012200920191019401930180312000B3
:101B60001928883180315728883180316828883198
:101B70008031442288318031C72C883180310F2D4B
:101B8000883180317D2E8831803114218831803137
:101B9000792F883180318F2F88318031A52F88317E
:0A1BA00000281C283828C42D63001B
:020000040001F9
:04000E00A439FF1EF4
:00000001FF
;PIC16F1939
;CRC=E991  CREATED="07-Mar-19 15:36"
