:100000009031B02C000020308500A830840000081A
:10001000031918280130F800F701F70B0D28F80B29
:100020000C284A30F700F70B13281628800B0A28F3
:10003000080021008C0122008C0121008D0122008A
:100040008D0121008E0122008E0121008F012200EE
:100050008F012100101090101011901122009001BA
:100060000430A400FA30A800200003202200A40BD2
:10007000322820306500C0306600803067000030D4
:1000800021008F00101090101011901502302200E6
:10009000A8002000032021001E109E101E112030F9
:1000A00023008C00003090008D008F0021001E1670
:1000B0009E121E139E171D1402302200A80020005D
:1000C00003202200A701A601A501A4012708200002
:1000D000A100220026082000A00022002508200000
:1000E000970022002408200096009031AC2D2100BA
:1000F0008E1222008E1621000F1122000F112100F6
:100100008F1122008F1521000E1222000E122000E6
:100110000800220028082000111E8C2823009A00C5
:1001200020000800911EBD29911E94282300190863
:100130002000A2002208313C031DAA28A30114308C
:100140002200A8002000032051302200A800200037
:100150008920A2012208323C031DBB280130A300E4
:1001600014302200A8002000032052302200A800F2
:1001700020008920A2012208333C031DCC28023034
:10018000A30014302200A8002000032053302200D6
:10019000A80020008920A2012208343C031DDD288C
:1001A0000330A30014302200A800200003205430A4
:1001B0002200A80020008920A2012208353C031D4E
:1001C000ED28A40114302200A8002000032055309F
:1001D0002200A80020008920A2012208363C031D2D
:1001E000FE280130A40014302200A80020000320C3
:1001F00056302200A80020008920A2012208373CA6
:10020000031D0F290230A40014302200A800200092
:10021000032057302200A80020008920A2012208D4
:10022000383C031D1F29A50114302200A80020001E
:10023000032058302200A80020008920A2012208B3
:10024000393C031D30290130A50014302200A800DC
:100250002000032059302200A80020008920A2019C
:1002600022083A3C031D41290230A5001430220027
:10027000A8002000032060302200A8002000892070
:10028000A20122083E3C031D5129A6011430220080
:10029000A8002000032061302200A800200089204F
:1002A000A20122083F3C031D62290130A600143040
:1002B0002200A8002000032062302200A8002000B5
:1002C0008920A2012208403C031D7229A701143095
:1002D0002200A8002000032063302200A800200094
:1002E0008920A2012208413C031D83290130A70077
:1002F00014302200A8002000032064302200A8004F
:1003000020008920A2012208423C031D94290230CA
:10031000A70014302200A80020000320653022002E
:10032000A80020008920A2012208433C031DA52922
:100330000330A70014302200A800200003206630FC
:100340002200A80020008920A2012208943C031961
:1003500073162208953C0319F3162208963C0319DC
:1003600073172208843C0319F3142208853C0319EF
:1003700073152208863C0319F31508001030F800A5
:1003800021001D08833978049D002000BA01B901BD
:10039000AF012F08093C031CE42902302200A80009
:1003A00020000320922021009D149D18D5291C08AF
:1003B000FA001B082000B7007A08B8003708B90710
:1003C0003808BA3DAF0AC9293A082200A500200022
:1003D00039082200A400A7010A30A600F801F9019B
:1003E000F701FA012708031DF82926080319122A24
:1003F0001030A8000310A40DA50DF70DFA0D270865
:100400007A02031D052A26087702031C0E2A2608F5
:10041000F702031CFA032708FA020314F80DF90D7A
:10042000A80BFA2979082000B8007808B70008005E
:1004300021008E1222008E1221008F1122008F11B6
:1004400021000E1222000E122000080021008E1240
:1004500022008E1621000F1122000F1521000E120E
:1004600022000E1621008F1122008F1521008F10FF
:1004700022008F1021000F1022000F102000080012
:1004800021008E1222008E1221000F1122000F1166
:1004900021000E1222000E1221008F1122008F1156
:1004A00021008F1022008F1021000F1022000F104A
:1004B0002000080021000F1122000F1521008E12CC
:1004C00022008E1221000F1022000F1421008F1025
:1004D00022008F102000080021000F1122000F11B0
:1004E00021000F1022000F1021008F1022008F100A
:1004F000200008006F14F115EF17EF157117EF14B6
:10050000711670146F16F1176F15F116F014EF16BF
:1005100072147720FA302200A80020000320B201D4
:10052000B1013208013C031CBC2A031D9B2A31087F
:100530002B3C031CBC2A772014302200A80020008A
:100540000320BE21B808031DA92A3708283C031838
:10055000B82A6F10F111EF117113EF130130B200CF
:100560002C30B100182214302200A80020000320F3
:10057000B10A0319B20A912A2622FA302200A800F1
:1005800020000320B401B3013408013C031CEF2A0E
:10059000031DCE2A33082B3C031CEF2A26221430DD
:1005A0002200A80020000320BE21B808031DDC2A79
:1005B0003708463C0318EB2AEF1071126F12F11343
:1005C00070100130B4002C30B300402214302200EF
:1005D000A80020000320B30A0319B40AC42A5A222F
:1005E000FA302200A80020000320B601B501360829
:1005F000013C031C222B031D012B35082B3C031C43
:10060000222B5A2214302200A80020000320BE21F1
:10061000B808031D0F2B3708283C03181E2B6F1139
:10062000F112EF127210F0100130B6002C30B5004C
:100630006C2214302200A80020000320B50A031900
:10064000B60AF72A9031AF2D21008E1222008E16A5
:1006500021000F1122000F1121008F1122008F1194
:1006600021000E1222000E1620000800111C3D2B46
:10067000A00A0319A10A11104C2B1708FA0016083A
:10068000F70017087A02031D3D2B7708111C552B24
:10069000A00A0319A10A11101708FA001608F7009A
:1006A00017087A02031D4C2B7708F7007A08F80028
:1006B0002008F9002108FA00080021008E1222000B
:1006C0008E1621000F1122000F1521000E1222009C
:1006D0000E1221008F1122008F1121008F10220095
:1006E0008F1421000F1022000F1420000800210099
:1006F0000F1122000F1521008E1222008E122100F0
:100700000F1022000F1021008F1022008F142000E4
:100710000800220028082C022000BB002200290823
:100720002D3B2000BC0022002A082E3B2000BD00EB
:1007300022002B082F3B2000BE003B08F7003C089E
:10074000F8003D08F9003E08FA00080020302200B9
:10075000B400B001B101B201B3012B08FA002A08BC
:10076000F9002908F8002808F7000310771CC62BA9
:100770002C08B0072D0803182D0FB1072E080318F9
:100780002E0FB2072F0803182F0FB307B30CB20CAC
:10079000B10CB00CFA0CF90CF80CF70CB40BB52B2F
:1007A000200008006F18002C6F172423FA30220055
:1007B000A8002000032036237A08C2007908C1006F
:1007C0007808C0007708BF006F1F002C36237A0816
:1007D000C6007908C5007808C4007708C300242340
:1007E000BE21B808031DF82B3708283C0318FF2B3F
:1007F0006F13182214302200A80020000320E42BDD
:10080000EF182E2C6F175D23FA302200A80020006D
:10081000032036237A08DA007908D9007808D8004E
:100820007708D7006F1F2E2C36237A08DE00790850
:10083000DD007808DC007708DB005D23BE21B80806
:10084000031D262C3708463C03182D2C6F1340221D
:1008500014302200A80020000320122C6F195E2CF7
:100860006F177723FA302200A800200003203623D8
:100870007A08EE007908ED007808EC007708EB00C4
:100880006F1F5E2C36237A082100A3007908A2008E
:100890007808A1007708A00020007723BE21B808BF
:1008A000031D562C3708283C03185D2C6F136C224F
:1008B00014302200A80020000320402C6F18DB2CED
:1008C00042082200AB00200041082200AA002000BC
:1008D00040082200A90020003F082200A8002000B4
:1008E00046082200AF00200045082200AE0020008C
:1008F00044082200AD00200043082200AC00200084
:1009000089237A08CA007908C9007808C8007708DE
:10091000C700403047022200A4000D302000483BB1
:100920002200A50003302000493B2200A600003031
:1009300020004A3B2200A70027082000D200220006
:1009400026082000D100220025082000D000220027
:1009500024082000CF000310470DCB00480DCC0029
:10096000490DCD004A0DCE0003104A0C2200A7000D
:100970002000490C2200A6002000480C2200A500FF
:100980002000470C2200A400E030A4029330A53BD5
:100990000430A63B0030A73B27082000D6002200E9
:1009A00026082000D500220025082000D4002200BF
:1009B00024082000D300EF18312D5A082200AB0084
:1009C000200059082200AA00200058082200A9008F
:1009D000200057082200A80020005E082200AF0077
:1009E00020005D082200AE0020005C082200AD005F
:1009F00020005B082200AC00200089237A08E20076
:100A00007908E1007808E0007708DF0040305F02F5
:100A10002200A4000D302000603B2200A50003301E
:100A20002000613B2200A60000302000623B220033
:100A3000A70027082000EA00220026082000E9007D
:100A4000220025082000E800220024082000E700FA
:100A500003105F0DE300600DE400610DE500620D21
:100A6000E6006F19BF2D6E082200AB0020006D0854
:100A70002200AA0020006C082200A90020006B08B8
:100A80002200A800210023082200AF002100220834
:100A90002200AE00210021082200AD002100200824
:100AA0002200AC00200089237A082100A7007908E1
:100AB000A6007808A5007708A40040302402220090
:100AC000A4000D302100253B2200A50003302100A9
:100AD000263B2200A60000302100273B2200A70071
:100AE00027082100AF00220026082100AE002200C6
:100AF00025082100AD00220024082100AC000310CD
:100B0000240DA800250DA900260DAA00270DAB0075
:100B10000310270CB300260CB200250CB100240CE6
:100B2000B000270C2200A7002100260C2200A600FE
:100B30002100250C2200A5002100240C2200A40085
:100B4000A70CA60CA50CA40C3F30A7052708AB00EA
:100B50002608AA002508A9002408A800AF01AE01B4
:100B6000AD010330AC002000A6237A082100B700B5
:100B70007908B6007808B5007708B40020009031F5
:100B8000B22D911E2A2F911EC32D2300190820007B
:100B9000A2002208023C0319F0122208073C0319A4
:100BA00070132208103C0319F0132208133C031998
:100BB00071102208043C0319F1102208143C031997
:100BC00071112208163C031DF02DF317143022007A
:100BD000A8002000032017302200A8002000892050
:100BE0002208183C031DFF2D741414302200A800A5
:100BF0002000032019302200A800200089202208AC
:100C0000313C031D0F2EA30114302200A800200048
:100C1000032020302200A80020008920A201220801
:100C2000353C031D1F2EA40114302200A800200013
:100C3000032021302200A80020008920A2012208E0
:100C4000383C031D2F2EA50114302200A8002000DF
:100C5000032022302200A80020008920A2012208BF
:100C6000393C031D402E0130A50014302200A8009D
:100C70002000032022302200A80020008920A201A9
:100C800022083A3C031D512E0230A50014302200E8
:100C9000A8002000032022302200A8002000892084
:100CA000A20122083B3C031D612EAD01143022003D
:100CB000A8002000032023302200A8002000892063
:100CC000A20122083C3C031D722E0130AD001430FD
:100CD0002200A8002000032023302200A8002000CA
:100CE0008920A20122083D3C031D832E0230AD0065
:100CF00014302200A8002000032023302200A80086
:100D000020008920A20122083E3C031D932EA6014B
:100D100014302200A8002000032024302200A80064
:100D200020008920A20122083F3C031DA42E01308F
:100D3000A60014302200A800200003202430220046
:100D4000A80020008920A2012208403C031DB42EE7
:100D5000A70114302200A800200003202530220023
:100D6000A80020008920A2012208413C031DC52EB5
:100D70000130A70014302200A800200003202530F5
:100D80002200A80020008920A2012208423C031D65
:100D9000D62E0230A70014302200A8002000032025
:100DA00025302200A80020008920A2012208433C0F
:100DB000031DE72E0330A70014302200A8002000F6
:100DC000032025302200A80020008920A20122084B
:100DD000443C031DF72EAE0114302200A800200071
:100DE000032026302200A80020008920A20122082A
:100DF000453C031D082F0130AE0014302200A8002E
:100E00002000032026302200A80020008920A20113
:100E10002208463C031D192F0230AE001430220078
:100E2000A8002000032026302200A80020008920EE
:100E3000A2012208473C031D2A2F0330AE001430C4
:100E40002200A8002000032026302200A800200055
:100E50008920A201080022002708AB002608AA006A
:100E60002508A9002408A800AF01AE010330AD0099
:100E7000E830AC002000A6237A082200A7007908F9
:100E8000A6007808A5007708A400200036237A0879
:100E90002100BB007908BA007808B9007708B800CB
:100EA000200036237A082200AB007908AA007808CF
:100EB000A9007708A8000A3028072100BC000030EC
:100EC0002200293D2100BD00003022002A3D2100E2
:100ED000BE00003022002B3D2100BF003B08220055
:100EE000AB0021003A082200AA00210039082200A4
:100EF000A900210038082200A80021003F08220094
:100F0000AF0021003E082200AE0021003D08220073
:100F1000AD0021003C082200AC00200089237A08A3
:100F20002100C3007908C2007808C1007708C0001A
:100F3000430822002702031CF12F031DB72F2100B5
:100F4000420822002602031CF12F031DB72F2100A7
:100F5000410822002502031CF12F031DB72F24088E
:100F600021004002031CB62F2200F12F2200200096
:100F700036237A082100BF007908BE007808BD003A
:100F80007708BC003B082200AB0021003A08220091
:100F9000AA00210039082200A900210038082200F7
:100FA000A80021003F082200AF0021003E082200D7
:100FB000AE0021003D082200AD0021003C082200C7
:100FC000AC00200089237A082100C3007908C20000
:100FD0007808C1007708C0002000C1252100982FA3
:060FE000220020000800C1
:10100000F016F01E152801302200A80080312000C3
:10101000892088312200A701A601A5013230A40051
:10102000803120002B27883101287017701F352848
:101030006F1C212805302200A80080312000892063
:1010400088316F182A2806302200A800803120003D
:10105000892088312200A701A601A5013230A40011
:10106000803120002B2788311628F017F01F5528D3
:10107000EF1C412808302200A80080312000892080
:101080008831EF184A2809302200A800803120005A
:10109000892088312200A701A601A5013230A400D1
:1010A000803120002B27883136287114711C752857
:1010B0006F1D612811302200A80080312000892096
:1010C00088316F196A2812302200A8008031200070
:1010D000892088312200A701A601A5013230A40091
:1010E000803120002B2788315628F114F11C8A28E2
:1010F00003302200A800803120008920883122009E
:10110000A701A601A5013230A400803120002B27C1
:10111000883176287115711D98282200A701A60133
:10112000A5013230A400803120002B2788318B2884
:1011300015302200A80080312000892088319031AC
:10114000B52DA301A401A501A601A701AD01AE0122
:10115000FF30A800A900AA00AB00AC009031B82D68
:10116000F313F31BB7288031C1258831B1287410DF
:101170007418BE288031C1258831B8289031BB2D24
:1011800022002708AB002608AA002508A900240889
:10119000A800AF01AE010330AD00E830AC008031F3
:1011A0002000A62388317A082200A7007908A6002B
:1011B0007808A5007708A400803120003623883104
:1011C0007A082100BB007908BA007808B9007708CE
:1011D000B80080312000362388317A082200AB0025
:1011E0007908AA007808A9007708A8000A3028071B
:1011F0002100BC0000302200293D2100BD0000304C
:1012000022002A3D2100BE00003022002B3D21009B
:10121000BF003B082200AB0021003A082200AA00D0
:10122000210039082200A900210038082200A80066
:1012300021003F082200AF0021003E082200AE003E
:1012400021003D082200AD0021003C082200AC0036
:1012500080312000892388317A082100C300790871
:10126000C2007808C1007708C000430822002702A6
:10127000031C9429031D5429210042082200260240
:10128000031C9429031D5429210041082200250232
:10129000031C9429031D5429240821004002031C27
:1012A00053292200942922008031200036238831DE
:1012B0007A082100BF007908BE007808BD007708D1
:1012C000BC003B082200AB0021003A082200AA0023
:1012D000210039082200A900210038082200A800B6
:1012E00021003F082200AF0021003E082200AE008E
:1012F00021003D082200AD0021003C082200AC0086
:1013000080312000892388317A082100C3007908C0
:10131000C2007808C1007708C00080312000922008
:10132000883121003529220020000800711FCC2AB5
:101330008031242388312200A701A601A501FA30BB
:10134000A4002000C0208031BE21883180311822C5
:1013500088312200A701A601A5011430A4002000B5
:10136000C020B808031DB8293708283C0318CC2A28
:101370006F107113FF30AA00AD01F310F318D029DC
:1013800081302200A800803120008920883122008D
:10139000A701A601A5013230A4002000C020BE296B
:1013A0002200A701A601A5016430A4002000C020EE
:1013B000EF1FCC2A8031772088312200A701A601B7
:1013C000A501FA30A4002000C020701170190F2A66
:1013D0008031772088312200A701A601A5011430B1
:1013E000A4002000C0208031BE218831B808031D30
:1013F000FD293708283C03180E2A6F10F111EF1150
:101400007113EF1370158031182288312200A70163
:10141000A601A5011430A4002000C020E6298031D7
:10142000242388312200A701A601A501FA30A400D7
:101430002000C0208031362388317A08C200790824
:10144000C1007808C0007708BF00701170194D2ADC
:101450008031242388318031362388317A08C600D0
:101460007908C5007808C4007708C3008031BE2120
:101470008831B808031D402A3708283C03184C2A35
:1014800070158031182288312200A701A601A5011C
:101490001430A4002000C020262A6F18CC2A42084D
:1014A0002200AB00200041082200AA0020004008D2
:1014B0002200A90020003F082200A80020004608C2
:1014C0002200AF00200045082200AE0020004408A2
:1014D0002200AD00200043082200AC008031200033
:1014E000892388317A08CA007908C9007808C800B9
:1014F0007708C700403047022200A4000D302000CA
:10150000483B2200A50003302000493B2200A600F2
:10151000003020004A3B2200A70027082000D2000C
:10152000220026082000D100220025082000D0003B
:10153000220024082000CF000310470DCB00480DE7
:10154000CC00490DCD004A0DCE0003104A0C2200FC
:10155000A7002000490C2200A6002000480C220011
:10156000A5002000470C2200A400E030A402933024
:10157000A53B0430A63B0030A73B27082000D6003F
:10158000220026082000D500220025082000D400D3
:10159000220024082000D300F11FDA2B80312622FC
:1015A00088312200A701A601A501FA30A40020007D
:1015B000C0208031BE218831803140228831220014
:1015C000A701A601A5011430A4002000C020B8087E
:1015D000031DEE2A3708463C0318DA2BEF10F113EF
:1015E000FF30AB0073117319052B82302200A80065
:1015F00080312000892088312200A701A601A501A1
:101600003230A4002000C020F32A2200A701A60146
:10161000A5016430A4002000C020701CDA2B8031AA
:10162000262288312200A701A601A501FA30A400D4
:101630002000C020F011F019442B8031262288317F
:101640002200A701A601A5011430A4002000C0209B
:101650008031BE218831B808031D322B3708463C43
:101660000318432BEF1071126F12F1137010F01565
:101670008031402288312200A701A601A501143043
:10168000A4002000C0201B2B80315D238831220064
:10169000A701A601A501FA30A4002000C0208031D6
:1016A000362388317A08DA007908D9007808D8001A
:1016B0007708D700F011F019822B80315D23883133
:1016C0008031362388317A08DE007908DD00780819
:1016D000DC007708DB008031BE218831B808031DAB
:1016E000752B3708463C0318812BF01580314022BA
:1016F00088312200A701A601A5011430A400200012
:10170000C0205B2BEF18DA2B5A082200AB00200018
:1017100059082200AA00200058082200A900200031
:1017200057082200A80020005E082200AF00200019
:101730005D082200AE0020005C082200AD00200001
:101740005B082200AC0080312000892388317A08B0
:10175000E2007908E1007808E0007708DF00403017
:101760005F022200A4000D302000603B2200A50093
:1017700003302000613B2200A60000302000623BC5
:101780002200A70027082000EA00220026082000E7
:10179000E900220025082000E8002200240820009B
:1017A000E70003105F0DE300600DE400610DE5004C
:1017B000620DE600721C242D8031772388312200CF
:1017C000A701A601A501FA30A4002000C0208031A5
:1017D000BE21883180316C2288312200A701A60108
:1017E000A5011430A4002000C020B808031DFC2B64
:1017F0003708283C0318242D6F117210FF30AC00FD
:10180000AE01F311F319142C83302200A8008031AB
:101810002000892088312200A701A601A5013230CD
:10182000A4002000C020022C2200A701A601A501CF
:101830006430A4002000C020F01C242D80315A22E6
:1018400088312200A701A601A501FA30A4002000DA
:10185000C0207012701A532C80315A228831220015
:10186000A701A601A5011430A4002000C0208031EA
:10187000BE218831B808031D412C3708283C0318C5
:10188000522C6F11F112EF127210F010701680319D
:101890006C2288312200A701A601A5011430A40002
:1018A0002000C0202A2C8031772388312200A70114
:1018B000A601A501FA30A4002000C0208031362303
:1018C00088317A08EE007908ED007808EC00770896
:1018D000EB007012701A932C80317723883180319D
:1018E000362388317A082100A3007908A2007808FD
:1018F000A1007708A00080312000BE218831B808FF
:10190000031D862C3708283C0318922C7016803152
:101910006C2288312200A701A601A5011430A40081
:101920002000C0206A2C6F19242D6E082200AB0005
:1019300020006D082200AA0020006C082200A900E7
:1019400020006B082200A800210023082200AF001D
:10195000210022082200AE00210021082200AD0053
:10196000210020082200AC0080312000892388312A
:101970007A082100A7007908A6007808A500770852
:10198000A400403024022200A4000D302100253B99
:101990002200A50003302100263B2200A6000030D3
:1019A0002100273B2200A70027082100AF002200CA
:1019B00026082100AE00220025082100AD002200EB
:1019C00024082100AC000310240DA800250DA90057
:1019D000260DAA00270DAB000310270CB300260C20
:1019E000B200250CB100240CB000270C2200A70087
:1019F0002100260C2200A6002100250C2200A500B3
:101A00002100240C2200A400A70CA60CA50CA40CF9
:101A10003F30A7052708AB002608AA002508A90023
:101A20002408A800AF01AE01AD010330AC00803145
:101A30002000A62388317A082100B7007908B60073
:101A40007808B5007708B40020000800230803399F
:101A5000031D3A2DA3012308A80021008D102200A8
:101A60008D1021000D1122000D1121000D102200FA
:101A70000D10200023080339013C031D4E2D2308BF
:101A8000A80021008D1022008D1421000D112200CC
:101A90000D1121000D1022000D1020002308033924
:101AA000023C031D622D2308A80021008D10220096
:101AB0008D1421000D1122000D1521000D102200A2
:101AC0000D10200023080339033C031D752D230846
:101AD000A80021008D1022008D1421000D1122007C
:101AE0000D1521000D1022000D1420000800220009
:101AF0002508F80124020318802D2408F7008C2DF6
:101B0000F7010830A600A40DF70D25087702031889
:101B1000F700F80DA60B832D2000080024082200F2
:101B2000A4000330A50020007725F708031DA42D8D
:101B3000A4012408A90021000D1222000D12210089
:101B40008D1122008D11200024082200A4000330F2
:101B5000A50020007725770BB82D2408A9002100C7
:101B60000D1222000D1621008D1122008D11200072
:101B700024082200A4000330A50020007725770860
:101B8000023C031DCD2D2408A90021000D122200C6
:101B90000D1621008D1122008D15200008008031C6
:101BA000362388317A082100CB007908CA007808EA
:101BB000C9007708C80047082200AB00210046088A
:101BC0002200AA00210045082200A90021004408A3
:101BD0002200A80021004B082200AF0021004A0883
:101BE0002200AE00210049082200AD002100480873
:101BF0002200AC0080312000892388317A0821003E
:101C0000CF007908CE007808CD007708CC002000FE
:101C10004E0821004F02031C4C2E031D272E2000CE
:101C20004D0821004E02031C4C2E031D272E2000C0
:101C30004C0821004D02031C4C2E031D272E4C087E
:101C400020004B02031C262E21004C2E2100721D69
:101C50004C2E80312000182288312200A701A601D5
:101C6000A5011430A4002000C0206F14F1157117D5
:101C70007312731A4B2E91302200A800803120007D
:101C8000892088312200A701A601A5013230A400D5
:101C90002000C020392E210020000800803136238A
:101CA00088317A082100D7007908D6007808D50055
:101CB0007708D40053082200AB002100520822000C
:101CC000AA00210051082200A9002100500822008A
:101CD000A800210057082200AF002100560822006A
:101CE000AE00210055082200AD002100540822005A
:101CF000AC0080312000892388317A082100DB0084
:101D00007908DA007808D9007708D800200066083A
:101D100021005B02031CCB2E031DA62E20006508AC
:101D200021005A02031CCB2E031DA62E200064089E
:101D300021005902031CCB2E031DA62E580820009B
:101D40006302031CA52E2100CB2E2100721ECB2E78
:101D500080312000402288312200A701A601A50180
:101D60001430A4002000C020EF147116F117F312F4
:101D7000F31ACA2E92302200A80080312000892058
:101D800088312200A701A601A5013230A40020005D
:101D9000C020B82E2100200008006F19E72E270868
:101DA0000339031DD52E7310E62E7314F21FE62E91
:101DB000F2138031362388317A082100EB0079084C
:101DC000EA007808E9007708E8002000E82E7310A0
:101DD0000800731C412FF21B402F803136238831BD
:101DE0007A082100EF007908EE007808ED00770806
:101DF000EC006B082200AB0021006A082200AA0058
:101E0000210069082200A900210068082200A8001A
:101E100021006F082200AF0021006E082200AE00F2
:101E200021006D082200AD0021006C082200AC00EA
:101E300080312000892388317A082200A3007908A4
:101E4000A2007808A1007708A000A308031D3A2F7C
:101E500022081D3C03183F2FFF3A031D3A2F21088B
:101E6000833C03183F2FFF3A031D3A2F2008803C84
:101E700003183F2FF21721008D1222008D1620002B
:101E8000462FF21721008D1222008D12200008002B
:101E90008031362388317A082100E3007908E20096
:101EA0007808E1007708E0005F082200AB0021001D
:101EB0005E082200AA0021005D082200A90021007E
:101EC0005C082200A800210063082200AF00210066
:101ED00062082200AE00210061082200AD0021004E
:101EE00060082200AC0080312000892388317A0804
:101EF0002100E7007908E6007808E5007708E400AB
:101F00002B086702031CBD2F031D962F2A086602AB
:101F1000031CBD2F031D962F29086502031CBD2F2E
:101F2000031D962F640828020318BD2F721FBD2FB2
:101F3000803120006C2288312200A701A601A50172
:101F40001430A4002000C0206F15F1167214CD26A5
:101F5000E9267313731BBC2F93302200A800803135
:101F60002000892088312200A701A601A501323076
:101F7000A4002000C020AA2F2100200008009621E4
:101F800026258E25903100208831903149238831D3
:101F9000983100208831CD26E9269031BE2D96213A
:101FA000CD26E92628082302031D26252908240218
:101FB000031D8E259031C42D6F18E52F2A082502A8
:101FC0000319E52F903100208831EF18EE2F2B08F0
:101FD00026020319EE2F9031492388316F19F72F0C
:101FE0002C0827020319F72F9831002088319031EF
:021FF000C72DFB
:1020000025082200A4000330A50088312000772590
:102010009031F708031DBC28A5012508AA006F18F8
:10202000BC288031242390312200A701A601A501FC
:10203000C830A40088312000C02090318031362380
:1020400090317A082100C7007908C6007808C500D9
:102050007708C4002200A701A601A5013230A40020
:1020600088312000C0209031F2147215803136235F
:1020700090317A08C2007908C1007808C00077085A
:10208000BF00F111F119BC288031362390317A0854
:10209000C6007908C5007808C4007708C300420864
:1020A0002200AB00200041082200AA0020004008C6
:1020B0002200A90020003F082200A80020004608B6
:1020C0002200AF00200045082200AE002000440896
:1020D0002200AD00200043082200AC008031200027
:1020E000892390317A08CA007908C9007808C800A5
:1020F0007708C7008031242390312200A701A60170
:10210000A5011430A40088312000C0209031803116
:10211000BE219031B808031D91283708283C0318C8
:10212000B82852084A02031CB828031DA7285108E2
:102130004902031CB828031DA72850084802031CA5
:10214000B828031DA72847084F020318B828803174
:10215000182290312200A701A601A5011430A40085
:1021600088312000C0209031F115F2107211AD01BC
:102170008831CF259031422825082200A400033061
:10218000A5008831200077259031770B7729250825
:10219000AA006F1877298031772090312200A7019B
:1021A000A601A501C830A40088312000C0209031CC
:1021B0008031362390317A082100C7007908C600A3
:1021C0007808C5007708C4002200A701A601A50170
:1021D0003230A40088312000C0209031F2147215F2
:1021E0008031362390317A08C2007908C10078081E
:1021F000C0007708BF00F111F1197729803136232B
:1022000090317A08C6007908C5007808C4007708BC
:10221000C30042082200AB00200041082200AA00AF
:10222000200040082200A90020003F082200A8004A
:10223000200046082200AF00200045082200AE0022
:10224000200044082200AD00200043082200AC001A
:1022500080312000892390317A08CA007908C900AA
:102260007808C8007708C7008031772090312200B5
:10227000A701A601A5011430A40088312000C020C8
:1022800090318031BE219031B808031D4B293708A9
:10229000283C0318732952084A02031C7329031DA2
:1022A000612951084902031C7329031D6129500843
:1022B0004802031C7329031D612947084F020318B4
:1022C00073298031182290312200A701A601A501AF
:1022D0001430A40088312000C0209031F115F21094
:1022E00072110130AD008831CF259031FC282508CE
:1022F0002200A4000330A50088312000772590310A
:102300007708023C031D482B2508AA002D0822004F
:10231000A4000330A5008831200077259031F7080C
:10232000031D5B2A8031242390312200A701A601DE
:10233000A501FA30A40088312000C02090318031FE
:10234000BE2190318031182290312200A701A601D0
:10235000A5011430A40088312000C0209031B808B5
:10236000031DCE2937080E3C031CCE296F147117AC
:102370007312731ACD2991302200A80080312000F9
:10238000892090312200A701A601A5013230A400C6
:1023900088312000C0209031B929D0296F107113E5
:1023A0006F185B2A8031772090312200A701A601A7
:1023B000A501FA30A40088312000C020903180317E
:1023C000362390317A08C2007908C1007808C0002D
:1023D0007708BF00F111F1195B2A8031922090310A
:1023E0008031362390317A08C6007908C500780814
:1023F000C4007708C30042082200AB002000410857
:102400002200AA00200040082200A90020003F0866
:102410002200A800200046082200AF002000450846
:102420002200AE00200044082200AD002000430836
:102430002200AC0080312000892390317A08CA0044
:102440007908C9007808C8007708C700803177206C
:10245000903120305307F700A130543DF800073089
:10246000553DF9000030563DFA004A02031C5A2A35
:10247000031D4A2A79084902031C5A2A031D4A2AC5
:1024800078084802031C5A2A031D4A2A4708770283
:1024900003185A2A8031182290312200A701A60180
:1024A000A5011430A40088312000C0209031F1151E
:1024B0000230AD00EB292D082200A4000330A50056
:1024C0008831200077259031770B482B8031772099
:1024D00090312200A701A601A501FA30A40088319D
:1024E0002000C02090318031BE21903180311822EF
:1024F00090312200A701A601A5011430A400883163
:102500002000C0209031B808031DA22A37080E3CD5
:10251000031CA22A6F1471177312731AA12A913027
:102520002200A80080312000892090312200A701DC
:10253000A601A5013230A40088312000C0209031CE
:102540008D2AA42A6F1071136F18482B8031242311
:1025500090312200A701A601A501FA30A40088311C
:102560002000C02090318031362390317A08C2009B
:102570007908C1007808C0007708BF00F111F1198F
:10258000482B8031922090318031362390317A0867
:10259000C6007908C5007808C4007708C30042085F
:1025A0002200AB00200041082200AA0020004008C1
:1025B0002200A90020003F082200A80020004608B1
:1025C0002200AF00200045082200AE002000440891
:1025D0002200AD00200043082200AC008031200022
:1025E000892390317A08CA007908C9007808C800A0
:1025F0007708C70080312423903120305302220015
:10260000A400A1302000543B2200A5000730200088
:10261000553B2200A60000302000563B2200A700B8
:102620002408F7002508F8002608F9002708FA0012
:10263000270820004A02031C472B031D372B2200CA
:10264000260820004902031C472B031D372B2200BC
:10265000250820004802031C472B031D372B470881
:1026600022002402031C362B2000472B200080313F
:10267000182290312200A701A601A5011430A40060
:1026800088312000C0209031F1150230AD00BF2A02
:10269000080026080139031DFC2BA6012608AB0003
:1026A000EF18FC2B80315D2390312200A701A60199
:1026B000A501FA30A40088312000C020903180317B
:1026C000362390317A082100D3007908D2007808A7
:1026D000D1007708D0002200A701A601A501323061
:1026E000A40088312000C0209031F215721680318C
:1026F000362390317A08DA007908D9007808D800B2
:102700007708D7007112711AFC2B80313623903173
:102710007A08DE007908DD007808DC007708DB0045
:102720005A082200AB00200059082200AA0020000D
:1027300058082200A900200057082200A800200005
:102740005E082200AF0020005D082200AE002000DD
:102750005C082200AD0020005B082200AC00803144
:102760002000892390317A08E2007908E100780896
:10277000E0007708DF0080315D2390312200A7015F
:10278000A601A5011430A40088312000C02090319A
:102790008031BE219031B808031DD22B3708463C4A
:1027A0000318F82B6A086202031CF82B031DE82BA0
:1027B00069086102031CF82B031DE82B68086002FE
:1027C000031CF82B031DE82B5F0867020318F82B86
:1027D0008031402290312200A701A601A5011430CA
:1027E000A40088312000C02090317116F2117212BD
:1027F00088314E269031832B26080139013C031D78
:10280000AF2C2608AB00EF18AF2C80312622903178
:102810002200A701A601A501FA30A40088312000FA
:10282000C02090318031362390317A082100D300C6
:102830007908D2007808D1007708D0002200A701DB
:10284000A601A5013230A40088312000C0209031BB
:10285000F21572168031362390317A08DA00790841
:10286000D9007808D8007708D7007112711AAF2CF8
:102870008031362390317A08DE007908DD0078084F
:10288000DC007708DB005A082200AB002000590862
:102890002200AA00200058082200A90020005708A2
:1028A0002200A80020005E082200AF0020005D0882
:1028B0002200AE0020005C082200AD0020005B0872
:1028C0002200AC0080312000892390317A08E20098
:1028D0007908E1007808E0007708DF0080312622DF
:1028E00090312200A701A601A5011430A40088316F
:1028F0002000C02090318031BE219031B808031DE6
:10290000852C3708463C0318AB2C6A086202031C6E
:10291000AB2C031D9B2C69086102031CAB2C031D0F
:102920009B2C68086002031CAB2C031D9B2C5F08CA
:1029300067020318AB2C8031402290312200A7019E
:10294000A601A5011430A40088312000C0209031D8
:102950007116F211721288314E269031362C080011
:102960006A30210099001A082000A101A00122006C
:102970009D1205302000980099019601970196015B
:10298000111023009F1119309B00A6309E0090303B
:102990009D002000A201A301A401A501A601A70199
:1029A000FF30A800A900AA00AB00AC00AD01AE0149
:1029B000AF01B001B201B101B401B301B601B5017B
:1029C000B801B701BA01B901BE01BD01BC01BB012B
:1029D000C201C101C001BF01C601C501C401C301DB
:1029E000CA01C901C801C701CE01CD01CC01CB018B
:1029F000D201D101D001CF01D601D501D401D3013B
:102A0000DA01D901D801D701DE01DD01DC01DB01EA
:102A1000E201E101E001DF01E601E501E401E3019A
:102A2000EA01E901E801E701EE01ED01EC01EB014A
:102A30002100A301A201A101A001A701A601A501F6
:102A4000A401AB01AA01A901A801AF01AE01AD012A
:102A5000AC01B301B201B101B001B701B601B501DA
:102A6000B401BB01BA01B901B801BF01BE01BD018A
:102A7000BC01C301C201C101C001C701C601C5013A
:102A8000C401CB01CA01C901C801CF01CE01CD01EA
:102A9000CC01D301D201D101D001D701D601D5019A
:102AA000D401DB01DA01D901D801DF01DE01DD014A
:102AB000DC01E301E201E101E001E701E601E501FA
:102AC000E401EB01EA01E901E801EF01EE01ED01AA
:102AD000EC012200A301A201A101A00120006F10BE
:102AE000EF106F11EF116F12EF126F17EF137010DD
:102AF000F0107011F0117012F0127013F0137110C9
:102B0000F1107111F1117112F1127113F1137210B0
:102B1000F2107211F2117212F2127213F213731098
:102B2000F3107311F3117312F3127313F313741080
:102B3000F4102F0091019201980199019A0123004C
:102B40008C018D018F01900122009201910194016D
:102B50009301803120001928903180317A2A9031F8
:102B60008031D22B90318831002890318831A128D2
:102B700090318831B02890318831BF2F9031803129
:102B8000922090318831CF2F90318831DC2F9031D5
:042B9000BF2D6300F2
:1030000027080339031DBC28A7012708AC006F1946
:10301000BC288031772398312200A701A601A501A1
:10302000FA30A40088312000C02098318031362346
:1030300098317A082100DF007908DE007808DD0089
:103040007708DC002200A701A601A5013230A40008
:1030500088312000C0209831F21672178031362353
:1030600098317A08EE007908ED007808EC007708CE
:10307000EB00F112F11ABC288031362398317A081E
:103080002100A3007908A2007808A1007708A00019
:1030900020006E082200AB0020006D082200AA006C
:1030A00020006C082200A90020006B082200A80064
:1030B000210023082200AF00210022082200AE00D8
:1030C000210021082200AD00210020082200AC00D0
:1030D00080312000892398317A082100A7007908DF
:1030E000A6007808A5007708A40080312000772387
:1030F00098312200A701A601A5011430A40088314F
:103100002000C02098318031BE219831B808031DBD
:103110008D283708283C0318B62821002F082702DD
:10312000031CB728031DA4282E082602031CB72859
:10313000031DA4282D082502031CB728031DA4285D
:1031400024082C020318B728803120006C22983103
:103150002200A701A601A5011430A4008831200097
:10316000C0209831F116F2127213AE01210088319D
:103170002000482798313A2827080339013C031DCD
:10318000992B2708AC002E080339031DB129803183
:10319000772398312200A701A601A501FA30A400E7
:1031A00088312000C02098318031BE219831803193
:1031B0006C2298312200A701A601A5011430A400B9
:1031C00088312000C0209831B808031D0329370832
:1031D0000E3C031C03296F1572147313731B022911
:1031E00093302200A80080312000892098312200ED
:1031F000A701A601A5013230A40088312000C0201B
:103200009831EE2805296F1172106F19B12980319C
:103210005A2298312200A701A601A501FA30A40084
:1032200088312000C02098318031362398317A08C7
:10323000EE007908ED007808EC007708EB00F11259
:10324000F11AB1298031922098318031362398319A
:103250007A082100A3007908A2007808A100770865
:10326000A00020006E082200AB0020006D082200A4
:10327000AA0020006C082200A90020006B08220090
:10328000A800210023082200AF002100220822000C
:10329000AE00210021082200AD00210020082200FC
:1032A000AC0080312000892398317A082100A700E2
:1032B0007908A6007808A5007708A40080312000CE
:1032C0005A2298319030210030022200A400D030E0
:1032D0002100313B2200A50003302100323B2200B7
:1032E000A60000302100333B2200A7002408F7008D
:1032F0002508F8002608F9002708FA002708210009
:103300002702031CAF29031D9D2922002608210046
:103310002602031CAF29031D9D2922002508210038
:103320002502031CAF29031D9D2924082200240225
:10333000031C9C292100AF292100803120006C2230
:1033400098312200A701A601A5011430A4008831FC
:103350002000C0209831F1160130AE00210020007D
:1033600020292E080339023C031DAA2AF414B001B7
:1033700080315A2298313008053C031CCD29F41CB9
:10338000CD29B00A8031BE219831B808031DCB2960
:1033900037080F3C031CF410BB2980316C22983194
:1033A0002200A701A601A5011430A4008831200045
:1033B000C0209831F41CF4296F1572147313731B19
:1033C000F32993302200A800803120008920983111
:1033D0002200A701A601A5013230A40088312000F7
:1033E000C0209831DF29F6296F1172106F19AA2AAF
:1033F0008031772398312200A701A601A501FA3078
:10340000A40088312000C0209831803136239831C3
:103410007A08EE007908ED007808EC007708EB00F8
:10342000F112F11AAA2A8031922098318031362384
:1034300098317A082100A3007908A2007808A10039
:103440007708A00020006E082200AB0020006D0865
:103450002200AA0020006C082200A90020006B08AE
:103460002200A800210023082200AF00210022082A
:103470002200AE00210021082200AD00210020081A
:103480002200AC0080312000892398317A08210085
:10349000A7007908A6007808A5007708A400803165
:1034A0002000772398312100300834022200A40044
:1034B00021003108353B2200A50021003208363BAF
:1034C0002200A60021003308373B2200A7009030DD
:1034D000A402D030A53B0330A63B0030A73B240814
:1034E000F7002508F8002608F9002708FA00270841
:1034F00021002702031CA82A031D962A2200260861
:1035000021002602031CA82A031D962A2200250852
:1035100021002502031CA82A031D962A2408220044
:103520002402031C952A2100A82A210080312000B2
:103530006C2298312200A701A601A5011430A40035
:1035400088312000C0209831F1160130AE002100F2
:103550002000112A2E080339033C031D992B8031CA
:103560005A2298312200A701A601A501FA30A40031
:1035700088312000C02098318031BE2198318031BF
:103580006C2298312200A701A601A5011430A400E5
:1035900088312000C0209831B808031DEB2A370875
:1035A0000E3C031CEB2A6F1572147313731BEA2A6B
:1035B00093302200A8008031200089209831220019
:1035C000A701A601A5013230A40088312000C02047
:1035D0009831D62AED2A6F1172106F19992B80310C
:1035E000772398312200A701A601A501FA30A40093
:1035F00088312000C02098318031362398317A08F4
:10360000EE007908ED007808EC007708EB00F11285
:10361000F11A992B803192209831803136239831DC
:103620007A082100A3007908A2007808A100770891
:10363000A00020006E082200AB0020006D082200D0
:10364000AA0020006C082200A90020006B082200BC
:10365000A800210023082200AF0021002208220038
:10366000AE00210021082200AD0021002008220028
:10367000AC0080312000892398317A082100A7000E
:103680007908A6007808A5007708A40080312000FA
:10369000772398319030210030022200A400D030EE
:1036A0002100313B2200A50003302100323B2200E3
:1036B000A60000302100333B2200A7002408F700B9
:1036C0002508F8002608F9002708FA002708210035
:1036D0002702031C972B031D852B2200260821009F
:1036E0002602031C972B031D852B22002508210091
:1036F0002502031C972B031D852B2408220024027E
:10370000031C842B2100972B2100803120006C2288
:1037100098312200A701A601A5011430A400883128
:103720002000C0209831F1160130AE0021002000A9
:10373000082B27080339023C031D812E2708AC0003
:103740002E080339031D8E2C8031772398312200F7
:10375000A701A601A501FA30A40088312000C020ED
:1037600098318031BE21983180316C22983122000D
:10377000A701A601A5011430A40088312000C020B3
:103780009831B808031DE02B37080E3C031CE02BD2
:103790006F1572147313731BDF2B93302200A80074
:1037A00080312000892098312200A701A601A501BF
:1037B0003230A40088312000C0209831CB2BE22B7E
:1037C0006F1172106F198E2C80315A22983122009D
:1037D000A701A601A501FA30A40088312000C0206D
:1037E00098318031362398317A08EE007908ED005F
:1037F0007808EC007708EB00F112F11A8E2C80317A
:10380000922098318031362398317A082100A30024
:103810007908A2007808A1007708A00020006E08AF
:103820002200AB0020006D082200AA0020006C08D6
:103830002200A90020006B082200A8002100230814
:103840002200AF00210022082200AE002100210842
:103850002200AD00210020082200AC0080312000B1
:10386000892398317A082100A7007908A6007808F2
:10387000A5007708A400803120005A2298319030AA
:10388000210034022200A400D0302100353B220068
:10389000A50003302100363B2200A60000302100A5
:1038A000373B2200A7002408F7002508F800260867
:1038B000F9002708FA00270821002702031C8C2C96
:1038C000031D7A2C2200260821002602031C8C2CC2
:1038D000031D7A2C2200250821002502031C8C2CB4
:1038E000031D7A2C240822002402031C792C2100B9
:1038F0008C2C2100803120006C2298312200A701FD
:10390000A601A5011430A40088312000C020983100
:10391000F1160230AE0021002000FD2B2E080339E5
:10392000013C031D8A2DF414B001803177239831B6
:103930003008053C031CAA2CF41CAA2CB00A8031C8
:10394000BE219831B808031DA82C37080F3C031C72
:10395000F410982C8031BE21983180316C2298313E
:103960002200A701A601A5011430A400883120007F
:10397000C0209831F41CD42C6F1572147313731B70
:10398000D32C93302200A800803120008920983168
:103990002200A701A601A5013230A4008831200031
:1039A000C0209831BF2CD62C6F1172106F198A2D40
:1039B00080315A2298312200A701A601A501FA30D0
:1039C000A40088312000C0209831803136239831FE
:1039D0007A08EE007908ED007808EC007708EB0033
:1039E000F112F11A8A2D80319220983180313623DC
:1039F00098317A082100A3007908A2007808A10074
:103A00007708A00020006E082200AB0020006D089F
:103A10002200AA0020006C082200A90020006B08E8
:103A20002200A800210023082200AF002100220864
:103A30002200AE00210021082200AD002100200854
:103A40002200AC0080312000892398317A082100BF
:103A5000A7007908A6007808A5007708A40080319F
:103A600020005A2298312100300834022200A4009C
:103A700021003108353B2200A50021003208363BE9
:103A80002200A60021003308373B2200A700903017
:103A9000A402D030A53B0330A63B0030A73B24084E
:103AA000F7002508F8002608F9002708FA0027087B
:103AB00021002702031C882D031D762D22002608D5
:103AC00021002602031C882D031D762D22002508C7
:103AD00021002502031C882D031D762D24082200B9
:103AE0002402031C752D2100882D21008031200027
:103AF0006C2298312200A701A601A5011430A40070
:103B000088312000C0209831F1160230AE0021002B
:103B10002000F12C2E080339033C031D812E803137
:103B20005A2298312200A701A601A501FA30A4006B
:103B300088312000C02098318031BE2198318031F9
:103B40006C2298312200A701A601A5011430A4001F
:103B500088312000C0209831B808031DCB2D3708CC
:103B60000E3C031CCB2D6F1572147313731BCA2DDF
:103B700093302200A8008031200089209831220053
:103B8000A701A601A5013230A40088312000C02081
:103B90009831B62DCD2D6F1172106F19812E803195
:103BA000772398312200A701A601A501FA30A400CD
:103BB00088312000C02098318031362398317A082E
:103BC000EE007908ED007808EC007708EB00F112C0
:103BD000F11A812E8031922098318031362398312C
:103BE0007A082100A3007908A2007808A1007708CC
:103BF000A00020006E082200AB0020006D0822000B
:103C0000AA0020006C082200A90020006B082200F6
:103C1000A800210023082200AF0021002208220072
:103C2000AE00210021082200AD0021002008220062
:103C3000AC0080312000892398317A082100A70048
:103C40007908A6007808A5007708A4008031200034
:103C5000772398312100300834022200A40021008B
:103C60003108353B2200A50021003208363B2200F6
:103C7000A60021003308373B2200A700F030A40241
:103C80004930A53B0230A63B0030A73B2408F70093
:103C90002508F8002608F9002708FA00270821005F
:103CA0002702031C7F2E031D6D2E220026082100F3
:103CB0002602031C7F2E031D6D2E220025082100E5
:103CC0002502031C7F2E031D6D2E240822002402D2
:103CD000031C6C2E21007F2E2100803120006C22DD
:103CE00098312200A701A601A5011430A400883153
:103CF0002000C0209831F1160230AE0021002000D3
:103D0000E82D27080339033C031D3E2F2708AC008C
:103D10006F193E2F80315A2298312200A701A60147
:103D2000A501FA30A40088312000C02098318031EC
:103D3000362398317A082100DF007908DE00780800
:103D4000DD007708DC002200A701A601A5013230C2
:103D5000A40088312000C0209831F21672178031FB
:103D6000362398317A08EE007908ED007808EC00E7
:103D70007708EB00F112F11A3E2F8031362398318B
:103D80007A082100A3007908A2007808A10077082A
:103D9000A00020006E082200AB0020006D08220069
:103DA000AA0020006C082200A90020006B08220055
:103DB000A800210023082200AF00210022082200D1
:103DC000AE00210021082200AD00210020082200C1
:103DD000AC0080312000892398317A082100A700A7
:103DE0007908A6007808A5007708A4008031200093
:103DF0005A2298312200A701A601A5011430A4007F
:103E000088312000C02098318031BE219831B80817
:103E1000031D0E2F3708283C0318382F21002F08C8
:103E20002702031C392F031D252F2E082602031CF1
:103E3000392F031D252F2D082502031C392F031DA3
:103E4000252F24082C020318392F803120006C22E2
:103E500098312200A701A601A5011430A4008831E1
:103E60002000C0209831F116F21272130330AE0018
:0E3E700021008831200048279831BB2E080021
:020000040001F9
:04000E00A439FF1EF4
:00000001FF
;PIC16F1939
;CRC=6C60  CREATED="07-Mar-19 16:12"
