:100000009831C42D000020308500CF3084000008D6
:10001000031918280130F800F701F70B0D28F80B29
:100020000C284A30F700F70B13281628800B0A28F3
:10003000080021008F1022008F102000B401340826
:100040000F3C031C502821000F1022000F105108F4
:10005000D3005008D20020003408F70003193628D6
:100060002200D235D30DF70B312820000039F700DC
:10007000220053088039FA0077087A0403194528CA
:1000800021000F1122000F15492821000F11220015
:100090000F1121000F1022000F142000B40A1F2896
:1000A00021008F1022008F142000080022004E082B
:1000B0002000B50522004F082000B60536082200B2
:1000C000D100200035082200D000200019200800AF
:1000D00022004F08D1004E08D00050082000C00078
:1000E000BF0122005108D000D10120003F082200AA
:1000F000D004200040082200D1045008F800510824
:10010000F9007908CF007808CE0021008F13220073
:100110008F132000B30133080F3C031CBC282100BF
:100120000F1322000F134F08D1004E08D0002000FB
:100130003308F7000319A2282200D035D10DF70BA0
:100140009D2820000039F700220051088039FA006C
:1001500077087A040319B12821008F1222008F1624
:10016000B52821008F1222008F1221000F132200C8
:100170000F172000B30A8B2821008F1322008F173E
:100180002000080021000D1222000D1221008D1206
:1001900022008D1221000C1322000C1320000800F5
:1001A00021000D1222000D1221008E1222008E124B
:1001B00021008D1222008D1221000C1322000C133D
:1001C00021000E1222000E1221008E1122008E112B
:1001D0002000080021008E1222008E1221000E1233
:1001E00022000E1221008E1122008E112000080024
:1001F000111C04290130A0070318A10A0319A20A3F
:100200000319A30A111018291708FA001608F70095
:1002100017087A02031D04297708111C21290130CF
:10022000A0070318A10A0319A20A0319A30A1110AF
:100230001708FA001608F70017087A02031D182994
:100240007708F7007A08F8002008F9002108FA007A
:1002500022082200CE00CE0CFA0CF90CF80CF70C98
:10026000CE0CFA0CF90CF80CF70CCE0CFA0CF90CBD
:10027000F80CF70CCE0CFA0CF90CF80CF70CCE0CB1
:10028000FA0CF90CF80CF70CCE0CFA0CF90CF80C73
:10029000F70CCE0CFA0CF90CF80CF70C2000080047
:1002A00022004E084F068039D100CE1F5929CE09B1
:1002B000CE0ACF1F5D29CF09CF0A4F08F8014E02A1
:1002C000031865294E08F7007129F7010830D0009E
:1002D000CE0DF70D4F0877020318F700F80DD00B7D
:1002E0006829D11F7529F809F80A200008002200A2
:1002F0004E082000B50422004F082000B60436083E
:100300002200D100200035082200D0002000192052
:10031000080045082200CE000430CF002000502104
:10032000F708031DA629FF302200CF00FD30CE00C4
:1003300020005620FF302200CF00FE30CE002000EB
:10034000562021000F1222000F1220004508220023
:10035000CE000430CF0020005021770BC1292200AD
:10036000CF010230CE0020007721FF302200CF00E5
:10037000FE30CE002000562021000F1222000F1266
:10038000200045082200CE000430CF00200050217C
:100390007708023C031DDE29FF302200CF00FD302C
:1003A000CE00200056202200CF010130CE002000D8
:1003B000772121000F1222000F1220004508220091
:1003C000CE000430CF00200050217708033C031DED
:1003D000FB29FF302200CF00FD30CE002000562048
:1003E000FF302200CF00FE30CE002000562021003A
:1003F0000F1222000F162000080048082200CE002D
:100400000430CF0020005021F708031D1C2AFF30C4
:100410002200CF007F30CE0020005620FF30220087
:10042000CF00BF30CE0020005620FF302200CF008A
:10043000DF30CE002000562048082200CE000430D5
:10044000CF0020005021770B392A2200CF018030C5
:10045000CE0020007721FF302200CF00BF30CE0039
:1004600020005620FF302200CF00DF30CE002000D9
:10047000562048082200CE000430CF002000502132
:100480007708023C031D582AFF302200CF007F303E
:10049000CE00200056202200CF014030CE002000A8
:1004A0007721FF302200CF00DF30CE002000562021
:1004B00048082200CE000430CF00200050217708E9
:1004C000033C031D772AFF302200CF007F30CE008F
:1004D00020005620FF302200CF00BF30CE00200089
:1004E00056202200CF012030CE00200077210800C6
:1004F0004B082200CE000330CF0020005021F70827
:10050000031D902AFD302200CF00FF30CE002000D6
:100510005620FB302200CF00FF30CE0020005620B6
:100520004B082200CE000330CF0020005021770B73
:10053000A62A02302200CF00CE0120007721FB3016
:100540002200CF00FF30CE00200056204B082200B2
:10055000CE000330CF00200050217708023C031D5D
:10056000BE2AFD302200CF00FF30CE0020005620F2
:1005700004302200CF00CE012000772108004D0872
:100580002200CE000330CF0020005021F708031DC9
:10059000DA2A2200CF010830CE0020007721260081
:1005A0000C1027000C10BF302200CF00FF30CE000F
:1005B000200056204D082200CE000330CF0020003E
:1005C0005021770BF52AFF302200CF00F730CE0004
:1005D0002000562026000C1027000C14BF302200EB
:1005E000CF00FF30CE00200056204D082200CE0064
:1005F0000330CF00200050217708023C031D112B4F
:10060000FF302200CF00F730CE0020005620260019
:100610000C1027000C1040302200CF00CE0120002B
:100620007721080051082200CE000230CF002000C0
:100630005021F708031D232BDF302200CF00FF30AD
:10064000CE002000562051082200CE000230CF00FC
:1006500020005021770B322B20302200CF00CE011A
:1006600020007721080054082200CE000330CF007C
:1006700020005021F708031D512B08302200CF0025
:10068000CE0120007721EF302200CF00FF30CE00D6
:10069000200056207F302200CF00FF30CE00200007
:1006A000562054082200CE000330CF0020005021F5
:1006B000770B6E2BF7302200CF00FF30CE002000EA
:1006C000562010302200CF00CE01200077217F304D
:1006D0002200CF00FF30CE00200056205408220018
:1006E000CE000330CF00200050217708023C031DCC
:1006F0008D2BF7302200CF00FF30CE002000562097
:10070000EF302200CF00FF30CE0020005620803096
:100710002200CF00CE0120007721080022008C01AA
:100720008D018E018F01900126008C0127008C0124
:100730008D0132302200CF002000032010306500F0
:100740000930660000306700083021008F00FF305C
:100750009000203026008C0003308D002200CF0155
:10076000CE0120005620FF302200CF00CE00200016
:10077000682004302200CE00FA30CF002000032091
:100780002200CE0BBC2B0030F800043820009C0067
:10079000FF309B007A302100990027008D11220044
:1007A0001D119D111D129D128E100C3025009A00F6
:1007B0009B019C011E119E1101309D00F0309A0595
:1007C0001030F700F70BE22B000027000D1222007B
:1007D0001D109D100E110C30250093009401950101
:1007E0001E109E1001309600F03093051030F70077
:1007F000F70BF82B00002100A714A81626082200EA
:10080000CE00210027082200CF0021002808220066
:10081000D000210029082200D10085019E308400EB
:10082000F8308005013085008C308400510880004C
:10083000043085000C3084005008800004308500AE
:100840000D3084004F088000013085009030840016
:100850004E08800021001E169E121E139E171D14A6
:100860001030F700F70B322C0000F0302500930514
:100870009A052200CF01CE01200056202200001050
:10088000001021000F1222000F1221008D102200F3
:100890008D1026000C1127000C1126008C13270048
:1008A0008C1321008C1322008C1326008C1127003E
:1008B0008C1126000D1127000D112000C220D02020
:1008C000EA20C101C201C3012200C701C601200004
:1008D000C501C801CB012100EF01EE012200BD01DD
:1008E000BC012000CE01D5017510F5107511F8205E
:1008F0007A082100E9007908E8007808E70077081D
:10090000E60072188F2C20006608230091009513D2
:10091000151413082000CD00CE01922C21002000D8
:10092000CD01CE01F2189D2C67082300910095138C
:10093000151413082000D1009E2CD1017219AA2C85
:100940006808230091009513151413082000D400A3
:10095000D501AC2CD401D501690823009100951371
:1009600015141308FA012000EC007A08ED00892123
:10097000FD217822BF221223332308302200CE002B
:10098000FA30CF00200003202200CE0BC02CD10172
:10099000D001CF01CE014E08F7004F08F8005008F3
:1009A000F9005108FA0000300310F70DF80DF90DA9
:1009B000FA0D890DF70DF80DF90DFA0D890DF70DEA
:1009C000F80DF90DFA0D890DF70DF80DF90DFA0D69
:1009D000890DF70DF80DF90DFA0D890DF70DF80DCC
:1009E000F90DFA0D890DF70DF80DF90DFA0D890DB8
:1009F0002000A2007A08A1007908A00078089700DA
:100A0000770896009831EE2E21000D1222000D1667
:100A100021008E1222008E1221008D1222008D12D2
:100A200021000C1322000C1720000800F801F90126
:100A3000F701FA0122005208031D212D5108031964
:100A40003B2D1030D3000310CF0DD00DF70DFA0D54
:100A500052087A02031D2E2D51087702031C372DF0
:100A60005108F702031CFA035208FA020314F80DA6
:100A7000F90DD30B232D200008002100A301A201B2
:100A80002200CE014E08093C031C652D3C30F800C5
:100A900021001D08833978049D0002302200CF0018
:100AA0002000032021009D141130F7009D1C5A2DB9
:100AB000F70B562D1B08A4001C08A5002408A2074C
:100AC0002508A33D2200CE0A422D21002308220042
:100AD000D000210022082200CF00D2010A30D1002C
:100AE0002000162579082100A3007808A200200024
:100AF000080021000D1222000D1621008E12220086
:100B00008E1621008D1222008D1621000C1322005A
:100B10000C1721000E1222000E1221008E1122004D
:100B20008E112000080021008E1222008E16210056
:100B30000D1222000D1221000E1222000E122100B1
:100B40008E1122008E152000080040302200CF00B8
:100B5000CE00200068207214F215F214721672157D
:100B6000F216042502302200CE00FA30CF00200019
:100B700003202200CE0BB52DBF01BE013F08013C72
:100B8000031CE72D031DC82D3E082B3C031CE72D3D
:100B9000200004251E302200CF00200003203D2528
:100BA0002100A308031DD82D2208323C0318E22D92
:100BB0002000C2207210F21101302200BF002C3040
:100BC000BE0021002200BE0A0319BF0ABE2D20006C
:100BD000C22064302200CF0020000320792502309B
:100BE0002200CE00FA30CF00200003202200CE0BDE
:100BF000F22DC101C0014108013C031C222E031D3E
:100C0000052E40082B3C031C222E200079251E3087
:100C10002200CF00200003203D252100A308031D52
:100C2000152E2208323C03181D2EF21072120130CC
:100C30002200C1002C30C00021002200C00A03198C
:100C4000C10AFB2D2000D02064302200CF002000FC
:100C50000320932502302200CE00FA30CF0020007E
:100C600003202200CE0B2D2EC301C2014308013CFC
:100C7000031C5D2E031D402E42082B3C031C5D2EE1
:100C8000200093251E302200CF00200003203D25A8
:100C90002100A308031D502E2208323C0318582EB1
:100CA0007211F21201302200C3002C30C200210068
:100CB0002200C20A0319C30A362E2000EA2064303B
:100CC0002200CF00200003209831F12E21000D12C8
:100CD00022000D1621008E1222008E1221008D128C
:100CE00022008D1621000C1322000C132000080096
:100CF00021000D1222000D1621008E1222008E16E8
:100D000021008D1222008D1221000C1322000C13E1
:100D100021000E1222000E1621008E1122008E15C7
:100D20002000080021008E1222008E1621000D12D4
:100D300022000D1221000E1222000E1621008E112B
:100D400022008E112000080022004E0852022100CD
:100D5000B60022004F08533B2100B7002200500884
:100D6000543B2100B80022005108553B2100B90036
:100D70003608F7003708F8003808F9003908FA0093
:100D80002000080045082200CE000430CF002000DB
:100D90005021F708031DDC2EC5014508C6002100BF
:100DA0008D1022008D1026000C1127000C1126003A
:100DB0008C1327008C13200045082200CE0004303D
:100DC000CF0020005021770BF42E4508C6002100EB
:100DD0008D1022008D1426000C1127000C11260006
:100DE0008C1327008C13200045082200CE0004300D
:100DF000CF00200050217708023C031D0E2F45082C
:100E0000C60021008D1022008D1026000C11270035
:100E10000C1526008C1327008C1320004508220097
:100E2000CE000430CF00200050217708033C031D82
:100E3000272F4508C60021008D1022008D102600A6
:100E40000C1127000C1126008C1327008C17200092
:100E50000800721B712FF8207A082100ED00790834
:100E6000EC007808EB007708EA0069082200D1005E
:100E7000210068082200D000210067082200CF006E
:100E8000210066082200CE0021006D082200D50056
:100E900021006C082200D40021006B082200D3003E
:100EA00021006A082200D2002000A4267A0822002D
:100EB000A3007908A2007808A1007708A000A30881
:100EC000031D6F2FA208031D6F2F21082D3C03184F
:100ED000702FFF3A031D6F2F2008E03C031C721790
:100EE0002000721FC12F2100901520009019C12FE2
:100EF000F21FC12FFA302200CF0020000320F2138E
:100F0000C20A42082200CE000230CF002000502149
:100F1000F708031D962FFE302200CF00FF30CE00D1
:100F200020005620C201C1017413C50142082200ED
:100F3000CE000230CF0020005021770BA82F0130C7
:100F40002200CF00CE0120007721D4010330C5005C
:100F500043082200CE000230CF0020005021770B42
:100F6000C12FFF302200CF00EF30CE0020005620EE
:100F7000C3014A08C8005008CD005308D1005708E3
:100F8000D4002100901520009019F21708002100CC
:100F90008F1520008F19EA2F731DEA2FFA302200D7
:100FA000CF00200003207311C50A42082200CE00A2
:100FB0000230CF0020005021770BEA2F4508220095
:100FC000CE000430CF0020005021F708031DEA2F87
:100FD0000130C50021008F1520008F1973150800FE
:1010000072184528F5158031662688310230220095
:10101000CE00FA30CF00803120000320883122003A
:10102000CE0B092880312000F82088317A08210071
:10103000BD007908BC007808BB007708BA00F51D30
:10104000442880312000F82088317A082100C1002E
:101050007908C0007808BF007708BE008031200002
:101060006626883180313D2588312100A308031D83
:101070003D282208323C03184328F5118031200016
:10108000C220883121001F2820008031C2208831F1
:1010900064302200CF008031200003208831F21814
:1010A0009428F51580317826883102302200CE0050
:1010B000FA30CF0080312000032088312200CE0B8F
:1010C000582880312000F82088317A082100CD008E
:1010D0007908CC007808CB007708CA00F51D932862
:1010E00080312000F82088317A082100D100790869
:1010F000D0007808CF007708CE0080312000782615
:10110000883180313D2588312100A308031D8C28BA
:101110002208323C03189228F51180312000D0209B
:10112000883121006E2820008031D0208831643041
:101130002200CF0080312000032088317219E3287B
:10114000F51580319226883102302200CE00FA3027
:10115000CF0080312000032088312200CE0BA72849
:1011600080312000F82088317A082100D9007908E0
:10117000D8007808D7007708D600F51DE22880311E
:101180002000F82088317A082100DD007908DC0091
:101190007808DB007708DA00803120009226883159
:1011A00080313D2588312100A308031DDB2822085A
:1011B000323C0318E128F51180312000EA20883103
:1011C0002100BD2820008031EA20883164302200CF
:1011D000CF00803120000320883172185F29210060
:1011E0003D082200D10021003C082200D00021004F
:1011F0003B082200CF0021003A082200CE00210047
:1012000041082200D500210040082200D40021001E
:101210003F082200D30021003E082200D200803186
:101220002000A42688317A082100C5007908C4006E
:101230007808C3007708C200903042022200CE0036
:1012400001302100433B2200CF0000302100443B0D
:101250002200D00000302100453B2200D10051087F
:10126000A7005008A6004F08A5004E08A4000310D0
:101270002100450C2200D1002100440C2200D000A6
:101280002100430C2200CF002100420C2200CE009E
:101290002030CE020330CF3B0030D03BD13B510851
:1012A0002100C900220050082100C80022004F0878
:1012B0002100C70022004E082100C6002000F218BD
:1012C000AA2921004D082200D10021004C0822004B
:1012D000D00021004B082200CF0021004A08220044
:1012E000CE00210051082200D50021005008220024
:1012F000D40021004F082200D30021004E08220014
:10130000D20080312000A42688317A082100D5003F
:101310007908D4007808D3007708D20090305202C0
:101320002200CE0001302100533B2200CF000030CC
:101330002100543B2200D00000302100553B220008
:10134000D1005108AB005008AA004F08A9004E0870
:10135000A800200072191C2A210059082200D1007F
:10136000210058082200D000210057082200CF0099
:10137000210056082200CE0021005D082200D50081
:1013800021005C082200D40021005B082200D30069
:1013900021005A082200D20080312000A426883182
:1013A0007A082100E1007908E0007808DF0077087A
:1013B000DE0090305E022200CE00013021005F3B53
:1013C0002200CF0000302100603B2200D00000301E
:1013D0002100613B2200D1005108AF005008AE004F
:1013E0004F08AD004E08AC0003102100610C220034
:1013F000D1002100600C2200D00021005F0C2200EF
:10140000CF0021005E0C2200CE009030CE020130D1
:10141000CF3B0030D03BD13B51082100E5002200FA
:1014200050082100E40022004F082100E3002200C0
:101430004E082100E20020009831F42E48082200D6
:10144000CE000430CF008031200050218831F708D1
:10145000031D352AC8014808C9002100EF01EE012B
:1014600026009801F0309A05200048082200CE009E
:101470000430CF008031200050218831770B982A2A
:101480004808C90026008D1127008D110C30260058
:101490009A0025001E139E132100EE08031D8C2ABE
:1014A000EF08031D8C2AEF01EE016F08023C031CBC
:1014B0007F2A031D5F2A6E083A3C031C7F2A6F08AF
:1014C000F9006E08F800F90CF80CF90CF80CF90C9E
:1014D000780826009800F90C790C3039F7001A08C2
:1014E000CF3977049A0001302200CF0080312000EC
:1014F000032088312100EE0A0319EF0A552A023031
:10150000EF003A30EE008E30260098001A08CF39EE
:1015100020389A00972A21000230EF003A30EE007E
:101520008E30260098001A08CF3920389A00200003
:1015300048082200CE000430CF0080312000502126
:1015400088317708023C031D3D2B4808C90026005E
:101550008D1127008D110C3026009A0025001E13D6
:101560009E132100EE08031DF02AEF08031DF02A48
:10157000EF01EE016F08033C031CE42A031DC42A9B
:101580006E08203C031CE42A6F08F9006E08F8007E
:10159000F90CF80CF90CF80CF90C780826009800F6
:1015A000F90C790C3039F7001A08CF3977049A0012
:1015B00001302200CF00803120000320883121003B
:1015C000EE0A0319EF0ABA2A0330EF002030EE00CA
:1015D000C830260098001A08CF399A003C2B210009
:1015E0006E083A3C031D322B6F08023C031D322B60
:1015F0000230EF003A30EE006F08033C031C262B4C
:10160000031D062B6E08203C031C262B6F08F900D7
:101610006E08F800F90CF80CF90CF80CF90C7808C5
:1016200026009800F90C790C3039F7001A08CF39E8
:1016300077049A0001302200CF008031200003207F
:1016400088312100EE0A0319EF0AFC2A0330EF006B
:101650002030EE00C830260098001A08CF399A00D2
:101660003C2B21000330EF002030EE00C830260074
:1016700098001A08CF399A00200048082200CE00AE
:101680000430CF0080312000502188317708033C9E
:10169000031D112C4808C90026008D1127008D114B
:1016A0000C3026009A0025001E139E132100EE0820
:1016B000031D8F2BEF08031D8F2BEF01EE016F0829
:1016C000033C031C832B6F08F9006E08F800F90C2B
:1016D000F80CF90CF80CF90C780826009800F90CB5
:1016E000790C3039F7001A08CF3977049A000130A5
:1016F0002200CF0080312000032088312100EE0A33
:101700000319EF0A5F2B0330EF00FF30EE002600D5
:1017100098001A08CF3930389A00112C21006E0831
:101720003A3C031DCB2B6F08023C031DCB2B023030
:10173000EF003A30EE006F08033C031CBF2B6F082C
:10174000F9006E08F800F90CF80CF90CF80CF90C1B
:10175000780826009800F90C790C3039F7001A083F
:10176000CF3977049A0001302200CF008031200069
:10177000032088312100EE0A0319EF0A9B2B033066
:10178000EF00FF30EE00260098001A08CF393038FD
:101790009A00112C21006E08203C031D072C6F08B5
:1017A000033C031D072C0330EF002030EE006F08D0
:1017B000033C031CFB2B6F08F9006E08F800F90CC2
:1017C000F80CF90CF80CF90C780826009800F90CC4
:1017D000790C3039F7001A08CF3977049A000130B4
:1017E0002200CF0080312000032088312100EE0A42
:1017F0000319EF0AD72B0330EF00FF30EE0026006D
:1018000098001A08CF3930389A00112C2100033083
:10181000EF00FF30EE00260098001A08CF3930386C
:101820009A00200008004B082200CE000330CF00B1
:101830008031200050218831F708031D292CCB016D
:101840004B08CC002200BD01BC01F03026009E05F3
:1018500020004B082200CE000330CF008031200052
:1018600050218831770B8A2C4B08CC0026000D12B2
:1018700027000D120C3026009E0025001F109F101F
:101880002200BC08031D7F2CBD08031D7F2CBD0159
:10189000BC013D08023C031C732C031D532C3C0867
:1018A000A83C031C732C3D08F9003C08F800F90C17
:1018B000F80CF90CF80CF90C780826009C00F90CCF
:1018C000790C3039F7001E08CF3977049E000130BB
:1018D0002200CF0080312000032088312200BC0A82
:1018E0000319BD0A492C0230BD00A830BC00AA3043
:1018F00026009C001E08CF399E00892C2200023051
:10190000BD00A830BC00AA3026009C001E08CF39BC
:101910009E0020004B082200CE000330CF00803113
:101920002000502188317708023C031D222D4B08EE
:10193000CC0026000D1227000D120C3026009E0050
:1019400025001F109F102200BC08031DDC2CBD08C1
:10195000031DDC2CBD01BC013D08033C031CD02C45
:101960003D08F9003C08F800F90CF80CF90CF80CEB
:10197000F90C780826009C00F90C790C3039F70036
:101980001E08CF3977049E0001302200CF0080313D
:101990002000032088312200BC0A0319BD0AAC2CA8
:1019A0000330BD00FF30BC0026009C001E08CF396C
:1019B00030389E00222D22003C08A83C031D182D23
:1019C0003D08023C031D182D0230BD00A830BC00AC
:1019D0003D08033C031C0C2D3D08F9003C08F800B1
:1019E000F90CF80CF90CF80CF90C780826009C009E
:1019F000F90C790C3039F7001E08CF3977049E00B6
:101A000001302200CF0080312000032088312200E5
:101A1000BC0A0319BD0AE82C0330BD00FF30BC002E
:101A200026009C001E08CF3930389E00222D22004F
:101A30000330BD00FF30BC0026009C001E08CF39DB
:101A400030389E002000080041082200CE000330FC
:101A5000CF008031200050218831F708031DAA2DC6
:101A60004108C40075167517F51E442D8031F82005
:101A700088317A082100AD007908AC007808AB0005
:101A80007708AA00F51220008031F82088317A0802
:101A90002100B1007908B0007808AF007708AE00E7
:101AA0002D082200D10021002C082200D0002100A6
:101AB0002B082200CF0021002A082200CE0021009E
:101AC00031082200D500210030082200D400210076
:101AD0002F082200D30021002E082200D2008031DE
:101AE0002000A42688317A082100B5007908B400C6
:101AF0007808B3007708B200B508031D8D2DB4082F
:101B0000031D8D2D3308063C0318912DFF3A031D4C
:101B10008D2D3208D03C0318912D8C1322008C138C
:101B20002100B508031DA22DB408031DA22D330802
:101B3000263C0318A92DFF3A031DA22D3208103CA4
:101B40000318A92D26000D1127000D117614F51686
:101B50002100200041082200CE000330CF00803158
:101B6000200050218831770B2F2E4108C400F51634
:101B70007517751EC92D8031F82088317A0821002B
:101B8000AD007908AC007808AB007708AA007512A0
:101B900020008031F82088317A082100B1007908CE
:101BA000B0007808AF007708AE002D082200D10001
:101BB00021002C082200D00021002B082200CF0099
:101BC00021002A082200CE00210031082200D50081
:101BD000210030082200D40021002F082200D30069
:101BE00021002E082200D20080312000A426883156
:101BF0007A082100B5007908B4007808B3007708A6
:101C0000B200B508031D122EB408031D122E3308AE
:101C1000063C0318172EFF3A031D122E3208D03C43
:101C20000318172E26000D1127000D152100B508E9
:101C3000031D282EB408031D282E3308263C031844
:101C40002E2EFF3A031D282E3208103C03182E2E8C
:101C50008C1322008C177614751621002000410881
:101C60002200CE000330CF00803120005021883187
:101C70007708023C031DA32E4108C4007516F51613
:101C8000751F502E8031F82088317A082100AD0070
:101C90007908AC007808AB007708AA00751320001B
:101CA0008031F82088317A082100B1007908B0002D
:101CB0007808AF007708AE002D082200D10021007F
:101CC0002C082200D00021002B082200CF00210088
:101CD0002A082200CE00210031082200D500210070
:101CE00030082200D40021002F082200D300210058
:101CF0002E082200D20080312000A42688317A08E4
:101D00002100B5007908B4007808B3007708B20064
:101D1000B508031D992EB408031D992E3308023C03
:101D20000318A32EFF3A031D992E3208E83C03182E
:101D3000A32E8C1322008C1326000D1127000D11E9
:101D400076147517210020000800210010172000CC
:101D5000101B042F731C042FFA302200CF00803197
:101D60002000032088317310C30A43082200CE00EC
:101D70000230CF008031200050218831F708031D48
:101D8000D42EFF302200CF00EF30CE008031200073
:101D900056208831C3014A08C8005008CD005308B6
:101DA000D1005708D400F31443082200CE000230BB
:101DB000CF008031200050218831770B042F220082
:101DC000CF011030CE008031200077218831FE30E5
:101DD0002200CF00FF30CE00803120005620883115
:101DE000F6144508C7004808CA004D08D00051083D
:101DF000D3005408D700C201C5010330C800CD018B
:101E0000D1010230D4002425210010172000101B1E
:101E100073140800210090172000901B372FF31D2A
:101E2000372FFA302200CF00803120000320883184
:101E3000F31143082200CE000230CF008031200091
:101E400050218831770B362FFF302200CF00EF3042
:101E5000CE008031200056208831C3014A08C800D6
:101E60005008CD005308D1005708D400C80A2100FB
:101E700090172000901BF315080026000D14250074
:101E80000D184E2F731E4E2FFA302200CF008031D6
:101E90002000032088317312CB0A250026000D1480
:101EA00025000D18731620000800210010152000D1
:101EB0001019992F741C992FFA302200CF0080310D
:101EC000200003208831741043082200CE00023025
:101ED000CF008031200050218831770B812FFF30D7
:101EE0002200CF00EF30CE00803120005620883114
:101EF000C3014A08C8005008CD005308D100570854
:101F0000D400D10A0B08F7008B1367082300910057
:101F100020005108230093009513151555309600A5
:101F2000AA30960095149518932F151177088B04F5
:101F300020002100101520001019741408008031B1
:101F400029278831A5268031C72788310A273D27D0
:101F500090310020883155279031DE2088310800EB
:101F60002200510853068039D500D11FBC2FD0095B
:101F7000D109D00A0319D10AD31FC32FD209D3091B
:101F8000D20A0319D30AF801F901F701FA0153083B
:101F9000031DCD2F52080319E72F1030D400031072
:101FA000D00DD10DF70DFA0D53087A02031DDA2F6B
:101FB00052087702031CE32F5208F702031CFA03AE
:101FC0005308FA020314F80DF90DD40BCF2FD51FC7
:101FD000EE2FF809F909F80A0319F90A2000080098
:10200000210090162000901A4428F31E4428FA302C
:102010002200CF008031200003209031F3124308CA
:102020002200CE000230CF008031200050219031BC
:10203000770B2C28FF302200CF00EF30CE0080310C
:10204000200056209031C3014A08C8005008CD0036
:102050005308D1005708D400CD010B08F7008B13AB
:1020600066082300910020004D082300930095137B
:10207000151555309600AA309600951495183E28EF
:10208000151177088B042000210090162000901A6B
:10209000F316210010162000101A8E28731F8E28A8
:1020A000FA302200CF0080312000032090317313DA
:1020B00043082200CE000230CF00803120005021A2
:1020C0009031770B7528FF302200CF00EF30CE0023
:1020D0008031200056209031C3014A08C8005008C2
:1020E000CD005308D1005708D4000130CD000B08B3
:1020F000F7008B1366082300910020004D08230091
:1021000093009513151555309600AA309600951436
:1021100095188828151177088B04200021001016C7
:102120002000101A73172100901420009018D8284E
:10213000F31FD828FA302200CF008031200003207E
:102140009031F31343082200CE000230CF008031DB
:10215000200050219031770BBF28FF302200CF00A4
:10216000EF30CE008031200056209031C3014A0864
:10217000C8005008CD005308D1005708D4000230E1
:10218000CD000B08F7008B13660823009100200098
:102190004D08230093009513151555309600AA306D
:1021A000960095149518D228151177088B042000F5
:1021B0002100901420009018F3170800210010143B
:1021C000200010183A29F41C3A29FA302200CF00D6
:1021D0008031200003209031F41042082200CE000C
:1021E0000230CF008031200050219031F708031DCC
:1021F000172943082200CE000230CF008031200092
:1022000050219031770B1629FF302200CF00EF309C
:10221000CE008031200056209031C3014A08C8000A
:102220005008CD005308D1005708D400D40A420802
:102230002200CE000230CF008031200050219031AA
:10224000770B2329D4010B08F7008B1368082300B0
:102250009100200054082300930095131515553064
:102260009600AA3096009514951834291511770810
:102270008B0420002100101420001018F414080012
:1022800010302200D200F701FA01CF0CCE0C031C53
:102290004F295008F7070318FA0A5108FA07FA0CF1
:1022A000F70CF90CF80CD20B452920000800BC01F2
:1022B000220050082000BB00BA0122005108200073
:1022C000B9003B08BC00BB013B083904BD003C0819
:1022D0003A04BE003D08F8003E08F900080022005C
:1022E000C40A0319C50A4508D0004408CF000130CC
:1022F000D200F530D10080312000162590317708CA
:102300002200CE007A08CF004E0B6D2ACF08031DA5
:102310006D2AC501C401F001F1012830F800210047
:102320001D08833978049D001030F700F70B9629BB
:1023300000009D141130F7009D1CA029F70B9C296B
:102340001C08FA001B082000EE007A08EF00EF1BC3
:10235000B029EF08031DB2296E08313C031CB229D5
:102360007416F82974122100200820006E02220041
:10237000CE002100210820006F3B2200CF00FA0090
:102380004E08CF1FCB294E08003CF7000030FA0062
:102390004F08FA3B7708CE007A08CF00CF1BF72909
:1023A000CF08031DD7294E08093C0318F72922300E
:1023B00020006E022200CE00013020006F3B220080
:1023C000CF00D1004E08D000D3010B30D2008831AD
:1023D0002000B02790317908EB007808EA006F08F8
:1023E0002100A10020006E082100A0002200200092
:1023F00021008D1520008D19FF29F416002AF412F2
:10240000F10AF00A2200CF017108CE000330D1009A
:10241000E830D000200040217908E1007808E00091
:10242000721C222AF10AF00A2200CF017108CE00A4
:102430000330D100E830D000200040217908E300CB
:102440007808E200721D342AF10AF00A2200CF0156
:102450007108CE000330D100E830D00020004021C8
:102460007908DD007808DC00F21C462AF10AF00A3F
:102470002200CF017108CE000330D100E830D00037
:10248000200040217908E5007808E400741F582AEC
:10249000F10AF00A2200CF017108CE000330D1000A
:1024A000E830D000200040217908DF007808DE0005
:1024B0002200CF017008CE000330D100E830D000F8
:1024C0002000402179082200CF007808CE0001309A
:1024D0004E07C80000304F3DC900F41BFA2BCA0A52
:1024E0000319CB0A741EAB2A4B08D0004A08CF0050
:1024F0004908D2004808D1008031200016259031CB
:1025000077082200CE007A08CF0020006008220061
:102510004E02031DAB2A2000610822004F02031D5A
:10252000AB2A20002E082200D0002000250822001F
:10253000D100200057217908B8007808B700380882
:102540002200CF00200037082200CE00803120007A
:10255000682090312200741A162B4B08D0004A08CC
:10256000CF004908D2004808D1008031200016254C
:10257000903177082200CE007A08CF002000600852
:1025800022004E02031D162B2000610822004F027C
:10259000031D162B20006B082200D10020006A08C2
:1025A0002200D000D3010A30D20088312000B027A9
:1025B00090317808B2006B082200D10020006A0830
:1025C0002200D000D3010A30D20088312000B02789
:1025D00090317708B1000430320784002030850044
:1025E0000318850A00082200CE00043020003107BD
:1025F0008400203085000318850A00082200CF00DF
:102600004E08D0004F08D100200057217908B800AB
:102610007808B70038082200CF00200037082200D1
:10262000CE0080312000682090312200721C4F2B98
:102630004B08D0004A08CF004908D2004808D10012
:10264000803120001625903177082200CE007A08CC
:10265000CF002000620822004E02031D4F2B2000F5
:10266000630822004F02031D4F2B20002E0822007A
:10267000D000200026082200D10020005721790830
:10268000B8007808B70038082200CF0020003708CB
:102690002200CE0080312000682090312200721D7F
:1026A000882B4B08D0004A08CF004908D2004808C0
:1026B000D100803120001625903177082200CE000D
:1026C0007A08CF0020005C0822004E02031D882BF0
:1026D00020005D0822004F02031D882B20002E08D9
:1026E0002200D000200027082200D100200057211E
:1026F0007908B8007808B70038082200CF00200019
:1027000037082200CE00803120006820903122005E
:10271000F21CC12B4B08D0004A08CF004908D20058
:102720004808D1008031200016259031770822001A
:10273000CE007A08CF002000640822004E02031D5C
:10274000C12B2000650822004F02031DC12B200071
:102750002E082200D000200028082200D1002000EE
:1027600057217908B8007808B70038082200CF0050
:10277000200037082200CE008031200068209031F0
:102780002200741FFA2B4B08D0004A08CF004908DA
:10279000D2004808D10080312000162590317708FA
:1027A0002200CE007A08CF0020005E0822004E02F0
:1027B000031DFA2B20005F0822004F02031DFA2B95
:1027C00020002E082200D000200029082200D1007D
:1027D000200057217908B8007808B700380822008F
:1027E000CF00200037082200CE0080312000682072
:1027F00090312200F41F752C01302000D8070318F7
:10280000D90A0319DA0A0319DB0A6D082200D1007C
:1028100020006C082200D000D3010A30D200883199
:102820002000B02790317808B2006D082200D10056
:1028300020006C082200D000D3010A30D200883179
:102840002000B02790317708B100043032078400AF
:10285000203085000318850A00082200CE000430CD
:10286000200031078400203085000318850A000805
:102870002200CF004E08D0004F08D1002000572181
:102880007908B8007808B70038082200CF00200087
:1028900037082200CE0080312000682090310B08DC
:1028A000F7008B1369082300910020006C082300B7
:1028B00093009513151555309600AA30960095147F
:1028C0009518602C151177088B0420005808583C87
:1028D000031D742C5908023C031D742CDA08031DD7
:1028E000742CDB080319F4132200200008006F2168
:1028F0008031892190318031FD21903180317822E1
:1029000090318031BF22903180311223903180315B
:10291000332390310800F61C9D2C43082200CE0082
:102920000230CF008031200050219031F708031D84
:102930009D2CF61088311E2290310800F2184D2F80
:1029400051082200CE000230CF00803120005021FB
:102950009031F708031DF82DD1015108D2008031C4
:102960007826903102302200CE00C830CF0080316E
:102970002000032090312200CE0BB52C80312000A6
:10298000F82090317A082100CD007908CC00780831
:10299000CB007708CA0064302200CF0080312000CD
:1029A000032090312200CD01CC01F510F518F72D50
:1029B000CC0A0319CD0ACD08031DE22C4C080A3CB1
:1029C0000318EB2CCD01CC01883120009F279031DA
:1029D00077248B24220080312000F82090317A085F
:1029E0002100D1007908D0007808CF007708CE0008
:1029F0004D082200D10021004C082200D000210007
:102A00004B082200CF0021004A082200CE002100FE
:102A100051082200D500210050082200D4002100D6
:102A20004F082200D30021004E082200D20080313E
:102A30002000A42690317A082100D5007908D4001E
:102A40007808D3007708D2008031200078269031B2
:102A50001E302200CF0080312000032090318031D1
:102A60003D25903122002B0821005502031CF52D35
:102A7000031D522D22002A0821005402031CF52DAB
:102A8000031D522D2200290821005302031CF52D9D
:102A9000031D522D520822002802031C512D210033
:102AA000F52D2100761580312000F82090317A082C
:102AB0002200B3007908B2007808B1007708B000AE
:102AC00080312000F82090317A082200B700790880
:102AD000B6007808B5007708B4003308D100320892
:102AE000D0003108CF003008CE003708D5003608B6
:102AF000D4003508D3003408D20080312000A42649
:102B000090317A082200BB007908BA007808B90031
:102B10007708B800BB08031DE32DBA08031DE32D99
:102B20003908073C031CE32D031D9A2D3808CF3CC0
:102B3000031CE32D761DE32D80312000F820903119
:102B40007A082200B7007908B6007808B50077083F
:102B5000B4003308D1003208D0003108CF0030086B
:102B6000CE003708D5003608D4003508D300340825
:102B7000D20080312000A42690317A082200BB00C8
:102B80007908BA007808B9007708B80080312000C9
:102B90003D2590312100A308031DD22D2208323C8F
:102BA0000318E12D80312000D020903164302200C4
:102BB000CF008031200003209031F5147611F210FF
:102BC000210022008A2D761DF42D80312000D02096
:102BD000903164302200CF008031200003209031FA
:102BE000F514F2147611220021002200D62C2000C8
:102BF00051082200CE000230CF0080312000502149
:102C00009031770B4D2F5108D200803179259031CA
:102C100002302200CE00C830CF00803120000320D7
:102C200090312200CE0B0B2E80312000F820903105
:102C30007A082100CD007908CC007808CB0077080D
:102C4000CA0064302200CF00803120000320903180
:102C50002200CD01CC01F510F5184D2FCC0A031937
:102C6000CD0ACD08031D382E4C080A3C0318412E0E
:102C7000CD01CC01883120009F27903177248B240F
:102C8000220080312000F82090317A082100D10004
:102C90007908D0007808CF007708CE004D082200D0
:102CA000D10021004C082200D00021004B08220056
:102CB000CF0021004A082200CE0021005108220046
:102CC000D500210050082200D40021004F08220026
:102CD000D30021004E082200D20080312000A4261B
:102CE00090317A082100D5007908D4007808D30003
:102CF0007708D20080312000792590311E302200E3
:102D0000CF00803120000320903180313D2590316B
:102D100022002B0821005502031C4B2F031DA82E57
:102D200022002A0821005402031C4B2F031DA82E49
:102D30002200290821005302031C4B2F031DA82E3B
:102D4000520822002802031CA72E21004B2F21002D
:102D5000761580312000F82090317A082200B300E7
:102D60007908B2007808B1007708B00080312000FF
:102D7000F82090317A082200B7007908B600780868
:102D8000B5007708B4003308D1003208D00031080C
:102D9000CF003008CE003708D5003608D4003508FB
:102DA000D3003408D20080312000A42690317A0864
:102DB0002200BB007908BA007808B9007708B8008B
:102DC000BB08031D392FBA08031D392F3908073CEA
:102DD000031C392F031DF02E3808CF3C031C392F5C
:102DE000761D392F80312000F82090317A0822009A
:102DF000B7007908B6007808B5007708B400330842
:102E0000D1003208D0003108CF003008CE0037089A
:102E1000D5003608D4003508D3003408D2008031FC
:102E20002000A42690317A082200BB007908BA005D
:102E30007808B9007708B800803120003D2590312E
:102E40002100A308031D282F2208323C0318372F26
:102E500080312000D020903164302200CF008031BA
:102E6000200003209031F5147611F2102100220089
:102E7000E02E761D4A2F80312000D0209031643022
:102E80002200CF008031200003209031F514F2148D
:102E900076112200210022002C2E2000080042087A
:102EA0002200CE000230CF0080312000502190312E
:102EB000F708031D602F26008C1127008C112000BD
:102EC00042082200CE000230CF0080312000502185
:102ED0009031770B6F2F26008C1127008C15200066
:102EE00008008031C226903188311E22903188310D
:102EF000132490319831002090319E24A03100207D
:102F000090318031892190318031FD2190318031A3
:102F1000782290318031BF2290318031122390315C
:102F20008031332390318831242590314F279831D7
:102F3000F72E21000D1420000D18BC2F741DBC2F7E
:102F4000FA302200CF008031200003209031DB01D5
:102F5000DA01D901D8017411F417EC0A0319ED0A4A
:102F6000ED1BBC2FED08031DB92F6C081C3C03188A
:102F7000BC2FED011C30EC0021000D1420000D18B9
:102F8000741521000C1620000C1AE52FF41DE52FF6
:102F9000FA302200CF008031200003209031DB0185
:102FA000DA01D901D801F411F4176C080319ED0303
:102FB000EC03ED1BE22FED08031DE52F6C08113C1F
:102FC000031CE52FED011230EC0021000C1620004F
:082FD0000C1AF4159831162FBC
:103000007218742C4D082200CE000330CF0080319E
:10301000200050219831F708031D6029CD014D088B
:10302000CF0080316626983102302200CE00C830B1
:10303000CF0080312000032098312200CE0B1728CA
:1030400080312000F82098317A082100BD007908ED
:10305000BC007808BB007708BA0064302200CF00BB
:1030600080312000032098312200CD01CC01751061
:1030700075185F29CC0A0319CD0ACD08031D442811
:103080004C080A3C03185128CD01CC01883120009E
:103090009F27983190317724983190318B24983143
:1030A000220080312000F82098317A082100C100E8
:1030B0007908C0007808BF007708BE003D082200EC
:1030C000D10021003C082200D00021003B08220052
:1030D000CF0021003A082200CE0021004108220042
:1030E000D500210040082200D40021003F08220022
:1030F000D30021003E082200D20080312000A42607
:1031000098317A082100C5007908C4007808C30006
:103110007708C20080312000662698311E302200D8
:10312000CF00803120000320983180313D25983137
:103130002200270821004502031C5D29031DB82831
:103140002200260821004402031C5D29031DB82823
:103150002200250821004302031C5D29031DB82815
:10316000420822002402031CB72821005D29210007
:10317000761580312000F82098317A082200B300BB
:103180007908B2007808B1007708B00080312000DB
:10319000F82098317A082200B7007908B60078083C
:1031A000B5007708B4003308D1003208D0003108E8
:1031B000CF003008CE003708D5003608D4003508D7
:1031C000D3003408D20080312000A42698317A0838
:1031D0002200BB007908BA007808B9007708B80067
:1031E000BB08031D4A29BA08031D4A293908073CB0
:1031F000031C4A29031D00293808CF3C031C4A2917
:10320000761D4A2980312000F82098317A08220062
:10321000B7007908B6007808B5007708B40033081D
:10322000D1003208D0003108CF003008CE00370876
:10323000D5003608D4003508D3003408D2008031D8
:103240002000A42698317A082200BB007908BA0031
:103250007808B9007708B800803120003D25983102
:103260002100A308031D38292208323C03184829ED
:1032700080312000C220983164302200CF0080319C
:10328000200003209831751472107611CE012100B0
:103290002200F028761D5C2980312000C220983160
:1032A00064302200CF008031200003209831751453
:1032B00072147611CE01220021002200382820004D
:1032C0004D082200CE000330CF0080312000502175
:1032D0009831770BBE2A4D08CF00803104259831F4
:1032E00002302200CE00C830CF0080312000032001
:1032F00098312200CE0B732980312000F8209831BC
:103300007A082100BD007908BC007808BB00770866
:10331000BA0064302200CF008031200003209831B1
:103320002200CD01CC0175107518BD2ACC0A0319F5
:10333000CD0ACD08031DA0294C080A3C0318AD296D
:10334000CD01CC01883120009F279831903177241E
:10335000983190318B249831220080312000F82060
:1033600098317A082100C1007908C0007808BF00B0
:103370007708BE003D082200D10021003C08220051
:10338000D00021003B082200CF0021003A08220093
:10339000CE00210041082200D50021004008220073
:1033A000D40021003F082200D30021003E08220063
:1033B000D20080312000A42698317A082100C5006F
:1033C0007908C4007808C3007708C2008031200063
:1033D000042598311E302200CF00803120000320C8
:1033E000983180313D25983122002708210045027F
:1033F000031CBB2A031D142A2200260821004402B4
:10340000031CBB2A031D142A2200250821004302A5
:10341000031CBB2A031D142A420822002402031C99
:10342000132A2100BB2A2100761580312000F820C4
:1034300098317A082200B3007908B2007808B10008
:103440007708B00080312000F82098317A082200F7
:10345000B7007908B6007808B5007708B4003308DB
:10346000D1003208D0003108CF003008CE00370834
:10347000D5003608D4003508D3003408D200803196
:103480002000A42698317A082200BB007908BA00EF
:103490007808B9007708B800BB08031DA72ABA0846
:1034A000031DA72A3908073C031CA72A031D5C2A11
:1034B0003808CF3C031CA72A761DA72A803120009C
:1034C000F82098317A082200B7007908B600780809
:1034D000B5007708B4003308D1003208D0003108B5
:1034E000CF003008CE003708D5003608D4003508A4
:1034F000D3003408D20080312000A42698317A0805
:103500002200BB007908BA007808B9007708B80033
:10351000803120003D2598312100A308031D942A05
:103520002208323C0318A52A80312000C22098319D
:1035300064302200CF0080312000032098317514C0
:10354000721076110130CE00210022004C2A761D27
:10355000BA2A80312000C220983164302200CF0086
:1035600080312000032098317514721476110130D7
:10357000CE00220021002200942920004D082200C4
:10358000CE000330CF0080312000502198317708E1
:10359000023C031D742C4D08CF004E082200CE00C3
:1035A0000330CF008031200050219831F708031DEF
:1035B000AE2B80310425983102302200CE00C83075
:1035C000CF0080312000032098312200CE0BDF2A6B
:1035D00080312000F82098317A082100BD00790858
:1035E000BC007808BB007708BA0064302200CF0026
:1035F00080312000032098312200CD01CC017510CC
:103600007518AD2B8031200004259831013022003F
:10361000CF0080312000032098312200CC0A03190A
:10362000CD0A4D08003C0318292BFF3A031D1C2B23
:103630004C08F43C0318292BCD01CC018831200023
:103640009F27983190317724983190318B2498318D
:10365000220080312000F82098317A082100C10032
:103660007908C0007808BF007708BE003D08220036
:10367000D10021003C082200D00021003B0822009C
:10368000CF0021003A082200CE002100410822008C
:10369000D500210040082200D40021003F0822006C
:1036A000D30021003E082200D20080312000A42651
:1036B00098317A082100C5007908C4007808C30051
:1036C0007708C200D03046022200CE000730210029
:1036D000473B2200CF0000302100483B2200D000B1
:1036E00000302100493B2200D1004E08F7004F086E
:1036F000F8005008F9005108FA005108210045026D
:10370000031CAB2B031D9C2B2200500821004402FC
:10371000031CAB2B031D9C2B22004F0821004302EE
:10372000031CAB2B031D9C2B420822004E02031CE2
:103730009B2B2100AB2B210080312000C22098312F
:1037400064302200CF0080312000032098317514AE
:103750000230CE0021002200002B20004E08220063
:10376000CE000330CF008031200050219831770BFC
:10377000742C80316626983102302200CE00C83089
:10378000CF0080312000032098312200CE0BBF2BC8
:1037900080312000F82098317A082100BD00790896
:1037A000BC007808BB007708BA0064302200CF0064
:1037B00080312000032098312200CD01CC0175100A
:1037C0007518742C80312000662698310130220053
:1037D000CF0080312000032098312200CC0A031949
:1037E000CD0A4D08003C0318092CFF3A031DFC2BA1
:1037F0004C08F43C0318092CCD01CC018831200081
:103800009F27983190317724983190318B249831CB
:10381000220080312000F82098317A082100C10070
:103820007908C0007808BF007708BE003D08220074
:10383000D10021003C082200D00021003B082200DA
:10384000CF0021003A082200CE00210041082200CA
:10385000D500210040082200D40021003F082200AA
:10386000D30021003E082200D20080312000A4268F
:1038700098317A082100C5007908C4007808C3008F
:103880007708C200B8304607F7000B30473DF80014
:103890000030483DF9000030493DFA004502031C64
:1038A000722C031D632C79084402031C722C031D27
:1038B000632C78084302031C722C031D632C4208FE
:1038C00077020318722C80312000C22098316430B6
:1038D0002200CF008031200003209831751402307F
:1038E000CE0021002200E02B200008002830F80044
:1038F00021001D08833978049D001030F700F70B74
:103900007F2C00009D141130F7009D1C892CF70BB3
:10391000852C1C08FA001B082000EE007A08EF0036
:10392000EF1B992CEF08031DB52C6E08313C031CCE
:10393000B52C74162E082200D00020002508220085
:10394000D10090312000572198317908B8007808CB
:10395000B70038082200CF00200037082200CE0030
:103960008031200068209831212D741222306E029F
:103970002200CE00013020006F3B2200CF00D1009A
:103980004E08D000D3010B30D20088312000B02780
:1039900098317908EB007808EA006F082100A1004F
:1039A00020006E082100A00020006B082200D1003A
:1039B00020006A082200D000D3010A30D2008831EA
:1039C0002000B02798317808B2006B082200D1009F
:1039D00020006A082200D000D3010A30D2008831CA
:1039E0002000B02798317708B100043032078400F6
:1039F000203085000318850A00082200CE0004301C
:103A0000200031078400203085000318850A000853
:103A10002200CF004E08D0004F08D1009031200086
:103A2000572198317908B8007808B7003808220083
:103A3000CF00200037082200CE008031200068200F
:103A400098319831F92E4608450203192A2D803104
:103A5000C2269831490848020319312D88311E22A7
:103A600098314C084B020319382D883113249831B2
:103A700072183E2D4F084D02031D0020F218472DED
:103A8000520851020319472D90319E249831721922
:103A9000502D560854020319502DA03100209831A2
:103AA00044084102031976107618592D88312425CF
:103AB000983190314F2798319831182F42082200C1
:103AC000CE000230CF008031200050219831770B9A
:103AD000C22D741A952DF41A952D6C086A022200D5
:103AE000CE0020006D086B3B2200CF00CF1B842D41
:103AF000CF08031D7F2D4E08013C0318842D013093
:103B00002000C100F5172200F51F962D20006A083D
:103B10006C022200CE0020006B086D3B2200CF001B
:103B2000CF1B962D2000C101F5132200741A9A2D87
:103B3000F41E9E2D02302000C100220020006C08DF
:103B40006A022200CE0020006D086B3B2200CF00ED
:103B5000CF1BB32DCF08031DB12D4E08013C031818
:103B6000B32DF41A741720006A086C022200CE00EC
:103B700020006B086D3B2200CF00CF1FC02DF41E2C
:103B80007413200098311F2F6A3021009900200003
:103B9000A301A201A101A00135309800990196016D
:103BA000970196011110B101B201B301B401B60140
:103BB000B501B801B701BA01B901BC01BB01BE0131
:103BC000BD01C001BF01C101C201C301C401C501E2
:103BD000C601C701C801C901CA01CB01CC01CD0191
:103BE000CE01CF01D0010130D100D200D300D401E9
:103BF000D501D601D701DB01DA01D901D801DD01F8
:103C0000DC01DF01DE01E101E001E301E201E501A8
:103C1000E401E6000230E7000330E8000430E90088
:103C2000EB01EA01ED011830EC00FF30EF00F43059
:103C3000EE002100A101A001A301A201A501A401A0
:103C4000A901A801A701A601AD01AC01AB01AA0120
:103C5000B101B001AF01AE01B501B401B301B201D0
:103C6000B901B801B701B601BD01BC01BB01BA0180
:103C7000C101C001BF01BE01C501C401C301C20130
:103C8000C901C801C701C601CD01CC01CB01CA01E0
:103C9000D101D001CF01CE01D501D401D301D20190
:103CA000D901D801D701D601DD01DC01DB01DA0140
:103CB000E101E001DF01DE01E501E401E301E201F0
:103CC000E901E801E701E601ED01EC01EB01EA01A0
:103CD0002200A301A201A101A001A701A601A50143
:103CE000A401AB01AA01A901A801AF01AE01AD0178
:103CF000AC01B301B201B101B001B701B601B50128
:103D0000B401BB01BA01B901B8012100EF01EE0114
:103D10002200BD01BC01BF01BE01C101C001C30140
:103D2000C201F001F101C501C401C701C601C90109
:103D3000C801CB01CA01CD01CC017210F210721181
:103D4000F2117212F2127213F2137310F314731150
:103D5000F3117312F3127313F3137410F41074113C
:103D6000F4117412F4127413F4137510F510751124
:103D7000F5157516F5167517F5137610F6107611FC
:103D80002F0091019201980199019A019B019C01D8
:103D90009D0123008C01900128008C018D012200DF
:103DA000920191013F302000A4000630A5005B3055
:103DB000A6004F30A7006630A8006D30A9007D3006
:103DC000AA000730AB007F30AC006F30AD00793017
:103DD000AE005030AF00B00180318E2B9831803171
:103DE000A52D98318831002898319031712F983164
:103DF000762C90316F219831803129279831883184
:103E0000A52698318031C727983188310A27983103
:103E100088313D27983190310020983188315527DD
:103E200098319031DE2098319031992F9831232D9F
:103E30009031772498318831242598315E2DF92EE0
:023E400063001D
:104000007219412C54082200CE000330CF008031B9
:1040100020005021A031F708031D6029D401540865
:10402000D60080319226A03102302200CE00C83066
:10403000CF00803120000320A0312200CE0B1728B2
:1040400080312000F820A0317A082100D9007908B9
:10405000D8007808D7007708D60064302200CF0057
:10406000803120000320A0312200CD01CC01751148
:1040700075195F29CC0A0319CD0ACD08031D442800
:104080004C080A3C03185128CD01CC01883120008E
:104090009F27A03190317724A03190318B24A0311B
:1040A000220080312000F820A0317A082100DD00B4
:1040B0007908DC007808DB007708DA00590822006C
:1040C000D100210058082200D0002100570822000A
:1040D000CF00210056082200CE0021005D082200FA
:1040E000D50021005C082200D40021005B082200DA
:1040F000D30021005A082200D20080312000A426DB
:10410000A0317A082100E1007908E0007808DF009A
:104110007708DE00803120009226A0311E30220078
:10412000CF00803120000320A03180313D25A03117
:1041300022002F0821006102031C5D29031DB828FD
:1041400022002E0821006002031C5D29031DB828EF
:1041500022002D0821005F02031C5D29031DB828E1
:104160005E0822002C02031CB72821005D292100D3
:10417000761580312000F820A0317A082200B300A3
:104180007908B2007808B1007708B00080312000CB
:10419000F820A0317A082200B7007908B600780824
:1041A000B5007708B4003308D1003208D0003108D8
:1041B000CF003008CE003708D5003608D4003508C7
:1041C000D3003408D20080312000A426A0317A0820
:1041D0002200BB007908BA007808B9007708B80057
:1041E000BB08031D4A29BA08031D4A293908073CA0
:1041F000031C4A29031D00293808CF3C031C4A2907
:10420000761D4A2980312000F820A0317A0822004A
:10421000B7007908B6007808B5007708B40033080D
:10422000D1003208D0003108CF003008CE00370866
:10423000D5003608D4003508D3003408D2008031C8
:104240002000A426A0317A082200BB007908BA0019
:104250007808B9007708B800803120003D25A031EA
:104260002100A308031D38292208323C03184829DD
:1042700080312000EA20A03164302200CF0080315C
:1042800020000320A031751572117611D50121008F
:104290002200F028761D5C2980312000EA20A03120
:1042A00064302200CF00803120000320A03175153A
:1042B00072157611D5012200210022003828200035
:1042C00054082200CE000330CF008031200050215E
:1042D000A031770BE22A5408D60055082200CE0000
:1042E0000330CF00803120005021A031F708031D9A
:1042F0002A2A80319325A03102302200CE00C83016
:10430000CF00803120000320A0312200CE0B7F2976
:1043100080312000F820A0317A082100D9007908E6
:10432000D8007808D7007708D60064302200CF0084
:10433000803120000320A0312200CD01CC01751175
:104340007519292A803120009325A03101302200DF
:10435000CF00803120000320A0312200CC0A0319B5
:10436000CD0A4D08003C0318C929FF3A031DBC299A
:104370004C08F43C0318C929CD01CC018831200038
:104380009F27A03190317724A03190318B24A03128
:10439000220080312000F820A0317A082100DD00C1
:1043A0007908DC007808DB007708DA005908220079
:1043B000D100210058082200D00021005708220017
:1043C000CF00210056082200CE0021005D08220007
:1043D000D50021005C082200D40021005B082200E7
:1043E000D30021005A082200D20080312000A426E8
:1043F000A0317A082100E1007908E0007808DF00A8
:104400007708DE0065086102031C272A031D182AAD
:1044100064086002031C272A031D182A63085F0230
:10442000031C272A031D182A5E0862020318272A84
:1044300080312000EA20A03164302200CF0080319A
:1044400020000320A03175150230D5002100220084
:10445000A029200055082200CE000330CF00803173
:1044600020005021A031770BE22A80319226A03122
:1044700002302200CE00C830CF008031200003205F
:10448000A0312200CE0B3B2A80312000F820A03141
:104490007A082100D9007908D8007808D700770871
:1044A000D60064302200CF00803120000320A031EC
:1044B0002200CD01CC0175117519E12A803120004F
:1044C0009226A03164302200CF00803120000320EA
:1044D000A0312200CC0A0319CD0ACD08031D742A8D
:1044E0004C080A3C0318812ACD01CC0188312000F8
:1044F0009F27A03190317724A03190318B24A031B7
:10450000220080312000F820A0317A082100DD004F
:104510007908DC007808DB007708DA005908220007
:10452000D100210058082200D000210057082200A5
:10453000CF00210056082200CE0021005D08220095
:10454000D50021005C082200D40021005B08220075
:10455000D30021005A082200D20080312000A42676
:10456000A0317A082100E1007908E0007808DF0036
:104570007708DE0065086102031CDF2A031DD02ACC
:1045800064086002031CDF2A031DD02A63085F024F
:10459000031CDF2A031DD02A5E0862020318DF2AEB
:1045A00080312000EA20A03164302200CF00803129
:1045B00020000320A03175150230D5002100220013
:1045C0005C2A200054082200CE000330CF00803146
:1045D00020005021A0317708023C031D412C5408D3
:1045E000D60080319325A03102302200CE00C830A1
:1045F000CF00803120000320A0312200CE0BF72A0B
:1046000080312000F820A0317A082100D9007908F3
:10461000D8007808D7007708D60064302200CF0091
:10462000803120000320A0312200CD01CC01751182
:104630007519412CCC0A0319CD0ACD08031D242B72
:104640004C080A3C0318312BCD01CC0188312000E5
:104650009F27A03190317724A03190318B24A03155
:10466000220080312000F820A0317A082100DD00EE
:104670007908DC007808DB007708DA0059082200A6
:10468000D100210058082200D00021005708220044
:10469000CF00210056082200CE0021005D08220034
:1046A000D50021005C082200D40021005B08220014
:1046B000D30021005A082200D20080312000A42615
:1046C000A0317A082100E1007908E0007808DF00D5
:1046D0007708DE00803120009325A0311E302200B3
:1046E000CF00803120000320A03180313D25A03152
:1046F00022002F0821006102031C3F2C031D982B70
:1047000022002E0821006002031C3F2C031D982B61
:1047100022002D0821005F02031C3F2C031D982B53
:104720005E0822002C02031C972B21003F2C210045
:10473000761580312000F820A0317A082200B300DD
:104740007908B2007808B1007708B0008031200005
:10475000F820A0317A082200B7007908B60078085E
:10476000B5007708B4003308D1003208D000310812
:10477000CF003008CE003708D5003608D400350801
:10478000D3003408D20080312000A426A0317A085A
:104790002200BB007908BA007808B9007708B80091
:1047A000BB08031D2B2CBA08031D2B2C3908073C12
:1047B000031C2B2C031DE02B3808CF3C031C2B2C97
:1047C000761D2B2C80312000F820A0317A082200A1
:1047D000B7007908B6007808B5007708B400330848
:1047E000D1003208D0003108CF003008CE003708A1
:1047F000D5003608D4003508D3003408D200803103
:104800002000A426A0317A082200BB007908BA0053
:104810007808B9007708B800803120003D25A03124
:104820002100A308031D182C2208323C0318292C50
:1048300080312000EA20A03164302200CF00803196
:1048400020000320A0317515721176110130D500BA
:1048500021002200D02B761D3E2C80312000EA2042
:10486000A03164302200CF00803120000320A0312D
:104870007515721576110130D50022002100220035
:06488000182B20000800C7
:020000040001F9
:04000E008439FF1E14
:00000001FF
;PIC16F1947
;CRC=AEA2  CREATED="22-Mar-19 08:30"
