:100000008831EC2C00002030850047308400000847
:10001000031918280130F800F701F70B0D28F80B29
:100020000C284A30F700F70B13281628800B0A28F3
:10003000080021008C0122008C0121008D0122008A
:100040008D0121008E0122008E0121008F012200EE
:100050008F012100101090101011901122009001BA
:1000600004302000E300FA30E7000320E30B3328DC
:1000700028306500E8306600C1306700003021009C
:100080008F00101090101011901502302000E70022
:100090000320E601E501E401E3016608A10065082B
:1000A000A00064089700630896008831882DAE018F
:1000B000AF01A201A301A401A501A601A701A80106
:1000C000FF30A900AA00AB00AC00AD0088318B2D39
:1000D0005F1B742830082300910095131514130832
:1000E0002000A400A7017628A401A701DF1B812816
:1000F0003208230091009513151413082000A50061
:100100008228A50160188E283308230091009513DA
:10011000151413082000A600A8019028A601A80124
:1001200088318E2D20302100A400A001A101A20160
:10013000A30120006A08FA006908F9006808F800BD
:100140006708F7000310771CC1286B082100A0077F
:1001500020006C0803186C0FAE28B1282100A107FD
:1001600020006D0803186D0FB628B9282100A207DA
:1001700020006E0803186E0FBE28C1282100A307B7
:1001800020002100A30CA20CA10CA00CFA0CF90C6D
:10019000F80CF70CA40BCD28CF282000A2282000B3
:1001A0000800111CD828A00A0319A10A1110E72879
:1001B0001708FA001608F70017087A02031DD82856
:1001C0007708111CF028A00A0319A10A11101708BA
:1001D000FA001608F70017087A02031DE7287708C7
:1001E000F7007A08F8002008F9002108FA00080052
:1001F00067086B02D90068086C3BDA0069086D3B40
:10020000DB006A086E3BDC005908F7005A08F8006A
:100210005B08F9005C08FA0008006708111E0E2947
:1002200023009A0020000800911EC229911E162961
:10023000230019082000AF002F08513C0319DD17D7
:100240002F08523C03195E142F08533C0319DE1487
:100250002F08543C03195E152F08553C0319DE1571
:100260002F08563C03195E162F08573C0319DE165B
:100270002F08583C03195E172F08593C0319DE1745
:100280002F08603C03195F142F08613C0319DF1429
:100290002F08623C03195F152F08633C0319DF1513
:1002A0002F08643C03195F162F08653C0319DF16FD
:1002B0002F08913C031D65295F171430E7000320C8
:1002C0009430E7000D21AF0161152F08923C031D0A
:1002D0007229DF171430E70003209530E7000D2165
:1002E000AF01E1152F08933C031D7F2960141430E2
:1002F000E70003209630E7000D21AF0161162F08BB
:10030000813C031D8D295F131430E70003208430E6
:10031000E7000D21AF01FF30AB002F08823C031D29
:100320009B29DF131430E70003208530E7000D21FF
:10033000AF01FF30AC002F08833C031DA9296010DA
:100340001430E70003208630E7000D21AF01FF30B5
:10035000AD002F08A03C031DB6296217A60114307A
:10036000E7000320A130E7000D21AF012F08A23CD8
:10037000031DC22962131430E7000320A330E700F5
:100380000D21AF0108006608EA006508E90064086D
:10039000E8006308E700EE01ED010330EC00E8300F
:1003A000EB0092207A08E6007908E5007808E4007E
:1003B0007708E300D1207A08D0007908CF007808C8
:1003C000CE007708CD00D1200A307707D100003069
:1003D000783DD2000030793DD30000307A3DD40022
:1003E0005008EA004F08E9004E08E8004D08E70011
:1003F0005408EE005308ED005208EC005108EB00E1
:10040000F8207A08D8007908D7007808D60077084D
:10041000D50058086602031C432A031D1F2A5708EB
:100420006502031C432A031D1F2A56086402031C8D
:10043000432A031D1F2A630855020318432AD120AB
:100440007A08D4007908D3007808D2007708D10060
:100450005008EA004F08E9004E08E8004D08E700A0
:100460005408EE005308ED005208EC005108EB0070
:10047000F8207A08D8007908D7007808D6007708DD
:10048000D5001421092A08006408F8016302031842
:100490004C2A6308F700582AF7010830E500E30DFD
:1004A000F70D640877020318F700F80DE50B4F2AE3
:1004B000080021000E1420000E18682A5D1C682A0E
:1004C0005D10A20AE601E501E4016430E300C32106
:1004D00021000E1420000E185D1421000E162000BD
:1004E0000E1A7C2ADD1C7C2ADD10A30AE601E50138
:1004F000E4016430E300C32121000E1620000E1A2F
:10050000DD1421008D1520008D19902A5D1D902A83
:100510005D11A401E601E501E4016430E300C321BB
:1005200021008D1520008D195D1521008C162000ED
:100530008C1AA52ADD1DA52ADD110130A400E601D3
:10054000E501E4016430E300C32121008C162000A2
:100550008C1ADD1521008C1520008C19BA2A5D1E1D
:10056000BA2A5D120230A400E601E501E40164301C
:10057000E300C32121008C1520008C195D16210099
:100580008E1620008E1ACE2ADD1ECE2ADD12A50A76
:10059000E601E501E4016430E300C32121008E1689
:1005A00020008E1ADD1621008D1620008D1AE22AF9
:1005B0005D1FE22A5D13A60AE601E501E40164304D
:1005C000E300C32121008D1620008D1A5D1722083B
:1005D0000339031DF82A21000F1022000F102100FB
:1005E0008F1022008F1021000F1122000F11200008
:1005F00022080339013C031D0A2B21000F102200A1
:100600000F1421008F1022008F1021000F112200E3
:100610000F11200022080339023C031D1C2B21006E
:100620000F1022000F1421008F1022008F142100C0
:100630000F1122000F11200022080339033C031D73
:100640002E2B21000F1022000F1421008F102200EA
:100650008F1421000F1122000F1520002308E30042
:100660000330E4004422F708031D3F2B21008F11C3
:1006700022008F1121000F1222000F1220002308E8
:10068000E3000330E4004422770B4F2B21008F114D
:1006900022008F1521000F1222000F1220002308C4
:1006A000E3000330E40044227708023C031D612B81
:1006B00021008F1122008F1521000F1222000F162A
:1006C00020002408E3000330E4004422F708031D5F
:1006D000762B21000D1122000D1521000C12220095
:1006E0000C1221000C1122000C1120002408E30040
:1006F0000330E4004422770B8A2B21000D112200E5
:100700000D1121000C1222000C1621000C112200E8
:100710000C1120002408E3000330E4004422770891
:10072000023C031DA02B21000D1122000D11210000
:100730000C1222000C1221000C1122000C152000BA
:1007400025080139031DA92B21008F1322008F13C7
:10075000200025080139013C031DB32B21008F1314
:1007600022008F1720002608E3000330E400442213
:10077000F708031DC82B21001010220010142100BF
:100780009010220090102100101122001011200062
:100790002608E3000330E4004422770BDC2B210021
:1007A000101022001010210090102200901421003F
:1007B00010112200101120002608E3000330E4008D
:1007C00044227708023C031DF12B21001010220067
:1007D000101021009010220090142100101122000E
:1007E0001015200008006608EA006508E9006408A2
:1007F000E8006308E700EE01ED010330EC00E830AB
:10080000EB0092207A08E6007908E5007808E40019
:100810007708E300D1207A08D0007908CF00780863
:10082000CE007708CD00D1200A307707D100003004
:10083000783DD2000030793DD30000307A3DD400BD
:100840005008EA004F08E9004E08E8004D08E700AC
:100850005408EE005308ED005208EC005108EB007C
:10086000F8207A08D8007908D7007808D6007708E9
:10087000D50058086602031CD32C031D4F2C5708C3
:100880006502031CD32C031D4F2C56086402031C65
:10089000D32C031D4F2C630855020318D32CD120F1
:1008A0007A08D4007908D3007808D2007708D100FC
:1008B0005008EA004F08E9004E08E8004D08E7003C
:1008C0005408EE005308ED005208EC005108EB000C
:1008D000F8207A08D8007908D7007808D600770879
:1008E000D500911ED22C911E732C230019082000D4
:1008F000AF002F0B7C2C60122F08053C031D832CAE
:100900005F17E014E0122F08063C031D8A2C5F13CA
:10091000E010E0122F08083C031D912CDF17601532
:1009200060132F08093C031D982CDF13601160131E
:100930002F08113C031D9F2C6014E015E0132F08B5
:10094000123C031DA62C6010E011E0132F08033C9D
:10095000031961102F08153C0319E1102F08173CEB
:100960000319E1162F08193C031961172F08203CC1
:100970000319E1172F08213C031962142F08223CA8
:100980000319E2142F08233C031962152F08243C95
:100990000319E2152F08253C031962162F08263C7F
:1009A0000319E216392C08006016601EDF2C59224C
:1009B000E601E501E4016430E300F323D52CE01601
:1009C000E01EED2C59220230E7000D21E601E50181
:1009D000E4016430E300F323E02C6017601FFB2C7C
:1009E00059220730E7000D21E601E501E4016430FA
:1009F000E300F323EE2CE017E01F092D59221030FD
:100A0000E7000D21E601E501E4016430E300F32392
:100A1000FC2C6114611C172D59221330E7000D21A5
:100A2000E601E501E4016430E300F3230A2D04301C
:100A3000E7000D218831942DE01C992D0130B50778
:100A40000318B60A0319B70A0319B80A3508C43CD3
:100A5000031D412D3608093C031D412DB708031D18
:100A6000412DB808031D412D21000D1122000D1547
:100A700021000C1222000C1221000C1122000C117A
:100A800020003508883C031D602D3608133C031DEB
:100A9000602DB708031D602DB808031D602DB80137
:100AA000B701B601B50121000D1122000D11210081
:100AB0000C1222000C1221000C1122000C1120003B
:100AC000BC01BB01BA01B90121008D1520008D19AF
:100AD000982D0130B9070318BA0A0319BB0A031984
:100AE000BC0A3908503C031D972D3A08C33C031D2E
:100AF000972DBB08031D972DBC08031D972DBC0126
:100B0000BB01BA01B901E01021000D1122000D1145
:100B100021000C1222000C1221000C1122000C11D9
:100B20002000E601E501E4013230E300F323642D07
:100B30001C2D601DFE2D0130BD070318BE0A0319D0
:100B4000BF0A0319C00A3D08C43C031DB62D3E0868
:100B5000093C031DB62DBF08031DB62DC008031D9B
:100B6000B62D21008F1322008F1720003D08883CEE
:100B7000031DCD2D3E08133C031DCD2DBF08031DC5
:100B8000CD2DC008031DCD2DC001BF01BE01BD018B
:100B900021008F1322008F132000C401C301C20162
:100BA000C10121008E1620008E1AFD2D0130C107D3
:100BB0000318C20A0319C30A0319C40A4108503CA6
:100BC000031DFC2D4208C33C031DFC2DC308031D5F
:100BD000FC2DC408031DFC2DC401C301C201C101C9
:100BE000601121008F1322008F132000E601E50120
:100BF000E4013230E300F323D12D992DE01D7B2E4B
:100C00000130C5070318C60A0319C70A0319C80A21
:100C10004508C43C031D232E4608093C031D232E12
:100C2000C708031D232EC808031D232E2100101002
:100C300022001014210090102200901421001011A5
:100C40002200101520004508883C031D422E46084E
:100C5000133C031D422EC708031D422EC808031D66
:100C6000422EC801C701C601C50121001010220093
:100C7000101021009010220090102100101122006D
:100C800010112000CC01CB01CA01C90121008D1631
:100C900020008D1A7A2E0130C9070318CA0A0319D9
:100CA000CB0A0319CC0A4908503C031D792E4A0887
:100CB000C33C031D792ECB08031D792ECC08031DE0
:100CC000792ECC01CB01CA01C901E011210010101D
:100CD000220010102100901022009010210010110D
:100CE000220010112000E601E501E4013230E300AA
:100CF000F323462EFE2DE114E11C882E1430E7006C
:100D00000D21E601E501E4013230E300F3237C2EFE
:100D10008831972DE601E501E4016430E300F32317
:100D2000E112E11A9D2E1630E7000D21E601E501E2
:100D3000E4013230E300F323912EE113E11BAA2EEC
:100D40003130E7000D21E601E501E4013230E30036
:100D5000F3239E2E62106218B72E3530E7000D2166
:100D6000E601E501E4013230E300F323AB2E240871
:100D7000E3000330E4004422F708031DC12E38309D
:100D8000AE002408E3000330E4004422770BCA2EAF
:100D90003930AE002408E3000330E4004422770831
:100DA000023C031DD52E3A30AE00E210E218E22ECE
:100DB0002E08E7000D21E601E501E4013230E300F1
:100DC000F323D62E2708E3000330E4004422F7087B
:100DD000031DEC2E3B30AE002708E3000330E40097
:100DE0004422770BF52E3C30AE002708E300033099
:100DF000E40044227708023C031D002F3B30AE0084
:100E0000621162190D2F2E08E7000D21E601E501A0
:100E1000E4013230E300F323012F25080139031DDB
:100E2000132F3E30AE0025080139013C031D1A2F57
:100E30003F30AE00E211E219272F2E08E7000D2106
:100E4000E601E501E4013230E300F3231B2F26081D
:100E5000E3000330E4004422F708031D312F403043
:100E6000AE002608E3000330E4004422770B3A2F5B
:100E70004130AE002608E3000330E4004422770846
:100E8000023C031D452F4230AE006212621A522FFF
:100E90002E08E7000D21E601E501E4013230E30010
:100EA000F323462F2808E3000330E4004422F70828
:100EB000031D5C2F4330AE002808E3000330E4003C
:100EC0004422770B652F4430AE002808E30003303E
:100ED000E40044227708023C031D702F4330AE002B
:100EE000E212E21A7D2F2E08E7000D21E601E5014E
:100EF000E4013230E300F323712F6113611B8A2F69
:100F00001830E7000D21E601E501E4013230E3008D
:100F1000F3237E2F88319A2D21000E1420000E1805
:100F20009B2F5D1C9B2F5D10A20AE601E501E401E9
:100F30006430E300C32121000E1420000E185D145C
:100F40008831A02D21000E1620000E1AB12FDD1CB5
:100F5000B12FDD10A30AE601E501E4016430E300EE
:100F6000C32121000E1620000E1ADD148831A32D96
:100F700021008E1620008E1ACB2FDD1ECB2FDF1BFB
:100F8000CA2FDD12A50AE601E501E4016430E300A1
:100F9000C321CB2FE11521008E1620008E1ADD16FD
:100FA0008831A72D21008D1620008D1AE72F5D1F97
:100FB000E72F6018E62F5D13621BE52FA60AE601F6
:100FC000E501E4016430E300C321E72F611621004D
:0C0FD0008D1620008D1A5D178831AA2DA7
:1010000021008D1520008D1915285D1D15285F1BE9
:1010100014285D11A401E601E501E4016430E30058
:101020008031C32188311528611521008D152000DC
:101030008D195D1521008C1620008C1A3028DD1DBD
:1010400030285F1B2F28DD110130A400E601E501E7
:10105000E4016430E3008031C32188313028611518
:1010600021008C1620008C1ADD1521008C15200023
:101070008C194B285D1E4B285F1B4A285D120230DD
:10108000A400E601E501E4016430E3008031C321FE
:1010900088314B28611521008C1520008C195D16B4
:1010A0008831A52D611DA12821000D1122000D15EB
:1010B00021000C1222000C1621000C1122000C152C
:1010C0002000E601E501E4012830E3008031C3217E
:1010D000883121000D1122000D1121000C12220077
:1010E0000C1221000C1122000C112000E601E50178
:1010F000E4011430E3008031C321883121000D1157
:1011000022000D1521000C1222000C1621000C11DA
:1011100022000C152000E601E501E4012830E3007F
:101120008031C321883121000D1122000D112100D1
:101130000C1222000C1221000C1122000C112000B4
:101140006111E11DD02821008F1322008F1720008C
:10115000E601E501E4012830E3008031C321883154
:1011600021008F1322008F132000E601E501E40126
:101170001430E3008031C321883121008F13220015
:101180008F172000E601E501E4012830E3008031FB
:10119000C321883121008F1322008F132000E11119
:1011A000611E1F2921001010220010142100901030
:1011B0002200901421001011220010152000E601D9
:1011C000E501E4012830E3008031C32188312100AA
:1011D0001010220010102100901022009010210009
:1011E0001011220010112000E601E501E401143085
:1011F000E3008031C3218831210010102200101437
:1012000021009010220090142100101122001015CE
:101210002000E601E501E4012830E3008031C3212C
:10122000883121001010220010102100901022009F
:1012300090102100101122001011200061122908C5
:1012400022020319B72922080339031D4829A201E4
:101250002208A900DD13DD1B3B293130E700803176
:101260000D218831E601E501E4013230E3008031EF
:10127000C32188312B2921000F1022000F102100DB
:101280008F1022008F1021000F1122000F1120005B
:1012900022080339013C031D6D292208A9005E10B4
:1012A0005E1860293230E70080310D218831E60177
:1012B000E501E4013230E3008031C3218831502957
:1012C00021000F1022000F1421008F1022008F1018
:1012D00021000F1122000F11200022080339023CC7
:1012E000031D92292208A900DE10DE18852933305B
:1012F000E70080310D218831E601E501E40132305B
:10130000E3008031C3218831752921000F102200AC
:101310000F1421008F1022008F1421000F112200C2
:101320000F11200022080339033C031DB7292208AE
:10133000A9005E115E19AA293430E70080310D2121
:101340008831E601E501E4013230E3008031C32158
:1013500088319A2921000F1022000F1421008F10CC
:1013600022008F1421000F1122000F1520002A08DF
:10137000230203192E2A2308E3000330E4008031FE
:1013800044228831F708031DE229A3012308AA009B
:10139000DE11DE19D9293530E70080310D21883181
:1013A000E601E501E4013230E3008031C3218831F8
:1013B000C92921008F1122008F1121000F12220054
:1013C0000F1220002308E3000330E40080314422A0
:1013D0008831770B072A2308AA005E125E1AFE29BD
:1013E0003630E70080310D218831E601E501E40166
:1013F0003230E3008031C3218831EE2921008F1182
:1014000022008F1521000F1222000F122000230846
:10141000E3000330E4008031442288317708023C45
:10142000031D2E2A2308AA00DE12DE1A252A3730D1
:10143000E70080310D218831E601E501E401323019
:10144000E3008031C3218831152A21008F11220049
:101450008F1521000F1222000F1620005F1B512B49
:101460002B0824020319512B5F1B442B2408E30093
:101470000330E400803144228831F708031D8F2AAD
:10148000A401A7012408AB005E135E1B552A383067
:10149000E70080310D218831E601E501E4013230B9
:1014A000E3008031C3218831452A0B08F7008B13F4
:1014B0003008230091002000240823009300951396
:1014C000151555309600AA30960095149518662A81
:1014D000151177088B040B08F7008B1320003108D7
:1014E0002300910020002708230093009513151571
:1014F00055309600AA309600951495187D2A15113E
:1015000077088B0421000D1122000D1521000C120B
:1015100022000C1221000C1122000C1120002408C2
:10152000E3000330E400803144228831770BE82A5D
:101530000130A400A7002408AB00DE13DE1BAE2A96
:101540003930E70080310D218831E601E501E40101
:101550003230E3008031C32188319E2A0B08F70026
:101560008B133008230091002000240823009300EF
:101570009513151555309600AA30960095149518B8
:10158000BF2A151177088B040B08F7008B13200076
:1015900031082300910020002708230093009513B1
:1015A000151555309600AA30960095149518D62A30
:1015B000151177088B0421000D1122000D11210057
:1015C0000C1222000C1621000C1122000C1120001C
:1015D0002408E3000330E400803144228831770896
:1015E000023C031D432B0230A400A7002408AB00DB
:1015F0005F105F18092B3A30E70080310D218831E8
:10160000E601E501E4013230E3008031C321883195
:10161000F92A0B08F7008B133008230091002000F3
:101620002408230093009513151555309600AA3011
:101630009600951495181A2B151177088B040B0832
:10164000F7008B13200031082300910020002708A9
:10165000230093009513151555309600AA30960077
:1016600095149518312B151177088B0421000D1155
:1016700022000D1121000C1222000C1221000C116D
:1016800022000C152000512B21000D1122000D11FC
:1016900021000C1222000C1221000C1122000C114E
:1016A0002000DF1BC52B2C0825020319C52BDF1BCF
:1016B000C02B25080139031D8C2BA5012508AC0082
:1016C000DF10DF18712B3E30E70080310D218831AB
:1016D000E601E501E4013230E3008031C3218831C5
:1016E000612B0B08F7008B133208230091002000B8
:1016F0002508230093009513151555309600AA3040
:10170000960095149518822B151177088B042100EB
:101710008F1322008F13200025080139013C031D7F
:10172000BF2B2508AC005F115F19A42B3F30E700E9
:1017300080310D218831E601E501E4013230E3001A
:101740008031C3218831942B0B08F7008B133208AA
:101750002300910020002508230093009513151500
:1017600055309600AA30960095149518B52B151192
:1017700077088B0421008F1322008F172000C52BC0
:1017800021008F1322008F1320006018EA2C2D08EF
:1017900026020319EA2C6018DD2C2608E30003302A
:1017A000E400803144228831F708031D262CA6016D
:1017B000A8012608AD00DF11DF19EC2B4030E7004F
:1017C00080310D218831E601E501E4013230E3008A
:1017D0008031C3218831DC2B0B08F7008B133308D1
:1017E000230091002000260823009300951315156F
:1017F00055309600AA30960095149518FD2B1511BA
:1018000077088B040B08F7008B13200034082300A3
:1018100091002000280823009300951315155530DA
:101820009600AA30960095149518142C1511770877
:101830008B042100101022001014210090102200AF
:101840009010210010112200101120002608E30042
:101850000330E400803144228831770B802C013042
:10186000A6000230A8002608AD005F125F1A462CC1
:101870004130E70080310D218831E601E501E401C6
:101880003230E3008031C3218831362C0B08F70059
:101890008B133308230091002000260823009300B7
:1018A0009513151555309600AA3096009514951885
:1018B000572C151177088B040B08F7008B132000A9
:1018C000340823009100200028082300930095137A
:1018D000151555309600AA309600951495186E2C63
:1018E000151177088B042100101022001010210020
:1018F00090102200901421001011220010112000DD
:101900002608E3000330E400803144228831770860
:10191000023C031DDC2C0230A6000130A800260882
:10192000AD00DF12DF1AA22C4230E70080310D211A
:101930008831E601E501E4013230E3008031C32162
:101940008831922C0B08F7008B1333082300910089
:101950002000260823009300951315155530960096
:10196000AA30960095149518B32C151177088B049E
:101970000B08F7008B13200034082300910020008F
:101980002808230093009513151555309600AA30AA
:10199000960095149518CA2C151177088B04210010
:1019A000101022001010210090102200901421002D
:1019B0001011220010152000EA2C21001010220026
:1019C0001010210090102200901021001011220010
:1019D000101120008831AC2D6A30210099002000C0
:1019E000A101A00122009D1205302000980099015C
:1019F000960197019601111023009F1119309B0049
:101A0000A6309E0090309D002000A201A301A401F9
:101A1000A501A601A701A801FF30A900AA00AB00FB
:101A2000AC00AD00AE01AF010130B0000230B1003A
:101A30000330B2000430B3000530B400B801B70180
:101A4000B601B501BC01BB01BA01B901C001BF01BA
:101A5000BE01BD01C401C301C201C101C801C7016A
:101A6000C601C501CC01CB01CA01C901D001CF011A
:101A7000CE01CD01D401D301D201D101D801D701CA
:101A8000D601D501DC01DB01DA01D9015D10DD10E1
:101A90005D11DD115D12DD125D13DD135E10DE10D0
:101AA0005E11DE115E12DE125E13DE135F10DF10B8
:101AB0005F11DF115F12DF125F13DF136010E010A0
:101AC0006011E0116012E0126013E0136110E11088
:101AD0006111E1116112E1126113E1136210E21070
:101AE0006211E2116212E21262132F00910192015F
:101AF000980199019A0123008C018D018F019001B9
:101B00002200920191019401930180312000192853
:101B10008831803157288831803168288831803178
:101B2000592288318031D42C883180311C2D883164
:101B300080318A2E883180311421883180318C2F78
:101B400088318031A22F883100288031B82F883128
:0C1B50008031D22F883152289B2D630079
:020000040001F9
:04000E00A439FF1EF4
:00000001FF
;PIC16F1939
;CRC=A920  CREATED="18-Feb-19 13:24"
