:1000000098310028000020308500A43084000008CA
:10001000031918280130F800F701F70B0D28F80B29
:100020000C284A30F700F70B13281628800B0A28F3
:10003000080021008C0122008C0121008D0122008A
:100040008D0121008E0122008E0121008F012200EE
:100050008F012100101090101011901122009001BA
:100060000430A000FA30A400200003202200A00BDE
:10007000322820306500C0306600803067000030D4
:1000800021008F00101090101011901502302200E6
:10009000A4002000032021001E109E101E112030FD
:1000A00023008C00003090008D008F0021001E1670
:1000B0009E121E139E171D1402302200A400200061
:1000C00003202200A301A201A101A0012308200016
:1000D000A100220022082000A00022002108200008
:1000E000970022002008200096009831F92821006E
:1000F0008E1222008E1621000F1122000F112100F6
:100100008F1122008F1521000E1222000E122000E6
:100110000800220024082000111E8C2823009A00C9
:1001200020000800911EB429911E9428230019086C
:100130002000A2002208313C031DAA28A30114308C
:100140002200A4002000032051302200A40020003F
:100150008920A2012208323C031DBB280130A300E4
:1001600014302200A4002000032052302200A400FA
:1001700020008920A2012208333C031DCC28023034
:10018000A30014302200A4002000032053302200DA
:10019000A40020008920A2012208343C031DDD2890
:1001A0000330A30014302200A400200003205430A8
:1001B0002200A40020008920A2012208353C031D52
:1001C000ED28A40114302200A400200003205530A3
:1001D0002200A40020008920A2012208363C031D31
:1001E000FE280130A40014302200A40020000320C7
:1001F00056302200A40020008920A2012208373CAA
:10020000031D0F290230A40014302200A400200096
:10021000032057302200A40020008920A2012208D8
:10022000383C031D1F29A50114302200A400200022
:10023000032058302200A40020008920A2012208B7
:10024000393C031D30290130A50014302200A400E0
:100250002000032059302200A40020008920A201A0
:1002600022083A3C031D41290230A5001430220027
:10027000A4002000032060302200A4002000892078
:10028000A20122083E3C031D5129A6011430220080
:10029000A4002000032061302200A4002000892057
:1002A000A20122083F3C031D62290130A600143040
:1002B0002200A4002000032062302200A4002000BD
:1002C0008920A2012208403C031D7229A701143095
:1002D0002200A4002000032063302200A40020009C
:1002E0008920A2012208413C031D83290130A70077
:1002F00014302200A4002000032064302200A40057
:1003000020008920A2012208423C031D94290230CA
:10031000A70014302200A400200003206530220032
:10032000A40020008920A2012208943C031972161F
:100330002208953C0319F2162208963C03197217FD
:100340002208843C0319F2142208853C0319721513
:100350002208863C0319F2152208A13C0319F31563
:100360002208A33C0319731608001030F80021007E
:100370001D08833978049D002000B901B801AF0140
:100380002F08093C031CDB2902302200A4002000B6
:100390000320922021009D149D18CC291C08FA00EE
:1003A0001B082000B6007A08B7003608B8073708DF
:1003B000B93DAF0AC02939082200A1002000380841
:1003C0002200A000A3010A30A200F801F901F70100
:1003D000FA012308031DEF2922080319092A103006
:1003E000A4000310A00DA10DF70DFA0D23087A0249
:1003F000031DFC2922087702031C052A2208F702A4
:10040000031CFA032308FA020314F80DF90DA40BD8
:10041000F12979082000B7007808B600080021000B
:100420008E1222008E1221008F1122008F112100C6
:100430000E1222000E122000080021008E1222004F
:100440008E1621000F1122000F1521000E1222001E
:100450000E1621008F1122008F1521008F1022000F
:100460008F1021000F1022000F1020000800210023
:100470008E1222008E1221000F1122000F11210076
:100480000E1222000E1221008F1122008F11210066
:100490008F1022008F1021000F1022000F1020005B
:1004A000080021000F1122000F1521008E122200DA
:1004B0008E1221000F1022000F1421008F10220035
:1004C0008F102000080021000F1122000F112100C1
:1004D0000F1022000F1021008F1022008F1020001B
:1004E00008006E14F015EE17EE157017EE14701666
:1004F0006F146E16F0176E15F016EF14EE167114D9
:100500007720FA302200A40020000320B101B001BE
:100510003108013C031CB32A031D922A30082B3CEE
:10052000031CB32A772014302200A40020000320EB
:10053000B521B708031DA02A3608283C0318AF2AA6
:100540006E10F011EE117013EE130130B1002C306B
:10055000B0000F2214302200A40020000320B00AB3
:100560000319B10A882A1D22FA302200A4002000B3
:100570000320B301B2013308013C031CE62A031D2A
:10058000C52A32082B3C031CE62A1D221430220007
:10059000A40020000320B521B708031DD32A360884
:1005A000463C0318E22AEE1070126E12F0136F1020
:1005B0000130B3002C30B200372214302200A400E6
:1005C00020000320B20A0319B30ABB2A5122FA30D1
:1005D0002200A40020000320B501B4013508013C2D
:1005E000031C192B031DF82A34082B3C031C192B60
:1005F000512214302200A40020000320B521B708A6
:10060000031D062B3608283C0318152B6E11F0121B
:10061000EE127110EF100130B5002C30B4006322DF
:1006200014302200A40020000320B40A0319B50AE4
:10063000EE2A9831FC2821008E1222008E1621000D
:100640000F1122000F1121008F1122008F112100A4
:100650000E1222000E1620000800111C342BA00AD6
:100660000319A10A1110432B1708FA001608F70006
:1006700017087A02031D342B7708111C4C2BA00A93
:100680000319A10A11101708FA001608F700170835
:100690007A02031D432B7708F7007A08F800200838
:1006A000F9002108FA00080021008E1222008E169F
:1006B00021000F1122000F1521000E1222000E1230
:1006C00021008F1122008F1121008F1022008F1422
:1006D00021000F1022000F142000080021000F112C
:1006E00022000F1521008E1222008E1221000F1001
:1006F00022000F1021008F1022008F14200008000C
:100700002200240828022000BA0022002508293BE4
:100710002000BB00220026082A3B2000BC0022004B
:1007200027082B3B2000BD003A08F7003B08F800E3
:100730003C08F9003D08FA0008006E18CB2B6E1734
:100740001B23FA302200A400200003202D237A0866
:10075000C1007908C0007808BF007708BE006E1F8E
:10076000CB2B2D237A08C5007908C4007808C30074
:100770007708C2001B23B521B708031DC32B360819
:10078000283C0318CA2B6E130F2214302200A40039
:1007900020000320AF2BEE18F92B6E175423FA30EC
:1007A0002200A400200003202D237A08D900790814
:1007B000D8007808D7007708D6006E1FF92B2D23B4
:1007C0007A08DD007908DC007808DB007708DA00B9
:1007D0005423B521B708031DF12B3608463C0318F6
:1007E000F82B6E13372214302200A40020000320BF
:1007F000DD2B6E19292C6E176E23FA302200A4000F
:10080000200003202D237A08ED007908EC007808F9
:10081000EB007708EA006E1F292C2D237A082100AF
:10082000A3007908A2007808A1007708A0002000A2
:100830006E23B521B708031D212C3608283C031868
:10084000282C6E13632214302200A4002000032001
:100850000B2C6E188C2C41082200A70020004008A9
:100860002200A60020003F082200A50020003E082C
:100870002200A400200045082200AB00200044080C
:100880002200AA00200043082200A90020004208FC
:100890002200A800200080237A08C9007908C80037
:1008A0007808C7007708C60040304602CE000D30F9
:1008B000473BCF000330483BD0000030493BD100DC
:1008C0000310460DCA00470DCB00480DCC00490D62
:1008D000CD000310490C2200A3002000480C220088
:1008E000A2002000470C2200A1002000460C22009C
:1008F000A000E03020022000D20093302200213BF3
:100900002000D30004302200223B2000D40000301D
:100910002200233B2000D500EE18CC2C59082200E1
:10092000A700200058082200A60020005708220037
:10093000A500200056082200A40020005D08220027
:10094000AB0020005C082200AA0020005B08220007
:10095000A90020005A082200A800200080237A085D
:10096000E1007908E0007808DF007708DE00403019
:100970005E02E6000D305F3BE7000330603BE800BD
:100980000030613BE90003105E0DE2005F0DE30003
:10099000600DE400610DE5006E19312D6D08220037
:1009A000A70020006C082200A60020006B0822008F
:1009B000A50020006A082200A400210023082200CC
:1009C000AB00210022082200AA00210021082200F9
:1009D000A900210020082200A800200080237A0816
:1009E0002100A7007908A6007808A5007708A400D0
:1009F00040302402AC000D30253BAD000330263BD7
:100A0000AE000030273BAF000310240DA800250DD9
:100A1000A900260DAA00270DAB000310270C220009
:100A2000A3002100260C2200A2002100250C220098
:100A3000A1002100240C2200A000F030200221009F
:100A4000B00049302200213B2100B10002302200D9
:100A5000223B2100B20000302200233B2100B300E2
:100A600020009831FF2820302200B000AC01AD01F9
:100A7000AE01AF012708FA002608F9002508F800A2
:100A80002408F7000310771C532D2808AC07290809
:100A90000318290FAD072A0803182A0FAE072B08E1
:100AA00003182B0FAF07AF0CAE0CAD0CAC0CFA0C4F
:100AB000F90CF80CF70CB00B422D20000800911E29
:100AC000A62E911E612D230019082000A2002208E5
:100AD000023C0319EF122208073C03196F13220886
:100AE000103C0319EF132208133C0319701022085D
:100AF000043C0319F0102208143C03197011220859
:100B0000163C031D8E2DF21714302200A400200085
:100B1000032017302200A400200089202208183C5E
:100B2000031D9D2D731414302200A4002000032007
:100B300019302200A400200089202208313C031D26
:100B4000AD2DA30114302200A4002000032020308A
:100B50002200A40020008920A2012208353C031DA8
:100B6000BD2DA40114302200A40020000320213058
:100B70002200A40020008920A2012208383C031D85
:100B8000CD2DA50114302200A40020000320223026
:100B90002200A40020008920A2012208393C031D64
:100BA000DE2D0130A50014302200A4002000032017
:100BB00022302200A40020008920A20122083A3C11
:100BC000031DEF2D0230A50014302200A4002000E8
:100BD000032022302200A40020008920A201220844
:100BE0003B3C031DFF2DAD0114302200A40020006A
:100BF000032023302200A40020008920A201220823
:100C00003C3C031D102E0130AD0014302200A40026
:100C10002000032023302200A40020008920A2010C
:100C200022083D3C031D212E0230AD00143022006D
:100C3000A4002000032023302200A40020008920EB
:100C4000A20122083E3C031D312EA60114302200D1
:100C5000A4002000032024302200A40020008920CA
:100C6000A20122083F3C031D422E0130A600143091
:100C70002200A4002000032024302200A400200031
:100C80008920A2012208403C031D522EA7011430E6
:100C90002200A4002000032025302200A400200010
:100CA0008920A2012208413C031D632E0130A700C8
:100CB00014302200A4002000032025302200A400CC
:100CC00020008920A2012208423C031D742E02301C
:100CD000A70014302200A4002000032025302200A9
:100CE000A40020008920A2012208433C031D842E79
:100CF000AE0114302200A400200003202630220080
:100D0000A40020008920A2012208443C031D952E46
:100D10000130AE0014302200A40020000320263051
:100D20002200A40020008920A2012208453C031DC6
:100D3000A62E0230AE0014302200A40020000320B2
:100D400026302200A40020008920A20108002200F1
:100D50002308A7002208A6002108A5002008A40057
:100D6000AB01AA010330A900E830A8002000332518
:100D70007A082200A3007908A2007808A100770869
:100D8000A00020002D237A082100B7007908B600C2
:100D90007808B5007708B40020002D237A082200D7
:100DA000A7007908A6007808A5007708A4000A30F3
:100DB00024072100B80000302200253D2100B900A1
:100DC00000302200263D2100BA0000302200273DDD
:100DD0002100BB0037082200A700210036082200AE
:100DE000A600210035082200A500210034082200B9
:100DF000A40021003B082200AB0021003A08220099
:100E0000AA00210039082200A90021003808220088
:100E1000A800200080237A082100BF007908BE00C6
:100E20007808BD007708BC003F0822002302031C9D
:100E30006D2F031D332F21003E0822002202031CC8
:100E40006D2F031D332F21003D0822002102031CBA
:100E50006D2F031D332F200821003C02031C322F6D
:100E600022006D2F220020002D237A082100BB00D4
:100E70007908BA007808B9007708B8003708220066
:100E8000A700210036082200A60021003508220014
:100E9000A500210034082200A40021003B08220004
:100EA000AB0021003A082200AA00210039082200E4
:100EB000A900210038082200A800200080237A0819
:100EC0002100BF007908BE007808BD007708BC008B
:100ED00020005F252100142F220020000800EF16BB
:100EE000EF1E802F01302200A40020008920220064
:100EF000A301A201A1013230A0002000A726702F7B
:100F00006F176F1F9A2F6E1C8A2F05302200A400C6
:100F1000200089206E18912F06302200A4002000A6
:100F200089202200A301A201A1013230A0002000EB
:100F3000A726812FEF17EF1FB42FEE1CA42F083028
:100F40002200A40020008920EE18AB2F09302200D7
:100F5000A400200089202200A301A201A1013230B7
:100F6000A0002000A7269B2F7014701CCE2F6E1D92
:100F7000BE2F11302200A400200089206E19C52F39
:100F800012302200A400200089202200A301A20127
:100F9000A1013230A0002000A726B52FF014F01CCC
:100FA000DF2F03302200A400200089202200A301AB
:100FB000A201A1013230A0002000A726CF2F70157A
:100FC000701DEB2F2200A301A201A1013230A0006D
:100FD0002000A726E02F15302200A4002000892041
:040FE0009831022919
:10100000A301A401A501A601A701AD01AE01FF3016
:10101000A800A900AA00AB00AC0098310529F21382
:10102000F21B162880315F25883110287310731841
:101030001D2880315F258831172898310829220022
:101040002308A7002208A6002108A5002008A40064
:10105000AB01AA010330A900E830A80080312000CC
:10106000332588317A082200A3007908A200780885
:10107000A1007708A000803120002D2388317A0854
:101080002100B7007908B6007808B5007708B400E9
:10109000803120002D2388317A082200A7007908AA
:1010A000A6007808A5007708A4000A3024072100CC
:1010B000B80000302200253D2100B9000030220098
:1010C000263D2100BA0000302200273D2100BB0050
:1010D00037082200A700210036082200A6002100C0
:1010E00035082200A500210034082200A4002100B8
:1010F0003B082200AB0021003A082200AA00210090
:1011000039082200A900210038082200A8008031F7
:101110002000802388317A082100BF007908BE00B2
:101120007808BD007708BC003F0822002302031C9A
:10113000F328031DB32821003E0822002202031CCD
:10114000F328031DB32821003D0822002102031CBF
:10115000F328031DB328200821003C02031CB228F9
:101160002200F3282200803120002D2388317A08C4
:101170002100BB007908BA007808B9007708B800E8
:1011800037082200A700210036082200A60021000F
:1011900035082200A500210034082200A400210007
:1011A0003B082200AB0021003A082200AA002100DF
:1011B00039082200A900210038082200A800803147
:1011C0002000802388317A082100BF007908BE0002
:1011D0007808BD007708BC0080312000922088315B
:1011E00021009428220020000800701F112A80315D
:1011F0001B2388312200A301A201A101FA30A00023
:1012000020001F208031B521883180310F228831A4
:101210002200A301A201A1011430A00020001F2080
:10122000B708031D17293608283C0318112A6E1029
:101230007013FF30AA00AD01F210F2182F2981308F
:101240002200A40080312000892088312200A301DF
:10125000A201A1013230A00020001F201D29220080
:10126000A301A201A1016430A00020001F20EE1FF5
:10127000112A8031772088312200A301A201A10127
:10128000FA30A00020001F206F116F196E298031E5
:10129000772088312200A301A201A1011430A0000F
:1012A00020001F208031B5218831B708031D5C293B
:1012B0003608283C03186D296E10F011EE117013DA
:1012C000EE136F1580310F2288312200A301A20195
:1012D000A1011430A00020001F20452980311B23CC
:1012E00088312200A301A201A101FA30A000200050
:1012F0001F2080312D2388317A08C1007908C00071
:101300007808BF007708BE006F116F19AC298031D3
:101310001B23883180312D2388317A08C500790854
:10132000C4007808C3007708C2008031B521883135
:10133000B708031D9F293608283C0318AB296F15F1
:1013400080310F2288312200A301A201A1011430B3
:10135000A00020001F2085296E18112A41082200B4
:10136000A700200040082200A60020003F0822001D
:10137000A50020003E082200A4002000450822000D
:10138000AB00200044082200AA00200043082200ED
:10139000A900200042082200A800803120008023FC
:1013A00088317A08C9007908C8007808C70077082A
:1013B000C60040304602CE000D30473BCF00033020
:1013C000483BD0000030493BD1000310460DCA0015
:1013D000470DCB00480DCC00490DCD000310490C42
:1013E0002200A3002000480C2200A2002000470C8D
:1013F0002200A1002000460C2200A000E0302002C4
:101400002000D20093302200213B2000D300043082
:101410002200223B2000D40000302200233B200089
:10142000D500F01F092B80311D2288312200A30135
:10143000A201A101FA30A00020001F208031B521B7
:1014400088318031372288312200A301A201A10115
:101450001430A00020001F20B708031D332A3608CF
:10146000463C0318092BEE10F013FF30AB0072114D
:1014700072194A2A82302200A4008031200089207B
:1014800088312200A301A201A1013230A000200076
:101490001F20382A2200A301A201A1016430A0006C
:1014A00020001F206F1C092B80311D228831220053
:1014B000A301A201A101FA30A00020001F20EF111A
:1014C000EF19892A80311D2288312200A301A2014F
:1014D000A1011430A00020001F208031B5218831E7
:1014E000B708031D772A3608463C0318882AEE10F1
:1014F00070126E12F0136F10EF15803137228831A1
:101500002200A301A201A1011430A00020001F208D
:10151000602A8031542388312200A301A201A10155
:10152000FA30A00020001F2080312D2388317A0856
:10153000D9007908D8007808D7007708D600EF11CD
:10154000EF19C72A80315423883180312D23883107
:101550007A08DD007908DC007808DB007708DA001B
:101560008031B5218831B708031DBA2A3608463CB8
:101570000318C62AEF158031372288312200A301D3
:10158000A201A1011430A00020001F20A02AEE1803
:10159000092B59082200A700200058082200A600A5
:1015A000200057082200A500200056082200A400B1
:1015B00020005D082200AB0020005C082200AA0089
:1015C00020005B082200A90020005A082200A80081
:1015D00080312000802388317A08E1007908E0001A
:1015E0007808DF007708DE0040305E02E6000D304C
:1015F0005F3BE7000330603BE8000030613BE900FF
:1016000003105E0DE2005F0DE300600DE400610D6C
:10161000E500711C282C80316E2388312200A30143
:10162000A201A101FA30A00020001F208031B521C5
:1016300088318031632288312200A301A201A101F7
:101640001430A00020001F20B708031D2B2B3608E4
:10165000283C0318282C6E117110FF30AC00AE012D
:10166000F211F219432B83302200A40080312000B4
:10167000892088312200A301A201A1013230A000FB
:1016800020001F20312B2200A301A201A101643000
:10169000A00020001F20EF1C282C8031512288310F
:1016A0002200A301A201A101FA30A00020001F2006
:1016B0006F126F1A822B8031512288312200A301D0
:1016C000A201A1011430A00020001F208031B5210B
:1016D0008831B708031D702B3608283C0318812B6E
:1016E0006E11F012EE127110EF106F16803163223E
:1016F00088312200A301A201A1011430A000200022
:101700001F20592B80316E2388312200A301A201B2
:10171000A101FA30A00020001F2080312D23883144
:101720007A08ED007908EC007808EB007708EA0009
:101730006F126F1AC22B80316E23883180312D23B6
:1017400088317A082100A3007908A2007808A10056
:101750007708A00080312000B5218831B708031D2B
:10176000B52B3608283C0318C12B6F168031632235
:1017700088312200A301A201A1011430A0002000A1
:101780001F20992B6E19282C6D082200A70020001D
:101790006C082200A60020006B082200A500200093
:1017A0006A082200A400210023082200AB002100C7
:1017B00022082200AA00210021082200A9002100FD
:1017C00020082200A80080312000802388317A0878
:1017D0002100A7007908A6007808A5007708A400D2
:1017E00040302402AC000D30253BAD000330263BD9
:1017F000AE000030273BAF000310240DA800250DDC
:10180000A900260DAA00270DAB000310270C22000B
:10181000A3002100260C2200A2002100250C22009A
:10182000A1002100240C2200A000F03020022100A1
:10183000B00049302200213B2100B10002302200DB
:10184000223B2100B20000302200233B2100B300E4
:101850002000080023080339031D3E2CA3012308A0
:10186000A80021008D1022008D1021000D112200F2
:101870000D1121000D1022000D1020002308033946
:10188000013C031D522C2308A80021008D102200CA
:101890008D1421000D1122000D1121000D102200C8
:1018A0000D10200023080339023C031D662C230879
:1018B000A80021008D1022008D1421000D1122009E
:1018C0000D1521000D1022000D10200023080339F2
:1018D000033C031D792C2308A80021008D10220051
:1018E0008D1421000D1122000D1521000D10220074
:1018F0000D142000080022002108F801200203181E
:10190000842C2008F700902CF7010830A200A00DCD
:10191000F70D210877020318F700F80DA20B872CAA
:101920002000080024082200A0000330A1002000AD
:101930007B24F708031DA82CA4012408A90021007A
:101940000D1222000D1221008D1122008D11200098
:1019500024082200A0000330A10020007B24770B84
:10196000BC2C2408A90021000D1222000D16210014
:101970008D1122008D11200024082200A0000330C8
:10198000A10020007B247708023C031DD12C2408F1
:10199000A90021000D1222000D1621008D11220038
:1019A0008D15200008006E19F32C27082200A000D6
:1019B0000330A10020007B24F708031DE12C7210E6
:1019C000F22C7214F11FF22CF11380312D23883187
:1019D0007A082100E7007908E6007808E500770832
:1019E000E4002000F42C72100800721C4D2DF11B35
:1019F0004C2D80312D2388317A082100EB007908A5
:101A0000EA007808E9007708E80067082200A700E4
:101A1000210066082200A600210065082200A5001A
:101A2000210064082200A40021006B082200AB0002
:101A300021006A082200AA00210069082200A900EA
:101A4000210068082200A80080312000802388310E
:101A50007A082100EF007908EE007808ED00770899
:101A6000EC00EF08031D462D6E081D3C03184B2D9E
:101A7000FF3A031D462D6D08833C03184B2DFF3A9A
:101A8000031D462D6C08803C03184B2DF1178D1259
:101A900022008D1621002000522DF11721008D12F9
:101AA00022008D122000080021000F1620000F1EBA
:101AB000742D731D742DF314F311F3196F2DA030D1
:101AC0002200A40080312000892088312200A30157
:101AD000A201A1013230A00020001F205D2D721054
:101AE000A701D324F524731121000F1620000F1A2B
:101AF0008E2DF3107312731A8D2DA2302200A400C4
:101B000080312000892088312200A301A201A10197
:101B10003230A00020001F207B2D73150800F31C1D
:101B20009B2D2308033903199B2D21008E112200C0
:101B30008E159F2D200021008E1122008E11200075
:101B4000080080312D2388317A082100C7007908E8
:101B5000C6007808C5007708C40043082200A70023
:101B6000210042082200A600210041082200A50011
:101B7000210040082200A400210047082200AB00F9
:101B8000210046082200AA00210045082200A900E1
:101B9000210044082200A8008031200080238831E1
:101BA0007A082100CB007908CA007808C9007708B4
:101BB000C80020004D0821004B02031C1E2E031DEF
:101BC000F92D20004C0821004A02031C1E2E031D83
:101BD000F92D20004B0821004902031C1E2E031D75
:101BE000F92D480820004A02031CF82D21001E2E62
:101BF0002100711D1E2E803120000F22883122000D
:101C0000A301A201A1011430A00020001F206E1426
:101C1000F01570177212721A1D2E91302200A40056
:101C200080312000892088312200A301A201A10176
:101C30003230A00020001F200B2E210020000800C1
:101C400080312D2388317A082100D3007908D20011
:101C50007808D1007708D0004F082200A7002100A3
:101C60004E082200A60021004D082200A5002100F8
:101C70004C082200A400210053082200AB002100E0
:101C800052082200AA00210051082200A9002100C8
:101C900050082200A80080312000802388317A0873
:101CA0002100D7007908D6007808D5007708D4003D
:101CB0002000650821005702031C9D2E031D782E6D
:101CC0002000640821005602031C9D2E031D782E5F
:101CD0002000630821005502031C9D2E031D782E51
:101CE000540820006202031C772E21009D2E210043
:101CF000711E9D2E80312000372288312200A301E1
:101D0000A201A1011430A00020001F20EE147016C3
:101D1000F017F212F21A9C2E92302200A4008031A9
:101D20002000892088312200A301A201A1013230C4
:101D3000A00020001F208A2E210020000800260875
:101D40000139031D4A2FA6012608AB00EE184A2FC1
:101D50008031542388312200A301A201A101C8309F
:101D6000A00020001F2080312D2388317A08210017
:101D7000CF007908CE007808CD007708CC0022008B
:101D8000A301A201A1013230A00020001F20F11503
:101D9000711680312D2388317A08D9007908D8004E
:101DA0007808D7007708D6007012701A4A2F542589
:101DB0008F2580312D2388317A08DD007908DC00F9
:101DC0007808DB007708DA0059082200A700200015
:101DD00058082200A600200057082200A500200075
:101DE00056082200A40020005D082200AB0020005D
:101DF0005C082200AA0020005B082200A900200045
:101E00005A082200A80080312000802388317A08F7
:101E1000E1007908E0007808DF007708DE00803113
:101E2000542388312200A301A201A1011430A00093
:101E300020001F208031B5218831B708031D242FD1
:101E40003608463C0318482F69086102031C482FD6
:101E5000031D3A2F68086002031C482F031D3A2F08
:101E600067085F02031C482F031D3A2F5E086602B5
:101E70000318482F8031372288312200A301A201A4
:101E8000A1011430A00020001F207016F111711262
:101E90002026D52E26080139013C031DF52F2608E2
:101EA000AB00EE18F52F80311D2288312200A301EE
:101EB000A201A101C830A00020001F2080312D23E5
:101EC00088317A082100CF007908CE007808CD004B
:101ED0007708CC002200A301A201A1013230A000AA
:101EE00020001F20F115711680312D2388317A08CA
:101EF000D9007908D8007808D7007708D600701282
:101F0000701AF52F54258F2580312D2388317A08BA
:101F1000DD007908DC007808DB007708DA00590872
:101F20002200A700200058082200A6002000570821
:101F30002200A500200056082200A40020005D0811
:101F40002200AB0020005C082200AA0020005B08F1
:101F50002200A90020005A082200A8008031200099
:101F6000802388317A08E1007908E0007808DF00F2
:101F70007708DE0080311D2288312200A301A201F2
:101F8000A1011430A00020001F208031B52188312C
:101F9000B708031DCF2F3608463C0318F32F6908F6
:101FA0006102031CF32F031DE52F68086002031C68
:101FB000F32F031DE52F67085F02031CF32F031D9A
:101FC000E52F5E0866020318F32F8031372288312F
:101FD0002200A301A201A1011430A00020001F20B3
:0C1FE0007016F11171122026802F0800ED
:1020000025082200A0000330A100883120007B2495
:102010009031F708031DC228A5012508AA006E18F3
:10202000C22880311B2390312200A301A201A1010B
:10203000C830A000883120001F20903180312D232E
:1020400090317A082100C3007908C2007808C100E5
:102050007708C0002200A301A201A1013230A00034
:10206000883120001F209031F114711580312D230B
:1020700090317A08C1007908C0007808BF0077085D
:10208000BE00F011F019C2288831542590318831F2
:102090008F25903180312D2390317A08C500790841
:1020A000C4007808C3007708C20041082200A700D6
:1020B000200040082200A60020003F082200A500C2
:1020C00020003E082200A400200045082200AB00AA
:1020D000200044082200AA00200043082200A90092
:1020E000200042082200A800803120008023903187
:1020F0007A08C9007908C8007808C7007708C600C0
:1021000080311B2390312200A301A201A1011430D0
:10211000A000883120001F2090318031B5219031FE
:10212000B708031D97283608283C0318BE28510815
:102130004902031CBE28031DAD2850084802031C99
:10214000BE28031DAD284F084702031CBE28031DEF
:10215000AD2846084E020318BE2880310F22903168
:102160002200A301A201A1011430A00088312000A7
:102170001F209031F015F1107111AD018831A125AA
:102180009031422825082200A0000330A1008831A8
:1021900020007B249031770B83292508AA006E1834
:1021A00083298031772090312200A301A201A1016F
:1021B000C830A000883120001F20903180312D23AD
:1021C00090317A082100C3007908C2007808C10064
:1021D0007708C0002200A301A201A1013230A000B3
:1021E000883120001F209031F114711580312D238A
:1021F00090317A08C1007908C0007808BF007708DC
:10220000BE00F011F01983298831542590318831AE
:102210008F25903180312D2390317A08C5007908BF
:10222000C4007808C3007708C20041082200A70054
:10223000200040082200A60020003F082200A50040
:1022400020003E082200A400200045082200AB0028
:10225000200044082200AA00200043082200A90010
:10226000200042082200A800803120008023903105
:102270007A08C9007908C8007808C7007708C6003E
:102280008031772090312200A301A201A1011430F6
:10229000A000883120001F2090318031B52190317D
:1022A000B708031D57293608283C03187F29510811
:1022B0004902031C7F29031D6D2950084802031C95
:1022C0007F29031D6D294F084702031C7F29031D29
:1022D0006D2946084E0203187F2980310F22903164
:1022E0002200A301A201A1011430A0008831200026
:1022F0001F209031F015F11071110130AD008831BF
:10230000A1259031022925082200A0000330A10058
:10231000883120007B2490317708023C031D472B35
:102320002508AA002D082200A0000330A100883152
:1023300020007B249031F708031D6D2A80311B2378
:1023400090312200A301A201A101FA30A00088313E
:1023500020001F2090318031B521903180310F2233
:1023600090312200A301A201A1011430A000883104
:1023700020001F209031B708031DDA2936080E3CD3
:10238000031CDA296E1470177212721AD92991304F
:102390002200A40080312000892090312200A30176
:1023A000A201A1013230A000883120001F2090310D
:1023B000C529DC296E1070136E186D2A80317720C4
:1023C00090312200A301A201A101FA30A0008831BE
:1023D00020001F20903180312D2390317A08C100D8
:1023E0007908C0007808BF007708BE00F011F01926
:1023F0006D2A88315425903188318F259031803174
:102400009220903180312D2390317A08C5007908CF
:10241000C4007808C3007708C20041082200A70062
:10242000200040082200A60020003F082200A5004E
:1024300020003E082200A400200045082200AB0036
:10244000200044082200AA00200043082200A9001E
:10245000200042082200A800803120008023903113
:102460007A08C9007908C8007808C7007708C6004C
:1024700080317720903120305207F700A130533D52
:10248000F8000730543DF9000030553DFA0049028C
:10249000031C6C2A031D5C2A79084802031C6C2A61
:1024A000031D5C2A78084702031C6C2A031D5C2A62
:1024B0004608770203186C2A80310F2290312200DF
:1024C000A301A201A1011430A000883120001F2027
:1024D0009031F0150230AD00F7292D082200A00040
:1024E0000330A100883120007B249031770B472BEB
:1024F0008031772090312200A301A201A101FA309E
:10250000A000883120001F2090318031B52190310A
:1025100080310F2290312200A301A201A1011430C9
:10252000A000883120001F209031B708031DB42A75
:1025300036080E3C031CB42A6E1470177212721AFD
:10254000B32A91302200A4008031200089209031EC
:102550002200A301A201A1013230A0008831200095
:102560001F2090319F2AB62A6E1070136E18472BC9
:1025700080311B2390312200A301A201A101FA3076
:10258000A000883120001F20903180312D23903110
:102590007A08C1007908C0007808BF007708BE003B
:1025A000F011F019472B88315425903188318F254F
:1025B000903180319220903180312D2390317A08F2
:1025C000C5007908C4007808C3007708C200410834
:1025D0002200A700200040082200A60020003F089B
:1025E0002200A50020003E082200A400200045088B
:1025F0002200AB00200044082200AA00200043086B
:102600002200A900200042082200A80080312000FA
:10261000802390317A08C9007908C8007808C7007B
:102620007708C60080311B23903120305202F7001A
:10263000A130533BF8000730543BF9000030553BC4
:10264000FA004902031C462B031D362B7908480269
:10265000031C462B031D362B78084702031C462B10
:10266000031D362B460877020318462B80310F22B4
:1026700090312200A301A201A1011430A0008831F1
:1026800020001F209031F0150230AD00D12A080043
:1026900080312D2390317A082100DF007908DE0097
:1026A0007808DD007708DC005B082200A700210025
:1026B0005A082200A600210059082200A500210086
:1026C00058082200A40021005F082200AB0021006E
:1026D0005E082200AA0021005D082200A900210056
:1026E0005C082200A80080312000802390317A0805
:1026F0002100E3007908E2007808E1007708E000B3
:102700002B086302031CC52B031D962B2A086202AB
:10271000031CC52B031D962B29086102031CC52B26
:10272000031D962B600828020318C52B711FC52BAB
:1027300080312000632290312200A301A201A10177
:102740001430A000883120001F2090316E15F01643
:1027500071148831D32490318831F524903172136B
:10276000721BC42B93302200A400803120008920EA
:1027700090312200A301A201A1013230A0008831D2
:1027800020001F209031B02B2100200008002708D6
:102790002200A0000330A100883120007B2490316A
:1027A000F708031D8F2CA7012708AC006E198F2C8A
:1027B00080316E2390312200A301A201A101C83013
:1027C000A000883120001F20903180312D239031CE
:1027D0007A082100DB007908DA007808D900770848
:1027E000D8002200A301A201A1013230A00088314B
:1027F00020001F209031F116711780312D23903168
:102800007A08ED007908EC007808EB007708EA0018
:10281000F012F01A8F2C88315425903188318F2591
:10282000903180312D2390317A082100A30079085E
:10283000A2007808A1007708A00020006D082200FF
:10284000A70020006C082200A60020006B082200D0
:10285000A50020006A082200A4002100230822000D
:10286000AB00210022082200AA002100210822003A
:10287000A900210020082200A80080312000802328
:1028800090317A082100A7007908A6007808A500F1
:102890007708A400803120006E2390312200A3012C
:1028A000A201A1011430A000883120001F20903126
:1028B0008031B5219031B708031D622C3608283CC1
:1028C00003188B2C21002F082702031C8C2C031DBE
:1028D000792C2E082602031C8C2C031D792C2D0824
:1028E0002502031C8C2C031D792C24082C020318B0
:1028F0008C2C80312000632290312200A301A201A0
:10290000A1011430A000883120001F209031F01662
:10291000F1127113AE01210020004823092C270871
:102920002200A0000330A100883120007B249031D8
:10293000770B4B2E2708AC002E082200A000033096
:10294000A100883120007B249031F708031D742DED
:1029500080316E2390312200A301A201A101FA303F
:10296000A000883120001F2090318031B5219031A6
:102970008031632290312200A301A201A101143011
:10298000A000883120001F209031B708031DE42CDF
:1029900036080E3C031CE42C6E1571147213721B66
:1029A000E32C93302200A400803120008920903154
:1029B0002200A301A201A1013230A0008831200031
:1029C0001F209031CF2CE62C6E1171106E19742DD2
:1029D0008031512290312200A301A201A101FA30DD
:1029E000A000883120001F20903180312D239031AC
:1029F0007A08ED007908EC007808EB007708EA0027
:102A0000F012F01A742D88315425903188318F25B9
:102A1000903180319220903180312D2390317A088D
:102A20002100A3007908A2007808A1007708A0007F
:102A300020006D082200A70020006C082200A600DC
:102A400020006B082200A50020006A082200A400D4
:102A5000210023082200AB00210022082200AA0046
:102A6000210021082200A900210020082200A8003E
:102A700080312000802390317A082100A700790856
:102A8000A6007808A5007708A40080312000512214
:102A90009031210033082702031C722D031D602D85
:102AA00032082602031C722D031D602D31082502F9
:102AB000031C722D031D602D240830020318722D93
:102AC00080312000632290312200A301A201A101E4
:102AD0001430A000883120001F209031F016023001
:102AE000AE0021002000012D2E082200A00003309E
:102AF000A100883120007B249031770B4B2E803150
:102B0000512290312200A301A201A101FA30A000BC
:102B1000883120001F2090318031B52190318031E3
:102B2000632290312200A301A201A1011430A00070
:102B3000883120001F209031B708031DBB2D3608B7
:102B40000E3C031CBB2D6E1571147213721BBA2D33
:102B500093302200A400803120008920903122008F
:102B6000A301A201A1013230A000883120001F2062
:102B70009031A62DBD2D6E1171106E194B2E803126
:102B80006E2390312200A301A201A101FA30A0001E
:102B9000883120001F20903180312D2390317A0818
:102BA000ED007908EC007808EB007708EA00F012F5
:102BB000F01A4B2E88315425903188318F25903171
:102BC00080319220903180312D2390317A0821007C
:102BD000A3007908A2007808A1007708A0002000CF
:102BE0006D082200A70020006C082200A60020002B
:102BF0006B082200A50020006A082200A400210022
:102C000023082200AB00210022082200AA00210094
:102C100021082200A900210020082200A8008031FC
:102C20002000802390317A082100A7007908A600AF
:102C30007808A5007708A400803120006E23903129
:102C4000210033082702031C492E031D372E3208AA
:102C50002602031C492E031D372E31082502031CB2
:102C6000492E031D372E240830020318492E8031C7
:102C70002000632290312200A301A201A10114309F
:102C8000A000883120001F209031F0160230AE00E5
:102C900021002000D82D27082200A0000330A10029
:102CA000883120007B2490317708023C031D142FCB
:102CB0002708AC006E19142F803151229031220068
:102CC000A301A201A101C830A000883120001F206B
:102CD000903180312D2390317A082100DB00790872
:102CE000DA007808D9007708D8002200A301A201F1
:102CF000A1013230A000883120001F209031F11650
:102D0000711780312D2390317A08ED007908EC009D
:102D10007808EB007708EA00F012F01A142F8831D7
:102D20005425903188318F25903180312D23903179
:102D30007A082100A3007908A2007808A10077088A
:102D4000A00020006D082200A70020006C082200CF
:102D5000A60020006B082200A50020006A082200BF
:102D6000A400210023082200AB0021002208220039
:102D7000AA00210021082200A90021002008220029
:102D8000A80080312000802390317A082100A7001C
:102D90007908A6007808A5007708A40080312000F3
:102DA000512290312200A301A201A1011430A00000
:102DB000883120001F2090318031B5219031B70833
:102DC000031DE62E3608283C0318102F21002F087B
:102DD0002702031C112F031DFD2E2E082602031CA3
:102DE000112F031DFD2E2D082502031C112F031D7D
:102DF000FD2E24082C020318112F8031200063229D
:102E000090312200A301A201A1011430A000883159
:102E100020001F209031F016F11271130130AE0026
:102E20002100200048238D2E08008831F5209031A4
:102E300088312A24903188319224903100208831C1
:102E40009F269031C72388315425903188318F25B2
:102E500090318831D32490318831F52490319831E4
:102E60000B298831F52090318831542590318831F3
:102E70008F2590318831D32490318831F5249031D9
:102E8000280823020319472F88312A249031290862
:102E9000240203194E2F8831922490319831112940
:102EA0006E18562F2A082502031D0020EE185F2FEA
:102EB0002B08260203195F2F88319F2690316E1947
:0E2EC000652F2C082702031DC7239831142903
:103000006A30210099001A082000A101A0012200C5
:103010009D120530200098009901960197019601B4
:10302000111023009F1119309B00A6309E00903094
:103030009D002000A201A301A401A501A601A701F2
:10304000FF30A800A900AA00AB00AC00AD01AE01A2
:10305000AF01B101B001B301B201B501B401B701D3
:10306000B601B901B801BD01BC01BB01BA01C10182
:10307000C001BF01BE01C501C401C301C201C90134
:10308000C801C701C601CD01CC01CB01CA01D101E4
:10309000D001CF01CE01D501D401D301D201D90194
:1030A000D801D701D601DD01DC01DB01DA01E10144
:1030B000E001DF01DE01E501E401E301E201E901F4
:1030C000E801E701E601ED01EC01EB01EA01210075
:1030D000A301A201A101A001A701A601A501A401CC
:1030E000AB01AA01A901A801AF01AE01AD01AC017C
:1030F000B301B201B101B001B701B601B501B4012C
:10310000BB01BA01B901B801BF01BE01BD01BC01DB
:10311000C301C201C101C001C701C601C501C4018B
:10312000CB01CA01C901C801CF01CE01CD01CC013B
:10313000D301D201D101D001D701D601D501D401EB
:10314000DB01DA01D901D801DF01DE01DD01DC019B
:10315000E301E201E101E001E701E601E501E4014B
:10316000EB01EA01E901E801EF01EE01ED01EC01FB
:1031700020006E10EE106E11EE116E12EE126E1730
:10318000EE136F10EF106F11EF116F12EF126F133C
:10319000EF137010F0107011F0117012F012701324
:1031A000F0137110F1107111F1117112F11271130C
:1031B000F1137210F2107211F2117212F2127213F4
:1031C000F2137310F3107311F31173122F009101A6
:1031D0009201980199019A0123008C018D018F01C0
:1031E000900122009201910194019301803120000D
:1031F000192898318031712A983180319D2B98316E
:1032000080316F2F983188310028983188310F280C
:1032100098319031152F983180319220983190312A
:0E322000312F98319031502F98310C296300D6
:020000040001F9
:04000E00A439FF1EF4
:00000001FF
;PIC16F1939
;CRC=6107  CREATED="18-Feb-19 13:20"
