:100000008831232C00002030850045308400000812
:10001000031918280130F800F701F70B0D28F80B29
:100020000C284A30F700F70B13281628800B0A28F3
:10003000080021008C0122008C0121008D0122008A
:100040008D0121008E0122008E0121008F012200EE
:100050008F012100101090101011901122009001BA
:1000600004302000E100FA30E5000320E10B3328E2
:1000700028306500E8306600A130670000302100BC
:100080008F00101090101011901502302000E50024
:100090000320E401E301E201E1016408A100630837
:1000A000A00062089700610896008831B72CAC0167
:1000B000AD01A201A301A401A501A601A701FF3082
:1000C000A800A900AA00AB008831BA2C5D197228DB
:1000D0002E08230091009513151413082000A30087
:1000E000A6017428A301A601DD197F28300823008A
:1000F00091009513151413082000A4008028A40172
:100100005D1A8C28310823009100951315141308EB
:100110002000A500A7018E28A501A7018831BD2CCC
:1001200020302100A400A001A101A201A301200010
:100130006808FA006708F9006608F8006508F70023
:100140000310771CBF2869082100A00720006A0857
:1001500003186A0FAC28AF282100A10720006B0804
:1001600003186B0FB428B7282100A20720006C08E1
:1001700003186C0FBC28BF282100A3072000210012
:10018000A30CA20CA10CA00CFA0CF90CF80CF70CA7
:10019000A40BCB28CD282000A02820000800111C8B
:1001A000D628A00A0319A10A1110E5281708FA0099
:1001B0001608F70017087A02031DD6287708111CC5
:1001C000EE28A00A0319A10A11101708FA00160850
:1001D000F70017087A02031DE5287708F7007A0868
:1001E000F8002008F9002108FA00080065086902F3
:1001F000D70066086A3BD80067086B3BD9006808DF
:100200006C3BDA005708F7005808F8005908F90065
:100210005A08FA0008006508111E0C2923009A00EC
:1002200020000800911E9B29911E14292300190803
:100230002000AD002D08513C03195B172D08523CDE
:100240000319DB172D08533C03195C142D08543C8B
:100250000319DC142D08583C03195C152D08603C6B
:100260000319DC152D08593C03195C162D08613C57
:100270000319DC162D08623C03195C172D08633C3A
:100280000319DC172D08643C03195D142D08653C27
:100290000319DD142D08913C031D57295D151430F9
:1002A000E50003209430E5000B21AD015E172D0819
:1002B000923C031D6429DD151430E50003209530C0
:1002C000E5000B21AD01DE172D08933C031D7129BC
:1002D0005D161430E50003209630E5000B21AD01DA
:1002E0005F142D08813C031D7F295D111430E5004A
:1002F00003208430E5000B21AD01FF30A9002D085B
:10030000823C031D8D29DD111430E500032085306A
:10031000E5000B21AD01FF30AA002D08833C031D31
:100320009B295D121430E50003208630E5000B2187
:10033000AD01FF30AB0008006408E8006308E70087
:100340006208E6006108E500EC01EB010330EA0019
:10035000E830E90090207A08E4007908E3007808A2
:10036000E2007708E100CF207A08CE007908CD00BE
:100370007808CC007708CB00CF200A307707CF0071
:100380000030783DD0000030793DD10000307A3D1A
:10039000D2004E08E8004D08E7004C08E6004B0884
:1003A000E5005208EC005108EB005008EA004F0845
:1003B000E900F6207A08D6007908D5007808D4003C
:1003C0007708D30056086402031C1C2A031DF82971
:1003D00055086302031C1C2A031DF82954086202F5
:1003E000031C1C2A031DF8296108530203181C2A48
:1003F000CF207A08D2007908D1007808D000770899
:10040000CF004E08E8004D08E7004C08E6004B0816
:10041000E5005208EC005108EB005008EA004F08D4
:10042000E900F6207A08D6007908D5007808D400CB
:100430007708D3001221E22908006208F80161025E
:100440000318252A6108F700312AF7010830E30074
:10045000E10DF70D620877020318F700F80DE30BC2
:10046000282A080021000E1420000E18412A5B1CC7
:10047000412A5B10A20AE401E301E2016430E100D9
:100480009C2121000E1420000E185B1421008D15F4
:1004900020008D19552ADB1C552ADB10A301E4012D
:1004A000E301E2016430E1009C2121008D15200070
:1004B0008D19DB1421008C1620008C1A6A2A5B1D12
:1004C0006A2A5B110130A300E401E301E201643018
:1004D000E1009C2121008C1620008C1A5B15210064
:1004E0008C1520008C197F2ADB1D7F2ADB1102303E
:1004F000A300E401E301E2016430E1009C2121005A
:100500008C1520008C19DB1521008E1620008E1A08
:10051000932A5B1E932A5B12A40AE401E301E20121
:100520006430E1009C2121008E1620008E1A5B169B
:1005300021008D1620008D1AA72ADB1EA72ADB12A8
:10054000A50AE401E301E2016430E1009C212100FD
:100550008D1620008D1ADB1622080339031DBD2AD3
:1005600021000F1022000F1021008F1022008F1089
:1005700021000F1122000F11200022080339013C35
:10058000031DCF2A21000F1022000F1421008F100D
:1005900022008F1021000F1122000F1120002208CD
:1005A0000339023C031DE12A21000F1022000F1421
:1005B00021008F1022008F1421000F1122000F1133
:1005C000200022080339033C031DF32A21000F10E9
:1005D00022000F1421008F1022008F1421000F1110
:1005E00022000F1520002308E1000330E2001D2245
:1005F000F708031D082B21000D1122000D15210005
:100600000C1222000C1221000C1122000C112000EF
:100610002308E1000330E2001D22770B1C2B210090
:100620000D1122000D1121000C1222000C162100C8
:100630000C1122000C1120002308E1000330E2001D
:100640001D227708023C031D322B21000D112200D0
:100650000D1121000C1222000C1221000C1122009D
:100660000C15200024080139031D3B2B21008F139A
:1006700022008F13200024080139013C031D452B63
:1006800021008F1322008F1720002508E10003307E
:10069000E2001D22F708031D5A2B21001010220032
:1006A000101421009010220090102100101122003F
:1006B000101120002508E1000330E2001D22770B15
:1006C0006E2B21001010220010102100901022002B
:1006D0009014210010112200101120002508E100C3
:1006E0000330E2001D227708023C031D832B21000A
:1006F00010102200101021009010220090142100F0
:10070000101122001015200008006408E80063089A
:10071000E7006208E6006108E500EC01EB01033048
:10072000EA00E830E90090207A08E4007908E30064
:100730007808E2007708E100CF207A08CE00790837
:10074000CD007808CC007708CB00CF200A3077079F
:10075000CF000030783DD0000030793DD10000302E
:100760007A3DD2004E08E8004D08E7004C08E6004C
:100770004B08E5005208EC005108EB005008EA0075
:100780004F08E900F6207A08D6007908D5007808E5
:10079000D4007708D30056086402031C612C031DA3
:1007A000E12B55086302031C612C031DE12B540847
:1007B0006202031C612C031DE12B61085302031824
:1007C000612CCF207A08D2007908D1007808D000B7
:1007D0007708CF004E08E8004D08E7004C08E60017
:1007E0004B08E5005208EC005108EB005008EA0005
:1007F0004F08E900F6207A08D6007908D500780875
:10080000D4007708D300911E602C911E052C230084
:1008100019082000AD002D0B0E2C5E102D08053C94
:10082000031D152C5D15DD16DE102D08063C031D7D
:100830001C2C5D11DD12DE102D08083C031D232C3D
:10084000DD155D175E112D08093C031D2A2CDD11F5
:100850005D135E112D08113C031D312C5D16DD1753
:10086000DE112D08123C031D382C5D12DD13DE1144
:100870002D08033C03195E122D08153C0319DE12E6
:100880002D08173C0319DF142D08193C03195F15B7
:100890002D08203C0319DF152D08223C03195F1693
:1008A0002D08233C0319DF162D08243C03195F177C
:1008B0002D08253C0319DF172D08263C0319601469
:1008C000CB2B08005E145E1C6D2C3222E401E30188
:1008D000E2016430E1008523632CDE14DE1C7B2CF6
:1008E00032220230E5000B21E401E301E201643031
:1008F000E10085236E2C5E155E1D892C32220730A7
:10090000E5000B21E401E301E2016430E10085230D
:100910007C2CDE15DE1D972C32221030E5000B21D9
:10092000E401E301E2016430E10085238A2C5E16D4
:100930005E1EA52C32221330E5000B21E401E301F9
:10094000E2016430E1008523982C0430E5000B219E
:100950008831C32CDD1E272D0130B3070318B40ADC
:100960000319B50A0319B60A3308C43C031DCF2C7A
:100970003408093C031DCF2CB508031DCF2CB60845
:10098000031DCF2C21000D1122000D1521000C128A
:1009900022000C1221000C1122000C11200033083F
:1009A000883C031DEE2C3408133C031DEE2CB508C7
:1009B000031DEE2CB608031DEE2CB601B501B401E3
:1009C000B30121000D1122000D1121000C12220093
:1009D0000C1221000C1122000C112000BA01B901E7
:1009E000B801B70121008D1520008D19262D013089
:1009F000B7070318B80A0319B90A0319BA0A37085E
:100A0000503C031D252D3808C33C031D252DB90876
:100A1000031D252DBA08031D252DBA01B901B80102
:100A2000B701DD1221000D1122000D1121000C1261
:100A300022000C1221000C1122000C112000E401F4
:100A4000E301E2013230E1008523F22CAA2C5D1F84
:100A50008C2D0130BB070318BC0A0319BD0A03190A
:100A6000BE0A3B08C43C031D442D3C08093C031D41
:100A7000442DBD08031D442DBE08031D442D210037
:100A80008F1322008F1720003B08883C031D5B2D2D
:100A90003C08133C031D5B2DBD08031D5B2DBE08E8
:100AA000031D5B2DBE01BD01BC01BB0121008F13E5
:100AB00022008F132000C201C101C001BF0121002B
:100AC0008E1620008E1A8B2D0130BF070318C00A26
:100AD0000319C10A0319C20A3F08503C031D8A2D9D
:100AE0004008C33C031D8A2DC108031D8A2DC2087E
:100AF000031D8A2DC201C101C001BF015D13210088
:100B00008F1322008F132000E401E301E201323051
:100B1000E10085235F2D272DDD1F092E0130C3073E
:100B20000318C40A0319C50A0319C60A4308C43CBA
:100B3000031DB12D4408093C031DB12DC508031D3B
:100B4000B12DC608031DB12D210010102200101474
:100B50002100901022009014210010112200101585
:100B600020004308883C031DD02D4408133C031D7E
:100B7000D02DC508031DD02DC608031DD02DC601DC
:100B8000C501C401C3012100101022001010210072
:100B9000901022009010210010112200101120004E
:100BA000CA01C901C801C70121008D1620008D1A94
:100BB000082E0130C7070318C80A0319C90A031908
:100BC000CA0A4708503C031D072E4808C33C031DB2
:100BD000072EC908031D072ECA08031D072ECA01C8
:100BE000C901C801C701DD13210010102200101037
:100BF00021009010220090102100101122001011ED
:100C00002000E401E301E2013230E1008523D42D2C
:100C10008C2DDE16DE1E162E1430E5000B21E401AD
:100C2000E301E2013230E10085230A2E8831C62C2F
:100C3000E401E301E2016430E1008523DF10DF1805
:100C40002B2E1630E5000B21E401E301E2013230E6
:100C5000E10085231F2EDF11DF19382E3130E5002A
:100C60000B21E401E301E2013230E10085232C2E67
:100C70002308E1000330E2001D22F708031D422E85
:100C80003830AC002308E1000330E2001D22770B6E
:100C90004B2E3A30AC002308E1000330E2001D2265
:100CA0007708023C031D562E3930AC005F125F1AE4
:100CB000632E2C08E5000B21E401E301E201323050
:100CC000E1008523572E2608E1000330E2001D22B3
:100CD000F708031D6D2E3B30AC002608E100033001
:100CE000E2001D22770B762E3C30AC002608E10096
:100CF0000330E2001D227708023C031D812E3B30A9
:100D0000AC00DF12DF1A8E2E2C08E5000B21E40167
:100D1000E301E2013230E1008523822E240801390B
:100D2000031D942E3E30AC0024080139013C031D04
:100D30009B2E3F30AC005F135F1BA82E2C08E500F4
:100D40000B21E401E301E2013230E10085239C2E16
:100D50002508E1000330E2001D22F708031DB22E32
:100D60004030AC002508E1000330E2001D22770B83
:100D7000BB2E4130AC002508E1000330E2001D220B
:100D80007708023C031DC62E4230AC00DF13DF1B88
:100D9000D32E2C08E5000B21E401E301E2013230FF
:100DA000E1008523C72E2708E1000330E2001D2261
:100DB000F708031DDD2E4330AC002708E1000330A7
:100DC000E2001D22770BE62E4430AC002708E1003C
:100DD0000330E2001D227708023C031DF12E433050
:100DE000AC0060106018FE2E2C08E5000B21E40119
:100DF000E301E2013230E1008523F22E5F115F1939
:100E00000B2F1830E5000B21E401E301E201323041
:100E1000E1008523FF2E8831C92C21000E1420000B
:100E20000E181C2F5B1C1C2F5B10A20AE401E301AF
:100E3000E2016430E1009C2121000E1420000E1814
:100E40005B148831CF2C21008D1520008D19362F91
:100E5000DB1C362F5D19352FDB10A301E401E30104
:100E6000E2016430E1009C21362F5E1721008D15D0
:100E700020008D19DB1421008C1620008C1A4F2FB6
:100E80005B1D4F2F5D194E2F5B110130A300E40154
:100E9000E301E2016430E1009C214F2F5E17210045
:100EA0008C1620008C1A5B1521008C1520008C19E3
:100EB000682FDB1D682F5D19672FDB110230A3003F
:100EC000E401E301E2016430E1009C21682F5E1738
:100ED00021008C1520008C19DB158831D22C2100C3
:100EE0008E1620008E1A822F5B1E822FDD19812F15
:100EF0005B12A40AE401E301E2016430E1009C21F9
:100F0000822FDE1721008E1620008E1A5B16883184
:100F1000D52C21008D1620008D1A9C2FDB1E9C2FB6
:100F20005D1A9B2FDB12A50AE401E301E2016430A4
:100F3000E1009C219C2F5F1421008D1620008D1A4A
:060F4000DB168831D82CFD
:101000005E1F4F2821000D1122000D1521000C122A
:1010100022000C1621000C1122000C152000E40106
:10102000E301E2012830E10080319C218831210078
:101030000D1122000D1121000C1222000C122100B2
:101040000C1122000C112000E401E301E201143034
:10105000E10080319C21883121000D1122000D1505
:1010600021000C1222000C1621000C1122000C157C
:101070002000E401E301E2012830E10080319C21FD
:10108000883121000D1122000D1121000C122200C7
:101090000C1221000C1122000C1120005E13DE1F27
:1010A0007E2821008F1322008F172000E401E30126
:1010B000E2012830E10080319C21883121008F132A
:1010C00022008F132000E401E301E2011430E1006B
:1010D00080319C21883121008F1322008F1720003E
:1010E000E401E301E2012830E10080319C218831F4
:1010F00021008F1322008F132000DE135F1CCD28E8
:1011000021001010220010142100901022009014D1
:1011100021001011220010152000E401E301E2017A
:101120002830E10080319C218831210010102200FC
:1011300010102100901022009010210010112200A8
:1011400010112000E401E301E2011430E1008031DC
:101150009C218831210010102200101421009010D1
:101160002200901421001011220010152000E4012B
:10117000E301E2012830E10080319C218831210027
:101180001010220010102100901022009010210059
:1011900010112200101120005F10280822020319EC
:1011A000652922080339031DF628A2012208A80098
:1011B0005B135B1BE9283130E50080310B2188315E
:1011C000E401E301E2013230E10080319C21883109
:1011D000D92821000F1022000F1021008F102200AB
:1011E0008F1021000F1122000F1120002208033957
:1011F000013C031D1B292208A800DB13DB1B0E2961
:101200003230E50080310B218831E401E301E20155
:101210003230E10080319C218831FE2821000F10FE
:1012200022000F1421008F1022008F1021000F11B7
:1012300022000F11200022080339023C031D40291F
:101240002208A8005C105C1833293330E500803197
:101250000B218831E401E301E2013230E100803109
:101260009C218831232921000F1022000F14210016
:101270008F1022008F1421000F1122000F11200067
:1012800022080339033C031D65292208A800DC104D
:10129000DC1858293430E50080310B218831E40115
:1012A000E301E2013230E10080319C21883148299C
:1012B00021000F1022000F1421008F1022008F1424
:1012C00021000F1122000F1520005D19882A29081E
:1012D00023020319882A5D197B2A2308E1000330C1
:1012E000E20080311D228831F708031DC629A301C1
:1012F000A6012308A9005C115C198C293830E5008F
:1013000080310B218831E401E301E2013230E10058
:1013100080319C2188317C290B08F7008B132E0823
:101320002300910020002308230093009513151536
:1013300055309600AA309600951495189D291511E0
:1013400077088B040B08F7008B1320002F0823006D
:1013500091002000260823009300951315155530A1
:101360009600AA30960095149518B429151177089F
:101370008B0421000D1122000D1521000C122200FA
:101380000C1221000C1122000C1120002308E10096
:101390000330E20080311D228831770B1F2A013093
:1013A000A300A6002308A900DC11DC19E5293A30C6
:1013B000E50080310B218831E401E301E2013230A4
:1013C000E10080319C218831D5290B08F7008B136F
:1013D0002E0823009100200023082300930095137A
:1013E000151555309600AA30960095149518F629D3
:1013F000151177088B040B08F7008B1320002F08BA
:101400002300910020002608230093009513151552
:1014100055309600AA309600951495180D2A15118E
:1014200077088B0421000D1122000D1121000C12F0
:1014300022000C1621000C1122000C1120002308A0
:10144000E1000330E20080311D2288317708023C40
:10145000031D7A2A0230A300A6002308A9005C120B
:101460005C1A402A3930E50080310B218831E401D3
:10147000E301E2013230E10080319C218831302AE1
:101480000B08F7008B132E0823009100200023087F
:10149000230093009513151555309600AA30960039
:1014A00095149518512A151177088B040B08F7002D
:1014B0008B1320002F082300910020002608230012
:1014C00093009513151555309600AA309600951483
:1014D0009518682A151177088B0421000D11220038
:1014E0000D1121000C1222000C1221000C112200FF
:1014F0000C152000882A21000D1122000D11210059
:101500000C1222000C1221000C1122000C112000E0
:10151000DD19FC2A2A0824020319FC2ADD19F72AFE
:1015200024080139031DC32AA4012408AA00DC12DF
:10153000DC1AA82A3E30E50080310B218831E40115
:10154000E301E2013230E10080319C218831982AA8
:101550000B08F7008B1330082300910020002408AB
:10156000230093009513151555309600AA30960068
:1015700095149518B92A151177088B0421008F133B
:1015800022008F13200024080139013C031DF62A94
:101590002408AA005C135C1BDB2A3F30E500803185
:1015A0000B218831E401E301E2013230E1008031B6
:1015B0009C218831CB2A0B08F7008B1330082300BD
:1015C0009100200024082300930095131515553031
:1015D0009600AA30960095149518EC2A15117708F4
:1015E0008B0421008F1322008F172000FC2A21007A
:1015F0008F1322008F1320005D1A212C2B08250247
:101600000319212C5D1A142C2508E1000330E20097
:1016100080311D228831F708031D5D2BA501A7012C
:101620002508AB00DC13DC1B232B4030E5008031A8
:101630000B218831E401E301E2013230E100803125
:101640009C218831132B0B08F7008B1331082300E2
:10165000910020002508230093009513151555309F
:101660009600AA30960095149518342B151177081A
:101670008B040B08F7008B13200032082300910025
:101680002000270823009300951315155530960068
:10169000AA309600951495184B2B151177088B04DA
:1016A0002100101022001014210090102200901030
:1016B000210010112200101120002508E100033044
:1016C000E20080311D228831770BB72B0130A50055
:1016D0000230A7002508AB005D105D187D2B41305E
:1016E000E50080310B218831E401E301E201323071
:1016F000E10080319C2188316D2B0B08F7008B13A2
:101700003108230091002000250823009300951341
:10171000151555309600AA309600951495188E2B05
:10172000151177088B040B08F7008B132000320883
:10173000230091002000270823009300951315151E
:1017400055309600AA30960095149518A52B1511C2
:1017500077088B0421001010220010102100901037
:1017600022009014210010112200101120002508E1
:10177000E1000330E20080311D2288317708023C0D
:10178000031D132C0230A5000130A7002508AB0073
:10179000DD10DD18D92B4230E50080310B21883176
:1017A000E401E301E2013230E10080319C21883123
:1017B000C92B0B08F7008B13310823009100200080
:1017C0002508230093009513151555309600AA306F
:1017D000960095149518EA2B151177088B040B08C1
:1017E000F7008B1320003208230091002000270807
:1017F000230093009513151555309600AA309600D6
:1018000095149518012C151177088B0421001010E0
:1018100022001010210090102200901421001011BD
:10182000220010152000212C210010102200101081
:1018300021009010220090102100101122001011A0
:1018400020008831DA2C6A30210099002000A101A3
:10185000A00122009D1205302000980099019601F8
:1018600097019601111023009F1119309B00A6309B
:101870009E0090309D002000A201A301A401A501BB
:10188000A601A701FF30A800A900AA00AB00AC0187
:10189000AD010130AE000230AF000330B0000430C3
:1018A000B1000530B200B601B501B401B301BA010F
:1018B000B901B801B701BE01BD01BC01BB01C20144
:1018C000C101C001BF01C601C501C401C301CA01F4
:1018D000C901C801C701CE01CD01CC01CB01D201A4
:1018E000D101D001CF01D601D501D401D301DA0154
:1018F000D901D801D7015B10DB105B11DB115B1242
:10190000DB125B13DB135C10DC105C11DC115C126E
:10191000DC125C13DC135D10DD105D11DD115D1256
:10192000DD125D13DD135E10DE105E11DE115E123E
:10193000DE125E13DE135F10DF105F11DF115F1226
:10194000DF125F13DF1360102F00910192019801E5
:1019500099019A0123008C018D018F0190012200D1
:10196000920191019401930180312000192888315E
:101970008031572888318031662888318031322281
:1019800088318031622C88318031AA2C88318031B5
:10199000182E883180311221883180310D2F883105
:1019A0008031232F883180316F2F88318031892F0A
:0819B00088310028CA2C6300F5
:020000040001F9
:04000E00A439FF1EF4
:00000001FF
;PIC16F1939
;CRC=8F7E  CREATED="31-Jan-19 14:18"
