:1000000088315F2C000020308500473084000008D4
:10001000031918280130F800F701F70B0D28F80B29
:100020000C284A30F700F70B13281628800B0A28F3
:10003000080021008C0122008C0121008D0122008A
:100040008D0121008E0122008E0121008F012200EE
:100050008F012100101090101011901122009001BA
:1000600004302000E300FA30E7000320E30B3328DC
:1000700028306500E8306600C1306700003021009C
:100080008F00101090101011901502302000E70022
:100090000320E601E501E401E3016608A10065082B
:1000A000A00064089700630896008831F72CB0011F
:1000B000B101A201A301A401A501A601FF30AC007A
:1000C000AD00AE00AF008831FA2C5F1B70283208FB
:1000D000230091009513151413082000A400712823
:1000E000A401DF1B7C28330823009100951315140D
:1000F00013082000A5007D28A50160188828340871
:10010000230091009513151413082000A6008928D8
:10011000A6018831FD2C20302100A400A001A101FE
:10012000A201A30120006A08FA006908F900680822
:10013000F8006708F7000310771CBA286B08210045
:10014000A00720006C0803186C0FA728AA2821001C
:10015000A10720006D0803186D0FAF28B2282100F9
:10016000A20720006E0803186E0FB728BA282100D6
:10017000A30720002100A30CA20CA10CA00CFA0CD8
:10018000F90CF80CF70CA40BC628C82820009B28F3
:1001900020000800111CD128A00A0319A10A11107F
:1001A000E0281708FA001608F70017087A02031D5E
:1001B000D1287708111CE928A00A0319A10A1110F7
:1001C0001708FA001608F70017087A02031DE0283E
:1001D0007708F7007A08F8002008F9002108FA00EB
:1001E000080067086B02D90068086C3BDA006908F0
:1001F0006D3BDB006A086E3BDC005908F7005A08CB
:10020000F8005B08F9005C08FA0008006708111E96
:10021000072923009A0020000800911EA229911EA0
:100220000F29230019082000B1003108513C03199F
:10023000DD173108523C03195E143108533C031991
:10024000DE143108543C03195E153108553C03197E
:10025000DE153108563C03195E163108573C031968
:10026000DE163108583C03195E173108593C031952
:10027000DE173108603C03195F143108613C031933
:10028000DF143108623C03195F153108633C031920
:10029000DF153108643C03195F163108653C03190A
:1002A000DF163108913C031D5E295F171430E7000B
:1002B00003209430E7000621B10161153108923C1A
:1002C000031D6B29DF171430E70003209530E7008A
:1002D0000621B101E1153108933C031D7829601412
:1002E0001430E70003209630E7000621B1016116C3
:1002F0003108813C031D86295F131430E700032079
:100300008430E7000621B101FF30AD003108823CA6
:10031000031D9429DF131430E70003208530E70024
:100320000621B101FF30AE003108833C031DA22934
:1003300060101430E70003208630E7000621B10189
:10034000FF30AF0008006608EA006508E9006408AD
:10035000E8006308E700EE01ED010330EC00E8304F
:10036000EB008B207A08E6007908E5007808E400C5
:100370007708E300CA207A08D0007908CF0078080F
:10038000CE007708CD00CA200A307707D1000030B0
:10039000783DD2000030793DD30000307A3DD40062
:1003A0005008EA004F08E9004E08E8004D08E70051
:1003B0005408EE005308ED005208EC005108EB0021
:1003C000F1207A08D8007908D7007808D600770895
:1003D000D50058086602031C232A031DFF2957086D
:1003E0006502031C232A031DFF2956086402031C0F
:1003F000232A031DFF29630855020318232ACA2054
:100400007A08D4007908D3007808D2007708D100A0
:100410005008EA004F08E9004E08E8004D08E700E0
:100420005408EE005308ED005208EC005108EB00B0
:10043000F1207A08D8007908D7007808D600770824
:10044000D5000D21E929080021000E1620000E1A02
:10045000562A5D1C562A5D10E601E501E401643070
:10046000E300A321A20A22080139031D412AA201A7
:1004700062122708A3002808A4002908A5002A085A
:10048000A60022080139013C031D562A0130A200B2
:1004900062162308A7002408A8002508A90026083A
:1004A000AA000330A300A401A501A60121000E1695
:1004B00020000E1A5D14080021000E1420000E18F2
:1004C000802ADD1C802AE601E501E4016430E300B6
:1004D000A321DD10621E6F2A62122708A300A30A5F
:1004E00022080139013C031D802A23080339031D1A
:1004F000802AA2012808A4002908A5002A08A6002D
:1005000021000E1420000E18DD14080021008D15A6
:1005100020008D19A72A5D1DA72A5F1BA62AE601C8
:10052000E501E4016430E300A3215D1122080139F3
:10053000013C031DA42AA2012708A3002808A40047
:100540002908A5002A08A600A401A72A61152100F0
:100550008D1520008D195D1521008C1620008C1A38
:10056000CE2ADD1DCE2A5F1BCD2AE601E501E4017E
:100570006430E300A321DD1122080139013C031D91
:10058000CA2AA2012708A3002808A4002908A50058
:100590002A08A6000130A400CE2A611521008C167D
:1005A00020008C1ADD1521008C1520008C19F52AED
:1005B0005D1EF52A5F1BF42AE601E501E4016430C3
:1005C000E300A3215D1222080139013C031DF12A39
:1005D000A2012708A3002808A4002908A5002A08CA
:1005E000A6000230A400F52A611521008C15200018
:1005F0008C195D16080021008E1620008E1A1C2B07
:10060000DD1E1C2BDF1B1B2BE601E501E401643022
:10061000E300A321DD1222080139013C031D192B3F
:10062000A2012708A3002808A4002908A5002A0879
:10063000A600A50A1C2BE11521008E1620008E1A9B
:10064000DD16080021008D1620008D1A432B5D1F3A
:10065000432B6018422BE601E501E4016430E3001E
:10066000A3215D1322080139013C031D402BA20187
:100670002708A3002808A4002908A5002A08A60026
:10068000A60A432B611621008D1620008D1A5D17D6
:1006900008006408F80163020318512B6308F7008F
:1006A0005D2BF7010830E500E30DF70D64087702D4
:1006B0000318F700F80DE50B542B080024225C22E8
:1006C0008622FB222223621AAC2B23080339031D46
:1006D000762B21000F1022000F1021008F10220016
:1006E0008F1021000F1122000F1120002308033961
:1006F000013C031D882B21000F1022000F14210044
:100700008F1022008F1021000F1122000F112000E6
:1007100023080339023C031D9A2B21000F102200ED
:100720000F1421008F1022008F1421000F112200BE
:100730000F11200023080339033C031DAC2B2100BB
:100740000F1022000F1421008F1022008F1421009F
:100750000F1122000F15200022080139031D4E2C15
:1007600021008F1122008F1120002408E3000330A4
:10077000E4004923F708031DCA2B21000D112200B4
:100780000D1521000C1222000C1221000C11220068
:100790000C1120002408E3000330E4004923770B08
:1007A000DE2B21000D1122000D1121000C12220060
:1007B0000C1621000C1122000C1120002408E3006B
:1007C0000330E40049237708023C031DF42B210089
:1007D0000D1122000D1121000C1222000C1221001B
:1007E0000C1122000C15200025080139031DFD2BDA
:1007F00021008F1322008F13200025080139013CAE
:10080000031D072C21008F1322008F1720002608BC
:100810000339031D182C2100101022001014210090
:1008200090102200901021001011220010112000C1
:1008300026080339013C031D2A2C21001010220038
:10084000101021009010220090142100101122009D
:100850001011200026080339023C031D3C2C210006
:100860001010220010102100901022009010210082
:10087000101122001015200026080339033C031D27
:100880004E2C210010102200101021009010220088
:1008900090142100101122001015200022080139A7
:1008A000013C031D572C21008F1122008F152000C1
:1008B00008006608EA006508E9006408E8006308C3
:1008C000E700EE01ED010330EC00E830EB008B2097
:1008D0007A08E6007908E5007808E4007708E30084
:1008E000CA207A08D0007908CF007808CE007708AF
:1008F000CD00CA200A307707D1000030783DD20001
:100900000030793DD30000307A3DD4005008EA0031
:100910004F08E9004E08E8004D08E7005408EE00D3
:100920005308ED005208EC005108EB00F1207A0862
:10093000D8007908D7007808D6007708D50058087D
:100940006602031C312D031DB52C57086502031CDC
:10095000312D031DB52C56086402031C312D031DD7
:10096000B52C630855020318312DCA207A08D4002B
:100970007908D3007808D2007708D1005008EA003F
:100980004F08E9004E08E8004D08E7005408EE0063
:100990005308ED005208EC005108EB00F1207A08F2
:1009A000D8007908D7007808D6007708D500911EBE
:1009B000302D911ED92C230019082000B100310BD5
:1009C000E22C60123108053C031DE92C5F17E0148E
:1009D000E0123108063C031DF02C5F13E010E0121A
:1009E0003108083C031DF72CDF1760156013310830
:1009F000093C031DFE2CDF13601160133108113C0C
:100A0000031D052D6014E015E0133108123C031D91
:100A10000C2D6010E011E0133108033C0319611044
:100A20003108153C0319E1103108173C0319E11690
:100A30003108193C031961173108203C0319E117EB
:100A40003108213C031962143108223C0319E214D5
:100A50003108243C031962153108253C0319E215BD
:100A60009F2C08006016601E3D2D5E23E601E50107
:100A7000E4016430E3005924332DE016E01E4B2DD1
:100A80005E230230E7000621E601E501E40164305F
:100A9000E30059243E2D6017601F592D5E23073057
:100AA000E7000621E601E501E4016430E300592492
:100AB0004C2DE017E01F672D5E231030E700062164
:100AC000E601E501E4016430E30059245A2D611484
:100AD000611C752D5E231330E7000621E601E50158
:100AE000E4016430E3005924682D0430E700062156
:100AF0008831032DE01CF72D0130B5070318B60A25
:100B00000319B70A0319B80A3508C43C031D9F2D01
:100B10003608093C031D9F2DB708031D9F2DB808FB
:100B2000031D9F2D21000D1122000D1521000C1217
:100B300022000C1221000C1122000C11200035089B
:100B4000883C031DBE2D3608133C031DBE2DB7087F
:100B5000031DBE2DB808031DBE2DB801B701B60197
:100B6000B50121000D1122000D1121000C122200EF
:100B70000C1221000C1122000C112000BC01BB0141
:100B8000BA01B90121008D1520008D19F62D013013
:100B9000B9070318BA0A0319BB0A0319BC0A3908B2
:100BA000503C031DF52D3A08C33C031DF52DBB0831
:100BB000031DF52DBC08031DF52DBC01BB01BA01B9
:100BC000B901E01021000D1122000D1121000C12BD
:100BD00022000C1221000C1122000C112000E60151
:100BE000E501E4013230E3005924C22D7A2D601D65
:100BF0005C2E0130BD070318BE0A0319BF0A031992
:100C0000C00A3D08C43C031D142E3E08093C031DC8
:100C1000142EBF08031D142EC008031D142E21001E
:100C20008F1322008F1720003D08883C031D2B2EB8
:100C30003E08133C031D2B2EBF08031D2B2EC0089E
:100C4000031D2B2EC001BF01BE01BD0121008F136A
:100C500022008F132000C401C301C201C101210081
:100C60008E1620008E1A5B2E0130C1070318C20AAF
:100C70000319C30A0319C40A4108503C031D5A2E24
:100C80004208C33C031D5A2EC308031D5A2EC40834
:100C9000031D5A2EC401C301C201C101601121000C
:100CA0008F1322008F132000E601E501E4013230AA
:100CB000E30059242F2EF72DE01DD92E0130C50752
:100CC0000318C60A0319C70A0319C80A4508C43C11
:100CD000031D812E4608093C031D812EC708031DF4
:100CE000812EC808031D812E21001010220010142F
:100CF00021009010220090142100101122001015E4
:100D000020004508883C031DA02E4608133C031D07
:100D1000A02EC708031DA02EC808031DA02EC801C1
:100D2000C701C601C50121001010220010102100CA
:100D300090102200901021001011220010112000AC
:100D4000CC01CB01CA01C90121008D1620008D1AEA
:100D5000D82E0130C9070318CA0A0319CB0A031990
:100D6000CC0A4908503C031DD72E4A08C33C031D3A
:100D7000D72ECB08031DD72ECC08031DD72ECC01B0
:100D8000CB01CA01C901E01121001010220010108E
:100D9000210090102200901021001011220010114B
:100DA0002000E601E501E4013230E3005924A42EDD
:100DB0005C2EE114E11CE62E1430E7000621E6016A
:100DC000E501E4013230E3005924DA2E8831062DA2
:100DD000E601E501E4016430E3005924E112E11A7F
:100DE000FB2E1630E7000621E601E501E401323072
:100DF000E3005924EF2EE113E11B082F3130E70007
:100E00000621E601E501E4013230E3005924FC2E1D
:100E100062106218152F3330E7000621E601E50164
:100E2000E4013230E3005924092F2408E3000330A1
:100E3000E4004923F708031D1F2F3730B0002408B2
:100E4000E3000330E4004923770B282F3830B0004B
:100E50002408E3000330E40049237708023C031D23
:100E6000332F3930B000E210E218402F3008E7008D
:100E70000621E601E501E4013230E3005924342F74
:100E800025080139031D462F3D30B00025080139E2
:100E9000013C031D4D2F3E30B000621162195A2FE4
:100EA0003008E7000621E601E501E4013230E30005
:100EB00059244E2F26080339031D602F3F30B00000
:100EC00026080339013C031D672F4030B000260877
:100ED0000339023C031D6E2F4130B0002608033950
:100EE000033C031D752F4230B000E211E219822F3E
:100EF0003008E7000621E601E501E4013230E300B5
:100F00005924762F6113611B8F2F1830E7000621BB
:100F1000E601E501E4013230E3005924832F8831F2
:020F2000092D99
:10100000611D4F2821000D1122000D1521000C1229
:1010100022000C1621000C1122000C152000E60104
:10102000E501E4012830E3008031A321883121006B
:101030000D1122000D1121000C1222000C122100B2
:101040000C1122000C112000E601E501E40114302E
:10105000E3008031A321883121000D1122000D15FC
:1010600021000C1222000C1621000C1122000C157C
:101070002000E601E501E4012830E3008031A321EE
:10108000883121000D1122000D1121000C122200C7
:101090000C1221000C1122000C1120006111E11D25
:1010A0007E2821008F1322008F172000E601E50122
:1010B000E4012830E3008031A321883121008F131F
:1010C00022008F132000E601E501E4011430E30063
:1010D0008031A321883121008F1322008F17200037
:1010E000E601E501E4012830E3008031A3218831E5
:1010F00021008F1322008F132000E111611ECD28E3
:1011000021001010220010142100901022009014D1
:1011100021001011220010152000E601E501E40174
:101120002830E3008031A3218831210010102200F3
:1011300010102100901022009010210010112200A8
:1011400010112000E601E501E4011430E3008031D4
:10115000A3218831210010102200101421009010CA
:101160002200901421001011220010152000E60129
:10117000E501E4012830E3008031A321883121001A
:101180001010220010102100901022009010210059
:10119000101122001011200061122B0822020319E5
:1011A000012922080139031DE928A2012208AB0008
:1011B000DD13DD1BE9283130E7008031062188315D
:1011C000E601E501E4013230E3008031A3218831FA
:1011D000D92822080139013C031D01292208AB004E
:1011E0005E105E1801293230E70080310621883117
:1011F000E601E501E4013230E3008031A3218831CA
:10120000F1282C0823020319652923080339031D3B
:101210001D29A3012308AC00DE10DE181D29333080
:10122000E700803106218831E601E501E401323032
:10123000E3008031A32188310D2923080339013CC3
:10124000031D35292308AC005E115E1935293430A1
:10125000E700803106218831E601E501E401323002
:10126000E3008031A3218831252923080339023C7A
:10127000031D4D292308AC00DE11DE194D29353040
:10128000E700803106218831E601E501E4013230D2
:10129000E3008031A32188313D2923080339033C31
:1012A000031D65292308AC005E125E1A65293630DD
:1012B000E700803106218831E601E501E4013230A2
:1012C000E3008031A321883155295F1B1C2A2D089A
:1012D000240203191C2A5F1B0F2A2408E300033091
:1012E000E400803149238831F708031DA229A401B5
:1012F0002408AD00DE12DE1A8B293730E70080317A
:1013000006218831E601E501E4013230E300803155
:10131000A32188317B290B08F7008B1332082300A7
:1013200091002000240823009300951315155530D3
:101330009600AA309600951495189C2915117708E7
:101340008B0420002408E3000330E40080314923AB
:101350008831770BD7290130A4002408AD005E1333
:101360005E1BC0293830E700803106218831E60154
:10137000E501E4013230E3008031A3218831B02956
:101380000B08F7008B13320823009100200024087B
:10139000230093009513151555309600AA3096003A
:1013A00095149518D129151177088B04200024086D
:1013B000E3000330E4008031492388317708023CA0
:1013C000031D0E2A0230A4002408AD00DE13DE1B2C
:1013D000F7293930E700803106218831E601E5013F
:1013E000E4013230E3008031A3218831E7290B0882
:1013F000F7008B13320823009100200024082300FB
:1014000093009513151555309600AA309600951443
:101410009518082A151177088B0420001C2A210032
:101420000D1122000D1121000C1222000C122100BE
:101430000C1122000C112000DF1B882A2E08250227
:101440000319882ADF1B832A25080139031D532A23
:10145000A5012508AE005F105F183C2A3D30E7006B
:10146000803106218831E601E501E4013230E300F4
:101470008031A32188312C2A0B08F7008B13330805
:1014800023009100200025082300930095131515D3
:1014900055309600AA309600951495184D2A1511CE
:1014A00077088B04200025080139013C031D822A9E
:1014B0002508AE00DF10DF186B2A3E30E7008031D0
:1014C00006218831E601E501E4013230E300803194
:1014D000A32188315B2A0B08F7008B133308230004
:1014E0009100200025082300930095131515553011
:1014F0009600AA309600951495187C2A1511770845
:101500008B042000882A21008F1322008F132000D3
:101510006018602B2F0826020319602B6018532BCC
:1015200026080339031DBF2AA6012608AF005F1154
:101530005F19A82A3F30E700803106218831E60193
:10154000E501E4013230E3008031A3218831982A9B
:101550000B08F7008B1334082300910020002608A5
:10156000230093009513151555309600AA30960068
:1015700095149518B92A151177088B0420002608B0
:101580000339013C031DF02A0130A6002608AF00F4
:10159000DF11DF19D92A4030E70080310621883178
:1015A000E601E501E4013230E3008031A321883116
:1015B000C92A0B08F7008B13340823009100200080
:1015C0002608230093009513151555309600AA3070
:1015D000960095149518EA2A151177088B042000B7
:1015E00026080339023C031D212B0230A6002608E1
:1015F000AF005F125F1A0A2B4130E70080310621ED
:101600008831E601E501E4013230E3008031A321B5
:101610008831FA2A0B08F7008B1334082300910055
:1016200020002608230093009513151555309600C9
:10163000AA309600951495181B2B151177088B046A
:10164000200026080339033C031D522B0330A6005B
:101650002608AF00DF12DF1A3B2B4230E700803153
:1016600006218831E601E501E4013230E3008031F2
:10167000A32188312B2B0B08F7008B133408230090
:10168000910020002608230093009513151555306E
:101690009600AA309600951495184C2B15117708D2
:1016A0008B042000602B210010102200101021005C
:1016B0009010220090102100101122001011200023
:1016C00088311D2D621AAB2B23080339031D752B9E
:1016D00021000F1022000F1021008F1022008F1008
:1016E00021000F1122000F11200023080339013CB3
:1016F000031D872B21000F1022000F1421008F10D3
:1017000022008F1021000F1122000F11200023084A
:101710000339023C031D992B21000F1022000F14E6
:1017200021008F1022008F1421000F1122000F11B1
:10173000200023080339033C031DAB2B21000F10AD
:1017400022000F1421008F1022008F1421000F118E
:1017500022000F15200022080139031D532C2100FF
:101760008F1122008F1120002408E3000330E400D1
:10177000803149238831F708031DCB2B21000D113F
:1017800022000D1521000C1222000C1221000C1158
:1017900022000C1120002408E3000330E400803113
:1017A00049238831770BE12B21000D1122000D1107
:1017B00021000C1222000C1621000C1122000C1129
:1017C00020002408E3000330E400803149238831FD
:1017D0007708023C031DF92B21000D1122000D1189
:1017E00021000C1222000C1221000C1122000C15F9
:1017F000200025080139031D022C21008F1322002F
:101800008F13200025080139013C031D0C2C2100F9
:101810008F1322008F17200026080339031D1D2C6B
:1018200021001010220010142100901022009010AE
:101830002100101122001011200026080339013C5C
:10184000031D2F2C210010102200101021009010D9
:1018500022009014210010112200101120002608EF
:101860000339023C031D412C2100101022001010EE
:10187000210090102200901021001011220010155C
:10188000200026080339033C031D532C21001010AF
:10189000220010102100901022009014210010113D
:1018A00022001015200022080139013C031D5D2C87
:1018B00021008F1122008F15200088311E2D6A30E3
:1018C000210099002000A101A00122009D120530F5
:1018D00020009800990196019701960111102300AC
:1018E0009F1119309B00A6309E0090309D00200073
:1018F000A201A301A401A501A601A701A801A901B4
:10190000AA01AB01FF30AC00AD00AE00AF00B001EA
:10191000B1010130B2000330B3000430B400B801AB
:10192000B701B601B501BC01BB01BA01B901C001E3
:10193000BF01BE01BD01C401C301C201C101C80193
:10194000C701C601C501CC01CB01CA01C901D00143
:10195000CF01CE01CD01D401D301D201D101D801F3
:10196000D701D601D501DC01DB01DA01D9015D1017
:10197000DD105D11DD115D12DD125D13DD135E10F2
:10198000DE105E11DE115E12DE125E13DE135F10DA
:10199000DF105F11DF115F12DF125F13DF136010C2
:1019A000E0106011E0116012E0126013E0136110AA
:1019B000E1106111E1116112E1126113E113621092
:1019C000E2106211E21162122F009101920198015E
:1019D00099019A0123008C018D018F019001220051
:1019E00092019101940193018031200019288831DE
:1019F00080315728883180316528883180315E23D5
:101A000088318031322D883180317A2D8831803192
:101A1000E82E883180310D218831803124228831AF
:101A200080315C2288318031862288318031FB22EE
:101A300088318031222388310028622B0A2D6300EF
:020000040001F9
:04000E002439FF1E74
:00000001FF
;PIC16F1939
;CRC=363C  CREATED="18-Mar-19 22:41"
