:1000000090318F2C000020308500A830840000083B
:10001000031918280130F800F701F70B0D28F80B29
:100020000C284A30F700F70B13281628800B0A28F3
:10003000080021008C0122008C0121008D0122008A
:100040008D0121008E0122008E0121008F012200EE
:100050008F012100101090101011901122009001BA
:100060000430A400FA30A800200003202200A40BD2
:10007000322820306500C0306600803067000030D4
:1000800021008F00101090101011901502302200E6
:10009000A8002000032021001E109E101E112030F9
:1000A00023008C00003090008D008F0021001E1670
:1000B0009E121E139E171D1402302200A80020005D
:1000C00003202200A701A601A501A4012708200002
:1000D000A100220026082000A00022002508200000
:1000E000970022002408200096009031892D2100DD
:1000F0008E1222008E1621000F1122000F112100F6
:100100008F1122008F1521000E1222000E122000E6
:100110000800220028082000111E8C2823009A00C5
:10012000200008002200280829068039AB00A81FFB
:100130009B28A809A80AA91F9F28A909A90A290874
:10014000F80128020318A7282808F700B328F701A8
:100150000830AA00A80DF70D290877020318F70048
:10016000F80DAA0BAA28AB1FB728F809F80A200037
:100170000800111CC028A00A0319A10A1110CF28D9
:100180001708FA001608F70017087A02031DC0289E
:100190007708111CD828A00A0319A10A1110170802
:1001A000FA001608F70017087A02031DCF2877080F
:1001B000F7007A08F8002008F9002108FA00080082
:1001C0006E19082927082200A8000430A900200081
:1001D0009220F7080319062924082200A8000430F9
:1001E000A90020009220F708031906297214F11FB4
:1001F0000529F113B9207A082100EB007908EA00FB
:100200007808E9007708E80020000729721009291A
:1002100072100800220028082C022000BA002200D8
:1002200029082D3B2000BB0022002A082E3B20007D
:10023000BC0022002B082F3B2000BD003A08F7002D
:100240003B08F8003C08F9003D08FA000800721C61
:100250007B29F11B7A29B9207A082100EF0079085F
:10026000EE007808ED007708EC006B082200AB0088
:1002700021006A082200AA00210069082200A900C2
:10028000210068082200A80021006F082200AF00AA
:1002900021006E082200AE0021006D082200AD0092
:1002A00021006C082200AC0020000A217A082200FC
:1002B000A3007908A2007808A1007708A000A3088D
:1002C000031D742922081D3C03187929FF3A031DD8
:1002D00074292108833C03187929FF3A031D7429E6
:1002E0002008803C03187929F11721008D12220083
:1002F0008D1620008029F11721008D1222008D1209
:1003000020000800911E992A911E842923001908B3
:100310002000A2002208313C031D9829143022003D
:10032000A8002000032051302200A80020008920CE
:100330002208323C031DA62914302200A800200008
:10034000032052302200A800200089202208333CDC
:10035000031DB629A40114302200A80020000320A8
:1003600053302200A80020008920A2012208343C3A
:10037000031DC7290130A40014302200A80020006A
:10038000032054302200A80020008920A201220866
:10039000353C031DD8290230A40014302200A800E7
:1003A0002000032055302200A80020008920A2014F
:1003B0002208363C031DE9290330A4001430220032
:1003C000A8002000032056302200A8002000892029
:1003D000A2012208373C031DF929A501143022008F
:1003E000A8002000032057302200A8002000892008
:1003F000A2012208383C031D0A2A0130A50014304E
:100400002200A8002000032058302200A80020006D
:100410008920A2012208393C031D1B2A0230A500B5
:1004200014302200A8002000032059302200A80028
:1004300020008920A20122083D3C031D2B2AA60191
:1004400014302200A8002000032060302200A80001
:1004500020008920A20122083E3C031D3C2A0130D5
:10046000A60014302200A8002000032061302200E2
:10047000A80020008920A20122083F3C031D4E2A2B
:10048000A70114302200A8002000032062302200BF
:10049000A80020008920A201E02027212208403C5A
:1004A000031D5F2A0130A70014302200A80020009D
:1004B000032063302200A80020008920A201220826
:1004C000413C031D702A0230A70014302200A8000E
:1004D0002000032064302200A80020008920A2010F
:1004E0002208423C031D812A0330A7001430220059
:1004F000A8002000032065302200A80020008920E9
:10050000A2012208943C031972162208953C031993
:10051000F2162208963C031972172208843C03192C
:10052000F2142208853C031972152208863C03192F
:10053000F21508001030F80021001D0883397804F6
:100540009D002000B901B801AE01AE1BAB2A2E08F8
:10055000093C031CC22A02302200A800200003200C
:10056000822121009D149D18B32A1C08FA001B0843
:100570002000B6007A08B7003608B8073708B93D3A
:10058000AE0AA52A39082200A5002000380822005A
:10059000A400A7010A30A600F801F901F701FA0149
:1005A0002708031DD62A26080319F02A1030A800B0
:1005B0000310A40DA50DF70DFA0D27087A02031DEF
:1005C000E32A26087702031CEC2A2608F702031CFC
:1005D000FA032708FA020314F80DF90DA80BD82A1C
:1005E00079082000B7007808B600080021008E12B4
:1005F00022008E1221008F1122008F1121000E1275
:1006000022000E122000080021008E1222008E16F9
:1006100021000F1122000F1121008F1122008F11D4
:1006200021000E1222000E162000080021008E125A
:1006300022008E1621000F1122000F1521000E122C
:1006400022000E1621008F1122008F1521008F101D
:1006500022008F1021000F1022000F102000080030
:1006600021008E1222008E1221000F1122000F1184
:1006700021000E1222000E1221008F1122008F1174
:1006800021008F1022008F1021000F1022000F1068
:100690002000080021008E1222008E1621000F116A
:1006A00022000F1521000E1222000E1221008F11C0
:1006B00022008F1121008F1022008F1421000F10B3
:1006C00022000F142000080021000F1122000F1536
:1006D00021008E1222008E1221000F1022000F1412
:1006E00021008F1022008F102000080021000F1120
:1006F00022000F1121000F1022000F1021008F1077
:1007000022008F102000080021000F1122000F1579
:1007100021008E1222008E1221000F1022000F10D5
:1007200021008F1022008F142000080020302200AA
:10073000B400B001B101B201B3012B08FA002A08DC
:10074000F9002908F8002808F7000310771CB62BD9
:100750002C08B0072D0803182D0FB1072E08031819
:100760002E0FB2072F0803182F0FB307B30CB20CCC
:10077000B10CB00CFA0CF90CF80CF70CB40BA52B5F
:10078000200008006E14EE146E15EE176F14EF14AF
:10079000EE156E16EE167017F01771147720FA30FA
:1007A0002200A80020000320B101B0013108013C63
:1007B000031C012C031DE02B30082B3C031C012CD7
:1007C000772014302200A800200003209A22B708C6
:1007D000031DEE2B3608283C0318FD2B6E10F0117C
:1007E000EE117013EE130130B1002C30B000F62280
:1007F00014302200A80020000320B00A0319B10A17
:10080000D62B6E182F2C0423FA302200A8002000CB
:100810000320B9207A08C1007908C0007808BF0019
:100820007708BE006E176E1F2F2CB9207A08C500FE
:100830007908C4007808C3007708C20004239A220C
:10084000B708031D272C3608283C03182E2C6E13DE
:10085000F62214302200A80020000320132C6E186A
:10086000AC2C41082200AB00200040082200AA0066
:1008700020003F082200A90020003E082200A80016
:10088000200045082200AF00200044082200AE00EE
:10089000200043082200AD00200042082200AC00E6
:1008A00020000A217A08C9007908C8007808C70022
:1008B0007708C600403046022200A4000D30200018
:1008C000473B2200A50003302000483B2200A60041
:1008D00000302000493B2200A70027082000D1005B
:1008E000220026082000D000220025082000CF008A
:1008F000220024082000CE000310460DCA00470D38
:10090000CB00480DCC00490DCD000310490C22004E
:10091000A7002000480C2200A6002000470C22005F
:10092000A5002000460C2200A400E030A402933071
:10093000A53B0430A63B0030A73B27082000D5008C
:10094000220026082000D400220025082000D30021
:10095000220024082000D2001623FA302200A8002A
:1009600020000320B301B2013308013C031CDF2C3B
:10097000031DBE2C32082B3C031CDF2C1623143025
:100980002200A800200003209A22B708031DCC2CC7
:100990003608283C0318DB2CEE1070126E12F01390
:1009A0006F100130B3002C30B2003023143022001D
:1009B000A80020000320B20A0319B30AB42CEE18D1
:1009C0000D2D6E174A23FA302200A80020000320C4
:1009D000B9207A08D9007908D8007808D7007708B4
:1009E000D6006E1F0D2DB9207A08DD007908DC00D5
:1009F0007808DB007708DA004A239A22B708031D3B
:100A0000052D3608283C03180C2D6E1330231430A6
:100A10002200A80020000320F12CEE18632D5908B5
:100A20002200AB00200058082200AA00200057082E
:100A30002200A900200056082200A80020005D081E
:100A40002200AF0020005C082200AE0020005B08FE
:100A50002200AD0020005A082200AC0020000A212C
:100A60007A08E1007908E0007808DF007708DE0006
:100A700040305E022200A4000D3020005F3B2200C7
:100A8000A50003302000603B2200A60000302000BB
:100A9000613B2200A70027082000E9002200260869
:100AA0002000E800220025082000E700220024089A
:100AB0002000E60003105E0DE2005F0DE300600D14
:100AC000E400610DE5006423FA302200A800200054
:100AD0000320B501B4013508013C031C962D031D0C
:100AE000752D34082B3C031C962D642314302200F2
:100AF000A800200003209A22B708031D832D360882
:100B0000283C0318922D6E11F012EE127110EF10A6
:100B10000130B5002C30B400762314302200A80038
:100B200020000320B40A0319B50A6B2D6E19C62DD7
:100B30006E178423FA302200A80020000320B92079
:100B40007A08ED007908EC007808EB007708EA00F5
:100B50006E1FC62DB9207A082100A3007908A200D3
:100B60007808A1007708A000200084239A22B70803
:100B7000031DBE2D3608283C0318C52D6E137623A1
:100B800014302200A80020000320A82D6E19542E36
:100B90006D082200AB0020006C082200AA00200093
:100BA0006B082200A90020006A082200A80021008A
:100BB00023082200AF00210022082200AE002100FD
:100BC00021082200AD00210020082200AC002000F6
:100BD0000A217A082100A7007908A6007808A50054
:100BE0007708A400403024022200A4000D30210028
:100BF000253B2200A50003302100263B2200A60051
:100C000000302100273B2200A70027082100AF0069
:100C1000220026082100AE00220025082100AD0098
:100C2000220024082100AC000310240DA800250D8B
:100C3000A900260DAA00270DAB000310270CB30056
:100C4000260CB200250CB100240CB000270C2200A9
:100C5000A7002100260C2200A6002100250C22005E
:100C6000A5002100240C2200A400A70CA60CA50CB2
:100C7000A40C3F30A7052708AB002608AA002508CA
:100C8000A9002408A800AF01AE01AD010330AC00FB
:100C9000200096237A082100B7007908B60078086A
:100CA000B5007708B400200090318C2D911E4A2F9A
:100CB000911E582E230019082000A2002208023C91
:100CC0000319EF122208073C03196F132208103C86
:100CD0000319EF132208133C031970102208043C77
:100CE0000319F0102208143C031970112208163C55
:100CF000031D852EF21714302200A80020000320C7
:100D000017302200A800200089202208183C031D6B
:100D1000942E731414302200A800200003201930F0
:100D20002200A800200089202208333C031DA42EA5
:100D3000A40114302200A80020000320213022004A
:100D4000A80020008920A2012208313C031DB42EF6
:100D5000A30114302200A80020000320203022002C
:100D6000A80020008920A2012208373C031DC42EC0
:100D7000A50114302200A800200003202230220008
:100D8000A80020008920A2012208383C031DD52E8E
:100D90000130A50014302200A800200003202230DA
:100DA0002200A80020008920A2012208393C031D4E
:100DB000E62E0230A50014302200A80020000320F7
:100DC00022302200A80020008920A20122083D3CF8
:100DD000031DF62EA60114302200A80020000320D7
:100DE00024302200A80020008920A20122083E3CD5
:100DF000031D072F0130A60014302200A800200098
:100E0000032024302200A80020008920A20122080B
:100E10003F3C031D172FA70114302200A80020001B
:100E2000032025302200A80020008920A2012208EA
:100E3000403C031D282F0130A70014302200A800D9
:100E40002000032025302200A80020008920A201D4
:100E50002208413C031D392F0230A7001430220024
:100E6000A8002000032025302200A80020008920AF
:100E7000A2012208423C031D4A2F0330A700143070
:100E80002200A8002000032025302200A800200016
:100E90008920A2010800EF16EF1E5E2F013022000C
:100EA000A800200089202200A701A601A501323058
:100EB000A40088312000002080314C2F6F176F1F55
:100EC0007A2F6E1C682F05302200A8002000892090
:100ED0006E186F2F06302200A80020008920220003
:100EE000A701A601A5013230A4008831200000200E
:100EF00080315F2FEF17EF1F962FEE1C842F0830E5
:100F00002200A80020008920EE188B2F0930220033
:100F1000A800200089202200A701A601A5013230E7
:100F2000A40088312000002080317B2F7014701CB9
:100F3000B22F6E1DA02F11302200A80020008920A2
:100F40006E19A72F12302200A8002000892022004D
:100F5000A701A601A5013230A4008831200000209D
:100F60008031972FF014F01CC52F03302200A80009
:100F7000200089202200A701A601A5013230A4008B
:100F80008831200000208031B32F7015701DD32FC1
:100F90002200A701A601A5013230A400883120005B
:100FA00000208031C62F15302200A80020008920A3
:100FB00090318F2DA301A401A501A601A701AC01C9
:100FC000AD01FF30A800A900AA00AB009031922D1E
:100FD000F213F21BED2F5626E92F73107318F22F20
:100FE0005626EE2F9031952D8831AC21803128087E
:100FF00024020319FE2F88313C25803190319E2D2B
:1010000022002708AB002608AA002508A90024080A
:10101000A800AF01AE010330AD00E830AC00803174
:101020002000962388317A082200A7007908A600BC
:101030007808A5007708A40080312000B920883105
:101040007A082100BB007908BA007808B90077084F
:10105000B80080312000B92088317A082200AB0026
:101060007908AA007808A9007708A8000A3028079C
:101070002100BC0000302200293D2100BD000030CD
:1010800022002A3D2100BE00003022002B3D21001D
:10109000BF003B082200AB0021003A082200AA0052
:1010A000210039082200A900210038082200A800E8
:1010B00021003F082200AF0021003E082200AE00C0
:1010C00021003D082200AD0021003C082200AC00B8
:1010D000803120000A2188317A082100C300790874
:1010E000C2007808C1007708C00043082200270228
:1010F000031CD428031D9428210042082200260244
:10110000031CD428031D9428210041082200250235
:10111000031CD428031D9428240821004002031C2A
:1011200093282200D428220080312000B920883161
:101130007A082100BF007908BE007808BD00770852
:10114000BC003B082200AB0021003A082200AA00A4
:10115000210039082200A900210038082200A80037
:1011600021003F082200AF0021003E082200AE000F
:1011700021003D082200AD0021003C082200AC0007
:10118000803120000A2188317A082100C3007908C3
:10119000C2007808C1007708C000803120005626C0
:1011A000883121007528220020000800220027082D
:1011B000AB002608AA002508A9002408A800AF0152
:1011C000AE010330AD00E830AC0080312000962342
:1011D00088317A082200A7007908A6007808A500BF
:1011E0007708A40080312000B92088317A082100D6
:1011F000BB007908BA007808B9007708B8008031D8
:101200002000B92088317A082200AB007908AA00B2
:101210007808A9007708A8000A3028072100BC0038
:1012200000302200293D2100BD00003022002A3D6F
:101230002100BE00003022002B3D2100BF003B08F2
:101240002200AB0021003A082200AA002100390840
:101250002200A900210038082200A80021003F0830
:101260002200AF0021003E082200AE0021003D0810
:101270002200AD0021003C082200AC00803120009B
:101280000A2188317A082100C3007908C200780851
:10129000C1007708C000430822002702031CAA29C6
:1012A000031D6A292100420822002602031CAA29E4
:1012B000031D6A292100410822002502031CAA29D6
:1012C000031D6A29240821004002031C6929220009
:1012D000AA29220080312000B92088317A08210013
:1012E000BF007908BE007808BD007708BC003B0845
:1012F0002200AB0021003A082200AA002100390890
:101300002200A900210038082200A80021003F087F
:101310002200AF0021003E082200AE0021003D085F
:101320002200AD0021003C082200AC0080312000EA
:101330000A2188317A082100C3007908C2007808A0
:10134000C1007708C000803120008221883121004F
:101350004B29220020000800701FE22A803104235C
:1013600088312200A701A601A501FA30A4002000BF
:10137000D62080319A2288318031F62288312200AD
:10138000A701A601A5011430A4002000D620B708AB
:10139000031DCE293608283C0318E22A6E1070136C
:1013A000FF30A900AC01F210F218E62981302200CA
:1013B000A80080312000892088312200A701A601E1
:1013C000A5013230A4002000D620D4292200A70194
:1013D000A601A5016430A4002000D620EE1FE22A59
:1013E0008031772088312200A701A601A501FA30BB
:1013F000A4002000D6206F116F19252A8031772094
:1014000088312200A701A601A5011430A400200004
:10141000D62080319A228831B708031D132A360856
:10142000283C0318242A6E10F011EE117013EE13ED
:101430006F158031F62288312200A701A601A5018F
:101440001430A4002000D620FC29803104238831E8
:101450002200A701A601A501FA30A4002000D62091
:101460008031B92088317A08C1007908C000780835
:10147000BF007708BE006F116F19632A8031042303
:1014800088318031B92088317A08C5007908C400D4
:101490007808C3007708C20080319A228831B708E3
:1014A000031D562A3608283C0318622A6F1580311E
:1014B000F62288312200A701A601A5011430A4005C
:1014C0002000D6203C2A6E18E22A41082200AB00F8
:1014D000200040082200AA0020003F082200A900A6
:1014E00020003E082200A800200045082200AF008E
:1014F000200044082200AE00200043082200AD0076
:10150000200042082200AC00803120000A218831EE
:101510007A08C9007908C8007808C7007708C600AB
:10152000403046022200A4000D302000473B22003C
:10153000A50003302000483B2200A6000030200018
:10154000493B2200A70027082000D10022002608DE
:101550002000D000220025082000CF00220024080F
:101560002000CE000310460DCA00470DCB00480DE9
:10157000CC00490DCD000310490C2200A70020002B
:10158000480C2200A6002000470C2200A5002000E5
:10159000460C2200A400E030A4029330A53B0430A6
:1015A000A63B0030A73B27082000D50022002608D4
:1015B0002000D400220025082000D30022002408A7
:1015C0002000D200F01FF02B80311623883122003A
:1015D000A701A601A501FA30A4002000D620803181
:1015E0009A2288318031302388312200A701A60158
:1015F000A5011430A4002000D620B708031D042B39
:101600003608283C0318F02BEE10F013FF30AA0028
:10161000721172191B2B82302200A8008031200029
:10162000892088312200A701A601A5013230A4003B
:101630002000D620092B2200A701A601A5016430B5
:10164000A4002000D6206F1CF02B80311623883197
:101650002200A701A601A501FA30A4002000D6208F
:10166000EF11EF195A2B8031162388312200A70180
:10167000A601A5011430A4002000D62080319A22B2
:101680008831B708031D482B3608283C0318592B0E
:10169000EE1070126E12F0136F10EF1580313023C0
:1016A00088312200A701A601A5011430A400200062
:1016B000D620312B80314A2388312200A701A60190
:1016C000A501FA30A4002000D6208031B92088314D
:1016D0007A08D9007908D8007808D7007708D600AA
:1016E000EF11EF19982B80314A2388318031B920CE
:1016F00088317A08DD007908DC007808DB0077089B
:10170000DA0080319A228831B708031D8B2B360806
:10171000283C0318972BEF158031302388312200A5
:10172000A701A601A5011430A4002000D620712B2A
:10173000EE18F02B59082200AB00200058082200B8
:10174000AA00200057082200A90020005608220005
:10175000A80020005D082200AF0020005C082200E5
:10176000AE0020005B082200AD0020005A082200D5
:10177000AC00803120000A2188317A08E100790824
:10178000E0007808DF007708DE0040305E022200CB
:10179000A4000D3020005F3B2200A5000330200094
:1017A000603B2200A60000302000613B2200A70021
:1017B00027082000E900220026082000E800220077
:1017C00025082000E700220024082000E60003107E
:1017D0005E0DE2005F0DE300600DE400610DE500C9
:1017E000711C3A2D8031842388312200A701A60183
:1017F000A501FA30A4002000D62080319A22883139
:101800008031762388312200A701A601A50114307A
:10181000A4002000D620B708031D122C3608283C4F
:1018200003183A2D6E117110FF30AB00AD01F211AB
:10183000F2192A2C83302200A80080312000892050
:1018400088312200A701A601A5013230A4002000A2
:10185000D620182C2200A701A601A5016430A400FF
:101860002000D620EF1C3A2D8031642388312200DD
:10187000A701A601A501FA30A4002000D6206F120E
:101880006F1A692C8031642388312200A701A601D8
:10189000A5011430A4002000D62080319A2288317E
:1018A000B708031D572C3608283C0318682C6E1106
:1018B000F012EE127110EF106F168031762388311E
:1018C0002200A701A601A5011430A4002000D62003
:1018D000402C8031842388312200A701A601A50174
:1018E000FA30A4002000D6208031B92088317A084F
:1018F000ED007908EC007808EB007708EA006F1239
:101900006F1AA92C8031842388318031B920883125
:101910007A082100A3007908A2007808A1007708BE
:10192000A000803120009A228831B708031D9C2C2A
:101930003608283C0318A82C6F168031762388318E
:101940002200A701A601A5011430A4002000D62082
:10195000802C6E193A2D6D082200AB0020006C0817
:101960002200AA0020006B082200A90020006A08BB
:101970002200A800210023082200AF002100220835
:101980002200AE00210021082200AD002100200825
:101990002200AC00803120000A2188317A08210021
:1019A000A7007908A6007808A5007708A4004030B1
:1019B00024022200A4000D302100253B2200A500B6
:1019C00003302100263B2200A60000302100273BE7
:1019D0002200A70027082100AF00220026082100CE
:1019E000AE00220025082100AD00220024082100BD
:1019F000AC000310240DA800250DA900260DAA0097
:101A0000270DAB000310270CB300260CB200250CE9
:101A1000B100240CB000270C2200A7002100260CE6
:101A20002200A6002100250C2200A5002100240C84
:101A30002200A400A70CA60CA50CA40C3F30A705FF
:101A40002708AB002608AA002508A9002408A8003A
:101A5000AF01AE01AD010330AC0080312000962310
:101A600088317A082100B7007908B6007808B500F7
:101A70007708B4002000080024082200A8000430E1
:101A8000A9008031200092208831F708031D582DCD
:101A9000A4012408A80021000D1122000D1121002D
:101AA0000D1022000D1021008D1022008D1020003D
:101AB00024082200A8000430A900803120009220D0
:101AC0008831770B722D2408A80021000D11220007
:101AD0000D1521000D1022000D1021008D10220087
:101AE0008D10200024082200A8000430A9008031B5
:101AF0002000922088317708023C031D962D24088F
:101B0000A80021000D1122000D15A701A60101302A
:101B1000A500F430A4002000D62021000D102200E2
:101B20000D1421008D1022008D10200024082200A9
:101B3000A8000430A9008031200092208831770865
:101B4000033C031DC12D2408A80021000D11220013
:101B50000D15A701A6010130A500F430A400200056
:101B6000D62021000D1022000D14A701A60101307E
:101B7000A500F430A4002000D62021008D10220002
:101B80008D14200008008031B92088317A082100A6
:101B9000CB007908CA007808C9007708C800470850
:101BA0002200AB00210046082200AA0021004508BF
:101BB0002200A900210044082200A80021004B08AF
:101BC0002200AF0021004A082200AE00210049088F
:101BD0002200AD00210048082200AC008031200026
:101BE0000A2188317A082100CF007908CE007808D0
:101BF000CD007708CC0020004D0821004F02031CC7
:101C0000402E031D1B2E20004C0821004E02031CF9
:101C1000402E031D1B2E20004B0821004D02031CEB
:101C2000402E031D1B2E4C0820004A02031C1A2EB6
:101C30002100402E2100711D402E80312000F6220F
:101C400088312200A701A601A5011430A4002000BC
:101C5000D6206E14F01570177212721A3F2E913042
:101C60002200A80080312000892088312200A701AD
:101C7000A601A5013230A4002000D6202D2E21007F
:101C8000200008008031B92088317A082100D7006F
:101C90007908D6007808D5007708D40053082200C8
:101CA000AB00210052082200AA00210051082200A6
:101CB000A900210050082200A80021005708220096
:101CC000AF00210056082200AE0021005508220076
:101CD000AD00210054082200AC00803120000A2110
:101CE00088317A082100DB007908DA007808D90009
:101CF0007708D8002000650821005B02031CBF2E76
:101D0000031D9A2E2000640821005A02031CBF2ED6
:101D1000031D9A2E2000630821005902031CBF2EC8
:101D2000031D9A2E580820006202031C992E2100E0
:101D3000BF2E2100711EBF2E80312000302388313C
:101D40002200A701A601A5011430A4002000D6207E
:101D5000EE147016F017F212F21ABE2E9230220014
:101D6000A80080312000892088312200A701A60127
:101D7000A5013230A4002000D620AC2E2100200086
:101D800008008031B92088317A082100E300790801
:101D9000E2007808E1007708E0005F082200AB006D
:101DA00021005E082200AA0021005D082200A9008F
:101DB00021005C082200A800210063082200AF0077
:101DC000210062082200AE00210061082200AD005F
:101DD000210060082200AC00803120000A218831F7
:101DE0007A082100E7007908E6007808E50077081E
:101DF000E4002B086702031C3A2F031D0F2F2A084B
:101E00006602031C3A2F031D0F2F29086502031CCD
:101E10003A2F031D0F2F6408280203183A2F711F51
:101E20003A2F80312000762388312200A701A601B5
:101E3000A5011430A4002000D6206E15F0167114F0
:101E40008031E02088318031272188317213721B64
:101E5000392F93302200A80080312000892088315A
:101E60002200A701A601A5013230A4002000D6203F
:101E7000272F210020000800AC213C2590310020B4
:101E8000883190311A23883198310020883180318F
:101E9000E02088318031272188319031982D6E18CB
:101EA000582F290825020319582F90310020883116
:101EB000EE18612F2A0826020319612F90311A2388
:101EC00088318031E02088318031272188316E19B6
:101ED000702F2B0827020319702F983100208831AA
:041EE0009031A12D6F
:1020000025082200A8000330A9008031200092207A
:102010009031F708031DBC28A5012508A9006E18FA
:10202000BC288031042390312200A701A601A5011C
:10203000C830A40088312000D62090318031B920EA
:1020400090317A082100C7007908C6007808C500D9
:102050007708C4002200A701A601A5013230A40020
:1020600088312000D6209031F11471158031B920CB
:1020700090317A08C1007908C0007808BF0077085D
:10208000BE00F011F019BC288031B92090317A08D7
:10209000C5007908C4007808C3007708C200410869
:1020A0002200AB00200040082200AA0020003F08C8
:1020B0002200A90020003E082200A80020004508B8
:1020C0002200AF00200044082200AE002000430898
:1020D0002200AD00200042082200AC008031200028
:1020E0000A2190317A08C9007908C8007808C70029
:1020F0007708C6008031042390312200A701A60191
:10210000A5011430A40088312000D6209031803100
:102110009A229031B708031D91283608283C0318ED
:10212000B82851084902031CB828031DA7285008E5
:102130004802031CB828031DA7284F084702031CA8
:10214000B828031DA72846084E020318B828803176
:10215000F62290312200A701A601A5011430A400A7
:1021600088312000D6209031F015F1107111AC01AA
:102170008831C3259031422825082200A800033069
:10218000A9008031200092209031770B7729250813
:10219000A9006E1877298031772090312200A7019D
:1021A000A601A501C830A40088312000D6209031B6
:1021B0008031B92090317A082100C7007908C60023
:1021C0007808C5007708C4002200A701A601A50170
:1021D0003230A40088312000D6209031F1147115DE
:1021E0008031B92090317A08C1007908C0007808A0
:1021F000BF007708BE00F011F01977298031B920AF
:1022000090317A08C5007908C4007808C3007708BF
:10221000C20041082200AB00200040082200AA00B2
:1022200020003F082200A90020003E082200A8004C
:10223000200045082200AF00200044082200AE0024
:10224000200043082200AD00200042082200AC001C
:10225000803120000A2190317A08C9007908C8002D
:102260007808C7007708C6008031772090312200B7
:10227000A701A601A5011430A40088312000D620B2
:10228000903180319A229031B708031D4B293608CE
:10229000283C0318732951084902031C7329031DA4
:1022A000612950084802031C7329031D61294F0846
:1022B0004702031C7329031D612946084E020318B7
:1022C00073298031F62290312200A701A601A501D1
:1022D0001430A40088312000D6209031F015F11080
:1022E00071110130AC008831C3259031FC282508DC
:1022F0002200A8000330A9008031200092209031F4
:102300007708023C031D192B2508A9002C08220080
:10231000A8000330A9008031200092209031F708F6
:10232000031D502A8031042390312200A701A60109
:10233000A501FA30A40088312000D62090318031E8
:102340009A2290318031F62290312200A701A60115
:10235000A5011430A40088312000D6209031B708A0
:10236000031DCE2936080E3C031CCE296E147017AF
:102370007212721ACD2991302200A80080312000FB
:10238000892090312200A701A601A5013230A400C6
:1023900088312000D6209031B929D0296E107013D1
:1023A0006E18502A8031772090312200A701A601B3
:1023B000A501FA30A40088312000D6209031803168
:1023C000B92090317A08C1007908C0007808BF00B0
:1023D0007708BE00F011F019502A80318221903127
:1023E0008031B92090317A08C5007908C400780896
:1023F000C3007708C20041082200AB00200040085B
:102400002200AA0020003F082200A90020003E0868
:102410002200A800200045082200AF002000440848
:102420002200AE00200043082200AD002000420838
:102430002200AC00803120000A2190317A08C900C6
:102440007908C8007808C7007708C600803177206F
:10245000903155084902031C4F2A031D3F2A540896
:102460004802031C4F2A031D3F2A53084702031C3E
:102470004F2A031D3F2A4608520203184F2A803173
:10248000F62290312200A701A601A5011430A40074
:1024900088312000D6209031F0150230AC00EB29B5
:1024A0002C082200A8000330A900803120009220CF
:1024B0009031770B192B8031772090312200A701C2
:1024C000A601A501FA30A40088312000D620903161
:1024D00080319A2290318031F62290312200A7017A
:1024E000A601A5011430A40088312000D620903127
:1024F000B708031D972A36080E3C031C972A6E1452
:1025000070177212721A962A91302200A800803138
:102510002000892090312200A701A601A5013230B8
:10252000A40088312000D6209031822A992A6E108A
:1025300070136E18192B8031042390312200A701EB
:10254000A601A501FA30A40088312000D6209031E0
:102550008031B92090317A08C1007908C00078082C
:10256000BF007708BE00F011F019192B80318221CD
:1025700090318031B92090317A08C5007908C400C3
:102580007808C3007708C20041082200AB00200091
:1025900040082200AA0020003F082200A9002000D5
:1025A0003E082200A800200045082200AF002000BD
:1025B00044082200AE00200043082200AD002000A5
:1025C00042082200AC00803120000A2190317A08B4
:1025D000C9007908C8007808C7007708C6008031AC
:1025E0000423903155084902031C182B031D082BA6
:1025F00054084802031C182B031D082B53084702DC
:10260000031C182B031D082B460852020318182B15
:102610008031F62290312200A701A601A5011430D5
:10262000A40088312000D6209031F0150230AC0093
:10263000B42A080026082200A8000230A900803130
:10264000200092209031F708031DD52BA601260803
:10265000AA00EE18D52B80314A2390312200A70121
:10266000A601A501C830A40088312000D6209031F1
:102670008031B92090317A082100D3007908D20046
:102680007808D1007708D0002200A701A601A50193
:102690003230A40088312000D6209031F115711617
:1026A0008031B92090317A08D9007908D8007808AB
:1026B000D7007708D6007012701AD52B8031B92058
:1026C00090317A08DD007908DC007808DB007708B3
:1026D000DA0059082200AB00200058082200AA00A6
:1026E000200057082200A900200056082200A80058
:1026F00020005D082200AF0020005C082200AE0030
:1027000020005B082200AD0020005A082200AC0027
:10271000803120000A2190317A08E1007908E00038
:102720007808DF007708DE0080314A2390312200EC
:10273000A701A601A5011430A40088312000D620ED
:10274000903180319A229031B708031DAB2B3608A7
:10275000283C0318D12B69086102031CD12B031DEF
:10276000C12B68086002031CD12B031DC12B670815
:102770005F02031CD12B031DC12B5E0866020318E8
:10278000D12B8031302390312200A701A601A50171
:102790001430A40088312000D62090317016F11139
:1027A00071128831422690315C2B26082200A80045
:1027B0000230A9008031200092209031770B8E2CBE
:1027C0002608AA00EE188E2C8031162390312200A4
:1027D000A701A601A501C830A40088312000D62099
:1027E00090318031B92090317A082100D3007908E6
:1027F000D2007808D1007708D0002200A701A601F6
:10280000A5013230A40088312000D6209031F11586
:1028100071168031B92090317A08D9007908D80032
:102820007808D7007708D6007012701A8E2C803185
:10283000B92090317A08DD007908DC007808DB00E7
:102840007708DA0059082200AB002000580822005F
:10285000AA00200057082200A900200056082200E4
:10286000A80020005D082200AF0020005C082200C4
:10287000AE0020005B082200AD0020005A082200B4
:10288000AC00803120000A2190317A08E1007908FB
:10289000E0007808DF007708DE00803116239031F1
:1028A0002200A701A601A5011430A4008831200050
:1028B000D620903180319A229031B708031D642CC4
:1028C0003608283C03188A2C69086102031C8A2CEC
:1028D000031D7A2C68086002031C8A2C031D7A2CC5
:1028E00067085F02031C8A2C031D7A2C5E086602AF
:1028F00003188A2C8031302390312200A701A601D1
:10290000A5011430A40088312000D6209031701623
:10291000F1117112883142269031152C08006A306D
:10292000210099002000A101A00122009D12053084
:10293000200098009901960197019601111023003B
:102940009F1119309B00A6309E0090309D00200002
:10295000A201A301A401A501A601A701FF30A800BF
:10296000A900AA00AB00AC01AD01AE01AF01B101FD
:10297000B001B301B201B501B401B701B601B901AB
:10298000B801BD01BC01BB01BA01C101C001BF0159
:10299000BE01C501C401C301C201C901C801C7010B
:1029A000C601CD01CC01CB01CA01D101D001CF01BB
:1029B000CE01D501D401D301D201D901D801D7016B
:1029C000D601DD01DC01DB01DA01E101E001DF011B
:1029D000DE01E501E401E301E201E901E801E701CB
:1029E000E601ED01EC01EB01EA012100A301A201E6
:1029F000A101A001A701A601A501A401AB01AA01A3
:102A0000A901A801AF01AE01AD01AC01B301B20152
:102A1000B101B001B701B601B501B401BB01BA0102
:102A2000B901B801BF01BE01BD01BC01C301C201B2
:102A3000C101C001C701C601C501C401CB01CA0162
:102A4000C901C801CF01CE01CD01CC01D301D20112
:102A5000D101D001D701D601D501D401DB01DA01C2
:102A6000D901D801DF01DE01DD01DC01E301E20172
:102A7000E101E001E701E601E501E401EB01EA0122
:102A8000E901E801EF01EE01ED01EC012200A301F3
:102A9000A201A101A00120006E10EE106E11EE1136
:102AA0006E12EE126E17EE136F10EF106F11EF1122
:102AB0006F12EF126F13EF137010F0107011F0110E
:102AC0007012F0127013F0137110F1107111F111F6
:102AD0007112F1127113F1137210F2107211F211DE
:102AE0007212F2127213F2137310F3102F0091018D
:102AF0009201980199019A0123008C018D018F01A7
:102B000090012200920191019401930180312000F3
:102B1000192890318031C22B903180314B2F903168
:102B20008031DA2F90318031E82F903188313C2F7D
:102B300090318031822190318031F42F9031883171
:082B40004F2F9031992D630025
:1030000027082200A8000430A90080312000922067
:103010009831F708031DC428A7012708AB006E19D3
:10302000C4288031842398312200A701A601A5017C
:10303000FA30A40088312000D62098318031B920A0
:1030400098317A082100DF007908DE007808DD0079
:103050007708DC002200A701A601A5013230A400F8
:1030600088312000D6209831F11671178031B920AF
:1030700098317A08ED007908EC007808EB007708C1
:10308000EA00F012F01AC4288031B92098317A0889
:103090002100A3007908A2007808A1007708A00009
:1030A00020006D082200AB0020006C082200AA005E
:1030B00020006B082200A90020006A082200A80056
:1030C000210023082200AF00210022082200AE00C8
:1030D000210021082200AD00210020082200AC00C0
:1030E000803120000A2198317A082100A700790850
:1030F000A6007808A5007708A4008031200084236A
:1031000098312200A701A601A5011430A40088313E
:103110002000D620983180319A229831B708031DBB
:1031200095283608283C0318BE2821002F082702BE
:10313000031CBF28031DAC282E082602031CBF2831
:10314000031DAC282D082502031CBF28031DAC2835
:1031500024082C020318BF288031200076239831E0
:103160002200A701A601A5011430A4008831200087
:10317000D6209831F016F1127113AD01210088317B
:103180002000C1269831422827082200A8000430D8
:10319000A9008031200092209831770BC12B27089D
:1031A000AB002D082200A8000430A90080312000C7
:1031B00092209831F708031DC72980318423983164
:1031C0002200A701A601A501FA30A4008831200041
:1031D000D620983180319A229831803176239831E7
:1031E0002200A701A601A5011430A4008831200007
:1031F000D6209831B708031D192936080E3C031C48
:1032000019296E1571147213721B1829933022003C
:10321000A80080312000892098312200A701A60152
:10322000A5013230A40088312000D620983104292D
:103230001B296E1171106E19C729803164239831D2
:103240002200A701A601A501FA30A40088312000C0
:10325000D62098318031B92098317A08ED0079086C
:10326000EC007808EB007708EA00F012F01AC729A2
:103270008031822198318031B92098317A0821003B
:10328000A3007908A2007808A1007708A000200018
:103290006D082200AB0020006C082200AA0020006C
:1032A0006B082200A90020006A082200A800210063
:1032B00023082200AF00210022082200AE002100D6
:1032C00021082200AD00210020082200AC0080313E
:1032D00020000A2198317A082100A7007908A60069
:1032E0007808A5007708A400803120006423983175
:1032F0009030210030022200A400D0302100313B68
:103300002200A50003302100323B2200A60000303D
:103310002100333B2200A7002408F7002508F8000D
:103320002608F9002708FA00270821002702031CB5
:10333000C529031DB3292200260821002602031CEB
:10334000C529031DB3292200250821002502031CDD
:10335000C529031DB329240822002402031CB22915
:103360002100C529210080312000762398312200D8
:10337000A701A601A5011430A40088312000D620A1
:103380009831F0160130AD002100200036292D08BB
:103390002200A8000430A90080312000922098313A
:1033A0007708023C031DCA2AF314AF01803164235D
:1033B0009831AF1BDF292F08053C031CED29F31CB6
:1033C000ED29AF0A80319A229831B708031DEB2905
:1033D00036080F3C031CF310D9298031762398312D
:1033E0002200A701A601A5011430A4008831200005
:1033F000D6209831F31C142A6E1571147213721BA7
:10340000132A93302200A8008031200089209831AF
:103410002200A701A601A5013230A40088312000B6
:10342000D6209831FF29162A6E1171106E19CA2AFA
:103430008031842398312200A701A601A501FA302A
:10344000A40088312000D62098318031B9209831ED
:103450007A08ED007908EC007808EB007708EA00BC
:10346000F012F01ACA2A8031822198318031B920B5
:1034700098317A082100A3007908A2007808A100F9
:103480007708A00020006D082200AB0020006C0827
:103490002200AA0020006B082200A90020006A0870
:1034A0002200A800210023082200AF0021002208EA
:1034B0002200AE00210021082200AD0021002008DA
:1034C0002200AC00803120000A2198317A082100C6
:1034D000A7007908A6007808A5007708A400803125
:1034E0002000842398312100300834022200A400F7
:1034F00021003108353B2200A50021003208363B6F
:103500002200A60021003308373B2200A70090309C
:10351000A402D030A53B0330A63B0030A73B2408D3
:10352000F7002508F8002608F9002708FA00270800
:1035300021002702031CC82A031DB62A22002608E0
:1035400021002602031CC82A031DB62A22002508D2
:1035500021002502031CC82A031DB62A24082200C4
:103560002402031CB52A2100C82A21008031200032
:10357000762398312200A701A601A5011430A400EA
:1035800088312000D6209831F0160130AD0021009E
:103590002000312A2D082200A8000430A900803123
:1035A0002000922098317708033C031DC12B803105
:1035B000642398312200A701A601A501FA30A400D6
:1035C00088312000D620983180319A22983180317C
:1035D000762398312200A701A601A5011430A4008A
:1035E00088312000D6209831B708031D132B3608E8
:1035F0000E3C031C132B6E1571147213721B122BCD
:1036000093302200A80080312000892098312200C8
:10361000A701A601A5013230A40088312000D620E0
:103620009831FE2A152B6E1171106E19C12B803145
:10363000842398312200A701A601A501FA30A40035
:1036400088312000D62098318031B92098317A080D
:10365000ED007908EC007808EB007708EA00F0123A
:10366000F01AC12B8031822198318031B9209831F4
:103670007A082100A3007908A2007808A100770841
:10368000A00020006D082200AB0020006C08220082
:10369000AA0020006B082200A90020006A0822006E
:1036A000A800210023082200AF00210022082200E8
:1036B000AE00210021082200AD00210020082200D8
:1036C000AC00803120000A2198317A082100A7003F
:1036D0007908A6007808A5007708A40080312000AA
:1036E000842398319030210030022200A400D03091
:1036F0002100313B2200A50003302100323B220093
:10370000A60000302100333B2200A7002408F70068
:103710002508F8002608F9002708FA0027082100E4
:103720002702031CBF2B031DAD2B220026082100FE
:103730002602031CBF2B031DAD2B220025082100F0
:103740002502031CBF2B031DAD2B240822002402DD
:10375000031CAC2B2100BF2B2100803120007623DD
:1037600098312200A701A601A5011430A4008831D8
:103770002000D6209831F0160130AD002100200045
:10378000302B27082200A8000430A9008031200037
:10379000922098317708023C031DC92E2708AB0000
:1037A0002D082200A8000430A900803120009220BA
:1037B0009831F708031DC62C8031842398312200EC
:1037C000A701A601A501FA30A40088312000D62067
:1037D000983180319A2298318031762398312200B5
:1037E000A701A601A5011430A40088312000D6202D
:1037F0009831B708031D182C36080E3C031C182CF2
:103800006E1571147213721B172C93302200A800CE
:1038100080312000892098312200A701A601A5014E
:103820003230A40088312000D6209831032C1A2C85
:103830006E1171106E19C62C8031642398312200EC
:10384000A701A601A501FA30A40088312000D620E6
:1038500098318031B92098317A08ED007908EC0070
:103860007808EB007708EA00F012F01AC62C8031D5
:10387000822198318031B92098317A082100A30043
:103880007908A2007808A1007708A00020006D0840
:103890002200AB0020006C082200AA0020006B0868
:1038A0002200A90020006A082200A80021002308A5
:1038B0002200AF00210022082200AE0021002108D2
:1038C0002200AD00210020082200AC008031200041
:1038D0000A2198317A082100A7007908A600780803
:1038E000A5007708A400803120006423983190302F
:1038F000210034022200A400D0302100353B2200F8
:10390000A50003302100363B2200A6000030210034
:10391000373B2200A7002408F7002508F8002608F6
:10392000F9002708FA00270821002702031CC42CED
:10393000031DB22C2200260821002602031CC42CE1
:10394000031DB22C2200250821002502031CC42CD3
:10395000031DB22C240822002402031CB12C2100D8
:10396000C42C210080312000762398312200A70149
:10397000A601A5011430A40088312000D62098317A
:10398000F0160230AD0021002000352C2D08220059
:10399000A8000430A9008031200092209831770BD4
:1039A000CA2DF314AF01803184239831AF1BDC2C76
:1039B0002F08053C031CEA2CF31CEA2CAF0A8031CB
:1039C0009A229831B708031DE82C36080F3C031CD7
:1039D000F310D62C80319A22983180317623983199
:1039E0002200A701A601A5011430A40088312000FF
:1039F000D6209831F31C142D6E1571147213721B9E
:103A0000132D93302200A8008031200089209831A6
:103A10002200A701A601A5013230A40088312000B0
:103A2000D6209831FF2C162D6E1171106E19CA2DEB
:103A30008031642398312200A701A601A501FA3044
:103A4000A40088312000D62098318031B9209831E7
:103A50007A08ED007908EC007808EB007708EA00B6
:103A6000F012F01ACA2D8031822198318031B920AC
:103A700098317A082100A3007908A2007808A100F3
:103A80007708A00020006D082200AB0020006C0821
:103A90002200AA0020006B082200A90020006A086A
:103AA0002200A800210023082200AF0021002208E4
:103AB0002200AE00210021082200AD0021002008D4
:103AC0002200AC00803120000A2198317A082100C0
:103AD000A7007908A6007808A5007708A40080311F
:103AE0002000642398312100300834022200A40011
:103AF00021003108353B2200A50021003208363B69
:103B00002200A60021003308373B2200A700903096
:103B1000A402D030A53B0330A63B0030A73B2408CD
:103B2000F7002508F8002608F9002708FA002708FA
:103B300021002702031CC82D031DB62D22002608D4
:103B400021002602031CC82D031DB62D22002508C6
:103B500021002502031CC82D031DB62D24082200B8
:103B60002402031CB52D2100C82D21008031200026
:103B7000762398312200A701A601A5011430A400E4
:103B800088312000D6209831F0160230AD00210097
:103B90002000312D2D082200A8000430A90080311A
:103BA0002000922098317708033C031DC92E8031F4
:103BB000642398312200A701A601A501FA30A400D0
:103BC00088312000D620983180319A229831803176
:103BD000762398312200A701A601A5011430A40084
:103BE00088312000D6209831B708031D132E3608DF
:103BF0000E3C031C132E6E1571147213721B122EC1
:103C000093302200A80080312000892098312200C2
:103C1000A701A601A5013230A40088312000D620DA
:103C20009831FE2D152E6E1171106E19C92E80312E
:103C3000842398312200A701A601A501FA30A4002F
:103C400088312000D62098318031B92098317A0807
:103C5000ED007908EC007808EB007708EA00F01234
:103C6000F01AC92E8031822198318031B9209831E3
:103C70007A082100A3007908A2007808A10077083B
:103C8000A00020006D082200AB0020006C0822007C
:103C9000AA0020006B082200A90020006A08220068
:103CA000A800210023082200AF00210022082200E2
:103CB000AE00210021082200AD00210020082200D2
:103CC000AC00803120000A2198317A082100A70039
:103CD0007908A6007808A5007708A40080312000A4
:103CE000842398312100300834022200A4002100EE
:103CF0003108353B2200A50021003208363B220066
:103D0000A60021003308373B2200A700F030A402B0
:103D10004930A53B0230A63B0030A73B2408F70002
:103D20002508F8002608F9002708FA0027082100CE
:103D30002702031CC72E031DB52E220026082100D2
:103D40002602031CC72E031DB52E220025082100C4
:103D50002502031CC72E031DB52E240822002402B1
:103D6000031CB42E2100C72E2100803120007623B1
:103D700098312200A701A601A5011430A4008831C2
:103D80002000D6209831F0160230AD00210020002E
:103D9000302E27082200A8000430A900803120001E
:103DA000922098317708033C031D8E2F2708AB0023
:103DB0006E198E2F8031642398312200A701A6014D
:103DC000A501FA30A40088312000D6209831803136
:103DD000B92098317A082100DF007908DE007808E0
:103DE000DD007708DC002200A701A601A501323022
:103DF000A40088312000D6209831F1167117803147
:103E0000B92098317A08ED007908EC007808EB00C9
:103E10007708EA00F012F01A8E2F8031B92098311D
:103E20007A082100A3007908A2007808A100770889
:103E3000A00020006D082200AB0020006C082200CA
:103E4000AA0020006B082200A90020006A082200B6
:103E5000A800210023082200AF0021002208220030
:103E6000AE00210021082200AD0021002008220020
:103E7000AC00803120000A2198317A082100A70087
:103E80007908A6007808A5007708A40080312000F2
:103E9000642398312200A701A601A5011430A400D3
:103EA00088312000D620983180319A229831B70885
:103EB000031D5E2F3608283C0318882F21002F0889
:103EC0002702031C892F031D752F2E082602031CB1
:103ED000892F031D752F2D082502031C892F031D13
:103EE000752F24082C020318892F80312000762397
:103EF00098312200A701A601A5011430A400883141
:103F00002000D6209831F016F11271130330AD0065
:0E3F1000210088312000C12698310B2F0800B7
:020000040001F9
:04000E002439FF1E74
:00000001FF
;PIC16F1939
;CRC=BA46  CREATED="18-Mar-19 22:42"
