:1000000098310028000020308500913084000008DD
:10001000031918280130F800F701F70B0D28F80B29
:100020000C284A30F700F70B13281628800B0A28F3
:10003000080021008C0122008C0121008D0122008A
:100040008D0121008E0122008E0121008F012200EE
:100050008F012100101090101011901122009001BA
:1000600010302100E000FA30E100200003202100E0
:10007000E00B3328303065001C3066000830670024
:1000800000308F0010109010101190118F1322006B
:100090008F1721000D1022000D1421008D10220059
:1000A0008D1421008E1322008E1721000F122200C2
:1000B0000F1621008C1022008C1421000C1122003C
:1000C0000C1521008C1122008C1521000E1022002D
:1000D0000E1421000C1322000C1721008C13220097
:1000E0008C17F800043820009C00FF309B007A3009
:1000F000210099008E1022008E1021000E11220086
:100100000E110C3025009300940195011E109E10D5
:1001100001309600F03093051030F700F70B8E2871
:10012000000021000E1122000E111D101D122100D1
:100130008E1022008E100C3025009A009B019C012D
:100140001E119E1101309D00F0309A051030F7000D
:10015000F70BA82800002000431642082100E00009
:10016000200043082100E100200044082100E200B3
:10017000200045082100E30085019E308400F8300E
:100180008005013085008C308400630880000130D8
:1001900085009030840062088000013085008D3039
:1001A000840061088000013085008F308400600881
:1001B00080001E169E121E139E171D141030F7008D
:1001C000F70BE0280000E301E201E101E001600833
:1001D000F7006108F8006208F9006308FA000030CF
:1001E0000310F70DF80DF90DFA0D890DF70DF80D47
:1001F000F90DFA0D890DF70DF80DF90DFA0D890DB0
:10020000F70DF80DF90DFA0D890DF70DF80DF90D33
:10021000FA0D890DF70DF80DF90DFA0D890DF70D91
:10022000F80DF90DFA0D890D2000A2007A08A10041
:100230007908A00078089700770896009831CF28B1
:1002400021000F1322000F1721000D1322000D13A0
:1002500021008D1322008D1720000800B101B0018C
:100260002100E0016008093C031C52292C30F800F1
:100270001D08833978049D000230E100200003202E
:1002800021009D149D1842291C08FA001B0820001B
:10029000B2007A08B3003208B0073308B13D21003C
:1002A000E00A3229200031082100E2002000300855
:1002B0002100E100E4010A30E300F801F901F7014F
:1002C000FA016408031D67296308031981291030A6
:1002D000E5000310E10DE20DF70DFA0D64087A0256
:1002E000031D742963087702031C7D296308F70244
:1002F000031CFA036408FA020314F80DF90DE50B68
:10030000692979082000B1007808B00008002100B0
:100310000F1322000F1321000D1322000D132100D3
:100320008D1322008D132000080021008F1222005F
:100330008F1621008D1222008D1221008F102200B5
:100340008F142000080021008F1222008F1221003C
:100350008D1222008D1221008F1022008F1020009C
:1003600008006E14EE14F01771146E15EE15EF16EA
:100370006F17202102302100E000FA30E100200058
:1003800003202100E00BBD292000B901B801390884
:10039000013C031CEC29031DD12938082B3C031C0C
:1003A000EC2920211E302100E100200003202E2115
:1003B000B108031DDF293008283C0318E8298721EC
:1003C0006E10F0136E11EF120130B9002C30B8002E
:1003D000B80A0319B90AC729872164302100E1004E
:1003E00020000320952102302100E000FA30E100D6
:1003F000200003202100E00BF6292000BB01BA01F8
:100400003B08043C031C252A031D0A2A3A08AF3C7A
:10041000031C252A95211E302100E1002000032025
:100420002E21B108031D182A3008283C0318212A60
:10043000A321EE107110EE116F130430BB00B03029
:10044000BA00BA0A0319BB0A002AA32164302100AA
:10045000E100200003209831D22821000F13220050
:100460000F1721000D1322000D1721008D132200FC
:100470008D1320000800111C472A0130A007031823
:10048000A10A0319A20A0319A30A11105B2A17086B
:10049000FA001608F70017087A02031D472A7708A2
:1004A000111C642A0130A0070318A10A0319A20A2B
:1004B0000319A30A11101708FA001608F700170805
:1004C0007A02031D5B2A7708F7007A08F8002008F3
:1004D000F9002108FA0022082100E000E00CFA0CE3
:1004E000F90CF80CF70CE00CFA0CF90CF80CF70C02
:1004F000E00CFA0CF90CF80CF70CE00CFA0CF90C07
:10050000F80CF70CE00CFA0CF90CF80CF70CE00CFA
:10051000FA0CF90CF80CF70CE00CFA0CF90CF80CCE
:10052000F70C2000080021008F1222008F162100F6
:100530008D1222008D1621008F1022008F102000B6
:1005400008002100600864022000D6002100610834
:10055000653B2000D70021006208663B2000D800E0
:1005600021006308673B2000D9005608F7005708B0
:10057000F8005808F9005908FA0008006E18ED2A2A
:100580006F152D2202302100E000FA30E10020003A
:1005900003202100E00BC52A20003B227A08DD0061
:1005A0007908DC007808DB007708DA006F1DED2A97
:1005B0003B227A08E1007908E0007808DF0077083C
:1005C000DE002D222E21B108031DEA2A3008283C26
:1005D0000318EC2A6F118721D62A87216430210065
:1005E000E10020000320EE18242B6F159322023027
:1005F0002100E000FA30E100200003202100E00BA0
:10060000FA2A20003B227A08ED007908EC007808ED
:10061000EB007708EA006F1D242B3B227A082100AB
:10062000A3007908A2007808A1007708A0002000A4
:1006300093222E21B108031D212B3008283C0318DA
:10064000232B6F11A3210B2BA32164302100E10088
:10065000200003206E189D2B5D082100E300200080
:100660005C082100E20020005B082100E10020007E
:100670005A082100E000200061082100E700200066
:1006800060082100E60020005F082100E50020004E
:100690005E082100E4002000A1227A08E500790824
:1006A000E4007808E3007708E2009030620221005D
:1006B000D80001302000633B2100D9000030200029
:1006C000643B2100DA0000302000653B2100DB00A4
:1006D00003102000620D2100AC002000630D2100FA
:1006E000AD002000640D2100AE002000650D21004A
:1006F000AF0003102000650C2100E3002000640C13
:100700002100E2002000630C2100E1002000620CC7
:100710002100E000903060022000E600013021005E
:10072000613B2000E70000302100623B2000E80030
:1007300000302100633B2000E900EE18EC2B6D082F
:100740002100E30020006C082100E20020006B087B
:100750002100E10020006A082100E0002308E700F2
:100760002208E6002108E5002008E4002000A1227C
:100770007A082100A7007908A6007808A500770864
:10078000A40090302402DC000130253BDD00003065
:10079000263BDE000030273BDF000310240DB000B5
:1007A000250DB100260DB200270DB3000310270C54
:1007B000E300260CE200250CE100240CE000903060
:1007C0006002A8000130613BA9000030623BAA0032
:1007D0000030633BAB0020009831D5286E1D622CA1
:1007E0000130C6070318C70A0319C80A0319C90A42
:1007F0004608103C031D132C4708273C031D132CEF
:10080000C808031D132CC908031D132C21008C10CC
:1008100022008C1421000C1122000C1521008C11D7
:1008200022008C1520004608203C031D322C47086E
:100830004E3C031D322CC808031D322CC908031D71
:10084000322CC901C801C701C60121008C10220049
:100850008C1021000C1122000C1121008C1122009F
:100860008C112000D101D001CF01CE0121000C1646
:1008700020000C1A612C0130CE070318CF0A03198F
:10088000D00A0319D10A4E08403C031D602C4F08C2
:100890000D3C031D602C5008033C031D602CD10847
:1008A000031D602C6E1121008C1022008C10210081
:1008B0000C1122000C1121008C1122008C1120003F
:1008C000362CEE2BEE1DD62C0130CA070318CB0AAE
:1008D0000319CC0A0319CD0A4A08103C031D872CC2
:1008E0004B08273C031D872CCC08031D872CCD0803
:1008F000031D872C21000E1022000E1421000C1362
:1009000022000C1721008C1322008C1720004A08AB
:10091000203C031DA62C4B084E3C031DA62CCC08E6
:10092000031DA62CCD08031DA62CCD01CC01CB01A7
:10093000CA0121000E1022000E1021000C1322000B
:100940000C1321008C1322008C132000D501D4013C
:10095000D301D20121008C1620008C1AD52C013035
:10096000D2070318D30A0319D40A0319D50A520867
:10097000403C031DD42C53080D3C031DD42C5408BB
:10098000033C031DD42CD508031DD42CEE112100EB
:100990000E1022000E1021000C1322000C13210057
:1009A0008C1322008C132000AA2C622C9831D8289A
:1009B00021008F1322008F1321000D1022000D1033
:1009C00021008D1022008D1021008E1322008E1325
:1009D00021000F1222000F1221008C1022008C1017
:1009E00021000C1122000C1121008C1122008C110D
:1009F00021000E1022000E1021000C1322000C13F7
:100A000021008C1322008C13F030250093059A05E9
:100A100020008721A32121000C1022000C102100AE
:100A20001011220010112000A601A801AB01AE0197
:100A3000B501B401B701B6016F10EF109831DB2892
:100A40006E182C2D240823009100951315141308FB
:100A50002000AA00AB012E2DAA01AB01EE183A2D01
:100A60002508230091009513151413082000AD00EC
:100A7000AE013C2DAD01AE019831DE2821006008A9
:100A800061068039E300E01F472DE009E00AE11F1D
:100A90004B2DE109E10A6108F80160020318532DAA
:100AA0006008F7005F2DF7010830E200E00DF70D58
:100AB000610877020318F700F80DE20B562DE31FCB
:100AC000632DF809F80A2000080021008D15200088
:100AD0008D19732D6E1E732DFA302100E100200058
:100AE00003206E12A60A21008D1520008D196E16A6
:100AF000080021000D1520000D19872DEE1E872DF1
:100B0000FA302100E10020000320EE12A80A2100A3
:100B10000D1520000D19EE1608006E1C932DEE1C0D
:100B2000932D7012FB2D6E18B32DEE1CB32D2A08D9
:100B30002100E0000330E10020003E25F708031DFE
:100B4000A32D7012B22D7016F01DB22DF0113B22A4
:100B50007A082100B7007908B6007808B500770850
:100B6000B4002000FB2D6E1CD32DEE18D32D2D08C4
:100B70002100E0000330E10020003E25F708031DBE
:100B8000C32D7012D22D7016F01DD22DF0113B2204
:100B90007A082100B7007908B6007808B500770810
:100BA000B4002000FB2D6E18FB2DEE18FB2D2A083B
:100BB0002100E0000330E10020003E25F708031D7E
:100BC000ED2D2D082100E0000330E10020003E253E
:100BD000F708031DED2D7012FB2D7016F01DFB2D77
:100BE000F0113B227A082100B7007908B600780896
:100BF000B5007708B40020000800701E3E2EF019E2
:100C00003D2E3B227A082100BB007908BA00780803
:100C1000B9007708B8003708E3003608E200350865
:100C2000E1003408E0003B08E7003A08E600390834
:100C3000E5003808E4002000A1227A082100BF0066
:100C40007908BE007808BD007708BC00BF08031D06
:100C5000372EBE08031D372E3D08123C03183C2ECC
:100C6000FF3A031D372E3C08883C03183C2EF01534
:100C700010112200101521002000432EF015210034
:100C80001011220010112000080021000C16200075
:100C90000C1A702E6E1F702EFA302100E100200019
:100CA00003206E136E186D2EAA0A0B08F7008B1323
:100CB00024082300910020002A08230093009513A4
:100CC000151555309600AA30960095149518662E85
:100CD000151177088B04712E2000EF158D25FD2549
:100CE000230021000C1620000C1A6E1708002100AA
:100CF0008C1620008C1AA22EEE1FA22EFA30210094
:100D0000E10020000320EE13EE189F2EAD0A0B0821
:100D1000F7008B1325082300910020002D082300E5
:100D200093009513151555309600AA30960095142A
:100D30009518982E151177088B04A32E20006F1696
:100D40008D25FD25230021008C1620008C1AEE171E
:100D5000080065257925F01AAF2E4526772608006C
:100D6000EF1DF32E21008C1022008C1421000C1199
:100D700022000C1521008C1122008C1578302100E6
:100D8000E1002000032021008C1022008C102100A3
:100D90000C1122000C1121008C1122008C115030FA
:100DA0002100E1002000032021008C1022008C147F
:100DB00021000C1122000C1521008C1122008C1531
:100DC00078302100E1002000032021008C10220057
:100DD0008C1021000C1122000C1121008C1122001A
:100DE0008C112000EF116F1E362F21000E102200F3
:100DF0000E1421000C1322000C1721008C1322006A
:100E00008C1778302100E1002000032021000E1013
:100E100022000E1021000C1322000C1321008C1351
:100E200022008C1350302100E1002000032021001B
:100E30000E1022000E1421000C1322000C172100AA
:100E40008C1322008C1778302100E1002000032051
:100E500021000E1022000E1021000C1322000C1392
:100E600021008C1322008C1320006F120800210037
:100E70008E1520008E1D452F701F452FF016701205
:100E8000AA01AD018D25FD25701321008E152000CE
:100E90008E194C2FF01270170800F01E5F2F2608D5
:100EA0002100E0000430E10020003E25F70803198E
:100EB0005F2F21000C1022000C14632F2000210052
:100EC0000C1022000C102000080026082100E00071
:100ED0000430E10020003E25F708031D7C2F21008F
:100EE0008F1322008F1321000D1022000D102100FE
:100EF0008D1022008D10200026082100E000043013
:100F0000E10020003E25770B922F21008F13220055
:100F10008F1721000D1022000D1021008D102200CE
:100F20008D10200026082100E0000430E1002000A0
:100F30003E257708023C031DAA2F21008F132200B3
:100F40008F1721000D1022000D1421008D1022009A
:100F50008D10200026082100E0000430E100200070
:100F60003E257708033C031DC12F21008F1322006B
:100F70008F1721000D1022000D1421008D1022006A
:100F80008D142000080028082100E0000330E10053
:100F900020003E25F708031DD62F21008E132200C6
:100FA0008E1321000F1222000F12200028082100AA
:100FB000E0000330E10020003E25770BE82F210000
:100FC0008E1322008E1721000F1222000F12200014
:100FD00028082100E0000330E10020003E257708CA
:100FE000023C031DFB2F21008E1322008E172100CF
:0A0FF0000F1222000F162000080067
:101000006E184E282A082100E0000330E1008031EC
:1010100020003E258831F708031D1B2821008C1075
:1010200022008C1421000C1122000C1121008C11C3
:1010300022008C1120002A082100E0000330E1008A
:10104000803120003E258831770B332821008C1019
:1010500022008C1021000C1122000C1521008C1193
:1010600022008C1120002A082100E0000330E1005A
:10107000803120003E2588317708023C031D4D2831
:1010800021008C1022008C1021000C1122000C1564
:1010900021008C1122008C1520005A2821008C1070
:1010A00022008C1021000C1122000C1121008C1147
:1010B00022008C1120000800EE18AA282D0821001B
:1010C000E0000330E100803120003E258831F70840
:1010D000031D772821000E1022000E1421000C138E
:1010E00022000C1321008C1322008C1320002D08E9
:1010F0002100E0000330E100803120003E258831EE
:10110000770B8F2821000E1022000E1021000C13E7
:1011100022000C1721008C1322008C1320002D08B4
:101120002100E0000330E100803120003E258831BD
:101130007708023C031DA92821000E1022000E1082
:1011400021000C1322000C1721008C1322008C1795
:101150002000B62821000E1022000E1021000C13D2
:1011600022000C1321008C1322008C132000080095
:101170008031B026883180313727883180314D2742
:1011800088318031B02688318031652788318031BF
:10119000C32788316E1C0020EE1C5C200800EF1F66
:1011A000282980313B2288317A082100C70079083C
:1011B000C6007808C5007708C4004308E300420869
:1011C000E2004108E1004008E0004708E700460867
:1011D000E6004508E5004408E40080312000A12233
:1011E00088317A082100CB007908CA007808C90044
:1011F0007708C8002F084B02031C2929031D10295A
:101200002E084A02031C2929031D10292D08490212
:10121000031C2929031D102948082C020318292919
:10122000701C2929803120008721883164302100F9
:10123000E1008031200003208831EF13EF166F1496
:101240006E14EF1580318D2588318031FD25883170
:101250002100200008006E186E2C2A082100E000F2
:101260000330E100803120003E258831F708031D5E
:10127000FA29AA012A08AC0080312D2288310230D7
:101280002100E000C830E1008031200003208831D7
:101290002100E00B4229803120003B2288317A086E
:1012A0002100C3007908C2007808C1007708C00097
:1012B0006430E1008031200003208831EF17701482
:1012C00080313B2288317A08DD007908DC0078081B
:1012D000DB007708DA00BF01BE016F106F18FA2932
:1012E000BE0A0319BF0ABF08031D7A293E080A3C3B
:1012F00003188029BF01BE018031A9268831B8209A
:1013000080313B2288317A08E1007908E0007808D2
:10131000DF007708DE005D082100E30020005C08A4
:101320002100E20020005B082100E10020005A08B3
:101330002100E000200061082100E7002000600893
:101340002100E60020005F082100E50020005E0883
:101350002100E40080312000A12288317A08E500D4
:101360007908E4007808E3007708E20080312D2254
:1013700088311E302100E1008031200003208831B7
:1013800080312E218831B108031DCA293008283C3C
:101390000318F82921005B0820006502031CF829C6
:1013A000031DEA2921005A0820006402031CF829C1
:1013B000031DEA292100590820006302031CF829B3
:1013C000031DEA29620821005802031CE9292000B4
:1013D000F829200080318721883164302100E10024
:1013E00080312000032088316F14EF137010AB019F
:1013F000CF206E292A082100E0000330E10080316F
:1014000020003E258831770B9F2B2A08AC002B0843
:101410002100E0000330E100803120003E258831CA
:10142000F708031DD22A80312D228831FA3021009D
:10143000E100803120000320883180312E21883165
:1014400080318721883164302100E1008031200023
:1014500003208831B108031D352A30080E3C031CD7
:10146000352A6E14EF16EF15382A6E10EF12EF11B1
:101470006E18D22A80312021883102302100E0000C
:10148000FA30E10080312000032088312100E00B98
:10149000402A803120003B2288317A08DD0079081B
:1014A000DC007808DB007708DA00BF01BE016F10AE
:1014B0006F18D22A80312021883101302100E100CB
:1014C0008031200003208831BE0A0319BF0A3F087B
:1014D000003C0318782AFF3A031D722A3E08F43CA8
:1014E0000318782ABF01BE018031A9268831B820AF
:1014F00080313B2288317A08E1007908E0007808E1
:10150000DF007708DE005D082100E30020005C08B2
:101510002100E20020005B082100E10020005A08C1
:101520002100E000200061082100E70020006008A1
:101530002100E60020005F082100E50020005E0891
:101540002100E40080312000A12288317A08E500E2
:101550007908E4007808E3007708E200690865028A
:10156000031CD12A031DC42A68086402031CD12A63
:10157000031DC42A67086302031CD12A031DC42A61
:10158000620866020318D12A8031872188316430CD
:101590002100E10080312000032088316F140230E7
:1015A000AB00582A2B082100E0000330E100803115
:1015B00020003E258831770B9F2B803120218831F8
:1015C000FA302100E1008031200003208831803191
:1015D0002E21883180318721883164302100E1005B
:1015E0008031200003208831B108031D022B300810
:1015F0000E3C031C022B8031872188316E14EF16BC
:10160000EF15052B6E10EF12EF116E189F2B803126
:101610002D22883102302100E000FA30E1008031D3
:101620002000032088312100E00B0D2B80312000A9
:101630003B2288317A08DD007908DC007808DB007D
:101640007708DA00BF01BE016F106F189F2B803141
:101650002D22883101302100E1008031200003205B
:101660008831BE0A0319BF0A3F08003C0318452B06
:10167000FF3A031D3F2B3E08F43C0318452BBF01E6
:10168000BE018031A9268831B82080313B228831C3
:101690007A08E1007908E0007808DF007708DE00CA
:1016A0005D082100E30020005C082100E20020002A
:1016B0005B082100E10020005A082100E000200022
:1016C00061082100E700200060082100E6002000FA
:1016D0005F082100E50020005E082100E400803161
:1016E0002000A12288317A08E5007908E400780812
:1016F000E3007708E20069086502031C9E2B031DC6
:10170000912B68086402031C9E2B031D912B670814
:101710006302031C9E2B031D912B620866020318B3
:101720009E2B80318721883164302100E100803197
:101730002000032088316F140230AB00252B2A08CB
:101740002100E0000330E100803120003E25883197
:101750007708023C031D6D2C2A08AC008031202143
:10176000883102302100E000C830E10080312000E3
:10177000032088312100E00BB42B803120003B2274
:1017800088317A082100C3007908C2007808C100B6
:101790007708C0006430E1008031200003208831E8
:1017A000EF17701480313B2288317A08DD00790808
:1017B000DC007808DB007708DA00BF01BE016F109B
:1017C0006F186D2CBE0A0319BF0ABF08031DEC2B4E
:1017D0003E080A3C0318F22BBF01BE018031A92646
:1017E0008831B82080313B2288317A08E1007908BD
:1017F000E0007808DF007708DE005D082100E300E4
:1018000020005C082100E20020005B082100E100CC
:1018100020005A082100E000200061082100E700B4
:10182000200060082100E60020005F082100E5009C
:1018300020005E082100E40080312000A1228831D0
:101840007A08E5007908E4007808E3007708E20008
:101850008031202188311E302100E10080312000BC
:101860000320883180312E218831B108031D3C2CA2
:101870003008283C03186B2C21005B08200065020F
:10188000031C6B2C031D5C2C21005A0820006402F1
:10189000031C6B2C031D5C2C2100590820006302E3
:1018A000031C6B2C031D5C2C620821005802031CD6
:1018B0005B2C20006B2C2000803187218831643024
:1018C0002100E10080312000032088316F14EF13E4
:1018D00070100130AB00CF20E02B7A2C21008C104F
:1018E00022008C1021000C1122000C1121008C11FF
:1018F00022008C1120000800F01CD52C80313B22E6
:1019000088317A082100D3007908D2007808D10004
:101910007708D0004F08E3004E08E2004D08E100D0
:101920004C08E0005308E7005208E6005108E500C3
:101930005008E40080312000A12288317A0821007B
:10194000D7007908D6007808D5007708D400330886
:101950005702031CD62C031DBD2C32085602031C53
:10196000D62C031DBD2C31085502031CD62C031D9B
:10197000BD2C540830020318D62C701DD62C803193
:101980002000A321883164302100E1008031200053
:1019900003208831F0106F17EF14EE146F168031AA
:1019A0008D2588318031FD258831210020000800F7
:1019B00026082100E0000430E100803120003E25AF
:1019C0008831F708031DEE2CA6012608A700B501F3
:1019D000B40125009801F0309A0520002608210066
:1019E000E0000430E100803120003E258831770B93
:1019F000662D2608A700C101C00122001D101D127E
:101A000021008E1022008E100C3025009A009B01C0
:101A10009C011E119E1101309D002000B408031D81
:101A20005B2DB508031D5B2DB501B4013508013CE4
:101A3000031C4F2D031D202D3408F43C031C4F2D97
:101A40003508F9003408F800F90CF80CF90CF80C1A
:101A5000F90C780825009800F90C790C3039F7005A
:101A60001A08CF3977049A0005302100E10080314F
:101A7000200003208831C00A0319C10AC108031DD0
:101A8000452D4008643C03184B2DC101C001803135
:101A9000A9268831B820B40A0319B50A162D0130D9
:101AA000B500F430B4007D30250098001A08CF3915
:101AB0009A00652D20000130B500F430B4007D306F
:101AC000250098001A08CF399A0020002608210026
:101AD000E0000430E100803120003E2588317708A5
:101AE000023C031D322E2608A700C101C0012200BE
:101AF0001D101D1221008E1022008E100C302500AA
:101B00009A009B019C011E119E1101309D00200036
:101B1000B408031DD62DB508031DD62DB501B4019B
:101B20003508023C031CC92D031D9A2D3408EE3CD8
:101B3000031CC92D3508F9003408F800F90CF80C1D
:101B4000F90CF80CF90C780825009800F90C790CC0
:101B50003039F7001A08CF3977049A000530210090
:101B6000E1008031200003208831C00A0319C10A36
:101B7000C108031DBF2D4008643C0318C52DC101D9
:101B8000C0018031A9268831B820B40A0319B50AEA
:101B9000902D0230B500EE30B400BB302500980027
:101BA0001A08CF3920389A00312E20003408F43C2E
:101BB000031D262E350B262E0130B500F430B4005F
:101BC0003508023C031C192E031DEA2D3408EE3C97
:101BD000031C192E3508F9003408F800F90CF80C2C
:101BE000F90CF80CF90C780825009800F90C790C20
:101BF0003039F7001A08CF3977049A0005302100F0
:101C0000E1008031200003208831C00A0319C10A95
:101C1000C108031D0F2E4008643C0318152EC10196
:101C2000C0018031A9268831B820B40A0319B50A49
:101C3000E02D0230B500EE30B400BB302500980036
:101C40001A08CF3920389A00312E20000230B50012
:101C5000EE30B400BB30250098001A08CF39203888
:101C60009A00200026082100E0000430E1008031C5
:101C700020003E2588317708033C031D392F2608B4
:101C8000A700C101C00122001D101D1221008E10ED
:101C900022008E100C3025009A009B019C011E1121
:101CA0009E1101309D002000B408031D9B2EB50835
:101CB000031D9B2EB501B4013508033C031C8F2E78
:101CC0003508F9003408F800F90CF80CF90CF80C98
:101CD000F90C780825009800F90C790C3039F700D8
:101CE0001A08CF3977049A0005302100E1008031CD
:101CF000200003208831C00A0319C10AC108031D4E
:101D0000852E4008643C03188B2EC101C001803130
:101D1000A9268831B820B40A0319B50A5C2E03300D
:101D2000B500FF30B400250098001A08CF393038CC
:101D30009A00392F20003408F43C031DE42E350BA3
:101D4000E42E0130B500F430B4003508033C031C28
:101D5000D82E3508F9003408F800F90CF80CF90C05
:101D6000F80CF90C780825009800F90C790C30393A
:101D7000F7001A08CF3977049A0005302100E100F6
:101D80008031200003208831C00A0319C10AC1082C
:101D9000031DCE2E4008643C0318D42EC101C0019F
:101DA0008031A9268831B820B40A0319B50AA52EB6
:101DB0000330B500FF30B400250098001A08CF3971
:101DC00030389A00392F20003408EE3C031D2F2FA5
:101DD0003508023C031D2F2F0230B500EE30B40051
:101DE0003508033C031C232F3508F9003408F8009C
:101DF000F90CF80CF90CF80CF90C7808250098008F
:101E0000F90C790C3039F7001A08CF3977049A00A9
:101E100005302100E1008031200003208831C00A14
:101E20000319C10AC108031D192F4008643C031897
:101E30001F2FC101C0018031A9268831B820B40A02
:101E40000319B50AF02E0330B500FF30B4002500A9
:101E500098001A08CF3930389A00392F2000033003
:101E6000B500FF30B400250098001A08CF3930388B
:101E70009A00200008002B21903100208831D824BE
:101E80009031442388318031652788318031C327E0
:101E9000883100205C2080318D2588318031FD25FE
:101EA000883180313727883180314D27883198310A
:021EB000E12827
:10200000EE18362B2D082100E0000330E10080316E
:1020100020003E259031F708031DC928AD012D0889
:10202000AF0080319322903102302100E000C830AF
:10203000E10080312000032090312100E00B1728BF
:10204000803120003B2290317A082100CF007908AE
:10205000CE007808CD007708CC006430E1008031F4
:10206000200003209031F014701580313B22903114
:102070007A08ED007908EC007808EB007708EA00B0
:10208000BF01BE01EF10EF18C928BE0A0319BF0A2D
:10209000BF08031D4F283E080A3C03185728BF01FC
:1020A000BE018031A92690318831B820903180312D
:1020B0003B2290317A082100A3007908A200780819
:1020C000A1007708A00020006D082100E300200097
:1020D0006C082100E20020006B082100E1002000D4
:1020E0006A082100E0002308E7002208E600210832
:1020F000E5002008E40080312000A12290317A0818
:102100002100A7007908A6007808A5007708A40098
:1021100080312000932290311E302100E100803177
:1021200020000320903180312E219031B108031D11
:102130009D283008283C0318C32821005F08270287
:10214000031CC428031DB4285E082602031CC428EF
:10215000031DB4285D082502031CC428031DB428F0
:1021600024085C020318C42880312000A321903188
:1021700064302100E1008031200003209031EF1411
:10218000F0107011AE012100883120007C249031C4
:1021900043282D082100E0000330E10080312000B9
:1021A0003E259031770B6B2A2D08AF002E082100B9
:1021B000E0000330E100803120003E259031F70837
:1021C000031DA129803193229031FA302100E100D2
:1021D000803120000320903180312E2190318031D8
:1021E000A321903164302100E100803120000320E0
:1021F0009031B108031D042930080E3C031C04294A
:10220000EE146F176F160729EE106F136F12EE188A
:10221000A12980319521903102302100E000FA306F
:10222000E10080312000032090312100E00B0F29D4
:10223000803120003B2290317A08ED007908EC00D3
:102240007808EB007708EA00BF01BE01EF10EF1835
:10225000A12980319521903101302100E1008031A8
:10226000200003209031BE0A0319BF0A3F08003C3A
:1022700003184929FF3A031D41293E08F43C03187D
:102280004929BF01BE018031A92690318831B8208B
:10229000903180313B2290317A082100A3007908E7
:1022A000A2007808A1007708A00020006D08210096
:1022B000E30020006C082100E20020006B082100F0
:1022C000E10020006A082100E0002308E70022085E
:1022D000E6002108E5002008E40080312000A1226A
:1022E00090317A082100A7007908A6007808A50097
:1022F0007708A4002B082702031C9F29031D90299F
:102300002A082602031C9F29031D9029290825025B
:10231000031C9F29031D90292408280203189F29C4
:1023200080312000A321903164302100E100803110
:10233000200003209031EF140230AE002100200075
:1023400027292E082100E0000330E1008031200021
:102350003E259031770B6B2A803195219031FA30F0
:102360002100E100803120000320903180312E21B6
:1023700090318031A321903164302100E10080311F
:10238000200003209031B108031DCE2930080E3CF7
:10239000031CCE29EE146F176F16D129EE106F13A0
:1023A0006F12EE186B2A8031932290310230210097
:1023B000E000FA30E100803120000320903121005C
:1023C000E00BD929803120003B2290317A08ED00C2
:1023D0007908EC007808EB007708EA00BF01BE013D
:1023E000EF10EF186B2A80319322903101302100D9
:1023F000E1008031200003209031BE0A0319BF0A9A
:102400003F08003C0318132AFF3A031D0B2A3E081D
:10241000F43C0318132ABF01BE018031A926903174
:102420008831B820903180313B2290317A082100E8
:10243000A3007908A2007808A1007708A000200076
:102440006D082100E30020006C082100E20020005C
:102450006B082100E10020006A082100E000230849
:10246000E7002208E6002108E5002008E4008031AA
:102470002000A12290317A082100A7007908A60047
:102480007808A5007708A4002B082702031C692AF6
:10249000031D5A2A2A082602031C692A031D5A2AE8
:1024A00029082502031C692A031D5A2A2408280228
:1024B0000318692A80312000A32190316430210063
:1024C000E1008031200003209031EF140230AE0093
:1024D00021002000F1292D082100E0000330E10057
:1024E000803120003E2590317708023C031D352BBA
:1024F0002D08AF0080319521903102302100E0009D
:10250000C830E10080312000032090312100E00B31
:10251000802A803120003B2290317A082100CF00B0
:102520007908CE007808CD007708CC0080312000F3
:102530003B2290317A08ED007908EC007808EB0036
:102540007708EA0064302100E10080312000032098
:102550009031F0147015BF01BE01EF10EF18352B4C
:10256000BE0A0319BF0ABF08031DBA2A3E080A3C67
:102570000318C22ABF01BE018031A92690318831DB
:10258000B820903180313B2290317A082100A3009D
:102590007908A2007808A1007708A00020006D0843
:1025A0002100E30020006C082100E20020006B08FD
:1025B0002100E10020006A082100E0002308E70074
:1025C0002208E6002108E5002008E4008031200010
:1025D000A12290317A082100A7007908A600780886
:1025E000A5007708A40080312000952190311E308D
:1025F0002100E100803120000320903180312E2124
:102600009031B108031D082B3008283C03182F2BEC
:1026100021005F082702031C302B031D1F2B5E08BF
:102620002602031C302B031D1F2B5D082502031CF3
:10263000302B031D1F2B24085C020318302B803124
:102640002000A321903164302100E100803120007E
:1026500003209031EF14F01070110130AE00210012
:10266000883120007C249031AE2A422B21000E10AC
:1026700022000E1021000C1322000C1321008C13D9
:1026800022008C132000080028082100E0000330FD
:10269000E100803120003E259031F708031D5A2BC0
:1026A000A8012808A900B701B60125009101F03062
:1026B0009305200028082100E0000330E10080316C
:1026C00020003E259031770BD12B2808A900C101AD
:1026D000C00121000E1122000E110C3025009300C4
:1026E000940195011E109E10013096002000B6083E
:1026F000031DC62BB708031DC62BB701B60137084B
:10270000023C031CBA2B031D892B3608BC3C031C5E
:10271000BA2B3708F9003608F800F90CF80CF90C58
:10272000F80CF90C780825009100F90C790C303977
:10273000F7001308CF397704930005302100E1003A
:102740008031200003209031C00A0319C10AC1085A
:10275000031DAE2B4008643C0318B62BC101C00119
:102760008031A92690318831B8209031B60A0319FA
:10277000B70A7F2B0230B700BC30B600AF3025005F
:1027800091001308CF399300D02B20000230B700FE
:10279000BC30B600AF30250091001308CF3993004C
:1027A000200028082100E0000330E10080312000F3
:1027B0003E2590317708023C031D902C2808A90083
:1027C000C101C00121000E1122000E110C302500A4
:1027D0009300940195011E109E1001309600200078
:1027E000B608031D392CB708031D392CB701B601F3
:1027F0003708033C031C2D2C3708F9003608F80075
:10280000F90CF80CF90CF80CF90C7808250091007B
:10281000F90C790C3039F7001308CF39770493009D
:1028200005302100E1008031200003209031C00AF2
:102830000319C10AC108031D212C4008643C031878
:10284000292CC101C0018031A92690318831B820DE
:102850009031B60A0319B70AF82B0330B700FF30DE
:10286000B600250091001308CF3930389300902C22
:1028700020003608BC3C031D862C3708023C031D93
:10288000862C0230B700BC30B6003708033C031C6E
:102890007A2C3708F9003608F800F90CF80CF90C16
:1028A000F80CF90C780825009100F90C790C3039F6
:1028B000F7001308CF397704930005302100E100B9
:1028C0008031200003209031C00A0319C10AC108D9
:1028D000031D6E2C4008643C0318762CC101C00116
:1028E0008031A92690318831B8209031B60A031979
:1028F000B70A452C0330B700FF30B6002500910021
:102900001308CF3930389300902C20000330B700E3
:10291000FF30B600250091001308CF3930389300FE
:10292000200008008031B0269031EF1EED2D80315F
:102930002D22903102302100E000FA30E100803198
:102940002000032090312100E00B9D2C80312000DD
:10295000A92690318831B820903180312E219031D4
:1029600080318721903164302100E10080312000E6
:1029700003209031B108031DC12C3008283C0318F6
:10298000ED2D8031872190316E10EF12F01FE62D72
:1029900080312021903102302100E000FA30E10046
:1029A00080312000032090312100E00BCE2C20004C
:1029B000BF01BE01F110F118142DBE0A0319BF0AA0
:1029C000BF08031DE72C3E080A3C0318EF2CBF018B
:1029D000BE018031A92690318831B82090318031F4
:1029E000202190311E302100E100803120000320A1
:1029F000903180312E219031B108031D032D300814
:102A0000283C0318132D6E106F106E11EF12F01387
:102A1000F11480318721903164302100E100803150
:102A2000200003209031DB2C80312D2290310230A8
:102A30002100E000FA30E1008031200003209031D5
:102A40002100E00B1A2D803120003B2290317A08C2
:102A5000DD007908DC007808DB007708DA00BF01C8
:102A6000BE01F110F118712D80312D22903101300D
:102A70002100E1008031200003209031BE0A0319BB
:102A8000BF0ABF08031D482D3E08193C0318502DEE
:102A9000BF01BE018031A92690318831B820903124
:102AA00080313B2290317A08E1007908E000780813
:102AB000DF007708DE0080312E219031B108031D40
:102AC000652D3008283C0318702DF11480318721C2
:102AD000903164302100E1008031200003209031EA
:102AE000322D6E18E62D5D082100E30020005C0801
:102AF0002100E20020005B082100E10020005A08CC
:102B00002100E000200061082100E70020006008AB
:102B10002100E60020005F082100E50020005E089B
:102B20002100E40080312000A12290317A08E500E4
:102B30007908E4007808E3007708E2009030620248
:102B40002100D80001302000633B2100D900003073
:102B50002000643B2100DA0000302000653B2100AA
:102B6000DB0003102000620D2100AC002000630D8B
:102B70002100AD002000640D2100AE002000650D95
:102B80002100AF0003102000650C2100E3002000AD
:102B9000640C2100E2002000630C2100E100200011
:102BA000620C2100E000203060022000E6000330CB
:102BB0002100613B2000E70000302100623B200043
:102BC000E80000302100633B2000E900AB018831C0
:102BD0002B2190318831002090316F1F212F8031BF
:102BE0009322903102302100E000FA30E100803180
:102BF0002000032090312100E00BF52D80312000D2
:102C0000A92690318831B820903180312E21903121
:102C10008031A321903164302100E1008031200017
:102C200003209031B108031D192E3008283C0318E9
:102C3000212F8031A3219031EE106F13711C1C2FB6
:102C400080319521903102302100E000FA30E1001E
:102C500080312000032090312100E00B262E20003F
:102C6000BF01BE01711171196C2EBE0A0319BF0A92
:102C7000BF08031D3F2E3E080A3C0318472EBF0124
:102C8000BE018031A92690318831B8209031803141
:102C9000952190311E302100E10080312000032079
:102CA000903180312E219031B108031D5B2E300808
:102CB000283C03186B2EEE10EF10EE116F137110FD
:102CC00071158031A321903164302100E100803101
:102CD000200003209031332E803193229031023036
:102CE0002100E000FA30E100803120000320903123
:102CF0002100E00B722E803120003B2290317A08B7
:102D0000ED007908EC007808EB007708EA00BF01D5
:102D1000BE0171117119CB2E803193229031013097
:102D20002100E1008031200003209031BE0A031908
:102D3000BF0ABF08031DA02E3E08193C0318A82E89
:102D4000BF01BE018031A92690318831B820903171
:102D500080313B2290317A082100A3007908A2003B
:102D60007808A1007708A000803120002E21903142
:102D7000B108031DBF2E3008283C0318CA2E711558
:102D80008031A321903164302100E10080312000A6
:102D9000032090318A2EEE181C2F6D082100E300CD
:102DA00020006C082100E20020006B082100E100F7
:102DB00020006A082100E0002308E7002208E6005E
:102DC0002108E5002008E40080312000A122903194
:102DD0007A082100A7007908A6007808A5007708DE
:102DE000A40090302402DC000130253BDD000030DF
:102DF000263BDE000030273BDF000310240DB0002F
:102E0000250DB100260DB200270DB3000310270CCD
:102E1000E300260CE200250CE100240CE000203049
:102E20006002A8000330613BA9000030623BAA00A9
:102E30000030633BAB002000AE01002088315C20F5
:102E4000903180318D2590318031FD259031803158
:102E50003727903180314D279031270826020319FA
:102E6000342F8831D824903129082802031D4423A7
:102E70006E18412F2C082A020319412F88312B216B
:102E80009031EE18472F2F082D02031D0020983196
:022E9000F52823
:103000006A30210099002000A301A201A101A001C2
:1030100022009D12353020009800990196019701F9
:10302000960111100130A4000230A500FF30A60067
:10303000A700A800A900AA00AB00AC00AD00AE003C
:10304000AF00B101B001B301B201B501B401B701E4
:10305000B601B901B801BB01BA01BD01BC01BF0194
:10306000BE01C101C001C501C401C301C201C90142
:10307000C801C701C601CD01CC01CB01CA01D101F4
:10308000D001CF01CE01D501D401D301D201D901A4
:10309000D801D701D601DD01DC01DB01DA01E10154
:1030A000E001DF01DE01E501E401E301E201E90104
:1030B000E801E701E601ED01EC01EB01EA01210085
:1030C000A301A201A101A001A701A601A501A401DC
:1030D000AB01AA01A901A801AF01AE01AD01AC018C
:1030E000B301B201B101B001B701B601B501B4013C
:1030F000BB01BA01B901B801BF01BE01BD01BC01EC
:10310000C301C201C101C001C701C601C501C4019B
:10311000CB01CA01C901C801CF01CE01CD01CC014B
:10312000D301D201D101D001D701D601D501D401FB
:10313000DB01DA01D901D801DF01DE01DD01DC01AB
:1031400020006E10EE106E11EE116E16EE166E1758
:10315000EE176F10EF106F15EF116F12EF126F1364
:10316000EF137010F0107011F0117012F012701750
:10317000F0137110F11071112F009101920198015B
:1031800099019A0123008C018D018F019001220089
:103190009201910194019301803120001928983106
:1031A0008031B12998318031BE2A98318031EE2B9F
:1031B00098318031D82C98318031202D9831883148
:1031C0003B2F9831803165259831803179259831B0
:1031D000F01AF028803145269831803177269831D1
:1031E0008831B82098319031922C9831E2286300D0
:020000040001F9
:04000E00A439FF1EF4
:00000001FF
;PIC16F1939
;CRC=0714  CREATED="21-Mar-19 14:17"
