:100000009031162D000020308500A43084000008B7
:10001000031918280130F800F701F70B0D28F80B29
:100020000C284A30F700F70B13281628800B0A28F3
:10003000080021008C0122008C0121008D0122008A
:100040008D0121008E0122008E0121008F012200EE
:100050008F012100101090101011901122009001BA
:100060000430A000FA30A400200003202200A00BDE
:10007000322820306500C0306600803067000030D4
:1000800021008F00101090101011901502302200E6
:10009000A400200003200030F80004389C00323017
:1000A0009B0021000E1122000E1121000E112200D2
:1000B0000E110C3025009300940195011E109E1026
:1000C00001309600F03093051030F700F70B6628EA
:1000D000000021001E109E101E11203023008C00F5
:1000E000003090008D008F0021001E169E121E13FE
:1000F0009E171D1402302200A400200003202200BD
:10010000A301A201A101A00123082000A100220057
:1001100022082000A00022002108200097002200D1
:1001200020082000960090310C2E21008E12220013
:100130008E1621000F1122000F1121000E12220035
:100140000E1621008F1122008F11200008002200BE
:1001500024082000111EAA2823009A00200008006D
:1001600023080339031DBA2821008D1222008D12A5
:10017000BE28200021008D1222008D1620000800CC
:1001800022002508F80124020318C9282408F700D2
:10019000D528F7010830A600A40DF70D2508770231
:1001A0000318F700F80DA60BCC2820000800111C3E
:1001B000DE28A00A0319A10A1110ED281708FA0079
:1001C0001608F70017087A02031DDE287708111CAD
:1001D000F628A00A0319A10A11101708FA00160838
:1001E000F70017087A02031DED287708F7007A0850
:1001F000F8002008F9002108FA00080070191C29ED
:1002000026082200A4000330A5002000C020F70823
:10021000031D0C2974101B297414F31F1B29F313DD
:10022000D7207A082100E7007908E6007808E50081
:100230007708E40020001D2974100800220024081B
:1002400028022000BC0022002508293B2000BD0018
:10025000220026082A3B2000BE00220027082B3B54
:100260002000BF003C08F7003D08F8003E08F900F8
:100270003F08FA000800741C8F29F31B8E29D72031
:100280007A082100EB007908EA007808E90077088D
:10029000E80067082200A700210066082200A600E7
:1002A000210065082200A500210064082200A400A6
:1002B00021006B082200AB0021006A082200AA007E
:1002C000210069082200A900210068082200A80076
:1002D00020001E217A082100EF007908EE0078083E
:1002E000ED007708EC00EF08031D88296E081D3C1F
:1002F00003188D29FF3A031D88296D08833C0318D4
:100300008D29FF3A031D88296C08803C03188D292C
:10031000F3170D1222000D16210020009429F31767
:1003200021000D1222000D1220000800911E842AC7
:10033000911E9829230019082000A2002208313CB0
:10034000031DAF29A30114302200A40020000320C4
:1003500051302200A4002000A720A201B0202208D2
:10036000323C031DC1290130A30014302200A40037
:100370002000032052302200A4002000A720A20168
:10038000B0202208333C031DD3290230A3001430CF
:100390002200A4002000032053302200A4002000EB
:1003A000A720A201B0202208343C031DE529033018
:1003B000A30014302200A4002000032054302200A7
:1003C000A4002000A720A201B0202208383C031D71
:1003D000F529A40114302200A40020000320583085
:1003E0002200A4002000A720A2012208393C031DFE
:1003F000062A0130A40014302200A40020000320AB
:1004000059302200A4002000A720A20122083A3C73
:10041000031D172A0230A40014302200A40020007B
:10042000032060302200A4002000A720A20122089F
:100430003E3C031D272AA50114302200A400200001
:10044000032061302200A4002000A720A20122087E
:100450003F3C031D382A0130A50014302200A400BF
:100460002000032062302200A4002000A720A20167
:100470002208403C031D4A2AA60114302200A40091
:100480002000032063302200A4002000A720A20146
:10049000FE203B212208413C031D5B2A0130A600BF
:1004A00014302200A4002000032064302200A400A5
:1004B0002000A720A2012208423C031D6C2A023022
:1004C000A60014302200A400200003206530220082
:1004D000A4002000A720A2012208943C031974164E
:1004E0002208953C0319F4162208963C0319741748
:1004F0002208843C0319F4142208853C031974155E
:100500002208863C0319F41508001030F800210079
:100510001D08833978049D002000B901B801AD01A0
:100520002D08093C031CAB2A02302200A400200045
:100530000320962121009D149D189C2A1C08FA0076
:100540001B082000B6007A08B7003608B80737083D
:10055000B93DAD0A902A39082200A10020003808D0
:100560002200A000A3010A30A200F801F901F7015E
:10057000FA012308031DBF2A22080319D92A1030C3
:10058000A4000310A00DA10DF70DFA0D23087A02A7
:10059000031DCC2A22087702031CD52A2208F70261
:1005A000031CFA032308FA020314F80DF90DA40B37
:1005B000C12A79082000B7007808B6000800210099
:1005C0008E1222008E1221000E1222000E12210025
:1005D0008F1122008F112000080021008E122200AE
:1005E0008E1621000F1122000F1521000E1222007D
:1005F0000E1621008F1122008F1521000F102200EE
:100600000F1021008F1022008F1020000800210001
:100610008E1222008E1221000F1122000F112100D4
:100620000E1222000E1221008F1122008F112100C4
:100630000F1022000F1021008F1022008F102000B9
:10064000080021000F1122000F1521008E12220038
:100650008E1221000F1022000F1421008F10220093
:100660008F102000080021000F1122000F1121001F
:100670000F1022000F1021008F1022008F10200079
:1006800008007014F215F017F0157217F0147216B6
:1006900071147016F2177015F216F114F016731427
:1006A0009520FA302200A40020000320B101B001FF
:1006B0003108013C031C832B031D622B30082B3CAB
:1006C000031C832B952014302200A400200003205B
:1006D0008522B708031D702B3608233C03187F2B97
:1006E0007010F211F0117213F0130130B1002C30C0
:1006F000B000DF2214302200A40020000320B00A42
:100700000319B10A582BED22FA302200A400200070
:100710000320B301B2013308013C031CB62B031DB7
:10072000952B32082B3C031CB62BED2214302200F3
:10073000A400200003208522B708031DA32B360840
:10074000233C0318B22BF01072127012F2137110C6
:100750000130B3002C30B200072314302200A40073
:1007600020000320B20A0319B30A8B2B2123FA308D
:100770002200A40020000320B501B4013508013C8B
:10078000031CE92B031DC82B34082B3C031CE92B4D
:10079000212314302200A400200003208522B70862
:1007A000031DD62B3608233C0318E52B7011F212DB
:1007B000F0127310F1100130B5002C30B400332367
:1007C00014302200A40020000320B40A0319B50A43
:1007D000BE2B90310F2E21008E1222008E1621008A
:1007E0000F1122000F1121000E1222000E12210003
:1007F0008F1122008F152000080021008E12220088
:100800008E1621000F1122000F1521000E1222005A
:100810000E1221008F1122008F1121000F102200D3
:100820000F1421008F1022008F14200008002100D7
:100830000F1122000F1521008E1222008E122100AE
:100840000F1022000F1021008F1022008F142000A3
:1008500008007018572C7017EB23FA302200A40000
:1008600020000320D7207A08C3007908C200780846
:10087000C1007708C000701F572CD7207A08C70026
:100880007908C6007808C5007708C400EB238522E4
:10089000B708031D4F2C3608233C0318562C701341
:1008A000DF2214302200A400200003203B2CF0188B
:1008B000852C7017FD23FA302200A40020000320AD
:1008C000D7207A08DB007908DA007808D9007708A1
:1008D000D800701F852CD7207A08DF007908DE0049
:1008E0007808DD007708DC00FD238522B708031DAA
:1008F0007D2C3608233C0318842C701307231430F6
:100900002200A40020000320692C7019B52C701758
:100910001724FA302200A40020000320D7207A08F0
:10092000EF007908EE007808ED007708EC00701F02
:10093000B52CD7207A082100A3007908A2007808F6
:10094000A1007708A000200017248522B708031D06
:10095000AD2C3608233C0318B42C70133323143009
:100960002200A40020000320972C7018182D4308A3
:100970002200A700200042082200A6002000410813
:100980002200A500200040082200A4002000470803
:100990002200AB00200046082200AA0020004508E3
:1009A0002200A900200044082200A80020001E21E7
:1009B0007A08CB007908CA007808C9007708C8000F
:1009C00040304802D0000D30493BD10003304A3B53
:1009D000D20000304B3BD3000310480DCC00490D32
:1009E000CD004A0DCE004B0DCF0003104B0C220062
:1009F000A30020004A0C2200A2002000490C220083
:100A0000A1002000480C2200A000E03020022000BD
:100A1000D40093302200213B2000D5000430220076
:100A2000223B2000D60000302200233B2000D700CC
:100A3000F018582D5B082200A70020005A08220059
:100A4000A600200059082200A50020005808220016
:100A5000A40020005F082200AB0020005E082200F6
:100A6000AA0020005D082200A90020005C082200E6
:100A7000A80020001E217A08E3007908E200780827
:100A8000E1007708E00040306002E8000D30613B93
:100A9000E9000330623BEA000030633BEB000310E7
:100AA000600DE400610DE500620DE600630DE700F6
:100AB0007019BD2D6F082200A70020006E082200CB
:100AC000A60020006D082200A50020006C0822006E
:100AD000A400210023082200AB00210022082200EC
:100AE000AA00210021082200A900210020082200DC
:100AF000A80020001E217A082100A7007908A6007E
:100B00007808A5007708A40040302402AC000D301E
:100B1000253BAD000330263BAE000030273BAF0045
:100B20000310240DA800250DA900260DAA00270DED
:100B3000AB000310270C2200A3002100260C22008A
:100B4000A2002100250C2200A1002100240C22007B
:100B5000A000F03020022100B00049302200213BEB
:100B60002100B10002302200223B2100B2000030FF
:100B70002200233B2100B30020009031122E2030B0
:100B80002200B000AC01AD01AE01AF012708FA00B0
:100B90002608F9002508F8002408F7000310771C40
:100BA000DF2D2808AC0729080318290FAD072A08EC
:100BB00003182A0FAE072B0803182B0FAF07AF0C33
:100BC000AE0CAD0CAC0CFA0CF90CF80CF70CB00B2D
:100BD000CE2D20000800911E222F911EED2D230006
:100BE00019082000A2002208023C0319F112220871
:100BF000073C031971132208103C0319F113220852
:100C0000133C031972102208043C0319F210220845
:100C1000143C031972112208163C031D1A2EF417F6
:100C200014302200A4002000032017302200A4006A
:100C30002000A7202208183C031D292E751414300B
:100C40002200A4002000032019302200A40020006C
:100C5000A7202208313C031D392EA30114302200A5
:100C6000A4002000032020302200A4002000A720A0
:100C7000A2012208383C031D492EA4011430220091
:100C8000A4002000032022302200A4002000A7207E
:100C9000A2012208393C031D5A2E0130A400143051
:100CA0002200A4002000032022302200A400200003
:100CB000A720A20122083A3C031D6B2E0230A4009B
:100CC00014302200A4002000032022302200A400BF
:100CD0002000A720A20122083B3C031D7B2EAB0174
:100CE00014302200A4002000032023302200A4009E
:100CF0002000A720A20122083C3C031D8C2E0130BD
:100D0000AB0014302200A400200003202330220076
:100D1000A4002000A720A20122083D3C031D9D2E17
:100D20000230AB0014302200A40020000320233046
:100D30002200A4002000A720A20122083E3C031D9F
:100D4000AD2EA50114302200A40020000320243081
:100D50002200A4002000A720A20122083F3C031D7E
:100D6000BE2E0130A50014302200A4002000032074
:100D700024302200A4002000A720A2012208403C29
:100D8000031DCE2EA60114302200A4002000032053
:100D900025302200A4002000A720A2012208413C07
:100DA000031DDF2E0130A60014302200A400200015
:100DB000032025302200A4002000A720A201220841
:100DC000423C031DF02E0230A60014302200A40085
:100DD0002000032025302200A4002000A720A2012B
:100DE0002208433C031D002FAC0114302200A40054
:100DF0002000032026302200A4002000A720A2010A
:100E00002208443C031D112F0130AC001430220095
:100E1000A4002000032026302200A4002000A720E8
:100E2000A2012208453C031D222F0230AC001430E1
:100E30002200A4002000032026302200A40020006D
:100E4000A720A201080022002308A7002208A6006C
:100E50002108A5002008A400AB01AA010330A900C5
:100E6000E830A8002000BF257A082200A3007908F6
:100E7000A2007808A1007708A0002000D7207A08F7
:100E80002100B7007908B6007808B5007708B400EB
:100E90002000D7207A082200A7007908A600780849
:100EA000A5007708A4000A3024072100B80000300C
:100EB0002200253D2100B90000302200263D2100FE
:100EC000BA0000302200273D2100BB003708220075
:100ED000A700210036082200A600210035082200C4
:100EE000A500210034082200A40021003B082200B4
:100EF000AB0021003A082200AA0021003908220094
:100F0000A900210038082200A80020001E217A082C
:100F10002100BF007908BE007808BD007708BC003A
:100F20003F0822002302031CE92F031DAF2F2100DD
:100F30003E0822002202031CE92F031DAF2F2100CF
:100F40003D0822002102031CE92F031DAF2F2008BA
:100F500021003C02031CAE2F2200E92F22002000BA
:100F6000D7207A082100BB007908BA007808B900B8
:100F70007708B80037082200A700210036082200B1
:100F8000A600210035082200A50021003408220017
:100F9000A40021003B082200AB0021003A082200F7
:100FA000AA00210039082200A900210038082200E7
:100FB000A80020001E217A082100BF007908BE0089
:100FC0007808BD007708BC002000EB252100902F99
:100FD000220020000800A301A401A501A601AB0185
:100FE000AC01FF30A700A800A900AA009031182E7C
:10100000F116F11E152801302200A40080312000C5
:10101000A72088312200A301A201A1013230A00043
:10102000803120002327883101287117711F35284E
:10103000701C212805302200A40080312000A72048
:10104000883170182A2806302200A4008031200040
:10105000A72088312200A301A201A1013230A00003
:1010600080312000232788311628F117F11F5528D9
:10107000F01C412808302200A40080312000A72065
:101080008831F0184A2809302200A400803120005D
:10109000A72088312200A301A201A1013230A000C3
:1010A000803120002327883136287214721C75285D
:1010B000701D612811302200A40080312000A7207B
:1010C000883170196A2812302200A4008031200073
:1010D000A72088312200A301A201A1013230A00083
:1010E00080312000232788315628F214F21C8A28E8
:1010F00003302200A40080312000A7208831220084
:10110000A301A201A1013230A000803120002327D9
:10111000883176287215721D98282200A301A20139
:10112000A1013230A00080312000232788318B2894
:1011300015302200A40080312000A7208831903192
:10114000152EF413F41BA8288031EB258831A22832
:1011500075107518AF288031EB258831A92890319A
:101160001B2E22002308A7002208A6002108A500A4
:101170002008A400AB01AA010330A900E830A800B0
:1011800080312000BF2588317A082200A300790829
:10119000A2007808A1007708A00080312000D720A5
:1011A00088317A082100B7007908B6007808B500C0
:1011B0007708B40080312000D72088317A082200D7
:1011C000A7007908A6007808A5007708A4000A30CF
:1011D00024072100B80000302200253D2100B9007D
:1011E00000302200263D2100BA0000302200273DB9
:1011F0002100BB0037082200A7002100360822008A
:10120000A600210035082200A50021003408220094
:10121000A40021003B082200AB0021003A08220074
:10122000AA00210039082200A90021003808220064
:10123000A800803120001E2188317A082100BF00DB
:101240007908BE007808BD007708BC003F0822007E
:101250002302031C8529031D452921003E08220085
:101260002202031C8529031D452921003D08220077
:101270002102031C8529031D4529200821003C0269
:10128000031C442922008529220080312000D72018
:1012900088317A082100BB007908BA007808B900C3
:1012A0007708B80037082200A7002100360822007E
:1012B000A600210035082200A500210034082200E4
:1012C000A40021003B082200AB0021003A082200C4
:1012D000AA00210039082200A900210038082200B4
:1012E000A800803120001E2188317A082100BF002B
:1012F0007908BE007808BD007708BC008031200066
:101300009621883121002629220020000800721F22
:10131000A32A8031EB2388312200A301A201A1017D
:10132000FA30A0002000B120803185228831803140
:10133000DF2288312200A301A201A1011430A00004
:101340002000B120B708031DA9293608233C031843
:10135000A32A70107213FF30A800AB01F410F41828
:10136000C12981302200A40080312000A7208831CB
:101370002200A301A201A1013230A0002000B1206F
:10138000AF292200A301A201A1016430A000200026
:10139000B120F01FA32A8031952088312200A301BB
:1013A000A201A101FA30A0002000B1207111711931
:1013B000002A8031952088312200A301A201A101D9
:1013C0001430A0002000B120803185228831B70878
:1013D000031DEE293608233C0318FF297010F21173
:1013E000F0117213F01371158031DF228831220061
:1013F000A301A201A1011430A0002000B120D7292F
:101400008031EB2388312200A301A201A101FA302F
:10141000A0002000B1208031D72088317A08C30095
:101420007908C2007808C1007708C00071117119ED
:101430003E2A8031EB2388318031D72088317A08E9
:10144000C7007908C6007808C5007708C400803155
:1014500085228831B708031D312A3608233C03183A
:101460003D2A71158031DF2288312200A301A201BB
:10147000A1011430A0002000B120172A7018A32A5F
:1014800043082200A700200042082200A6002000F6
:1014900041082200A500200040082200A4002000EE
:1014A00047082200AB00200046082200AA002000C6
:1014B00045082200A900200044082200A80080312D
:1014C00020001E2188317A08CB007908CA007808EC
:1014D000C9007708C80040304802D0000D30493BB1
:1014E000D10003304A3BD20000304B3BD300031005
:1014F000480DCC00490DCD004A0DCE004B0DCF005C
:1015000003104B0C2200A30020004A0C2200A20072
:101510002000490C2200A1002000480C2200A0005D
:10152000E03020022000D40093302200213B200034
:10153000D50004302200223B2000D60000302200DB
:10154000233B2000D700F21F9B2B8031ED228831F6
:101550002200A301A201A101FA30A0002000B120C5
:101560008031852288318031072388312200A30110
:10157000A201A1011430A0002000B120B708031D72
:10158000C52A3608233C03189B2BF010F213FF30BA
:10159000A90074117419DC2A82302200A400803161
:1015A0002000A72088312200A301A201A10132302E
:1015B000A0002000B120CA2A2200A301A201A1019B
:1015C0006430A0002000B120711C9B2B8031ED22E3
:1015D00088312200A301A201A101FA30A00020005D
:1015E000B120F111F1191B2B8031ED22883122003D
:1015F000A301A201A1011430A0002000B12080317C
:1016000085228831B708031D092B3608233C0318AF
:101610001A2BF01072127012F2137110F115803142
:10162000072388312200A301A201A1011430A000E8
:101630002000B120F22A8031FD2388312200A3014D
:10164000A201A101FA30A0002000B1208031D720F2
:1016500088317A08DB007908DA007808D900770841
:10166000D800F111F119592B8031FD2388318031D7
:10167000D72088317A08DF007908DE007808DD009D
:101680007708DC00803185228831B708031D4C2B98
:101690003608233C0318582BF11580310723883175
:1016A0002200A301A201A1011430A0002000B1205A
:1016B000322BF0189B2B5B082200A70020005A0851
:1016C0002200A600200059082200A500200058088A
:1016D0002200A40020005F082200AB0020005E086A
:1016E0002200AA0020005D082200A90020005C085A
:1016F0002200A800803120001E2188317A08E300F2
:101700007908E2007808E1007708E00040306002E4
:10171000E8000D30613BE9000330623BEA00003035
:10172000633BEB000310600DE400610DE500620D0A
:10173000E600630DE700731CBA2C80311724883152
:101740002200A301A201A101FA30A0002000B120D3
:101750008031852288318031332388312200A301F2
:10176000A201A1011430A0002000B120B708031D80
:10177000BD2B3608233C0318BA2C70117310FF30B0
:10178000AA00AC01F411F419D52B83302200A40077
:1017900080312000A72088312200A301A201A101ED
:1017A0003230A0002000B120C32B2200A301A201EF
:1017B000A1016430A0002000B120F11CBA2C8031BE
:1017C000212388312200A301A201A101FA30A00047
:1017D0002000B1207112711A142C8031212388311C
:1017E0002200A301A201A1011430A0002000B12019
:1017F000803185228831B708031D022C3608233C2E
:101800000318132C7011F212F0127310F1107116EC
:101810008031332388312200A301A201A1011430B9
:10182000A0002000B120EB2B80311724883122004A
:10183000A301A201A101FA30A0002000B120803153
:10184000D72088317A08EF007908EE007808ED009B
:101850007708EC007112711A542C803117248831EA
:101860008031D72088317A082100A3007908A200AE
:101870007808A1007708A0008031200085228831F7
:10188000B708031D472C3608233C0318532C711648
:101890008031332388312200A301A201A101143039
:1018A000A0002000B1202B2C7019BA2C6F08220048
:1018B000A70020006E082200A60020006D0822006C
:1018C000A50020006C082200A400210023082200AB
:1018D000AB00210022082200AA00210021082200DA
:1018E000A900210020082200A800803120001E212C
:1018F00088317A082100A7007908A6007808A50099
:101900007708A40040302402AC000D30253BAD0028
:101910000330263BAE000030273BAF000310240D00
:10192000A800250DA900260DAA00270DAB00031065
:10193000270C2200A3002100260C2200A200210077
:10194000250C2200A1002100240C2200A000F03070
:1019500020022100B00049302200213B2100B100CB
:1019600002302200223B2100B20000302200233B43
:101970002100B3002000080023080339031DDB2CDD
:101980002308A700BB01BA013B08F9003A08F80098
:10199000F90CF80CF90CF80CF90C780825009100FA
:1019A000F90C790C3039F7001308CF39770493001C
:1019B000F0309305200023080339013C031D3B2D23
:1019C0002308A70021000E1122000E110C30250063
:1019D0009300940195011E109E1001309600200086
:1019E000BA08031D232DBB08031D232DBB01BA011B
:1019F000BB08031D1F2D3A08813C031C1F2DBA0A8A
:101A00000319BB0A3B08F9003A08F800F90CF80C76
:101A1000F90CF80CF90C780825009100F90C790CF8
:101A20003039F7001308CF39770493002200A3015F
:101A3000A201A1010530A0002000B120F82CBB01BB
:101A40008230BA003B2DBB018230BA003B08F9005E
:101A50003A08F800F90CF80CF90CF80CF90C7808B5
:101A600025009100F90C790C3039F7001308CF39B3
:101A700077049300200023080339023C031DD02D76
:101A80002308A70021000E1122000E110C302500A2
:101A90009300940195011E109E10013096002000C5
:101AA000BA08031D832DBB08031D832DBB01BA019A
:101AB000BB08031D7F2D3A08A93C031C7F2DBA0AE1
:101AC0000319BB0A3B08F9003A08F800F90CF80CB6
:101AD000F90CF80CF90C780825009100F90C790C38
:101AE0003039F7001308CF39770493002200A3019F
:101AF000A201A1010530A0002000B120582DBB019A
:101B0000AA30BA00D02D3A08823C031DB82DBB087C
:101B1000031DB82DBB018230BA00BB08031DB42DD4
:101B20003A08A93C031CB42DBA0A0319BB0A3B08A6
:101B3000F9003A08F800F90CF80CF90CF80CF90C5B
:101B4000780825009100F90C790C3039F70013085A
:101B5000CF39770493002200A301A201A10105302F
:101B6000A0002000B1208D2DBB01AA30BA00D02DDD
:101B7000BB01AA30BA003B08F9003A08F800F90C9A
:101B8000F80CF90CF80CF90C780825009100F90C08
:101B9000790C3039F7001308CF397704930020000F
:101BA00023080339033C031D992E2308A7002100B5
:101BB0000E1122000E110C302500930094019501A6
:101BC0001E109E10013096002000BA08031D182E2A
:101BD000BB08031D182EBB01BA01BB08031D142E40
:101BE0003A08FE3C031C142EBA0A0319BB0A3B0830
:101BF000F9003A08F800F90CF80CF90CF80CF90C9B
:101C0000780825009100F90C790C3039F700130899
:101C1000CF39770493002200A301A201A10105306E
:101C2000A0002000B120ED2DBB01FF30BA00992E9D
:101C30003A08823C031D4D2EBB08031D4D2EBB01EF
:101C40008230BA00BB08031D492E3A08FE3C031C33
:101C5000492EBA0A0319BB0A3B08F9003A08F800F2
:101C6000F90CF80CF90CF80CF90C78082500910027
:101C7000F90C790C3039F7001308CF397704930049
:101C80002200A301A201A1010530A0002000B12083
:101C9000222EBB01FF30BA00992E3A08AA3C031D40
:101CA000822EBB08031D822EBB01AA30BA00BB08DE
:101CB000031D7E2E3A08FE3C031C7E2EBA0A031931
:101CC000BB0A3B08F9003A08F800F90CF80CF90CCB
:101CD000F80CF90C780825009100F90C790C3039D2
:101CE000F7001308CF39770493002200A301A20163
:101CF000A1010530A0002000B120572EBB01FF300C
:101D0000BA00992EBB01FF30BA003B08F9003A082F
:101D1000F800F90CF80CF90CF80CF90C780825000F
:101D20009100F90C790C3039F7001308CF3977049A
:101D30009300200008008031D72088317A082100E4
:101D4000C7007908C6007808C5007708C4004308B2
:101D50002200A700210042082200A600210041081D
:101D60002200A500210040082200A400210047080D
:101D70002200AB00210046082200AA0021004508ED
:101D80002200A900210044082200A8008031200080
:101D90001E2188317A082100CB007908CA00780812
:101DA000C9007708C80020004F0821004B02031C1F
:101DB000182F031DF32E20004E0821004A02031C99
:101DC000182F031DF32E20004D0821004902031C8B
:101DD000182F031DF32E480820004C02031CF22E7E
:101DE0002100182F2100731D182F80312000DF22C1
:101DF00088312200A301A201A1011430A00020001B
:101E0000B1207014F21572177412741A172F9130D2
:101E10002200A40080312000A72088312200A301E5
:101E2000A201A1013230A0002000B120052F210025
:101E3000200008008031D72088317A082100D300A3
:101E40007908D2007808D1007708D0004F08220026
:101E5000A70021004E082200A60021004D08220004
:101E6000A50021004C082200A400210053082200F4
:101E7000AB00210052082200AA00210051082200D4
:101E8000A900210050082200A800803120001E2156
:101E900088317A082100D7007908D6007808D50063
:101EA0007708D4002000670821005702031C972FF1
:101EB000031D722F2000660821005602031C972F75
:101EC000031D722F2000650821005502031C972F67
:101ED000031D722F540820006402031C712F21007F
:101EE000972F2100731E972F803120000723883100
:101EF0002200A301A201A1011430A0002000B12002
:101F0000F0147216F217F412F41A962F923022007F
:101F1000A40080312000A72088312200A301A20163
:101F2000A1013230A0002000B120842F2100200028
:101F300008008721BC249031002088319031302363
:101F400088319831002088318031B020883180314B
:101F5000FE20883180313B21883190311E2E87212F
:101F60008031B02088318031FE20883180313B21A2
:101F7000883127082302031DBC249031242E7018B9
:101F8000C82F280824020319C82F90310020883157
:101F9000F018D12F290825020319D12F90313023B1
:101FA00088317019DA2F2A0826020319DA2F98319E
:081FB000002088319031272E3A
:1020000024082200A4000330A50080312000C02055
:102010009031F708031DBC28A4012408A8007018FB
:10202000BC288031EB2390312200A301A201A10141
:10203000C830A00088312000B12090318031D720F5
:1020400090317A082100C3007908C2007808C100E5
:102050007708C0002200A301A201A1013230A00034
:1020600088312000B1209031F31473158031D720CE
:1020700090317A08C3007908C2007808C100770857
:10208000C000F211F219BC288031D72090317A08B3
:10209000C7007908C6007808C5007708C40043085F
:1020A0002200A700200042082200A60020004108CC
:1020B0002200A500200040082200A40020004708BC
:1020C0002200AB00200046082200AA00200045089C
:1020D0002200A900200044082200A800803120002E
:1020E0001E2190317A08CB007908CA007808C9000F
:1020F0007708C8008031EB2390312200A301A201B0
:10210000A1011430A00088312000B120903180312D
:1021100085229031B708031D91283608233C031807
:10212000B82853084B02031CB828031DA7285208DF
:102130004A02031CB828031DA72851084902031CA2
:10214000B828031DA728480850020318B828803172
:10215000DF2290312200A301A201A1011430A000CE
:1021600088312000B1209031F215F3107311AB01CA
:1021700088319B269031422824082200A400033095
:10218000A50080312000C0209031770B77292408EA
:10219000A800701877298031952090312200A30182
:1021A000A201A101C830A00088312000B1209031E7
:1021B0008031D72090317A082100C3007908C2000D
:1021C0007808C1007708C0002200A301A201A10184
:1021D0003230A00088312000B1209031F314731503
:1021E0008031D72090317A08C3007908C20078087E
:1021F000C1007708C000F211F21977298031D72089
:1022000090317A08C7007908C6007808C5007708B9
:10221000C40043082200A700200042082200A600B4
:10222000200041082200A500200040082200A40050
:10223000200047082200AB00200046082200AA0028
:10224000200045082200A900200044082200A80020
:10225000803120001E2190317A08CB007908CA0015
:102260007808C9007708C800803195209031220095
:10227000A301A201A1011430A00088312000B120E7
:102280009031803185229031B708031D4B293608E3
:10229000233C0318732953084B02031C7329031DA5
:1022A000612952084A02031C7329031D6129510840
:1022B0004902031C7329031D6129480850020318B1
:1022C00073298031DF2290312200A301A201A101F4
:1022D0001430A00088312000B1209031F215F310A5
:1022E00073110130AB0088319B269031FC28240803
:1022F0002200A4000330A50080312000C0209031CE
:102300007708023C031D2F2B2408A8002B0822006D
:10231000A4000330A50080312000C0209031F708D0
:10232000031D5B2A8031EB2390312200A301A2011F
:10233000A101FA30A00088312000B1209031803115
:10234000852290318031DF2290312200A301A20149
:10235000A1011430A00088312000B1209031B708CD
:10236000031DCE2936080E3C031CCE2970147217AB
:102370007412741ACD2991302200A40080312000FB
:10238000A72090312200A301A201A1013230A000B8
:1023900088312000B1209031B929D02970107213F2
:1023A00070185B2A8031952090312200A301A20190
:1023B000A101FA30A00088312000B1209031803195
:1023C000D72090317A08C3007908C2007808C1008C
:1023D0007708C000F211F2195B2A80319621903102
:1023E0008031D72090317A08C7007908C600780874
:1023F000C5007708C40043082200A7002000420857
:102400002200A600200041082200A500200040086C
:102410002200A400200047082200AB00200046084C
:102420002200AA00200045082200A900200044083C
:102430002200A800803120001E2190317A08CB00B4
:102440007908CA007808C9007708C800803195204B
:10245000903180305407F7001A30553DF8000630AF
:10246000563DF9000030573DFA004B02031C5A2A32
:10247000031D4A2A79084A02031C5A2A031D4A2AC4
:1024800078084902031C5A2A031D4A2A4808770281
:1024900003185A2A8031DF2290312200A301A201C1
:1024A000A1011430A00088312000B1209031F21534
:1024B0000230AB00EB292B082200A4000330A5005A
:1024C00080312000C0209031770B2F2B8031952058
:1024D00090312200A301A201A101FA30A0008831AD
:1024E0002000B12090318031852290318031DF226F
:1024F00090312200A301A201A1011430A000883173
:102500002000B1209031B708031DA22A36080E3CE6
:10251000031CA22A701472177412741AA12A913023
:102520002200A40080312000A72090312200A301C6
:10253000A201A1013230A00088312000B1209031E9
:102540008D2AA42A7010721370182F2B8031EB2360
:1025500090312200A301A201A101FA30A00088312C
:102560002000B12090318031D72090317A08C3000B
:102570007908C2007808C1007708C000F211F2198A
:102580002F2B8031962190318031D72090317A08DD
:10259000C7007908C6007808C5007708C40043085A
:1025A0002200A700200042082200A60020004108C7
:1025B0002200A500200040082200A40020004708B7
:1025C0002200AB00200046082200AA002000450897
:1025D0002200A900200044082200A8008031200029
:1025E0001E2190317A08CB007908CA007808C9000A
:1025F0007708C8008031EB239031E0305402F700B7
:102600009330553BF8000430563BF9000030573BFF
:10261000FA004B02031C2E2B031D1E2B79084A02C5
:10262000031C2E2B031D1E2B78084902031C2E2B86
:10263000031D1E2B4808770203182E2B8031DF2242
:1026400090312200A301A201A1011430A000883121
:102650002000B1209031F2150230AB00BF2A0800F3
:1026600025080139031DE32BA5012508A900F01851
:10267000E32B8031FD2390312200A301A201A101AF
:10268000C830A00088312000B12090318031D7209F
:1026900090317A082100CF007908CE007808CD006B
:1026A0007708CC002200A301A201A1013230A000D2
:1026B00088312000B1209031F31573168031D72076
:1026C00090317A08DB007908DA007808D9007708B9
:1026D000D8007212721AE32B8031D72090317A0819
:1026E000DF007908DE007808DD007708DC005B0891
:1026F0002200A70020005A082200A6002000590846
:102700002200A500200058082200A40020005F0835
:102710002200AB0020005E082200AA0020005D0815
:102720002200A90020005C082200A80080312000BF
:102730001E2190317A08E3007908E2007808E10070
:102740007708E0008031FD2390312200A301A2012F
:10275000A1011430A00088312000B12090318031D7
:1027600085229031B708031DB92B3608233C031886
:10277000DF2B6B086302031CDF2B031DCF2B6A08C2
:102780006202031CDF2B031DCF2B69086102031CAF
:10279000DF2B031DCF2B600868020318DF2B80316D
:1027A000072390312200A301A201A1011430A0004F
:1027B00088312000B12090317216F31173128831E4
:1027C0001A2790316A2B25080139013C031D962CEC
:1027D0002508A900F018962C8031ED2290312200B6
:1027E000A301A201A101C830A00088312000B120BE
:1027F00090318031D72090317A082100CF007908BC
:10280000CE007808CD007708CC002200A301A201F9
:10281000A1013230A00088312000B1209031F315A1
:1028200073168031D72090317A08DB007908DA00FE
:102830007808D9007708D8007212721A962C803165
:10284000D72090317A08DF007908DE007808DD00B3
:102850007708DC005B082200A70020005A0822004D
:10286000A600200059082200A500200058082200D8
:10287000A40020005F082200AB0020005E082200B8
:10288000AA0020005D082200A90020005C082200A8
:10289000A800803120001E2190317A08E3007908D9
:1028A000E2007808E1007708E0008031ED22903105
:1028B0002200A301A201A1011430A0008831200050
:1028C000B1209031803185229031B708031D6C2CE6
:1028D0003608233C0318922C6B086302031C922CCD
:1028E000031D822C6A086202031C922C031D822C99
:1028F00069086102031C922C031D822C6008680287
:102900000318922C8031072390312200A301A201E9
:10291000A1011430A00088312000B120903172163E
:10292000F311731288311A2790311D2C0800803161
:10293000D72090317A082100DF007908DE0078087E
:10294000DD007708DC005B082200A70021005A08A0
:102950002200A600210059082200A50021005808E5
:102960002200A40021005F082200AB0021005E08C5
:102970002200AA0021005D082200A90021005C08B5
:102980002200A800803120001E2190317A08210009
:10299000E3007908E2007808E1007708E0002B08FE
:1029A0006302031C142D031DE52C2A086202031C7C
:1029B000142D031DE52C29086102031C142D031D91
:1029C000E52C600828020318142D731F142D803184
:1029D0002000332390312200A301A201A101143071
:1029E000A00088312000B12090317015F2167314C8
:1029F0008031FE20903180313B2190317413741B63
:102A0000132D93302200A40080312000A7209031A4
:102A10002200A301A201A1013230A00088312000D0
:102A2000B1209031FF2C2100200008006A302100E5
:102A300099001A082000A101A00122009D12053072
:102A4000200098009901960197019601111023002A
:102A50009F1119309B00A6309E0090309D002000F1
:102A6000A201A301A401A501A601FF30A700A800AF
:102A7000A900AA00AB01AC01AD01AF01AE01B101EB
:102A8000B001B301B201B501B401B701B601B9019A
:102A9000B801BB01BA01BF01BE01BD01BC01C30148
:102AA000C201C101C001C701C601C501C401CB01FA
:102AB000CA01C901C801CF01CE01CD01CC01D301AA
:102AC000D201D101D001D701D601D501D401DB015A
:102AD000DA01D901D801DF01DE01DD01DC01E3010A
:102AE000E201E101E001E701E601E501E401EB01BA
:102AF000EA01E901E801EF01EE01ED01EC0121003D
:102B0000A301A201A101A001A701A601A501A401A1
:102B1000AB01AA01A901A801AF01AE01AD01AC0151
:102B2000B301B201B101B001B701B601B501B40101
:102B3000BB01BA01B901B801BF01BE01BD01BC01B1
:102B4000C301C201C101C001C701C601C501C40161
:102B5000CB01CA01C901C801CF01CE01CD01CC0111
:102B6000D301D201D101D001D701D601D501D401C1
:102B7000DB01DA01D901D801DF01DE01DD01DC0171
:102B8000E301E201E101E001E701E601E501E40121
:102B9000EB01EA01E901E801EF01EE01ED01EC01D1
:102BA0007010F0107011F0117012F0127017F01315
:102BB0007110F1107111F1117112F1127113F11301
:102BC0007210F2107211F2117212F2127213F213E9
:102BD0007310F3107311F3117312F3127313F313D1
:102BE0007410F4107411F4117412F4127413F413B9
:102BF00075102F0091019201980199019A0123000B
:102C00008C018D018F0190012200920191019401AC
:102C1000930180312000192890318031412B90316F
:102C20008031292C90318831002890318031EB2F70
:102C300090318831A12890318831992F903180319D
:102C4000962190318831AF2F90318831BF2F90314C
:042C50001F2E6300D0
:1030000026082200A4000330A50080312000C02043
:103010009831F708031DC428A6012608AA007019D4
:10302000C4288031172498312200A301A201A101F4
:10303000C830A00088312000B12098318031D720DD
:1030400098317A082100DB007908DA007808D90085
:103050007708D8002200A301A201A1013230A0000C
:1030600088312000B1209831F31673178031D720B2
:1030700098317A08EF007908EE007808ED007708BB
:10308000EC00F212F21AC4288031D72098317A0865
:103090002100A3007908A2007808A1007708A00009
:1030A00020006F082200A70020006E082200A60062
:1030B00020006D082200A50020006C082200A4005A
:1030C000210023082200AB00210022082200AA00D0
:1030D000210021082200A900210020082200A800C8
:1030E000803120001E2198317A082100A70079083C
:1030F000A6007808A5007708A400803120001724D6
:1031000098312200A301A201A1011430A00088314E
:103110002000B1209831803185229831B708031DF5
:1031200095283608233C0318BE2821002F082702C3
:10313000031CBF28031DAC282E082602031CBF2831
:10314000031DAC282D082502031CBF28031DAC2835
:1031500024082C020318BF28803120003323983123
:103160002200A301A201A1011430A0008831200097
:10317000B1209831F216F3127313AC012100903193
:10318000200097249831422826082200A40003300A
:10319000A50080312000C0209831770B742A2608C2
:1031A000AA002C082200A4000330A50080312000D2
:1031B000C0209831F708031DA329803117249831C6
:1031C0002200A301A201A101FA30A0008831200051
:1031D000B120983180318522983180313323983164
:1031E0002200A301A201A1011430A0008831200017
:1031F000B1209831B708031D192936080E3C031C6D
:103200001929701573147413741B18299330220034
:10321000A40080312000A72098312200A301A20140
:10322000A1013230A00088312000B120983104295A
:103230001B29701173107019A32980312123983133
:103240002200A301A201A101FA30A00088312000D0
:10325000B12098318031D72098317A08EF00790871
:10326000EE007808ED007708EC00F212F21AA329BC
:103270008031962198318031D72098317A08210009
:10328000A3007908A2007808A1007708A000200018
:103290006F082200A70020006E082200A600200070
:1032A0006D082200A50020006C082200A400210067
:1032B00023082200AB00210022082200AA002100DE
:1032C00021082200A900210020082200A800803146
:1032D00020001E2198317A082100A7007908A60055
:1032E0007808A5007708A4008031200021239831B8
:1032F000210033082702031CA129031D8F2932084E
:103300002602031CA129031D8F2931082502031C55
:10331000A129031D8F29240830020318A129803117
:103320002000332398312200A301A201A10114300F
:10333000A00088312000B1209831F2160230AC0094
:103340002100200036292C082200A4000330A5000B
:1033500080312000C0209831770B742A80312123DE
:1033600098312200A301A201A101FA30A000883106
:103370002000B1209831803185229831803133236B
:1033800098312200A301A201A1011430A0008831CC
:103390002000B1209831B708031DEA2936080E3CF9
:1033A000031CEA29701573147413741BE9299330F4
:1033B0002200A40080312000A72098312200A30120
:1033C000A201A1013230A00088312000B120983143
:1033D000D529EC29701173107019742A80311724C3
:1033E00098312200A301A201A101FA30A000883186
:1033F0002000B12098318031D72098317A08EF0031
:103400007908EE007808ED007708EC00F212F21A65
:10341000742A8031962198318031D72098317A08EA
:103420002100A3007908A2007808A1007708A00075
:1034300020006F082200A70020006E082200A600CE
:1034400020006D082200A50020006C082200A400C6
:10345000210023082200AB00210022082200AA003C
:10346000210021082200A900210020082200A80034
:10347000803120001E2198317A082100A7007908A8
:10348000A6007808A5007708A40080312000172442
:103490009831210033082702031C722A031D602A79
:1034A00032082602031C722A031D602A31082502F5
:1034B000031C722A031D602A240830020318722A92
:1034C00080312000332398312200A301A201A10101
:1034D0001430A00088312000B1209831F21602305B
:1034E000AC0021002000072A26082200A400033097
:1034F000A50080312000C02098317708023C031DD0
:10350000392B2608AA007019392B803121239831D4
:103510002200A301A201A101C830A000883120002F
:10352000B12098318031D72098317A082100DB0012
:103530007908DA007808D9007708D8002200A301BA
:10354000A201A1013230A00088312000B1209831C1
:10355000F31673178031D72098317A08EF00790875
:10356000EE007808ED007708EC00F212F21A392B21
:103570008031D72098317A082100A3007908A20071
:103580007808A1007708A00020006F082200A7009B
:1035900020006E082200A60020006D082200A50071
:1035A00020006C082200A400210023082200AB00A8
:1035B000210022082200AA00210021082200A900DF
:1035C000210020082200A800803120001E2198310F
:1035D0007A082100A7007908A6007808A5007708D6
:1035E000A40080312000212398312200A301A201F0
:1035F000A1011430A00088312000B1209831803121
:1036000085229831B708031D092B3608233C03187F
:10361000332B21002F082702031C342B031D202BE2
:103620002E082602031C342B031D202B2D082502F7
:10363000031C342B031D202B24082C020318342BCD
:1036400080312000332398312200A301A201A1017F
:103650001430A00088312000B1209831F216F31206
:1036600073130130AC002100903120009724983171
:04367000B62A08006E
:020000040001F9
:04000E00A439FF1EF4
:00000001FF
;PIC16F1939
;CRC=A4B8  CREATED="31-Jan-19 14:21"
