:10000000A031992D000021000F1022000F102000B8
:10001000A40124080F3C031C3C2821008E1122005F
:100020008E1123002908AB002808AA00200024080C
:10003000F700031921282300AA35AB0DF70B1C2864
:1000400020000039F70023002B088039FA007708D8
:100050007A040319312821008F1022008F143528CB
:10006000230021008F1022008F1021008E1122000A
:100070008E152000A40A092821000F1022000F1459
:1000800020000800230026082000A50523002708DB
:100090002000A60526082300A9002000250823002B
:1000A000A80020000320080020308500F7308400DD
:1000B0000008031969280130F800F701F70B5E28E2
:1000C000F80B5D284A30F700F70B64286728800B8F
:1000D0005B28080021008C0122008C0121008D0189
:1000E00022008D0121008E0122008E0121008F014E
:1000F00022008F0121001010901010119011220089
:1001000090011030F700F70B832800007030650075
:100110001830660011306700083021008F0010147D
:100120009014101590112300A701A6012000422071
:100130000030F80004389C00FF309B007A3021002A
:1001400099008E1022008E1021000E1122000E1137
:100150000C3025009300940195011E109E10013073
:100160009600F03093051030F700F70BB52800002B
:1001700021000E1122000E111D101D1221008E10E3
:1001800022008E100C3025009A009B019C011E114C
:100190009E1101309D00F0309A051030F700F70BEA
:1001A000CF28000020004616C61545082300A600EB
:1001B000200046082300A700200047082300A800CD
:1001C000200048082300A90085019E308400F830F3
:1001D0008005013085008C308400290880000130C2
:1001E00085009030840028088000013085008D3023
:1001F000840027088000013085008F3084002608A5
:10020000800021001E169E121E139E171D14103012
:10021000F700F70B0929000010302300A600FA3080
:10022000A700200054202300A60B0F29A901A80134
:10023000A701A6012608F7002708F8002808F900FA
:100240002908FA0000300310F70DF80DF90DFA0D2A
:10025000890DF70DF80DF90DFA0D890DF70DF80D53
:10026000F90DFA0D890DF70DF80DF90DFA0D890D3F
:10027000F70DF80DF90DFA0D890DF70DF80DF90DC3
:10028000FA0D890DF70DF80DF90DFA0D890D200005
:10029000A2007A08A1007908A000780897007708E2
:1002A0009600A031ED2E21008E1222008E12210028
:1002B0000D1322000D1321008E1322008E13210036
:1002C0000D1022000D1421008F1322008F13210026
:1002D0000F1222000F1220000800F801F901F701A7
:1002E000FA0123002A08031D7829290803199229F5
:1002F0001030AB000310A70DA80DF70DFA0D2A085A
:100300007A02031D852929087702031C8E292908F2
:10031000F702031CFA032A08FA020314F80DF90D78
:10032000AB0B7A2920000800C201C1012300A601FD
:100330002608093C031CBA292430F80021001D08B6
:10034000833978049D0002302300A7002000542048
:1003500021009D149D18AA291C08FA001B082000E2
:10036000C3007A08C4004308C1074408C23D230003
:10037000A60A9829200042082300A800200041086E
:100380002300A700AA010A30A90020006D217908E6
:10039000C2007808C100080021008E1222008E16CB
:1003A00021000D1322000D1721008E1322008E1341
:1003B00021000D1022000D102000080021008E12D7
:1003C00022008E1221000D1322000D1321008E1326
:1003D00022008E1721000D1022000D1021008F1316
:1003E00022008F1321000F1222000F12200008009C
:1003F000C001BF012300A6012608093C031C1E2AD8
:100400002C30F80021001D08833978049D0002304B
:100410002300A7002000542021009D149D180E2ABF
:100420001C08FA001B082000C3007A08C400430817
:10043000BF074408C03D2300A60AFC29200040084D
:100440002300A80020003F082300A700AA010A30CB
:10045000A90020006D217908C0007808BF000800BD
:1004600021008E1222008E1621000D1322000D177E
:1004700021008F1322008F1321000F1222000F1270
:100480002000080021000E1322000E1321000F137C
:1004900022000F1721008F1222008F122000080067
:1004A00021000E1322000E1721000F1322000F133C
:1004B00021008F1222008F122000080021008D12CF
:1004C00022008D1221008D1022008D1421000D11AB
:1004D00022000D112000080021008D1222008D162F
:1004E00021008D1022008D1021000D1122000D1110
:1004F000200008006F14EF146F156F167415F415B3
:100500007416F416EF166F17EF1770147216F216B2
:100510007217F217532102302300A600FA30A70009
:10052000200054202300A60B8E2A2200CB01CA01F2
:100530004B08013C031CC12A031DA22A4A082B3C7C
:10054000031CC12A200053211E302300A7002000D5
:1005500054209421C208031DB12A4108323C0318DB
:10056000BC2ACC216F107411EF12721201302200DC
:10057000CB002C30CA0020002200CA0A0319CB0A83
:10058000982A2000CC2164302300A70020005420AA
:10059000DE2102302300A600FA30A70020005420FC
:1005A0002300A60BCC2A2200CD01CC014D08013C32
:1005B000031CFF2A031DE02A4C082B3C031CFF2AC6
:1005C0002000DE211E302300A70020005420F82147
:1005D000C008031DEF2A3F08323C0318FA2A3022D4
:1005E000EF10F4116F13F21201302200CD002C3005
:1005F000CC0020002200CC0A0319CD0AD62A200004
:10060000302264302300A700200054204222023010
:100610002300A600FA30A700200054202300A60BD8
:100620000A2B2200CF01CE014F08013C031C3D2BB9
:10063000031D1E2B4E082B3C031C3D2B2000422289
:100640001E302300A70020005420F821C008031DFD
:100650002D2B3F08323C0318382B50226F11741297
:10066000EF13721301302200CF002C30CE00200097
:100670002200CE0A0319CF0A142B20005022643026
:100680002300A700200054205E2202302300A60091
:10069000FA30A700200054202300A60B482B22008C
:1006A000D101D0015108013C031C7B2B031D5C2BA5
:1006B00050082B3C031C7B2B20005E221E302300A5
:1006C000A700200054209421C208031D6B2B410871
:1006D000323C0318762B6C226F12F4127010F21356
:1006E00001302200D1002C30D00020002200D00A9E
:1006F0000319D10A522B20006C2264302300A7007A
:1007000020005420A031F02E21008E1222008E12E3
:1007100021000D1322000D1321008F1322008F13CF
:1007200021000F1222000F1621008E1322008E13BB
:1007300021000D1022000D1020000800111CAA2B12
:100740000130A0070318A10A0319A20A0319A30A7A
:100750001110BE2B1708FA001608F70017087A02C6
:10076000031DAA2B7708111CC72B0130A007031803
:10077000A10A0319A20A0319A30A11101708FA0003
:100780001608F70017087A02031DBE2B7708F7003A
:100790007A08F8002008F9002108FA00220823004E
:1007A000A600A60CFA0CF90CF80CF70CA60CFA0C27
:1007B000F90CF80CF70CA60CFA0CF90CF80CF70C69
:1007C000A60CFA0CF90CF80CF70CA60CFA0CF90CA8
:1007D000F80CF70CA60CFA0CF90CF80CF70CA60C9C
:1007E000FA0CF90CF80CF70C2000080021008E120E
:1007F00022008E1221000D1322000D1321008F13F1
:1008000022008F1721000F1222000F1221008E13D9
:1008100022008E1321000D1022000D102000080070
:1008200021000E1322000E1321000F1322000F13BC
:1008300021008F1222008F162000080021008D1247
:1008400022008D1221008D1022008D1021000D112B
:1008500022000D1520000800230026082A0220008F
:10086000C900230027082B3B2000CA0023002808CA
:100870002C3B2000CB00230029082D3B2000CC007E
:100880004908F7004A08F8004B08F9004C08FA003C
:1008900008006F18782C842302302300A600FA3059
:1008A000A700200054202300A60B4F2C20009E23DD
:1008B0007A08D0007908CF007808CE007708CD00FC
:1008C000F117F11F782C9E237A08D4007908D30001
:1008D0007808D2007708D1008423F821C008031DCE
:1008E000752C3F08323C0318772CF113CC21612C76
:1008F000CC2164302300A70020005420EF18AD2C39
:10090000F62302302300A600FA30A700200054206E
:100910002300A60B842C20009E237A08E00079088F
:10092000DF007808DE007708DD00F117F11FAD2C3D
:100930009E237A08E4007908E3007808E20077084B
:10094000E100F6239421C208031DAA2C4108323C81
:100950000318AC2CF1133022962C30226430230083
:10096000A700200054206F19E42C1024023023002B
:10097000A600FA30A700200054202300A60BB92CB3
:1009800020009E237A08EC007908EB007808EA0042
:100990007708E900F117F11FE42C9E237A08210063
:1009A000A3007908A2007808A1007708A000200021
:1009B0001024F821C008031DE12C3F08323C031825
:1009C000E32CF1135022CB2C502264302300A700DB
:1009D000200054206F1A1F2D1E2402302300A60071
:1009E000FA30A700200054202300A60BF02C200092
:1009F0009E237A082100AF007908AE007808AD0088
:100A00007708AC00F117F11F1E2D20009E237A08F5
:100A10002100B3007908B2007808B1007708B0006F
:100A200020001E249421C208031D1A2D4108323CC7
:100A300003181C2DF1136C222100032D20006C22C1
:100A400064302300A700200054206F18982D500810
:100A50002300A90020004F082300A80020004E0812
:100A60002300A70020004D082300A6002000540802
:100A70002300AD00200053082300AC0020005208E2
:100A80002300AB00200051082300AA0020002C24E2
:100A90007A08D8007908D7007808D6007708D500FA
:100AA000903055022200B80001302000563B220051
:100AB000B90000302000573B2200BA00003020006F
:100AC000583B2200BB0003102000550D2100BC0044
:100AD0002000560D2100BD002000570D2100BE0052
:100AE0002000580D2100BF0003102000580C2300E7
:100AF000A9002000570C2300A8002000560C23005A
:100B0000A7002000550C2300A6002030260220005C
:100B1000D90003302300273B2000DA0000302300F7
:100B2000283B2000DB0000302300293B2000DC00B4
:100B3000EF18E82D60082300A90020005F082300BB
:100B4000A80020005E082300A70020005D08230005
:100B5000A600200064082300AD00200063082300E5
:100B6000AC00200062082300AB00200061082300D5
:100B7000AA0020002C247A08E8007908E700780809
:100B8000E6007708E500903065022200BC000130E5
:100B90002000663B2200BD0000302000673B2200A1
:100BA000BE0000302000683B2200BF000310200080
:100BB000650D2100C0002000660D2100C10020004D
:100BC000670D2100C2002000680D2100C300200035
:100BD0006F19552E6C082300A90020006B08230014
:100BE000A80020006A082300A7002000690823004D
:100BF000A600210023082300AD00210022082300C5
:100C0000AC00210021082300AB00210020082300B4
:100C1000AA0020002C247A082100A7007908A60049
:100C20007808A5007708A400903024022200C000B4
:100C300001302100253B2200C10000302100263B6D
:100C40002200C20000302100273B2200C300031015
:100C50002100240DC400250DC500260DC600270D5A
:100C6000C7000310270C2300A9002100260C230035
:100C7000A8002100250C2300A7002100240C23003C
:100C8000A600203026022100A80003302300273BC5
:100C90002100A90000302300283B2100AA000030D9
:100CA0002300293B2100AB0020006F1AC32E210036
:100CB0002F082300A90021002E082300A8002100EE
:100CC0002D082300A70021002C082300A6002100E6
:100CD00033082300AD00210032082300AC002100BE
:100CE00031082300AB00210030082300AA002000B7
:100CF0002C247A082100B7007908B6007808B500DE
:100D00007708B400903034022200C4000130210082
:100D1000353B2200C50000302100363B2200C600D2
:100D200000302100373B2200C70003102100340DA2
:100D3000C800350DC900360DCA00370DCB000310B1
:100D4000370C2300A9002100360C2300A800210045
:100D5000350C2300A7002100340C2300A60020300E
:100D600026022100B80003302300273B2100B900F0
:100D700000302300283B2100BA0000302300293B2B
:100D80002100BB002000A031F32E23002608200004
:100D9000A504230027082000A60426082300A90094
:100DA000200025082300A800200003200800F030C0
:100DB000250093059A052300A701A60120004220E3
:100DC000CC21302250226C2221000F1122000F1161
:100DD00021008C1322008C132000A701A801FF30F2
:100DE000A900AB01AC00AF00AE01B600B501BA007E
:100DF000B901EE01ED012200C901C801F111711222
:100E0000F1127113A0312000F92E6F18112F3B0839
:100E1000230091009513151413082000AD00AE01B6
:100E2000132FAD01AE01EF181E2F3C0823009100D7
:100E30009513151413082000B1001F2FB1016F196D
:100E40002B2F3D0823009100951315141308200043
:100E5000B400B5012D2FB401B5016F1A392F3E082A
:100E6000230091009513151413082000B800B90150
:100E70003B2FB801B901A031FC2E2300260827061C
:100E80008039A900A61F462FA609A60AA71F4A2F28
:100E9000A709A70A2708F80126020318522F2608D7
:100EA000F7005E2FF7010830A800A60DF70D270800
:100EB00077020318F700F80DA80B552FA91F622F12
:100EC000F809F80A2000080028082300A6000430CA
:100ED000A70020003D27F70803197E2F27082300CD
:100EE000A6000230A70020003D27F708031D7E2F33
:100EF00021000F1122000F15822F200021000F1159
:100F000022000F11200008002100901420009018EA
:100F1000CC2FF01CCC2FFA302300A7002000542047
:100F2000F010A70A27082300A6000230A70020001F
:100F30003D27F708031DAD2FFD302300A700FF302C
:100F4000A60020004220A7012A08A8003008AD0012
:100F50003308B1003708B400642727082300A6002F
:100F60000230A70020003D27770BCC2F0230230052
:100F7000A700A6012000C52675152808AA002D087F
:100F8000B0003108B3003408B7000330A800AD0149
:100F9000B1010230B40064272100901420009018A1
:100FA000F014080021000C1720000C1BF92FF01D75
:100FB000F92FFA302300A70020005420F011270851
:100FC0002300A6000230A70020003D27770BF82F52
:100FD000FD302300A700FF30A60020004220A7011B
:100FE0002A08A8003008AD003308B1003708B40063
:0E0FF000A80A21000C1720000C1BF0150800A9
:10100000EF1EA42801302200D4070318D50A0319C3
:10101000D60A0319D70A5408103C031D3428550872
:10102000273C031D3428D608031D3428D708031D88
:10103000342820302300A700A60180312000C526D7
:101040008831F7302300A700FF30A6008031200050
:1010500042208831EF302300A700FF30A600803106
:1010600020004220883122005408203C031D6228C1
:1010700055084E3C031D6228D608031D6228D70878
:10108000031D6228D701D601D501D401DF3023002A
:10109000A700FF30A6008031200042208831F730C1
:1010A0002300A700FF30A6008031200042208831B5
:1010B000EF302300A700FF30A6008031200042203F
:1010C00088312200E701E601E501E40121000C1668
:1010D00020000C1AA32801302200E4070318E50AB7
:1010E0000319E60A0319E70A6408403C031DA12816
:1010F00065080D3C031DA1286608033C031DA128BB
:10110000E708031DA1282000EF12DF302300A7000D
:10111000FF30A6008031200042208831F7302300C4
:10112000A700FF30A6008031200042208831EF3038
:101130002300A700FF30A600803120004220883124
:1011400022006628200000286F1F1229013022008B
:10115000D8070318D90A0319DA0A0319DB0A580851
:10116000103C031DC6285908273C031DC628DA0871
:10117000031DC628DB08031DC62804302300A70072
:10118000A60180312000C526883122005808203C65
:10119000031DE22859084E3C031DE228DA08031D0E
:1011A000E228DB08031DE228FB302300A700FF3004
:1011B000A60080312000422088312200DB01DA01C4
:1011C000D901D801EB01EA01E901E801210010147D
:1011D00020001018112901302200E8070318E90A3D
:1011E0000319EA0A0319EB0A6808403C031D0F299A
:1011F00069080D3C031D0F296A08033C031D0F29D4
:10120000EB08031D0F2920006F13FB302300A700FC
:10121000FF30A60080312000422088312200E628DD
:101220002000A428EF1FB42901302200DC07031896
:10123000DD0A0319DE0A0319DF0A5C08103C031DEE
:1012400044295D08273C031D4429DE08031D442969
:10125000DF08031D44292300A7010230A6008031C6
:101260002000C52688312300A7010430A600803164
:101270002000C52688312300A7010830A600803150
:101280002000C526883122005C08203C031D7229FD
:101290005D084E3C031D7229DE08031D7229DF081C
:1012A000031D7229DF01DE01DD01DC01FF302300B7
:1012B000A700FD30A6008031200042208831FF3099
:1012C0002300A700FB30A600803120004220883197
:1012D000FF302300A700F730A60080312000422015
:1012E00088312200EF01EE01ED01EC0121000E1426
:1012F00020000E18B32901302200EC070318ED0A74
:101300000319EE0A0319EF0A6C08403C031DB129CA
:101310006D080D3C031DB1296E08033C031DB12966
:10132000EF08031DB1292000EF13FF302300A700B1
:10133000FD30A6008031200042208831FF3023009C
:10134000A700FB30A6008031200042208831FF300A
:101350002300A700F730A60080312000422088310A
:101360002200762920001229701C552A0130220003
:10137000E0070318E10A0319E20A0319E30A600807
:10138000103C031DE6296108273C031DE629E208FD
:10139000031DE629E308031DE62901302300A70009
:1013A000A60180312000C526883140302300A700E7
:1013B000A60180312000C526883180302300A70097
:1013C000A60180312000C526883122006008203C1B
:1013D000031D142A61084E3C031D142AE208031D54
:1013E000142AE308031D142AE301E201E101E001EC
:1013F000FE302300A700FF30A600803120004220ED
:101400008831BF302300A700FF30A60080312000C4
:10141000422088317F302300A700FF30A6008031B2
:1014200020004220883122002300A301A201A10153
:10143000A00121008F1520008F19542A01302300AC
:10144000A0070318A10A0319A20A0319A30A200876
:10145000403C031D522A21080D3C031D522A22083C
:10146000033C031D522AA308031D522A7010FE30AC
:10147000A700FF30A6008031200042208831BF3015
:101480002300A700FF30A6008031200042208831D1
:101490007F302300A700FF30A600803120004220CB
:1014A00088312300192A2000B429A031F62E21000A
:1014B000101520001019672A701E672AFA302300C1
:1014C000A70080312000542088317012AB0A21001F
:1014D0001015200010197016080021000C162000AD
:1014E0000C1AB52AF01EB52AFA302300A700803165
:1014F000200054208831F0126F18B42A27082300E6
:10150000A6000230A700803120003D278831770BEC
:101510009B2AFD302300A700FF30A6008031200069
:1015200042208831A7012A08A8003008AD003308FE
:10153000B1003708B400AD010B08F7008B133B086E
:101540002300910020002D0823009300951315150A
:1015500055309600AA30960095149518AD2A1511AD
:1015600077088B04B62A20007214230021000C1681
:1015700020000C1AF01621008C1620008C1A042B67
:10158000701F042BFA302300A70080312000542064
:10159000883170136F18032B27082300A600023030
:1015A000A700803120003D278831770BE92AFD30E4
:1015B0002300A700FF30A6008031200042208831A0
:1015C000A7012A08A8003008AD003308B100370889
:1015D000B4000130AD000B08F7008B133B0823006B
:1015E000910020002D082300930095131515553008
:1015F0009600AA30960095149518FC2A15117708C4
:101600008B04052B20007214230021008C1620006F
:101610008C1A701721000E1620000E1A532BF01F83
:10162000532BFA302300A70080312000542088314A
:10163000F0136F18522B27082300A6000230A700D2
:10164000803120003D278831770B382BFD30230077
:10165000A700FF30A6008031200042208831A7017A
:101660002A08A8003008AD003308B1003708B400DC
:101670000230AD000B08F7008B133B0823009100EC
:1016800020002D0823009300951315155530960062
:10169000AA309600951495184B2B151177088B04DA
:1016A000542B20007214230021000E1620000E1A65
:1016B000F01708002100101420001018A22B711C34
:1016C000A22BFA302300A70080312000542088315B
:1016D0007110EF18A12B27082300A6000230A700E5
:1016E000803120003D278831770B882BFD30230087
:1016F000A700FF30A6008031200042208831A701DA
:101700002A08A8003008AD003308B1003708B4003B
:10171000B10A0B08F7008B133C082300910020004E
:101720003108230093009513151555309600AA3003
:101730009600951495189A2B151177088B04A32BF6
:101740002000F2142300210010142000101871143E
:1017500008006F1DAF2B6F1EAF2BF410252C6F19D7
:10176000D32B6F1ED32B34082300A6000330A70011
:10177000803120003D278831F708031DC12BF4106C
:10178000D22BF414741CD22B741080319E23883118
:101790007A082100CF007908CE007808CD007708BC
:1017A000CC002000252C6F1DF72B6F1AF72B380863
:1017B0002300A6000330A700803120003D27883198
:1017C000F708031DE52BF410F62BF414741CF62B0C
:1017D000741080319E2388317A082100CF00790867
:1017E000CE007808CD007708CC002000252C6F199A
:1017F000252C6F1A252C34082300A6000330A700DF
:10180000803120003D278831F708031D152C38084A
:101810002300A6000330A700803120003D27883137
:10182000F708031D152CF410252CF414741C252C1A
:10183000741080319E2388317A082100CF00790806
:10184000CE007808CD007708CC0020000800F41CFA
:101850007B2C74187A2C80319E2388317A082100E1
:10186000D3007908D2007808D1007708D0004F085B
:101870002300A90021004E082300A80021004D08E4
:101880002300A70021004C082300A60021005308D4
:101890002300AD00210052082300AC0021005108B4
:1018A0002300AB00210050082300AA008031200053
:1018B0002C2488317A082100D7007908D6007808CE
:1018C000D5007708D400D708031D742CD608031D53
:1018D000742C55080E3C0318792CFF3A031D742C08
:1018E0005408A03C0318792C74148C1322008C1714
:1018F00021002000802C741421008C1322008C13F2
:101900002000080021000E1420000E18CC2CF11C21
:10191000CC2CFA302300A7008031200054208831DD
:10192000F1106F19C92C27082300A6000230A70068
:10193000803120003D278831770BB02CFD3023000B
:10194000A700FF30A6008031200042208831A70187
:101950002A08A8003008AD003308B1003708B400E9
:10196000B40A0B08F7008B133D08230091002000F8
:101970003408230093009513151555309600AA30AE
:10198000960095149518C22C151177088B04CD2C50
:1019900020007215A9232724230021000E14200003
:1019A0000E18F114080021008F1520008F19002D4A
:1019B000711D002DFA302300A70080312000542033
:1019C000883171116F1AFD2CB80A0B08F7008B13C0
:1019D0003E0823009100200038082300930095134F
:1019E000151555309600AA30960095149518F62CCA
:1019F000151177088B04012D2000F215A923272447
:101A0000230021008F1520008F19711508008031E7
:101A1000842788318031D227883157226D225A237A
:101A20008224D3240800721C912D20302300A700AB
:101A3000A60180312000C526883108302300A70088
:101A4000A60180312000C526883110302300A70070
:101A5000A60180312000C526883178302300A700F8
:101A60008031200054208831DF302300A700FF3070
:101A7000A6008031200042208831F7302300A700E3
:101A8000FF30A6008031200042208831EF30230053
:101A9000A700FF30A600803120004220883150305E
:101AA0002300A700803120005420883120302300FB
:101AB000A700A60180312000C52688310830230008
:101AC000A700A60180312000C526883110302300F0
:101AD000A700A60180312000C52688317830230078
:101AE000A7008031200054208831DF302300A70078
:101AF000FF30A6008031200042208831F7302300DB
:101B0000A700FF30A6008031200042208831EF304E
:101B10002300A700FF30A60080312000422088313A
:101B20007210F21CCB2D04302300A700A6018031D7
:101B30002000C526883178302300A700803120009E
:101B400054208831FB302300A700FF30A6008031ED
:101B500020004220883150302300A700803120002F
:101B60005420883104302300A700A60180312000D2
:101B7000C526883178302300A7008031200054200A
:101B80008831FB302300A700FF30A6008031200001
:101B900042208831F210721D492E2300A701023025
:101BA000A60080312000C52688312300A70104301B
:101BB000A60080312000C52688312300A701083007
:101BC000A60080312000C526883178302300A70088
:101BD0008031200054208831FF302300A700FD30E1
:101BE000A6008031200042208831FF302300A7006A
:101BF000FB30A6008031200042208831FF302300D6
:101C0000A700F730A60080312000422088315030F4
:101C10002300A70080312000542088312300A70131
:101C20000230A60080312000C52688312300A7019C
:101C30000430A60080312000C52688312300A7018A
:101C40000830A60080312000C52688317830230076
:101C5000A7008031200054208831FF302300A700E6
:101C6000FD30A6008031200042208831FF30230063
:101C7000A700FB30A6008031200042208831FF30D1
:101C80002300A700F730A6008031200042208831D1
:101C90007211F21DC72E01302300A700A60180316A
:101CA0002000C526883140302300A700A6018031DE
:101CB0002000C526883180302300A700A60180318E
:101CC0002000C526883178302300A700803120000D
:101CD00054208831FE302300A700FF30A600803159
:101CE000200042208831BF302300A700FF30A6002B
:101CF00080312000422088317F302300A700FF3050
:101D0000A600803120004220883150302300A700F7
:101D1000803120005420883101302300A700A60123
:101D200080312000C526883140302300A700A6015D
:101D300080312000C526883180302300A700A6010D
:101D400080312000C526883178302300A7008031FB
:101D5000200054208831FE302300A700FF30A60069
:101D60008031200042208831BF302300A700FF309F
:101D7000A60080312000422088317F302300A70058
:101D8000FF30A6008031200042208831F211080087
:101D900028082300A6000430A700803120003D273A
:101DA0008831F708031DFB2E27082300A600023008
:101DB000A700803120003D278831F708031DFB2E46
:101DC000FF302300A700EF30A60080312000422022
:101DD0008831FF302300A700DF30A60080312000CB
:101DE00042208831FF302300A700BF30A600803199
:101DF00020004220883128082300A6000430A700D4
:101E0000803120003D278831770B2C2F27082300B5
:101E1000A6000230A700803120003D278831F70856
:101E2000031D2C2F2300A7011030A60080312000B5
:101E3000C5268831FF302300A700DF30A60080319F
:101E4000200042208831FF302300A700BF30A600C9
:101E5000803120004220883128082300A600043069
:101E6000A700803120003D2788317708023C031D00
:101E70005E2F27082300A6000230A7008031200033
:101E80003D278831F708031D5E2F2300A70110307E
:101E9000A60080312000C52688312300A70120300C
:101EA000A60080312000C5268831FF302300A7001E
:101EB000BF30A6008031200042208831280823004E
:101EC000A6000430A700803120003D278831770824
:101ED000033C031D8F2F27082300A6000230A70014
:101EE000803120003D278831F708031D8F2F230004
:101EF000A7011030A60080312000C52688312300BC
:101F0000A7012030A60080312000C526883123009B
:101F1000A7014030A60080312000C5268831080086
:101F20002B082300A6000330A700803120003D27A6
:101F30008831F708031DAE2FFF302300A7007F3044
:101F4000A6008031200042208831FF302300A70006
:101F5000FE30A60080312000422088312B0823006B
:101F6000A6000330A700803120003D278831770B81
:101F7000CA2F2300A7018030A60080312000C5268B
:101F80008831FF302300A700FE30A60080312000FA
:101F9000422088312B082300A6000330A70080319F
:101FA00020003D2788317708023C031DE72F2300DE
:101FB000A7018030A60080312000C526883123008B
:101FC000A7010130A60080312000C5268831080015
:101FD0001325C82690276F18F02F903100208831E4
:101FE000EF18F52F9031B52088316F19FA2F903105
:101FF000022188316F1AFF2F9031B62188310800F5
:102000006F1899282D082300A6000330A7008031FF
:1020100020003D279031F708031D342827082300AE
:10202000A6000230A700803120003D279031F7083C
:10203000031D342820302300A700A6018031200092
:10204000C5269031F7302300A700FF30A60080316D
:10205000200042209031EF302300A700FF30A6007F
:1020600080312000422090312D082300A60003304B
:10207000A700803120003D279031770B6528270885
:102080002300A6000230A700803120003D279031B8
:10209000F708031D6528DF302300A700FF30A600E6
:1020A000803120004220903108302300A700A60193
:1020B00080312000C5269031EF302300A700FF308B
:1020C000A60080312000422090312D082300A60078
:1020D0000330A700803120003D2790317708023C73
:1020E000031D982827082300A6000230A70080318E
:1020F00020003D279031F708031D9828DF3023008A
:10210000A700FF30A6008031200042209031F73038
:102110002300A700FF30A60080312000422090312C
:1021200010302300A700A60180312000C526903181
:10213000B428DF302300A700FF30A6008031200044
:1021400042209031F7302300A700FF30A6008031F5
:10215000200042209031EF302300A700FF30A6007E
:1021600080312000422090310800EF18F828310813
:102170002300A6000230A700803120003D279031C7
:10218000F708031DD82827082300A6000230A7005F
:10219000803120003D279031F708031DD828FB30FF
:1021A0002300A700FF30A60080312000422090319C
:1021B00031082300A6000230A700803120003D270F
:1021C0009031770BF72827082300A6000230A700DC
:1021D000803120003D279031F708031DF728043097
:1021E0002300A700A60180312000C52690310129D7
:1021F000FB302300A700FF30A600803120004220E2
:10220000903108006F199A2934082300A600033082
:10221000A700803120003D279031F708031D3629A3
:1022200027082300A6000230A700803120003D27A8
:102230009031F708031D36292300A7010230A600BC
:1022400080312000C5269031FF302300A700FB30ED
:10225000A6008031200042209031FF302300A700EB
:10226000F730A6008031200042209031340823004E
:10227000A6000330A700803120003D279031770B66
:10228000672927082300A6000230A700803120001C
:102290003D279031F708031D6729FF302300A70071
:1022A000FD30A60080312000422090312300A7019C
:1022B0000430A60080312000C5269031FF30230075
:1022C000A700F730A600803120004220903134086A
:1022D0002300A6000330A700803120003D27903165
:1022E0007708023C031D992927082300A600023025
:1022F000A700803120003D279031F708031D992960
:10230000FF302300A700FD30A600803120004220CE
:1023100090312300A7010430A60080312000C5269B
:1023200090312300A7010830A60080312000C52687
:102330009031B529FF302300A700FD30A600803181
:10234000200042209031FF302300A700FB30A60080
:102350008031200042209031FF302300A700F73069
:10236000A600803120004220903108006F1A2A2AEE
:1023700038082300A6000330A700803120003D2745
:102380009031F708031DDE2901302300A700A601C4
:1023900080312000C5269031BF302300A700FF30D8
:1023A000A60080312000422090317F302300A7001A
:1023B000FF30A600803120004220903138082300F1
:1023C000A6000330A700803120003D279031770B15
:1023D000032AFE302300A700FF30A6008031200032
:1023E0004220903140302300A700A6018031200018
:1023F000C52690317F302300A700FF30A600803132
:1024000020004220903138082300A6000330A700A6
:10241000803120003D2790317708023C031D292A96
:10242000FE302300A700FF30A600803120004220AC
:10243000903140302300A700A60180312000C5263E
:10244000903180302300A700A60180312000C526EE
:102450009031452AFE302300A700FF30A6008031CE
:10246000200042209031BF302300A700FF30A6009B
:1024700080312000422090317F302300A700FF30C0
:10248000A600803120004220903108008031D22700
:10249000903188315722903188316D2290318831C6
:1024A0005A2390318831822490318831D32490315D
:1024B00027082300A6000230A700803120003D2716
:1024C0009031770BA32A21009014200090189D2AA8
:1024D000F01C9D2AFA302300A700803120005420F0
:1024E0009031F010A70A27082300A6000230A700A9
:1024F000803120003D279031F708031D9D2AFD30D3
:102500002300A700FF30A600803120004220903138
:10251000A7012A08A8003008AD003308B100370829
:10252000B4007015EE01ED01EF15FF30A900250094
:102530009801803120006427903121009014200000
:102540009018F014B22A27082300A6000230A70032
:10255000803120003D279031F708031DB22A8031D9
:1025600084279031080028082300A6000430A70023
:10257000803120003D279031F708031DC92AA801AA
:102580002808A900EE01ED0125009801F0309A0518
:10259000200028082300A6000430A7008031200076
:1025A0003D279031770B3F2B2808A90022001D10F2
:1025B0001D1221008E1022008E100C3025009A0072
:1025C0009B019C011E119E1101309D002000ED0811
:1025D000031D332BEE08031D332B2200D301D20140
:1025E0002000EE01ED01EF19322B6E08023C031CB6
:1025F000322B031DFF2A6D08253C031C322BED0AEC
:102600000319EE0A6E08F9006D08F800F90CF80CD1
:10261000F90CF80CF90C780825009800F90C790CE5
:102620003039F7001A08CF3977049A0005302300B3
:10263000A70080312000542090312200D20A0319D3
:10264000D30AD308031D282B5208643C0318302BEF
:10265000D301D201200046228831E82790312200A0
:102660002000F32A3F2B0230EE002630ED008930A7
:10267000250098001A08CF3920389A002000280831
:102680002300A6000430A700803120003D279031B0
:102690007708023C031D062C2808A90022001D1003
:1026A0001D1221008E1022008E100C3025009A0081
:1026B0009B019C011E119E1101309D002000ED0820
:1026C000031DAB2BEE08031DAB2B2200D301D2015F
:1026D0002000EE01ED01EF19AA2B6E08023C031C4D
:1026E000AA2B031D772B6D08A73C031CAA2BED0A10
:1026F0000319EE0A6E08F9006D08F800F90CF80CE1
:10270000F90CF80CF90C780825009800F90C790CF4
:102710003039F7001A08CF3977049A0005302300C2
:10272000A70080312000542090312200D20A0319E2
:10273000D30AD308031DA02B5208643C0318A82B0E
:10274000D301D201200046228831E82790312200AF
:1027500020006B2B062C6D08263C031DFB2B6E08FE
:10276000023C031DFB2B2200D301D20102302000CA
:10277000EE002630ED00EF19FA2B6E08023C031C28
:10278000FA2B031DC72B6D08A73C031CFA2BED0A7F
:102790000319EE0A6E08F9006D08F800F90CF80C40
:1027A000F90CF80CF90C780825009800F90C790C54
:1027B0003039F7001A08CF3977049A000530230022
:1027C000A70080312000542090312200D20A031942
:1027D000D30AD308031DF02B5208643C0318F82BCE
:1027E000D301D201200046228831E827903122000F
:1027F0002000BB2B062C0230EE00A830ED00AA30E2
:10280000250098001A08CF399A00200028082300D4
:10281000A6000430A700803120003D2790317708C2
:10282000033C031D1D2D2808A90022001D101D12A8
:1028300021008E1022008E100C3025009A009B0182
:102840009C011E119E1101309D002000ED08031D0A
:10285000722CEE08031D722C2200D301D20120003D
:10286000EE01ED01EF19712C6E08033C031C712C75
:10287000031D3E2C6D08F93C031C712CED0A031955
:10288000EE0A6E08F9006D08F800F90CF80CF90C66
:10289000F80CF90C780825009800F90C790C3039FF
:1028A000F7001A08CF3977049A0005302300A700F3
:1028B00080312000542090312200D20A0319D30A1B
:1028C000D308031D672C5208643C03186F2CD301F6
:1028D000D201200046228831E827903122002000D2
:1028E000322C1D2D6D08263C031DC22C6E08023CA7
:1028F000031DC22C2200D301D20102302000EE00C1
:102900002630ED00EF19C12C6E08033C031CC12CCE
:10291000031D8E2C6D08F93C031CC12CED0A031914
:10292000EE0A6E08F9006D08F800F90CF80CF90CC5
:10293000F80CF90C780825009800F90C790C30395E
:10294000F7001A08CF3977049A0005302300A70052
:1029500080312000542090312200D20A0319D30A7A
:10296000D308031DB72C5208643C0318BF2CD301B5
:10297000D201200046228831E82790312200200031
:10298000822C1D2D6D08A83C031D122D6E08023CE3
:10299000031D122D2200D301D20102302000EE00CF
:1029A000A830ED00EF19112D6E08033C031C112D0A
:1029B000031DDE2C6D08F93C031C112DED0A0319D3
:1029C000EE0A6E08F9006D08F800F90CF80CF90C25
:1029D000F80CF90C780825009800F90C790C3039BE
:1029E000F7001A08CF3977049A0005302300A700B2
:1029F00080312000542090312200D20A0319D30ADA
:102A0000D308031D072D5208643C03180F2DD30172
:102A1000D201200046228831E82790312200200090
:102A2000D22C1D2D0330EE00FA30ED00FE302500D3
:102A300098001A08CF3920389A0020000800751D28
:102A40002F2D27082300A6000230A7008031200088
:102A50003D279031F708031D2F2D7511B322080073
:102A6000731C922D80319E2390317A082100DF0063
:102A70007908DE007808DD007708DC005B082300B9
:102A8000A90021005A082300A800210059082300AA
:102A9000A700210058082300A60021005F0823009A
:102AA000AD0021005E082300AC0021005D0823007A
:102AB000AB0021005C082300AA00803120002C24F8
:102AC00090317A082100E3007908E2007808E100FB
:102AD0007708E0003F086302031C932D031D802D3F
:102AE0003E086202031C932D031D802D3D086102E8
:102AF000031C932D031D802D60083C020318932DA9
:102B0000F31C932D80312000CC21903164302300C0
:102B1000A700803120005420903173106F14F115FC
:102B200072147216210020000800731DF72D8031E9
:102B30009E2390317A082100EB007908EA0078089A
:102B4000E9007708E80067082300A900210066086B
:102B50002300A800210065082300A70021006408C5
:102B60002300A60021006B082300AD0021006A08A5
:102B70002300AC00210069082300AB002100680895
:102B80002300AA00803120002C2490317A082100F3
:102B9000EF007908EE007808ED007708EC004308B4
:102BA0006F02031CF82D031DE52D42086E02031C65
:102BB000F82D031DE52D41086D02031CF82D031DA2
:102BC000E52D6C0840020318F82DF31DF82D803117
:102BD00020003022903164302300A7008031200093
:102BE000542090317311EF147116F214F216210073
:102BF00020000800EF18A72F31082300A60002309C
:102C0000A700803120003D279031F708031DD22E08
:102C1000B1013108B2008031F62390310230230037
:102C2000A600C830A7008031200054209031230036
:102C3000A60B112E803120009E2390317A082100AE
:102C4000E7007908E6007808E5007708E4006430DA
:102C50002300A70080312000542090317315F31514
:102C600080319E2390317A08E0007908DF007808EF
:102C7000DE007708DD002300A501A4017112711A9E
:102C8000D12EA40A0319A50AA508031D4B2E24085A
:102C90000A3C0318562EA501A401883120000725FF
:102CA00090318831E82790311F25230080312000A2
:102CB0009E2390317A08E4007908E3007808E20066
:102CC0007708E10060082300A90020005F082300C6
:102CD000A80020005E082300A70020005D08230054
:102CE000A600200064082300AD0020006308230034
:102CF000AC00200062082300AB0020006108230024
:102D0000AA00803120002C2490317A08E80079084C
:102D1000E7007808E6007708E5008031F623903177
:102D20001E302300A70080312000542090318031D4
:102D300094219031C208031DA12E4108323C031892
:102D4000CE2E22003F0820006802031CCE2E031D59
:102D5000C12E22003E0820006702031CCE2E031D58
:102D6000C12E22003D0820006602031CCE2E031D4A
:102D7000C12E650822003C02031CC02E2000CE2E6E
:102D8000200080313022903164302300A700803150
:102D900020005420903171167311F31195252300F2
:102DA0003F2E200031082300A6000230A70080310A
:102DB00020003D279031770BA62F3108B2008031DB
:102DC000DE21903102302300A600C830A7008031F8
:102DD0002000542090312300A60BE52E80312000E6
:102DE0009E2390317A082100E7007908E6007808F0
:102DF000E5007708E40064302300A700803120005C
:102E0000542090317315F31580319E2390317A0848
:102E1000E0007908DF007808DE007708DD00230095
:102E2000A501A4017112711AA52FA40A0319A50AFC
:102E3000A508031D1F2F24080A3C03182A2FA501EB
:102E4000A40188312000072590318831E82790318E
:102E50001F252300803120009E2390317A08E40052
:102E60007908E3007808E2007708E10060082300B1
:102E7000A90020005F082300A80020005E082300AE
:102E8000A70020005D082300A6002000640823009E
:102E9000AD00200063082300AC002000620823007E
:102EA000AB00200061082300AA00803120002C2400
:102EB00090317A08E8007908E7007808E60077089A
:102EC000E5008031DE2190311E302300A7008031E3
:102ED0002000542090318031F8219031C008031D2A
:102EE000752F3F08323C0318A22F22003F08200014
:102EF0006802031CA22F031D952F22003E0820000C
:102F00006702031CA22F031D952F22003D082000FD
:102F10006602031CA22F031D952F650822003C02A8
:102F2000031C942F2000A22F2000803130229031EA
:102F300064302300A70080312000542090317116A6
:102F40007311F31195252300132F2000B02FFB30B0
:102F50002300A700FF30A6008031200042209031DE
:102F60000800983100209031FA2598311D249031C5
:102F7000A03175209031B322A031312490318831B5
:102F8000C82690318831902790310020B520022149
:102F9000B6218831A923903188312724903180319E
:082FA00064279031A031FF2EDF
:103000006F188C2B2D082300A6000330A7008031F9
:1030100020003D279831F708031DDD28AD012D085C
:10302000AF0080318423983102302300A600C830DD
:10303000A70080312000542098312300A60B1728C8
:10304000803120009E2398317A082100DB00790826
:10305000DA007808D9007708D80064302300A70088
:1030600080312000542098317314F31480319E2352
:1030700098317A08D0007908CF007808CE00770818
:10308000CD002300A501A401F111F119DC28A40A47
:103090000319A50AA508031D512824080A3C031892
:1030A0005E28A501A40188312000072598318831C8
:1030B000E827983190311F25983123008031200076
:1030C0009E2398317A08D4007908D3007808D2007A
:1030D0007708D10050082300A90020004F082300E2
:1030E000A80020004E082300A70020004D08230060
:1030F000A600200054082300AD0020005308230040
:10310000AC00200052082300AB002000510823002F
:10311000AA00803120002C2498317A08D800790840
:10312000D7007808D6007708D500803184239831FD
:103130001E302300A70080312000542098318031B8
:10314000F8219831C008031DA9283F08323C031814
:10315000D72822003B0820005802031CD728031D53
:10316000C92822003A0820005702031CD728031D53
:10317000C9282200390820005602031CD728031D45
:10318000C928550822003802031CC8282000D72867
:1031900020008031CC21983164302300A700803199
:1031A000200054209831F1157310F310AE019031C6
:1031B000302598312300452820002D082300A60043
:1031C0000330A700803120003D279831770BB729C5
:1031D0002D08AF0080315321983102302300A60022
:1031E000C830A70080312000542098312300A60B5E
:1031F000F028803120009E2398317A082100DB00DE
:103200007908DA007808D9007708D80064302300FC
:10321000A70080312000542098317314F3148031BA
:103220009E2398317A08D0007908CF007808CE0024
:103230007708CD002300A501A401F111F119B629E9
:10324000A40A0319A50AA508031D2A2924080A3C73
:1032500003183729A501A4018831200007259831DA
:103260008831E827983190311F259831230080312B
:1032700020009E2398317A08D4007908D30078087A
:10328000D2007708D10050082300A90020004F0881
:103290002300A80020004E082300A70020004D08AE
:1032A0002300A600200054082300AD00200053088E
:1032B0002300AC00200052082300AB00200051087E
:1032C0002300AA00803120002C2498317A08D800ED
:1032D0007908D7007808D6007708D50080315321C7
:1032E00098311E302300A7008031200054209831EF
:1032F000803194219831C208031D82294108323C53
:103300000318B12922003B0820005802031CB129F0
:10331000031DA22922003A0820005702031CB129EC
:10332000031DA2292200390820005602031CB129DE
:10333000031DA229550822003802031CA1292000E0
:10334000B12920008031CC21983164302300A700BE
:103350008031200054209831F1157310F3100130A2
:10336000AE0090313025983123001E2920002D0811
:103370002300A6000330A700803120003D279831AC
:103380007708023C031D8B2B2D08AF002E0823006D
:10339000A6000330A700803120003D279831F708B0
:1033A000031DA92A803184239831FA302300A70015
:1033B00080312000542098318031F82198318031BB
:1033C000CC21983164302300A700803120005420A4
:1033D0009831C008031DF4293F080E3C031CF42952
:1033E0006F1472167214F7296F10721272106F1820
:1033F000A92A80315321983102302300A600FA30E7
:10340000A70080312000542098312300A60BFF290B
:10341000803120009E2398317A08D0007908CF00AF
:103420007808CE007708CD002300A501A401F11192
:10343000F119A82A8031200053219831013023004E
:10344000A70080312000542098312300A40A0319DA
:10345000A50A2508003C0318412AFF3A031D342A17
:103460002408F43C0318412AA501A4018831200056
:10347000072598318831E827983190311F259831F8
:103480002300803120009E2398317A08D4007908E7
:10349000D3007808D2007708D10050082300A90093
:1034A00020004F082300A80020004E082300A7009A
:1034B00020004D082300A600200054082300AD0082
:1034C000200053082300AC00200052082300AB006A
:1034D000200051082300AA00803120002C249831BC
:1034E0007A08D8007908D7007808D6007708D50080
:1034F00020305907F70003305A3DF80000305B3D9B
:10350000F90000305C3DFA005802031CA62A031D96
:10351000992A79085702031CA62A031D992A7808BC
:103520005602031CA62A031D992A55087702031880
:10353000A62A8031CC21983164302300A700803145
:10354000200054209831F1150230AE002300182AD3
:1035500020002E082300A6000330A70080312000A1
:103560003D279831770B8B2B803153219831FA30DE
:103570002300A7008031200054209831803194210D
:1035800098318031CC21983164302300A7008031FC
:10359000200054209831C208031DD62A41080E3C51
:1035A000031CD62A6F1472167214D92A6F10721265
:1035B00072106F188B2B80318423983102302300D6
:1035C000A600FA30A7008031200054209831230053
:1035D000A60BE12A803120009E2398317A08D00082
:1035E0007908CF007808CE007708CD002300A50128
:1035F000A401F111F1198A2B803120008423983124
:1036000001302300A700803120005420983123008E
:10361000A40A0319A50A2508003C0318232BFF3A26
:10362000031D162B2408F43C0318232BA501A40129
:1036300088312000072598318831E827983190316A
:103640001F2598312300803120009E2398317A086D
:10365000D4007908D3007808D2007708D100500848
:103660002300A90020004F082300A80020004E08D6
:103670002300A70020004D082300A60020005408C6
:103680002300AD00200053082300AC0020005208A6
:103690002300AB00200051082300AA008031200045
:1036A0002C2498317A08D8007908D7007808D600F9
:1036B0007708D50090305907F70001305A3DF800DF
:1036C00000305B3DF90000305C3DFA005802031CFD
:1036D000882B031D7B2B79085702031C882B031DA5
:1036E0007B2B78085602031C882B031D7B2B550867
:1036F00077020318882B8031CC2198316430230065
:10370000A7008031200054209831F1150230AE001E
:103710002300FA2A2000A72BDF302300A700FF3068
:10372000A6008031200042209831F7302300A70006
:10373000FF30A6008031200042209831EF30230076
:10374000A700FF30A60080312000422098310800F9
:10375000731E1A2C80319E2398317A082200A7000C
:103760007908A6007808A5007708A400230823009C
:10377000A900220022082300A8002200210823001B
:10378000A700220020082300A6002200270823000B
:10379000AD00220026082300AC00220025082300EB
:1037A000AB00220024082300AA00803120002C2432
:1037B00098317A082200AB007908AA007808A9009D
:1037C0007708A8002100470822002B02031C1B2CAD
:1037D000031D022C2100460822002A02031C1B2C78
:1037E000031D022C2100450822002902031C1B2C6A
:1037F000031D022C280821004402031C012C220076
:103800001B2C2200F31E1B2C8031200050229831EB
:1038100064302300A70080312000542098317312B7
:103820006F15F116721572178831A92398318831F6
:10383000272498312200200008006F19BD2F34087A
:103840002300A6000330A700803120003D279831D7
:10385000F708031DFF2CB4013408B6008031102492
:10386000983102302300A600C830A7008031200024
:10387000542098312300A60B342C803120009E2345
:1038800098317A082200A3007908A2007808A100E4
:103890007708A00064302300A70080312000542066
:1038A00098317316F31680319E2398317A08EC0014
:1038B0007908EB007808EA007708E9002300A50101
:1038C000A401F112F11AFE2CA40A0319A50AA508F5
:1038D000031D6E2C24080A3C03187B2CA501A401AF
:1038E00088312000072598318831E82798319031B8
:1038F0001F2598312300803120009E2398317A08BB
:103900002100A3007908A2007808A1007708A00090
:1039100020006C082300A90020006B082300A800E9
:1039200020006A082300A700200069082300A600E1
:10393000210023082300AD00210022082300AC0051
:10394000210021082300AB00210020082300AA0049
:10395000803120002C2498317A082100A7007908B2
:10396000A6007808A5007708A40080312000102464
:1039700098311E302300A700803120005420983158
:103980008031F8219831C008031DCA2C3F08323C11
:103990000318F92C2200430821002702031CFA2CEB
:1039A000031DEA2C2200420821002602031CFA2CE7
:1039B000031DEA2C2200410821002502031CFA2CD9
:1039C000031DEA2C240822004002031CE92C2100DC
:1039D000FA2C2100803120005022983164302300DD
:1039E000A7008031200054209831F1167312F31291
:1039F000B50121002000A8232300622C20003408F8
:103A00002300A6000330A700803120003D27983115
:103A1000770BDB2E3408B60035082300A6000330F0
:103A2000A700803120003D279831F708031DF42DB1
:103A3000803110249831FA302300A7008031200013
:103A4000542098318031F8219831803150229831BA
:103A500064302300A7008031200054209831C00832
:103A6000031D3A2D3F080E3C031C3A2D6F157217AB
:103A700072153D2D6F11721372116F19F42D803173
:103A80004222983102302300A600FA30A70080318C
:103A90002000542098312300A60B452D80312000B2
:103AA0009E2398317A08EC007908EB007808EA0048
:103AB0007708E9002300A501A401F112F11AF32D02
:103AC000803120004222983101302300A70080314C
:103AD0002000542098312300A40A0319A50A2508C0
:103AE000003C0318872DFF3A031D7A2D2408F43C6F
:103AF0000318872DA501A4018831200007259831DE
:103B00008831E827983190311F2598312300803182
:103B100020009E2398317A082100A3007908A20092
:103B20007808A1007708A00020006C082300A900F5
:103B300020006B082300A80020006A082300A700CB
:103B4000200069082300A600210023082300AD00FF
:103B5000210022082300AC00210021082300AB0033
:103B6000210020082300AA00803120002C24983155
:103B70007A082100A7007908A6007808A500770830
:103B8000A4002C302807F7000130293DF800003050
:103B90002A3DF90000302B3DFA002702031CF12DCD
:103BA000031DE22D79082602031CF12D031DE22DD1
:103BB00078082502031CF12D031DE22D240877024D
:103BC0000318F12D803120005022983164302300F9
:103BD000A7008031200054209831F1160230B50042
:103BE000210023005E2D200035082300A6000330AD
:103BF000A700803120003D279831770BDB2E8031E4
:103C000042229831FA302300A7008031200054204E
:103C100098318031F82198318031502298316430C8
:103C20002300A7008031200054209831C008031DD4
:103C3000212E3F080E3C031C212E6F1572177215A2
:103C4000242E6F11721372116F19DB2E8031102424
:103C5000983102302300A600FA30A70080312000FE
:103C6000542098312300A60B2C2E803120009E2357
:103C700098317A08EC007908EB007808EA007708B8
:103C8000E9002300A501A401F112F11ADA2E803116
:103C900020001024983101302300A700803120003B
:103CA000542098312300A40A0319A50A2508003CD2
:103CB00003186E2EFF3A031D612E2408F43C0318EE
:103CC0006E2EA501A4018831200007259831883186
:103CD000E827983190311F2598312300803120004A
:103CE0009E2398317A082100A3007908A200780861
:103CF000A1007708A00020006C082300A900200084
:103D00006B082300A80020006A082300A7002000F9
:103D100069082300A600210023082300AD0021002C
:103D200022082300AC00210021082300AB00210061
:103D300020082300AA00803120002C2498317A0822
:103D40002100A7007908A6007808A5007708A4003C
:103D500058302807F7000230293DF80000302A3D8E
:103D6000F90000302B3DFA002702031CD82E031D5A
:103D7000C92E79082602031CD82E031DC92E7808E7
:103D80002502031CD82E031DC92E24087702031810
:103D9000D82E803120005022983164302300A700B3
:103DA0008031200054209831F1160230B5002100F6
:103DB0002300452E200034082300A6000330A7006E
:103DC000803120003D2798317708023C031DBC2F2D
:103DD0003408B60080314222983102302300A60018
:103DE000C830A70080312000542098312300A60B52
:103DF000F02E803120009E2398317A082200A30003
:103E00007908A2007808A1007708A0006430230098
:103E1000A70080312000542098317316F3168031AA
:103E20009E2398317A08EC007908EB007808EA00C4
:103E30007708E9002300A501A401F112F11ABB2FB4
:103E4000A40A0319A50AA508031D2A2F24080A3C61
:103E50000318372FA501A4018831200007259831C8
:103E60008831E827983190311F259831230080311F
:103E700020009E2398317A082100A3007908A2002F
:103E80007808A1007708A00020006C082300A90092
:103E900020006B082300A80020006A082300A70068
:103EA000200069082300A600210023082300AD009C
:103EB000210022082300AC00210021082300AB00D0
:103EC000210020082300AA00803120002C249831F2
:103ED0007A082100A7007908A6007808A5007708CD
:103EE000A40080312000422298311E302300A70018
:103EF00080312000542098318031F8219831C00859
:103F0000031D862F3F08323C0318B62F22004308BA
:103F100021002702031CB72F031DA62F22004208F1
:103F200021002602031CB72F031DA62F22004108E3
:103F300021002502031CB72F031DA62F24082200F1
:103F40004002031CA52F2100B72F21008031200043
:103F50005022983164302300A70080312000542083
:103F60009831F1167312F3120130B50021002000D0
:103F7000A82323001E2F2000D82FFF302300A700E6
:103F8000FD30A6008031200042209831FF30230010
:103F9000A700FB30A6008031200042209831FF307E
:103FA0002300A700F730A60080312000422098317E
:023FB000080007
:10400000731F722880319E23A0317A082200B300EA
:104010007908B2007808B1007708B0002F082300B3
:10402000A90022002E082300A80022002D0823004A
:10403000A70022002C082300A6002200330823003A
:10404000AD00220032082300AC002200310823001A
:10405000AB00220030082300AA00803120002C246D
:10406000A0317A082200B7007908B6007808B500B8
:104070007708B40021004B0822003702031C732884
:10408000031D5A2821004A0822003602031C732807
:10409000031D5A282100490822003502031C7328F9
:1040A000031D5A28340821004802031C5928220005
:1040B00073282200F31F7328803120006C22A03166
:1040C00064302300A700803120005420A0317313F6
:1040D0006F167117F215F2178831A923A0318831B4
:1040E0002724A0312200200008006F1A152C380860
:1040F0002300A6000330A700803120003D27A03117
:10410000F708031D5729B8013808BA0080311E246A
:10411000A03102302300A600C830A7008031200063
:104120005420A0312300A60B8C28803120009E2330
:10413000A0317A082200AF007908AE007808AD00FF
:104140007708AC0064302300A700803120005420A1
:10415000A0317317F31780319E23A0317A08210014
:10416000AF007908AE007808AD007708AC002300F6
:10417000A501A4017113711B5629A40A0319A50AEC
:10418000A508031DC72824080A3C0318D428A50144
:10419000A401883120000725A0318831E827A0310B
:1041A00090311F25A0312300803120009E23A031B3
:1041B0007A082100B3007908B2007808B1007708C6
:1041C000B0002F082300A90021002E082300A8001A
:1041D00021002D082300A70021002C082300A600A1
:1041E000210033082300AD00210032082300AC0079
:1041F000210031082300AB00210030082300AA0071
:10420000803120002C24A0317A082100B7007908E1
:10421000B6007808B5007708B400803120001E246D
:10422000A0311E302300A700803120005420A0318F
:1042300080319421A031C208031D22294108323C5B
:10424000031851292200470821003702031C522974
:10425000031D42292200460821003602031C522970
:10426000031D42292200450821003502031C522962
:10427000031D4229340822004402031C4129210065
:1042800052292100803120006C22A03164302300AB
:10429000A700803120005420A03171177313F3134D
:1042A000B9012100200000202300BB28200038088D
:1042B0002300A6000330A700803120003D27A03155
:1042C000770B332B3808BA0039082300A6000330D7
:1042D000A700803120003D27A031F708031D4C2A9C
:1042E00080311E24A031FA302300A7008031200045
:1042F0005420A03180319421A03180316C22A03132
:1043000064302300A700803120005420A031C2086F
:10431000031D922941080E3C031C92296F16F217C7
:10432000F21595296F12F213F2116F1A4C2A80318F
:104330005E22A03102302300A600FA30A7008031AF
:1043400020005420A0312300A60B9D29803120009D
:104350009E23A0317A082100AF007908AE007808CA
:10436000AD007708AC002300A501A4017113711BF7
:104370004B2A803120005E22A03101302300A700AB
:10438000803120005420A0312300A40A0319A50A7B
:104390002508003C0318E029FF3A031DD32924080F
:1043A000F43C0318E029A501A40188312000072569
:1043B000A0318831E827A03190311F25A03123009A
:1043C000803120009E23A0317A082100B3007908B3
:1043D000B2007808B1007708B0002F082300A900C8
:1043E00021002E082300A80021002D082300A7008B
:1043F00021002C082300A600210033082300AD0073
:10440000210032082300AC00210031082300AB005A
:10441000210030082300AA00803120002C24A03184
:104420007A082100B7007908B6007808B500770847
:10443000B4002C303807F7000130393DF800003067
:104440003A3DF90000303B3DFA003702031C492A8F
:10445000031D3A2A79083602031C492A031D3A2A09
:1044600078083502031C492A031D3A2A34087702CA
:104470000318492A803120006C22A03164302300C7
:10448000A700803120005420A03171170230B900FC
:1044900021002300B729200039082300A60003309B
:1044A000A700803120003D27A031770B332B8031CE
:1044B0005E22A031FA302300A70080312000542072
:1044C000A03180319421A03180316C22A031643040
:1044D0002300A700803120005420A031C208031D12
:1044E000792A41080E3C031C792A6F16F217F2153F
:1044F0007C2A6F12F213F2116F1A332B80311E24B3
:10450000A03102302300A600FA30A700803120003D
:104510005420A0312300A60B842A803120009E2342
:10452000A0317A082100AF007908AE007808AD000C
:104530007708AC002300A501A4017113711B322B75
:10454000803120001E24A03101302300A7008031DB
:1045500020005420A0312300A40A0319A50A25082D
:10456000003C0318C72AFF3A031DBA2A2408F43C6A
:104570000318C72AA501A401883120000725A0310E
:104580008831E827A03190311F25A03123008031E8
:1045900020009E23A0317A082100B3007908B200E0
:1045A0007808B1007708B0002F082300A900210087
:1045B0002E082300A80021002D082300A7002100B9
:1045C0002C082300A600210033082300AD002100A1
:1045D00032082300AC00210031082300AB00210089
:1045E00030082300AA00803120002C24A0317A0852
:1045F0002100B7007908B6007808B5007708B40044
:1046000058303807F7000230393DF80000303A3DA5
:10461000F90000303B3DFA003702031C302B031D2C
:10462000212B79083602031C302B031D212B78081F
:104630003502031C302B031D212B3408770203188D
:10464000302B803120006C22A03164302300A70081
:10465000803120005420A03171170230B9002100B0
:1046600023009E2A200038082300A6000330A7005C
:10467000803120003D27A0317708023C031D142C17
:104680003808BA0080315E22A03102302300A60033
:10469000C830A700803120005420A0312300A60B91
:1046A000482B803120009E23A0317A082200AF00E1
:1046B0007908AE007808AD007708AC0064302300BC
:1046C000A700803120005420A0317317F3178031E8
:1046D0009E23A0317A082100AF007908AE00780847
:1046E000AD007708AC002300A501A4017113711B74
:1046F000132CA40A0319A50AA508031D832B24085B
:104700000A3C0318902BA501A4018831200007253D
:10471000A0318831E827A03190311F25A031230036
:10472000803120009E23A0317A082100B30079084F
:10473000B2007808B1007708B0002F082300A90064
:1047400021002E082300A80021002D082300A70027
:1047500021002C082300A600210033082300AD000F
:10476000210032082300AC00210031082300AB00F7
:10477000210030082300AA00803120002C24A03121
:104780007A082100B7007908B6007808B5007708E4
:10479000B400803120005E22A0311E302300A7002B
:1047A000803120005420A03180319421A031C208F2
:1047B000031DDE2B4108323C03180E2C2200470853
:1047C00021003702031C0F2C031DFE2B220046087C
:1047D00021003602031C0F2C031DFE2B220045086E
:1047E00021003502031C0F2C031DFE2B3408220070
:1047F0004402031CFD2B21000F2C210080312000DE
:104800006C22A03164302300A700803120005420A6
:10481000A03171177313F3130130B9002100200088
:1048200000202300772B2000302CFE302300A7002F
:10483000FF30A600803120004220A031BF3023008D
:10484000A700FF30A600803120004220A0317F3039
:104850002300A700FF30A600803120004220A031B5
:1048600008002B082300A6000330A7008031200099
:104870003D27A031F708031D482CAB012B08AC00E5
:104880002200C901C80125009101F03093052000E4
:104890002B082300A6000330A700803120003D270D
:1048A000A031770BC42C2B08AC0021000E11220084
:1048B0000E110C3025009300940195011E109E10DE
:1048C000013096002200C808031DB82CC908031D3A
:1048D000B82CD301D201C901C8014908023C031C0C
:1048E000AB2C031D772C4808EE3C031CAB2C49086D
:1048F000F9004808F800F90CF80CF90CF80CF90C60
:10490000780825009100F90C790C3039F70013086C
:10491000CF397704930005302300A70080312000B1
:104920005420A0312200D20A0319D30AD308031D50
:104930009D2C5208643C0318A72CD301D201883166
:1049400020000725A0318831E827A0312200C80ABD
:104950000319C90A6D2C0230C900EE30C800BB3003
:10496000250091001308CF3920389300C32C220072
:104970000230C900EE30C800BB302500910013089A
:10498000CF392038930020002B082300A6000330E5
:10499000A700803120003D27A0317708023C031D8D
:1049A000972D2B08AC0021000E1122000E110C30A7
:1049B00025009300940195011E109E100130960071
:1049C0002200C808031D352DC908031D352DD3014C
:1049D000D201C901C8014908033C031C292D031D4C
:1049E000F52C4808E83C031C292D4908F900480823
:1049F000F800F90CF80CF90CF80CF90C7808250003
:104A00009100F90C790C3039F7001308CF3977048D
:104A1000930005302300A700803120005420A031EE
:104A20002200D20A0319D30AD308031D1B2D5208F2
:104A3000643C0318252DD301D201883120000725BD
:104A4000A0318831E827A0312200C80A0319C90A19
:104A5000EB2C0330C900E830C800FA302500910083
:104A60001308CF399300972D22004808EE3C031D10
:104A70008D2D4908023C031D8D2DD301D20102303A
:104A8000C900EE30C8004908033C031C812D031DFA
:104A90004D2D4808E83C031C812D4908F9004808C1
:104AA000F800F90CF80CF90CF80CF90C7808250052
:104AB0009100F90C790C3039F7001308CF397704DD
:104AC000930005302300A700803120005420A0313E
:104AD0002200D20A0319D30AD308031D732D5208EA
:104AE000643C03187D2DD301D201883120000725B5
:104AF000A0318831E827A0312200C80A0319C90A69
:104B0000432D0330C900E830C800FA302500910079
:104B10001308CF399300972D22000330C900E830E5
:104B2000C800FA30250091001308CF399300200007
:104B300008006A30210099002000A301A201A10110
:104B4000A00122009D1235302000980099019601A5
:104B5000970196011110A401A601A501FF30A7003D
:104B6000A800A900AA00AB00AC00AD00AE00AF00E9
:104B7000B000B100B200B300B400B500B600B70099
:104B8000B800B900BA000130BB000330BC000430EB
:104B9000BD000630BE00C001BF01C201C101C40199
:104BA000C301C801C701C601C501CC01CB01CA01BF
:104BB000C901D001CF01CE01CD01D401D301D20171
:104BC000D101D801D701D601D501DC01DB01DA0121
:104BD000D901E001DF01DE01DD01E401E301E201D1
:104BE000E101E801E701E601E501EC01EB01EA0181
:104BF000E9012100A301A201A101A001A701A601D1
:104C0000A501A401AB01AA01A901A801AF01AE0150
:104C1000AD01AC01B301B201B101B001B701B60100
:104C2000B501B401BB01BA01B901B801BF01BE01B0
:104C3000BD01BC01C301C201C101C001C701C60160
:104C4000C501C401CB01CA01C901C801CF01CE0110
:104C5000CD01CC01D301D201D101D001D701D601C0
:104C6000D501D401DB01DA01D901D801DF01DE0170
:104C7000DD01DC01E301E201E101E001E701E60120
:104C8000E501E401EB01EA01E901E801EF01EE01D0
:104C9000ED01EC012200A301A201A101A001A701E5
:104CA000A601A501A401AB01AA01A901A801AF01B8
:104CB000AE01AD01AC01B301B201B101B001B70168
:104CC000B601B501B401BB01BA01B901B801BF0118
:104CD000BE01BD01BC01C301C201C101C001C701C8
:104CE000C601C501C4012000EE01ED012200C90189
:104CF000C801CB01CA01CD01CC01CF01CE01D10148
:104D0000D001D301D201D701D601D501D401DB01F5
:104D1000DA01D901D801DF01DE01DD01DC01E301A7
:104D2000E201E101E001E701E601E501E401EB0157
:104D3000EA01E901E801EF01EE01ED01EC012300D8
:104D4000A301A201A101A001A501A40120006F10EF
:104D5000EF106F11EF116F12EF126F13EF1370104E
:104D6000F0107011F0117012F0127013F013711036
:104D7000F1107111F1117112F1127113F11772101A
:104D8000F2107211F2117212F2127213F213731006
:104D9000F3107311F3117312F3127313F3137410EE
:104DA000F4107411F4117412F4127413F4137510D6
:104DB000F51075112F0091019201980199019A0146
:104DC00023008C018D018F0190012200920191013D
:104DD00094019301803120006A28A03180317A2A21
:104DE000A0318031492CA03188310028A031803198
:104DF000D72EA0318031052FA0319031B12FA031B5
:104E000080318427A0318031D227A03188315722C8
:104E1000A03188316D22A03188315A23A0318831E8
:104E20008224A0318831D324A0318831E827A031F1
:0A4E3000A8310028A031002F630014
:1050000088311325A831721E8E2980318423A8315E
:1050100002302300A600FA30A7008031200054207F
:10502000A8312300A60B0B28883120000725A831C2
:105030008831E827A8318031F821A8318031CC218E
:10504000A83164302300A700803120005420A8310B
:10505000C008031D2F283F08323C03188E298031D9
:10506000CC21A8316F107212741D60298031532138
:10507000A83102302300A600FA30A70080312000BA
:105080005420A8312300A60B3C28A501A4017413C9
:10509000741B8528A40A0319A50AA508031D542812
:1050A00024080A3C03185E28A501A40188312000C9
:1050B0000725A8318831E827A83123008031200056
:1050C0005321A8311E302300A70080312000542036
:1050D000A83180319421A831C208031D73284108EA
:1050E000323C031883286F10F111EF127212741101
:1050F00074178031CC21A83164302300A70080319F
:1051000020005420A8312300482880312000842327
:10511000A83102302300A600FA30A7008031200019
:105120005420A8312300A60B8C28803120009E2318
:10513000A8317A08D0007908CF007808CE00770827
:10514000CD002300A501A4017413741BEA2880314B
:1051500020008423A83101302300A70080312000E3
:105160005420A8312300A40A0319A50AA508031D89
:10517000BD282408193C0318C728A501A4018831BB
:1051800020000725A8318831E827A8312300803185
:1051900020009E23A8317A08D4007908D30078082B
:1051A000D2007708D1008031F821A831C008031D52
:1051B000DD283F08323C0318E82874178031CC21E1
:1051C000A83164302300A700803120005420A8318A
:1051D0002300A52820006F18602950082300A9008B
:1051E00020004F082300A80020004E082300A7003D
:1051F00020004D082300A600200054082300AD0025
:10520000200053082300AC00200052082300AB000C
:10521000200051082300AA00803120002C24A8314E
:105220007A08D8007908D7007808D6007708D50022
:10523000903055022200B80001302000563B220079
:10524000B90000302000573B2200BA000030200097
:10525000583B2200BB0003102000550D2100BC006C
:105260002000560D2100BD002000570D2100BE007A
:105270002000580D2100BF0003102000580C23000F
:10528000A9002000570C2300A8002000560C230082
:10529000A7002000550C2300A60020302602200085
:1052A000D90003302300273B2000DA000030230020
:1052B000283B2000DB0000302300293B2000DC00DD
:1052C000AE01B00198310020A83127082300A600C4
:1052D0000230A700803120003D27A831770B8B29B1
:1052E00020302300A700A60180312000C526A83168
:1052F000F7302300A700FF30A600803120004220B5
:10530000A831EF302300A700FF30A6008031200035
:105310004220A8318E2990310020A831F21EE42AC3
:105320008031DE21A83102302300A600FA30A70028
:10533000803120005420A8312300A60B9629883103
:1053400020000725A8318831E827A8318031F821CD
:10535000A83180313022A83164302300A700803189
:1053600020005420A831C008031DBA293F08323C50
:105370000318E42A80313022A831EF10F212F41D14
:10538000C82A8031DE21A83102302300A600FA307D
:10539000A700803120005420A8312300A60BC72984
:1053A000A501A401F413F41B102AA40A0319A50AE9
:1053B000A508031DDF2924080A3C0318E929A501D3
:1053C000A401883120000725A8318831E827A831B9
:1053D000230080312000DE21A8311E302300A700E9
:1053E000803120005420A8318031F821A831C00834
:1053F000031DFE293F08323C03180E2AEF107112DC
:105400006F13F212F411F41780313022A831643096
:105410002300A700803120005420A8312300D32985
:1054200080312000F623A83102302300A600FA3094
:10543000A700803120005420A8312300A60B172A92
:10544000803120009E23A8317A08E0007908DF002F
:105450007808DE007708DD002300A501A401F4131D
:10546000F41B752A80312000F623A8310130230077
:10547000A700803120005420A8312300A40A03197A
:10548000A50AA508031D482A2408193C0318522A16
:10549000A501A401883120000725A8318831E8271B
:1054A000A8312300803120009E23A8317A08E4002F
:1054B0007908E3007808E2007708E1008031942160
:1054C000A831C208031D682A4108323C0318732A18
:1054D000F41780313022A83164302300A7008031D6
:1054E00020005420A8312300302A2000EF18C82AB9
:1054F00060082300A90020005F082300A800200006
:105500005E082300A70020005D082300A6002000FD
:1055100064082300AD00200063082300AC002000D5
:1055200062082300AB00200061082300AA0080313C
:1055300020002C24A8317A08E8007908E7007808D0
:10554000E6007708E500903065022200BC000130DB
:105550002000663B2200BD0000302000673B220097
:10556000BE0000302000683B2200BF000310200076
:10557000650D2100C0002000660D2100C100200043
:10558000670D2100C2002000680D2100C30020002B
:105590000130B3009031FA25A83127082300A60076
:1055A0000230A700803120003D27A831770BE12A87
:1055B00004302300A700A60180312000C526A831B1
:1055C000E42A9031B520A831721F6B2C8031102451
:1055D000A83102302300A600FA30A7008031200055
:1055E0005420A8312300A60BEC2A8831200007257F
:1055F000A8318831E827A8318031F821A8318031DD
:105600005022A83164302300A700803120005420AC
:10561000A831C008031D102B3F08323C03186B2C27
:1056200080315022A8316F117213741E3D2C8031CD
:105630004222A83102302300A600FA30A7008031B0
:1056400020005420A8312300A60B1D2BA501A40186
:1056500075107518662BA40A0319A50AA508031D61
:10566000352B24080A3C03183F2BA501A4018831DF
:1056700020000725A8318831E827A8312300803190
:1056800020004222A8311E302300A70080312000D4
:105690005420A8318031F821A831C008031D542BB3
:1056A0003F08323C0318642B6F11F112EF13721391
:1056B0007412751480315022A83164302300A70081
:1056C000803120005420A8312300292B8031200074
:1056D0001024A83102302300A600FA30A700803140
:1056E00020005420A8312300A60B6D2B8031200010
:1056F0009E23A8317A08EC007908EB007808EA00CC
:105700007708E9002300A501A40175107518CD2BB9
:10571000803120001024A83101302300A7008031FF
:1057200020005420A8312300A40A0319A50AA508C3
:10573000031D9E2B2408193C0318A82BA501A401C6
:10574000883120000725A8318831E827A8312300B7
:10575000803120009E23A8317A082100A300790817
:10576000A2007808A1007708A00080312000F8216D
:10577000A831C008031DC02B3F08323C0318CB2BB7
:10578000751480315022A83164302300A700803185
:1057900020005420A8312300862B20006F193D2CB7
:1057A0006C082300A90020006B082300A80020003B
:1057B0006A082300A700200069082300A600210032
:1057C00023082300AD00210022082300AC002100A3
:1057D00021082300AB00210020082300AA0080310B
:1057E00020002C24A8317A082100A7007908A600FF
:1057F0007808A5007708A400903024022200C00099
:1058000001302100253B2200C10000302100263B51
:105810002200C20000302100273B2200C3000310F9
:105820002100240DC400250DC500260DC600270D3E
:10583000C7000310270C2300A9002100260C230019
:10584000A8002100250C2300A7002100240C230020
:10585000A600203026022100A80003302300273BA9
:105860002100A90000302300283B2100AA000030BD
:105870002300293B2100AB002000B501B70198317E
:105880001D24A83127082300A6000230A70080317C
:1058900020003D27A831770B682C2300A701023098
:1058A000A60080312000C526A831FF302300A700C4
:1058B000FB30A600803120004220A831FF302300B9
:1058C000A700F730A600803120004220A8316B2CC1
:1058D00090310221A831F21FCD2D80311E24A83134
:1058E00002302300A600FA30A700803120005420A7
:1058F000A8312300A60B732C883120000725A8317E
:105900008831E827A83180319421A83180316C2278
:10591000A83164302300A700803120005420A83132
:10592000C208031D972C4108323C0318CD2D80314D
:105930006C22A8316F12F213F41EC62D80315E2244
:10594000A83102302300A600FA30A70080312000E1
:105950005420A8312300A60BA42CA501A401F51006
:10596000F518ED2CA40A0319A50AA508031DBC2CE3
:1059700024080A3C0318C62CA501A4018831200084
:105980000725A8318831E827A8312300803120007D
:105990005E22A8311E302300A70080312000542051
:1059A000A83180319421A831C208031DDB2C4108A5
:1059B000323C0318EB2C6F1271137010F213F412B7
:1059C000F51480316C22A83164302300A7008031A7
:1059D00020005420A8312300B02C803120001E2448
:1059E000A83102302300A600FA30A7008031200041
:1059F0005420A8312300A60BF42C803120009E23D4
:105A0000A8317A082100AF007908AE007808AD000F
:105A10007708AC002300A501A401F510F518552D59
:105A2000803120001E24A83101302300A7008031DE
:105A300020005420A8312300A40A0319A50AA508B0
:105A4000031D262D2408193C0318302DA501A4019F
:105A5000883120000725A8318831E827A8312300A4
:105A6000803120009E23A8317A082100B3007908F4
:105A7000B2007808B1007708B0008031200094218E
:105A8000A831C208031D482D4108323C0318532D8C
:105A9000F51480316C22A83164302300A7008031D6
:105AA00020005420A83123000E2D20006F1AC62D8F
:105AB00021002F082300A90021002E082300A800A0
:105AC00021002D082300A70021002C082300A60098
:105AD000210033082300AD00210032082300AC0070
:105AE000210031082300AB00210030082300AA0068
:105AF000803120002C24A8317A082100B7007908D1
:105B0000B6007808B5007708B4009030340222005F
:105B1000C40001302100353B2200C50000302100C7
:105B2000363B2200C60000302100373B2200C70070
:105B300003102100340DC800350DC900360DCA0010
:105B4000370DCB000310370C2300A9002100360CC1
:105B50002300A8002100350C2300A7002100340CED
:105B60002300A600203026022100B80003302300C5
:105B7000273B2100B90000302300283B2100BA0058
:105B800000302300293B2100BB002000B901A031D7
:105B90007520A8319031B621A8318831A923A831C8
:105BA00088312724A83180316427A83129082802A8
:105BB0000319DE2DEF119031B322A8312C082B02EE
:105BC0000319E52DA0313124A8316F18EE2D2F08CF
:105BD0002D020319EE2D98310020A831EF18F72D72
:105BE000320831020319F72D9031FA25A8316F19C7
:105BF000002E360834020319002E98311D24A831D6
:105C00006F1A092E3A0838020319092EA03175209F
:065C1000A831A0311A2F9B
:020000040001F9
:04000E00A439FF1EF4
:00000001FF
;PIC16F1939
;CRC=F76E  CREATED="28-Dec-18 14:19"
