:10000000A031072A000021008F1022008F1020004D
:10001000D60156080F3C031C3A2821000F1022007D
:100020000F106408E6006308E50020005608F7009A
:10003000031920282200E535E60DF70B1B282000C8
:100040000039F700220066088039FA0077087A0440
:1000500003192F2821000F1122000F15332821002A
:100060000F1122000F1121000F1022000F14200089
:10007000D60A092821008F1022008F1420000800C2
:10008000220061082000D905220062082000DA055C
:100090005A082200E400200059082200E300200052
:1000A0000320080022006408E6006308E5006508F4
:1000B0002000E800E70122006608E500E6012000D4
:1000C00067082200E504200068082200E6046508AD
:1000D000F8006608F9007908E4007808E3002100D8
:1000E0008F1322008F132000D50155080F3C031CED
:1000F000A62821000F1322000F136408E6006308EE
:10010000E50020005508F70003198C282200E5358A
:10011000E60DF70B872820000039F700220066085B
:100120008039FA0077087A0403199B2821008F127E
:1001300022008F169F2821008F1222008F1221008B
:100140000F1322000F172000D50A752821008F13E6
:1001500022008F172000080020308500E230840044
:1001600000080319C1280130F800F701F70BB62881
:10017000F80BB5284A30F700F70BBC28BF28800BD6
:10018000B3280800220061082000D9042200620878
:100190002000DA045A082200E40020005908220056
:1001A000E30020000320080026008C0127008C01BA
:1001B00022008C018D018E018F01900127008D019D
:1001C0002200E201E101200040202200E401E301DD
:1001D0002000522004302200E100FA30E20020002A
:1001E000AC202200E10BED283F30650001306600B5
:1001F0006700083021008F00F730900026000C11B6
:1002000027000C1126008C0127008C0103302600EA
:100210008D0022000E111D109D100E110C302500B6
:100220009300940195011E109E100130960000303D
:10023000F800043820009C00FF309B007A30210039
:100240009900F0302500930564302200E200200080
:10025000AC2022008E101D119D111D129D128E10BA
:100260000C3025009A009B019C011E119E1101304B
:100270009D000030F800043820009C00FF309B00F7
:100280007A3021009900F03025009A056430220070
:10029000E2002000AC202100C315C316C31443158F
:1002A000C11442174216C21640082200E100210084
:1002B00041082200E200210042082200E300210060
:1002C00043082200E40085019E308400F830800558
:1002D000013085008C308400640880000430850083
:1002E0000C30840063088000043085000D308400E9
:1002F0006208800001308500903084006108800031
:1003000021001E169E121E139E171D14643022001B
:10031000E2002000AC20FF302200E200E1002000DB
:10032000C22040302200E400E300200052202200DE
:100330000F1626008C1027008C1426000C102700A6
:100340000C1410302200E100FA30E2002000AC2052
:100350002200E10BA429A03120006E2BE401220031
:1003600063082000E300E201220064082000E100AD
:100370006308E400E30163086104E50064086204C3
:10038000E6006508F8006608F900080022005E1E15
:10039000D52921008D1222008D1621000D12220078
:1003A0000D1621008D1122008D115E1AE329210006
:1003B0008D1222008D1621000D1222000D12210037
:1003C0008D1122008D15200008003C30F80021001E
:1003D0001D08833978049D0014302200E2002000BB
:1003E000AC2021009D141130F7009D1CF929F70B5A
:1003F000F5291B08B8001C08B900200008002100DE
:100400008D1222008D1221000D1222000D122100EA
:100410008D1122008D11200008000C30F800210001
:100420001D08833978049D0014302200E20020006A
:10043000AC2021009D141130F7009D1C212AF70BE0
:100440001D2A1B08B0001C08B10020000800220073
:100450005E1E362A21008D1222008D1621000D12FB
:1004600022000D1221008D1122008D155E1A442AE2
:1004700021008D1222008D1621000D1222000D1672
:1004800021008D1122008D11200008002200DE1EA7
:10049000552A21008E1322008E1721000D112200F3
:1004A0000D1521000E1322000E13DE1A632A2100FF
:1004B0008E1322008E1721000D1122000D11210034
:1004C0000E1322000E172000080021008E132200B8
:1004D0008E1321000D1122000D1121000E13220098
:1004E0000E13200008001030F80021001D08833989
:1004F00078049D0014302200E2002000AC2021008E
:100500009D141130F7009D1C872AF70B832A1B08C6
:10051000B2001C08B300200008002200DE1E9C2A46
:1005200021008E1322008E1721000D1122000D11C3
:1005300021000E1322000E17DE1AAA2A21008E13A4
:1005400022008E1721000D1122000D1521000E131F
:1005500022000E132000080022005E1FBB2A21008B
:100560008E1122008E1521008C1322008C17210081
:100570008D1022008D105E1BC92A21008E112200D1
:100580008E1521008C1322008C1321008D10220067
:100590008D14200008002C30F80021001D0883393C
:1005A00078049D0014302200E2002000AC202100DD
:1005B0009D141130F7009D1CDF2AF70BDB2A1B0866
:1005C000BA001C08BB002000080021008E11220088
:1005D0008E1121008C1322008C1321008D1022001B
:1005E0008D10200008000430F80021001D08833918
:1005F00078049D0014302200E2002000AC2021008D
:100600009D141130F7009D1C072BF70B032B1B08C3
:10061000B4001C08B5002000080022005E1F1C2B3F
:1006200021008E1122008E1521008C1322008C13C4
:1006300021008D1022008D145E1B2A2B21008E11AB
:1006400022008E1521008C1322008C1721008D10A2
:1006500022008D10200008002200DE1F3B2B21000D
:100660000E1222000E1621008E1222008E12210080
:100670000C1322000C17DE1B492B21000E12220046
:100680000E1621008E1222008E1621000C1322005D
:100690000C132000080021000E1222000E1221006F
:1006A0008E1222008E1221000C1322000C13200047
:1006B00008000830F80021001D08833978049D00E7
:1006C00014302200E2002000AC2021009D141130E3
:1006D000F7009D1C6D2BF70B692B1B08B6001C083F
:1006E000B700200008002200DE1F822B21000E121E
:1006F00022000E1621008E1222008E1621000C13ED
:1007000022000C13DE1B902B21000E1222000E166D
:1007100021008E1222008E1221000C1322000C17D1
:100720002000080020082200E30020002808220002
:10073000E4002000AE2179082200E2007808E10000
:100740006208E4006108E30020005220C621C8309E
:100750002200E2002000AC20FD017D08313C031C9A
:10076000C82BC62132302200E2002000AC20E52157
:100770002100B908031DC02B38082D3C0318C52BD8
:100780002000FF213230FD002100FD0A2000AD2BAA
:10079000FF2164302200E2002000AC200D22210065
:1007A0003108E3003008E20020002722C830220090
:1007B000E2002000AC20FD017D08313C031CF72B3A
:1007C000272232302200E2002000AC20E521210067
:1007D000B908031DEF2B38082D3C0318F42B20001B
:1007E000FF213230FD002100FD0A2000DC2BFF211B
:1007F00064302200E2002000AC200D2221003108EC
:10080000E1003008E000600862022200E1002100FF
:100810006108633B2200E200FA006108E208031D60
:10082000172C6108313C031C172C59145916200051
:1008300020082200E300200027082200E400200016
:10084000AE2179082200E2007808E1006208E400A5
:100850006108E300200052204622C8302200E20056
:100860002000AC20FE017E08313C031C4E2C4622A9
:1008700032302200E2002000AC20E5212100B9083E
:10088000031D462C38084B3C03184B2C20006522D6
:100890003230FE002100FE0A2000332C6522643035
:1008A0002200E2002000AC20732221003308E70080
:1008B0003208E60020008D22C8302200E20020002D
:1008C000AC20FE017E08313C031C7D2C8D22323091
:1008D0002200E2002000AC20E5212100B908031D20
:1008E000752C38084B3C03187A2C200065223230D6
:1008F000FE002100FE0A2000622C652264302200E6
:10090000E2002000AC20732221003308E500320809
:10091000E400640866022200E10021006508673BEC
:100920002200E200FA006108E208031D9D2C610824
:10093000313C031C9D2CD914D916F03026008C00B4
:100940008C1127008C1126000C1127000C11260099
:100950008C1327008C132000AC2220082200E30017
:10096000200026082200E4002000AE2179082200A1
:10097000E2007808E1006208E4006108E30020007A
:100980005220C8302200E2002000AC202100DE010D
:100990005E08313C031CE32C2000AC2232302200E4
:1009A000E2002000AC20CB222100BB08031DDC2C80
:1009B0003A082D3C0318E12C2000E52232302100BA
:1009C000DE00DE0AC82C2000E52264302200E200AE
:1009D0002000AC20F32221003508EB003408EA00A7
:1009E00020000D23C8302200E2002000AC202100AE
:1009F000DE015E08313C031C142D20000D23323033
:100A00002200E2002000AC20CB222100BB08031D05
:100A10000D2D3A082D3C0318122D2000E52232300E
:100A20002100DE00DE0AF92C2000E52264302200DD
:100A3000E2002000AC20F32221003508E900340850
:100A4000E80068086A022200E100210069086B3BA7
:100A50002200E200FA006108E208031D382D610857
:100A6000313C031C382D591559172000EE01220086
:100A7000200020082200E300200025082200E400D6
:100A80002000AE2179082200E2007808E100620827
:100A9000E4006108E300200052202C23C83022002B
:100AA000E2002000AC202100DF015F08313C031C84
:100AB000702D20002C2332302200E2002000AC20D8
:100AC000CB222100BB08031D692D3A082D3C0318D9
:100AD0006E2D20004B2332302100DF00DF0A552D20
:100AE00020004B2364302200E2002000AC20592378
:100AF00021003708EF003608EE0020007323C830CD
:100B00002200E2002000AC202100DF015F08313C20
:100B1000031CA12D2000732328302200E2002000B6
:100B2000AC20CB222100BB08031D9A2D3A082D3C96
:100B300003189F2D20004B2332302100DF00DF0AF5
:100B4000862D20004B2364302200E2002000AC20E0
:100B5000592321003708ED003608EC006C086E02BE
:100B60002200E10021006D086F3B2200E200FA0044
:100B70006108E208031DC52D6108313C031CC52D29
:100B8000D915D9172000EF012200C830E20020005B
:100B9000AC20A031712BF801F901F701FA01220014
:100BA0006608031DD62D65080319F02D1030E700E7
:100BB0000310E30DE40DF70DFA0D66087A02031D2C
:100BC000E32D65087702031CEC2D6508F702031C72
:100BD000FA036608FA020314F80DF90DE70BD82D95
:100BE0002000080040302200E400E30020005220F2
:100BF0002200591E592E0130A9070318AA0A031909
:100C0000AB0A0319AC0A2908103C031D172E2A0849
:100C1000273C031D172EAB08031D172EAC08031D20
:100C2000172EE2010830E1002000C220220029082E
:100C3000203C031D302E2A084E3C031D302EAB08ED
:100C4000031D302EAC08031D302EBF30E200F730FC
:100C5000E100200040202200AC01AB01AA01A90163
:100C6000210090162000901A572E01302200B9075B
:100C70000318BA0A0319BB0A0319BC0A3908403C15
:100C8000031D552E3A080D3C031D552E3B08033C11
:100C9000031D552EBC08031D552E5912BF30E2000E
:100CA000F730E100200040202200302E2000F82DF7
:100CB0002200D91EB92E0130AD070318AE0A031960
:100CC000AF0A0319B00A2D08103C031D772E2E0819
:100CD000273C031D772EAF08031D772EB008031D98
:100CE000772E2030E200E1012000C22022002D08F2
:100CF000203C031D902E2E084E3C031D902EAF0865
:100D0000031D902EB008031D902EDF30E200FF304F
:100D1000E100200040202200B001AF01AE01AD0192
:100D20002100101520001019B72E01302200BD0738
:100D30000318BE0A0319BF0A0319C00A3D08403C44
:100D4000031DB52E3E080D3C031DB52E3F08033C88
:100D5000031DB52EC008031DB52ED912DF30E200E9
:100D6000FF30E100200040202200902E20002200D1
:100D7000592E591F322F0130B1070318B20A031937
:100D8000B30A0319B40A3108103C031DE02E3208DF
:100D9000273C031DE02EB308031DE02EB408031DFD
:100DA000E02E26008C1027008C1426000C10270043
:100DB0000C142200E2010430E1002000C2202200D5
:100DC0003108203C031D012F32084E3C031D012F2A
:100DD000B308031D012FB408031D012FFF30E200EB
:100DE000FB30E1002000402026008C1027008C10F2
:100DF00026000C1027000C102200B401B301B20130
:100E0000B101210010162000101A302F01302200ED
:100E1000C1070318C20A0319C30A0319C40A410807
:100E2000403C031D2E2F42080D3C031D2E2F43086E
:100E3000033C031D2E2FC408031D2E2F5913FF3012
:100E4000E200FB30E1002000402026008C1027004B
:100E50008C1026000C1027000C102200012F2000FF
:100E60002200B92ED91F9E2F0130B5070318B60AEC
:100E70000319B70A0319B80A3508103C031D5C2F83
:100E80003608273C031D5C2FB708031D5C2FB808EC
:100E9000031D5C2F0830E200E1012000C220103069
:100EA0002200E200E1012000C22080302200E200A6
:100EB000E1012000C22022003508203C031D752FCF
:100EC00036084E3C031D752FB708031D752FB80853
:100ED000031D752F6730E200FF30E1002000402045
:100EE0002200B801B701B601B5012100101420009D
:100EF00010189C2F01302200C5070318C60A0319D9
:100F0000C70A0319C80A4508403C031D9A2F460822
:100F10000D3C031D9A2F4708033C031D9A2FC80858
:100F2000031D9A2FD9136730E200FF30E100200043
:100F300040202200752F20002200322FA0312000F7
:100F4000772BF030250093059A052200E201E1019C
:100F50002000402026008C1027008C1026000C104A
:100F600027000C1021000F1222000F126730E20040
:100F7000FF30E10020004020FE302200E200FF3080
:100F8000E10020004020FF302200E200FB30E100C1
:100F90002000402026008C1027008C1026000C100A
:100FA00027000C1020002C082200E30020002C0851
:100FB0002200E4002000AE217908E0007808DF007C
:100FC00060082200E40020005F082200E300200007
:100FD00052202200A001A101A201A301A401A501A8
:100FE000A6012100DB01DA01DD01DC012200CE01D6
:0E0FF000CD012000E901F101F001A0317A2BC2
:1010000020082200E300200024082200E4008031B0
:101010002000AE21883179082200E2007808E10042
:101020006208E4006108E30080312000522088312A
:101030002200591897285F1680312000C621883178
:10104000C8302200E20080312000AC20883122002C
:101050005F1E4A2880312000C621883132302200AC
:10106000E20080312000AC2088318031E5218831D8
:101070002100B908031D402838082D3C03184728D3
:1010800022005F1280312000FF21883121002000E2
:10109000272822003230E20080312000AC20883145
:1010A00080310D22883121003108C9003008C80084
:1010B00022005F168031200027228831C8302200AC
:1010C000E20080312000AC20883122005F1E882899
:1010D000803120002722883132302200E200803126
:1010E0002000AC2088318031E52188312100B90809
:1010F000031D7E2838082D3C0318852822005F1226
:1011000080312000FF218831210020006528220045
:101110003230E20080312000AC20883180310D2255
:10112000883121003108C7003008C60022002000A5
:1011300020082200E300200023082200E400803180
:101140002000AE21883179082200E2007808E10011
:101150006208E4006108E3008031200052208831F9
:101160002200D9182F295F168031200046228831AD
:10117000C8302200E20080312000AC2088312200FB
:101180005F1EE22880312000462288313230220062
:10119000E20080312000AC2088318031E5218831A7
:1011A0002100B908031DD82838084B3C0318DF2854
:1011B00022005F128031200065228831210020004A
:1011C000BF2822003230E20080312000AC2088317C
:1011D00080317322883121003308CD003208CC00E1
:1011E00022005F16803120008D228831C830220015
:1011F000E20080312000AC20883122005F1E2029CF
:10120000803120008D22883132302200E20080318E
:101210002000AC2088318031E52188312100B908D7
:10122000031D162938084B3C03181D2922005F12A4
:10123000803120006522883121002000FD28220015
:101240003230E20080312000AC20883180317322BE
:10125000883121003308CB003208CA002200200068
:1012600020082200E300200022082200E400803150
:101270002000AE21883179082200E2007808E100E0
:101280006208E4006108E3008031200052208831C8
:1012900022005919C7295F1680312000AC228831FD
:1012A000C8302200E20080312000AC2088312200CA
:1012B0005F1E7A2980312000AC2288313230220032
:1012C000E20080312000AC2088318031CB2288318F
:1012D0002100BB08031D70293A082D3C031877290B
:1012E00022005F1280312000E52288312100200099
:1012F000572922003230E20080312000AC208831B2
:101300008031F322883121003508D1003408D00023
:1013100022005F16803120000D238831C830220062
:10132000E20080312000AC20883122005F1EB82905
:10133000803120000D23883132302200E2008031DC
:101340002000AC2088318031CB2288312100BB08BD
:10135000031DAE293A082D3C0318B52922005F125F
:1013600080312000E52288312100200095292200CB
:101370003230E20080312000AC2088318031F3220D
:10138000883121003508CF003408CE00220020002B
:1013900020082200E300200021082200E400803120
:1013A0002000AE21883179082200E2007808E100AF
:1013B0006208E4006108E300803120005220883197
:1013C0002200D9195F2A5F168031200073238831EB
:1013D000C8302200E20080312000AC208831220099
:1013E0005F1E122A803120007323883132302200A0
:1013F000E20080312000AC2088318031CB2288315E
:101400002100BB08031D082A3A082D3C03180F2AA7
:1014100022005F12803120004B2388312100200000
:10142000EF2922003230E20080312000AC208831E8
:1014300080315923883121003708D7003608D6007B
:1014400022005F16803120002C238831C830220012
:10145000E20080312000AC20883122005F1E502A3B
:10146000803120002C23883132302200E20080318C
:101470002000AC2088318031CB2288312100BB088C
:10148000031D462A3A082D3C03184D2A22005F12FC
:10149000803120004B238831210020002D2A22009A
:1014A0003230E20080312000AC2088318031592375
:1014B000883121003708D5003608D40022002100E9
:1014C00049084702031C812A031D6A2A460848026C
:1014D0000318812A22005E12210049082200A80078
:1014E000210048082200A70021004708C90046083B
:1014F000C800220028082100C70022002708210078
:10150000C6004D084B02031CA22A031D8B2A4A0861
:101510004C020318A22A2200DE1221004D082200EC
:10152000A80021004C082200A70021004B08CD0094
:101530004A08CC00220028082100CB0022002708FE
:101540002100CA0051084F02031CC32A031DAC2A04
:101550004E0850020318C32A22005E1321005108CE
:101560002200A800210050082200A70021004F08F7
:10157000D1004E08D000220028082100CF00220010
:1015800027082100CE0057085502031CE42A031D3A
:10159000CD2A540856020318E42A2200DE13210043
:1015A00057082200A800210056082200A7002100A9
:1015B0005508D7005408D600220028082100D5007D
:1015C000220027082100D40022005918FA2A2100FD
:1015D000460848072200E10021004708493D220053
:1015E000E2000310620C2100C5002200610C210002
:1015F000C40022005919212B2100500D2200E100C6
:101600002100510D2200E200E10DE20DFC30E10568
:1016100021004E082200E10721004F082200E23D90
:101620006208E4006108E300E6010530E50080316E
:101630002000CB25883179082100D3007808D2001A
:101640002200D919482B2100560D2200E10021006B
:10165000570D2200E200E10DE20DFC30E105210012
:1016600054082200E107210055082200E23D6208EB
:10167000E4006108E300E6010530E5008031200068
:10168000CB25883179082100D9007808D8002200BC
:10169000A0312000742B22005918572B7208230008
:1016A00091009513151413082000EC002200D9189E
:1016B000622B730823009100951315141308200062
:1016C000ED00220059196D2B740823009100951329
:1016D000151413082000EE002200D919782B750884
:1016E000230091009513151413082000EF00220029
:1016F000760823009100951315141308FA012100B0
:10170000A4007A08A5007B08230091009513151406
:101710001308FA012100A6007A08A7002000E901B9
:10172000EA01EB01F001F101A0317D2B063022002E
:10173000E100FA30E20080312000AC208831220044
:10174000E10B992B2000D7015708073C031CD32B32
:101750005B08DC00DB010310570D0E3E84002030D7
:1017600085000318850A013FFA00003FDB047A0870
:10177000DC045C082200E40020005B082200E30097
:10178000803120005220883108302200E100FA30F8
:10179000E20080312000AC2088312200E10BC72B11
:1017A0002000D70AA42B080069080339031DFC2B6D
:1017B000E901FF302200E200FD30E100803120002D
:1017C00040208831FF302200E200FE30E10080310D
:1017D00020004020883121000F1222000F12260025
:1017E0008C1127008C1126000C1127000C112600EB
:1017F0008C1327008C13200069080339013C031D5A
:10180000232C2200E2010230E10080312000C220BE
:101810008831FF302200E200FE30E10080312000FC
:101820004020883121000F1222000F1226008C1157
:1018300027008C1526000C1127000C1126008C1394
:1018400027008C13200069080339023C031D492C32
:101850002200E2010230E10080312000C220883104
:101860002200E2010130E10080312000C2208831F5
:1018700021000F1222000F1226008C1127008C1558
:1018800026000C1127000C1526008C1327008C1342
:10189000200069080339033C031D6E2C2200E2017D
:1018A0000230E10080312000C22088312200E201B4
:1018B0000130E10080312000C220883121000F1268
:1018C00022000F1626008C1127008C1526000C1103
:1018D00027000C1526008C1327008C172000080009
:1018E0006A080339031D982CFF302200E2007F3084
:1018F000E1008031200040208831FF302200E200EA
:10190000BF30E1008031200040208831FF302200CC
:10191000E200DF30E1008031200040208831EA0120
:1019200025009101F03093052100DB01DA01200050
:101930006A080339013C031D112D2200E2018030A9
:10194000E10080312000C2208831FF302200E20017
:10195000BF30E1008031200040208831FF3022007C
:10196000E200DF30E1008031200040208831220099
:101970001D109D1021000E1122000E110C302500AB
:101980009300940195011E109E10013096002100D5
:10199000DA08031D062DDB08031D062DDB01DA0125
:1019A0005B08023C031CFA2C031DDA2C5A08583C35
:1019B000031CFA2C5B08F9005A08F800F90CF80C23
:1019C000F90CF80CF90C780825009100F90C790C49
:1019D0003039F7001308CF39770493000230220022
:1019E000E20080312000AC2088312100DA0A03199E
:1019F000DB0AD02C0230DB005830DA0096302500AC
:101A000091001308CF399300102D21000230DB0024
:101A10005830DA009630250091001308CF39930032
:101A200020006A080339023C031DCE2D2200E2018A
:101A30008030E10080312000C22088312200E201A4
:101A40004030E10080312000C2208831FF30220088
:101A5000E200DF30E10080312000402088312200A8
:101A60001D109D1021000E1122000E110C302500BA
:101A70009300940195011E109E10013096002100E4
:101A8000DA08031D7F2DDB08031D7F2DDB01DA0142
:101A90005B08033C031C722D031D522D5A08523C57
:101AA000031C722D5B08F9005A08F800F90CF80CB9
:101AB000F90CF80CF90C780825009100F90C790C58
:101AC0003039F7001308CF39770493000230220031
:101AD000E20080312000AC2088312100DA0A0319AD
:101AE000DB0A482D0330DB005230DA00D430250009
:101AF00091001308CF3920389300CD2D21005A08CA
:101B0000583C031DC22D5B08023C031DC22D023050
:101B1000DB005830DA005B08033C031CB52D031DC5
:101B2000952D5A08523C031CB52D5B08F9005A0844
:101B3000F800F90CF80CF90CF80CF90C78082500F1
:101B40009100F90C790C3039F7001308CF3977047C
:101B5000930002302200E20080312000AC20883166
:101B60002100DA0A0319DB0A8B2D0330DB00523027
:101B7000DA00D430250091001308CF3920389300C3
:101B8000CD2D21000330DB005230DA00D4302500A7
:101B900091001308CF392038930020006A080339D8
:101BA000033C031DCC2E2200E2018030E100803195
:101BB0002000C22088312200E2014030E100803163
:101BC0002000C22088312200E2012030E100803173
:101BD0002000C220883122001D109D1021000E110E
:101BE00022000E110C3025009300940195011E1067
:101BF0009E10013096002100DA08031D3B2EDB0801
:101C0000031D3B2EDB01DA015B08033C031C2E2E77
:101C1000031D0E2E5A08FA3C031C2E2E5B08F900F9
:101C20005A08F800F90CF80CF90CF80CF90C7808C3
:101C300025009100F90C790C3039F7001308CF39E1
:101C40007704930002302200E20080312000AC20B3
:101C500088312100DA0A0319DB0A042E0330DB0085
:101C6000FA30DA00FE30250091001308CF39203811
:101C70009300CC2E21005A08583C031D7E2E5B0891
:101C8000023C031D7E2E0230DB005830DA005B0878
:101C9000033C031C712E031D512E5A08FA3C031CF1
:101CA000712E5B08F9005A08F800F90CF80CF90CD1
:101CB000F80CF90C780825009100F90C790C3039F2
:101CC000F7001308CF397704930002302200E200B6
:101CD00080312000AC2088312100DA0A0319DB0AA8
:101CE000472E0330DB00FA30DA00FE302500910089
:101CF0001308CF3920389300CC2E21005A08523CCB
:101D0000031DC12E5B08033C031DC12E0330DB0005
:101D10005230DA005B08033C031CB42E031D942EE2
:101D20005A08FA3C031CB42E5B08F9005A08F80064
:101D3000F90CF80CF90CF80CF90C78082500910056
:101D4000F90C790C3039F7001308CF397704930078
:101D500002302200E20080312000AC2088312100D6
:101D6000DA0A0319DB0A8A2E0330DB00FA30DA00C4
:101D7000FE30250091001308CF3920389300CC2E77
:101D800021000330DB00FA30DA00FE30250091003C
:101D90001308CF3920389300200008002200620881
:101DA000F80161020318D72E6108F700E32EF7014E
:101DB0000830E300E10DF70D620877020318F70021
:101DC000F80DE30BDA2E2000080022005918B52F79
:101DD00020006C082200E1000330E2002000CE2643
:101DE000F708031D252FFF302200E200F730E10045
:101DF000803120004020883140302200E200E101A3
:101E000080312000C220883180310D228831143089
:101E100021004607F8000030473DFA007A083102F9
:101E2000031C1E2F031D182F3008780203181E2FC5
:101E30008031200027228831252F21008031200089
:101E4000FF21883122005F1420006C082200E1008D
:101E50000330E2002000CE26770B622F2200E20141
:101E60000830E10080312000C2208831BF302200DC
:101E7000E200FF30E10080312000402088318031D5
:101E80000D228831143021004802F7000030493B10
:101E9000FA007708F80031087A02031C5B2F031D53
:101EA000552F7808300203185B2F80312000C6219F
:101EB0008831622F210080312000FF2188312200EB
:101EC0005F1420006C082200E1000330E2002000D3
:101ED000CE267708023C031DB52F2200E201083010
:101EE000E10080312000C220883140302200E20031
:101EF000E10180312000C220883180310D228831FB
:101F0000143021004402F7000030453BFA00770806
:101F1000F80031087A02031C992F031D932F7808CB
:101F200030020318992F80312000C6218831B52F47
:101F3000210014304407F8000030453DFA007A08CB
:101F40003102031CAF2F031DA92F3008780203189C
:101F5000AF2F8031200027228831B52F210080311A
:101F60002000FF21883122005F1420000800220099
:101F7000640866068039E800E41FC32FE309E4091A
:101F8000E30A0319E40AE61FCA2FE509E609E50A90
:101F90000319E60AF801F901F701FA016608031DC1
:101FA000D42F65080319EE2F1030E7000310E30D5E
:101FB000E40DF70DFA0D66087A02031DE12F65089E
:101FC0007702031CEA2F6508F702031CFA03660870
:101FD000FA020314F80DF90DE70BD62FE81FF52FC1
:0E1FE000F809F909F80A0319F90A20000800A7
:102000006B082200E1000330E20088312000CE2678
:102010009031F708031D2628FD302200E200FF3032
:10202000E1008031200040209031FB302200E200AE
:10203000FF30E1008031200040209031EB01F03092
:1020400025009A052100DD01DC0120006B0822003B
:10205000E1000330E20088312000CE269031770B7A
:102060009E2802302200E200E10180312000C220DF
:102070009031FB302200E200FF30E100803120008F
:102080004020903122001D119D111D129D12210032
:102090008E1022008E100C3025009A009B019C01AE
:1020A0001E119E1101309D002100DC08031D9328A4
:1020B000DD08031D9328DD01DC015D08023C031CE3
:1020C0008728031D67285C08BC3C031C87285D0823
:1020D000F9005C08F800F90CF80CF90CF80CF90C94
:1020E000780825009800F90C790C3039F7001A08A7
:1020F000CF3977049A0002302200E20080312000BC
:10210000AC2090312100DC0A0319DD0A5D28023081
:10211000DD00BC30DC00AF30250098001A08CF3954
:102120009A009D2821000230DD00BC30DC00AF3079
:10213000250098001A08CF399A0020006B08220069
:10214000E1000330E20088312000CE26903177088C
:10215000023C031D582902302200E200E1018031D7
:102160002000C220903104302200E200E1018031E1
:102170002000C220903122001D119D111D129D12C0
:1021800021008E1022008E100C3025009A009B0139
:102190009C011E119E1101309D002100DC08031DD1
:1021A0000C29DD08031D0C29DD01DC015D08033C61
:1021B000031C0029031DE0285C08E83C031C0029DF
:1021C0005D08F9005C08F800F90CF80CF90CF80C43
:1021D000F90C780825009800F90C790C3039F700D3
:1021E0001A08CF3977049A0002302200E2008031C9
:1021F0002000AC2090312100DC0A0319DD0AD6282A
:102200000330DD00E830DC00FA30250098001A08C1
:10221000CF399A00582921005C08BC3C031D4E2987
:102220005D08023C031D4E290230DD00BC30DC009D
:102230005D08033C031C4229031D22295C08E83C7D
:10224000031C42295D08F9005C08F800F90CF80C41
:10225000F90CF80CF90C780825009800F90C790CA9
:102260003039F7001A08CF3977049A00023022007B
:10227000E20080312000AC2090312100DC0A0319FB
:10228000DD0A18290330DD00E830DC00FA302500D3
:1022900098001A08CF399A00582921000330DD0030
:1022A000E830DC00FA30250098001A08CF399A008F
:1022B000200008002200D918BC2920006D0801392F
:1022C000031D8F29ED01DF302200E200FF30E10025
:1022D00080312000402090318031732290311430C1
:1022E00021004C02F70000304D3BFA007708F8005F
:1022F00033087A02031C8829031D822978083202D8
:102300000318882980312000462290318F2921002E
:1023100080312000652290312200DF1420006D08FA
:102320000139013C031DBC2920302200E200E101FB
:1023300080312000C22090318031732290311430DE
:1023400021004A07F80000304B3DFA007A083302BA
:10235000031CB629031DB029320878020318B629D8
:10236000803120008D229031BC2921008031200055
:10237000652290312200DF14200008002200591944
:10238000952A20006E082200E1000330E200883127
:102390002000CE269031F708031D012AEE01260009
:1023A0008C1027008C1426000C1027000C10FF3016
:1023B0002200E200FB30E10080312000402090311B
:1023C0008031F3229031143021004E07F8000030A4
:1023D0004F3DFA007A083502031CFA29031DF4293F
:1023E000340878020318FA29803120000D23903137
:1023F000012A210080312000E522903122005F1562
:1024000020006E082200E1000330E2008831200045
:10241000CE269031770B562A26008C1027008C1080
:1024200026000C1027000C14FF302200E200FB30C5
:10243000E10080312000402090318031F322903142
:10244000143021005202F7000030533BFA007708A5
:10245000F80035087A02031C392A031D332A78084C
:1024600034020318392A80312000AC229031562AD8
:10247000210014305207F8000030533DFA007A086A
:102480003502031C4F2A031D492A34087802031819
:102490004F2A803120000D239031562A21008031AF
:1024A0002000E522903122005F1520006E082200F6
:1024B000E1000330E20088312000CE269031770819
:1024C000023C031D952A26008C1027008C10260044
:1024D0000C1027000C142200E2010430E1008031CE
:1024E0002000C22090318031F3229031143021003D
:1024F0005002F7000030513BFA007708F800350829
:102500007A02031C8F2A031D892A780834020318D3
:102510008F2A80312000AC229031952A2100803111
:102520002000E522903122005F15200008002200E3
:10253000D919892B20006F082200E1000330E20046
:1025400088312000CE269031F708031DE32AEF01E1
:1025500008302200E200E10180312000C2209031E9
:10256000EF302200E200FF30E10080312000402007
:1025700090317F302200E200FF30E1008031200006
:10258000402090318031592390311430210054077C
:10259000F8000030553DFA007A083702031CDC2AA7
:1025A000031DD62A360878020318DC2A8031200061
:1025B0002C239031E32A2100803120004B239031DD
:1025C0002200DF1520006F082200E1000330E20046
:1025D00088312000CE269031770B412BF730220036
:1025E000E200FF30E10080312000402090311030C7
:1025F0002200E200E10180312000C22090317F30D2
:102600002200E200FF30E1008031200040209031C4
:10261000803159239031143021005802F7000030E6
:10262000593BFA007708F80037087A02031C242B7C
:10263000031D1E2B780836020318242B803120003E
:1026400073239031412B210014305807F8000030DB
:10265000593DFA007A083702031C3A2B031D342B2C
:102660003608780203183A2B803120002C23903151
:10267000412B2100803120004B2390312200DF15B7
:1026800020006F082200E1000330E20088312000C2
:10269000CE2690317708023C031D892BF7302200AB
:1026A000E200FF30E1008031200040209031103006
:1026B0002200E200E10180312000C2209031803010
:1026C0002200E200E10180312000C22090318031FF
:1026D00059239031143021005602F7000030573B47
:1026E000FA007708F80037087A02031C832B031DD1
:1026F0007D2B780836020318832B8031200073234A
:102700009031892B2100803120004B239031220011
:10271000DF152000080021000D1420000D18732E75
:1027200022005B19952B2000732EFA30E2008031D5
:102730002000AC2090312200601121000D142000F7
:102740000D18312C21000C1620000C1A2E2C0130F3
:102750002200C9070318CA0A0319CB0A0319CC0AB5
:10276000CC08031DC52B4B08033C03182D2CFF3A46
:10277000031DC52B4A08923C03182D2CFF3A031D5C
:10278000C52B4908E03C03182D2CCC01CB01CA0114
:10279000C9018831200096239031210027082200AA
:1027A000E400210026082200E300E6010A30E500EB
:1027B00088312000B72790317808D40021002708FD
:1027C0002200E400210026082200E300E6010A308E
:1027D000E50088312000B72790317708AD00540814
:1027E00084002030850000082200E10020002D0830
:1027F00084002030850000082200E2006108E30028
:102800006208E40080312000AE2190317908E000B8
:102810007808DF0060082200E40020005F08220042
:10282000E30080312000522090310B08F7008B1319
:102830007B082300910021002608230093009513B4
:10284000151555309600AA30960095149518262C2B
:10285000151177088B0422006015200022009D2BA3
:1028600020002200601DFD2D21000D1420000D18F8
:10287000672D22005B193E2C2000672DFA30E20004
:1028800080312000AC2090312200CC01CB01CA0164
:10289000C90121000D1420000D18F42C0130220074
:1028A000C9070318CA0A0319CB0A0319CC0ACC08B2
:1028B000031D6C2C4B08033C0318F22CFF3A031D3C
:1028C0006C2C4A08923C0318F22CFF3A031D6C2C26
:1028D0004908E03C0318F22CCC01CB01CA01C90124
:1028E0006011E0150630E100FA30E200803120008E
:1028F000AC2090312200E10B742C2000D801580844
:102900000A3C031CAE2C5D08DE00DD010310580DEF
:102910001E3E8400203085000318850A013FFA001E
:10292000003FDD047A08DE045E082200E400200097
:102930005D082200E30080312000522090310830F1
:102940002200E100FA30E20080312000AC2090311A
:102950002200E10BA22C2000D80A7F2C210026089F
:1029600022022200E10021002708233B2200E2008E
:10297000FA006108E21FC42C6108003CF700003037
:10298000FA006208FA3B7708E1007A08E200E21BED
:10299000D02CE208031DF22C6108023C031CF22C2F
:1029A0006016DF1BD52C5F1FDB2C01302000E900F7
:1029B00022006014EE2C6018E92CDF1EE32C01309D
:1029C0002000E9002200DF1AE82C2000E9012200A3
:1029D000EE2C01302000E900220060142000EB0101
:1029E000EF012200492C20002200601D662D5B11A2
:1029F0002100A60A0319A70AA71B082DA708031D73
:102A0000052D26081E3C0318082DA7011E30A60020
:102A100027082200E400210026082200E300E60146
:102A20000A30E50088312000B72790317808D400BB
:102A3000210027082200E400210026082200E300EC
:102A4000E6010A30E50088312000B7279031770889
:102A5000AD00540884002030850000082200E10009
:102A600020002D0884002030850000082200E200AC
:102A70006108E3006208E40080312000AE2190315B
:102A80007908E0007808DF0060082200E4002000F8
:102A90005F082200E30080312000522090310B08B3
:102AA000F7008B137B0823009100210026082300E8
:102AB00093009513151555309600AA30960095147D
:102AC0009518602D151177088B0422002000210035
:102AD0000D1420000D1C6F2D22005B15200021001D
:102AE0000C1620000C1AF32D2200DB19792D200082
:102AF000F32DFA30E20080312000AC20903122002A
:102B0000DB11601DF22D210026080319A703A6037F
:102B1000A71B912DA708031D942D26080F3C031C0D
:102B2000942DA7011030A60027082200E400210000
:102B300026082200E300E6010A30E5008831200083
:102B4000B72790317808D400210027082200E4003C
:102B5000210026082200E300E6010A30E500883162
:102B60002000B72790317708AD005408840020304A
:102B7000850000082200E10020002D08840020309C
:102B8000850000082200E2006108E3006208E4001A
:102B900080312000AE2190317908E0007808DF0014
:102BA00060082200E40020005F082200E30080317A
:102BB0002000522090310B08F7008B137B08230074
:102BC0009100210026082300930095131515553018
:102BD0009600AA30960095149518EC2D15117708DB
:102BE0008B042200200021000C1620000C1EFB2D5F
:102BF0002200DB152000312C22005B11E019722E1F
:102C00002100A40A0319A50AA51B102EA508031D5F
:102C10000D2E24081E3C0318102EA5011E30A40002
:102C200025082200E400210024082200E300E60138
:102C30000A30E50088312000B72790317808D400A9
:102C4000210025082200E400210024082200E300DE
:102C5000E6010A30E50088312000B7279031770877
:102C6000AD0022005B1B722E20005408840020302F
:102C7000850000082200E10020002D08840020309B
:102C8000850000082200E2006108E3006208E40019
:102C900080312000AE2190317908E0007808DF0013
:102CA00060082200E40020005F082200E300803179
:102CB0002000522090310B08F7008B137608230078
:102CC0009100210024082300930095131515553019
:102CD0009600AA309600951495186C2E1511770859
:102CE0008B042200200021000D1420000D1C7C2EDE
:102CF00022005B15E011200021000C1620000C1AA8
:102D0000FB2E2200DB19862E2000FB2EDB1121007A
:102D100024080319A503A403A51B952EA508031DCC
:102D2000982E24080F3C031C982EA5011030A400F7
:102D300025082200E400210024082200E300E60127
:102D40000A30E50088312000B72790317808D40098
:102D5000210025082200E400210024082200E300CD
:102D6000E6010A30E50088312000B7279031770866
:102D7000AD0022005B1BFA2E200054088400203096
:102D8000850000082200E10020002D08840020308A
:102D9000850000082200E2006108E3006208E40008
:102DA00080312000AE2190317908E0007808DF0002
:102DB00060082200E40020005F082200E300803168
:102DC0002000522090310B08F7008B137608230067
:102DD0009100210024082300930095131515553008
:102DE0009600AA30960095149518F42E15117708C0
:102DF0008B042200200021000C1620000C1E032F43
:102E00002200DB1520002200DE1D502FDE112100E4
:102E100025082200E400210024082200E300E60146
:102E20000A30E50088312000B72790317808D400B7
:102E3000210025082200E400210024082200E300EC
:102E4000E6010A30E50088312000B7279031770885
:102E5000AD00540884002030850000082200E10005
:102E600020002D0884002030850000082200E200A8
:102E70006108E3006208E40080312000AE21903157
:102E80007908E0007808DF0060082200E4002000F4
:102E90005F082200E30080312000522090312200A0
:102EA000200008008831D42390318831702490317B
:102EB00000208831E52690315A21BE2197228B23AC
:102EC000A031832B2430F80021001D0883397804B9
:102ED0009D0014302200E20080312000AC209031AF
:102EE00021009D141130F7009D1C782FF70B742FD3
:102EF0001B08BC001C08BD00BD08031D872F3C0833
:102F00001D3C031C872F22005B17892F2100220004
:102F10005B132830F80021001D08833978049D00D8
:102F200014302200E20080312000AC2090312100DA
:102F30009D141130F7009D1C9F2FF70B9B2F1B0832
:102F4000BE001C08BF00BF08031DAE2F3E081D3C7D
:102F5000031CAE2F2200DB17B02F21002200DB1351
:102F60009831200000209031A031862B21008F1550
:102F700020008F19CC2F22005A18C02F2000CC2FF0
:102F80005A102000E90A70080139013C031DCC2FBA
:102F90002200DC145E15200021008F1520008F1DFB
:102FA000D42F22005A142000A031982B26000D1493
:102FB00025000D18EF2F22005A19E02F2500EF2FC2
:102FC0005A112000EB0A70080139013C031DEE2F55
:102FD0002200DC15DC14DC165E152000250026001E
:102FE0000D1425000D1CF72F22005A152500A031C5
:042FF00020009E2BF4
:1030000022005B1BB728DB1BB7282430F800210007
:103010001D08833978049D0014302200E2008031BD
:103020002000AC20983121009D141130F7009D1C28
:103030001B28F70B17281B08AA001C08AB00280840
:103040002A022200E100210029082B3B2200E20095
:10305000FA006108E21F34286108003CF7000030E4
:10306000FA006208FA3B7708E1007A08E200E21B06
:103070005E28E208031D40286108093C03185E2809
:10308000223021002A022200E100013021002B3BE6
:103090002200E200E4006108E300E6010B30E500F5
:1030A00088312000B727983179082100A1007808DD
:1030B000A0002B08A9002A08A80022002830F80048
:1030C00021001D08833978049D0014302200E2009D
:1030D00080312000AC20983121009D141130F70080
:1030E0009D1C7428F70B70281B08AE001C08AF004D
:1030F0002C082E022200E10021002D082F3B220087
:10310000E200FA006108E21F8D286108003CF70028
:103110000030FA006208FA3B7708E1007A08E20022
:10312000E21BB728E208031D99286108093C03182F
:10313000B728223021002E022200E10001302100B8
:103140002F3B2200E200E4006108E300E6010B30BF
:10315000E50088312000B727983179082100A300C5
:103160007808A2002F08AD002E08AC002200200035
:1031700008002200CF0A0319D00ACD0A0319CE0A8B
:103180005008E4004F08E3000330E600E930E500B2
:1031900080312000CB25983177082200E1007A08A1
:1031A000E2006108E83C031D5B296208033C031D43
:1031B0005B29D001CF012430F80021001D0883399C
:1031C00078049D0014302200E20080312000AC2001
:1031D000983121009D141130F7009D1CF128F70B48
:1031E000ED281B08BC001C08BD00BD08031D0029FC
:1031F0003C081D3C031C002922005B17022921000A
:1032000022005B132830F80021001D088339780460
:103210009D0014302200E20080312000AC20983163
:1032200021009D141130F7009D1C1829F70B14295B
:103230001B08BE001C08BF00BF08031D27293E084D
:103240001D3C031C27292200DB172929210022000D
:10325000DB1321000E1420000E18562922005C14E6
:1032600070080139013C031D5429F001FE30E200D1
:10327000FF30E1008031200040209831FF302200F3
:10328000E200EF30E1008031200040209831E90178
:103290008831D4239831EA01883170249831EB01C8
:1032A00090310020983122005829200022005C1023
:1032B0002000002022005B1F032ADB1F032A5C1C66
:1032C000032A4E08E4004D08E3001730E600713091
:1032D000E50080312000CB25983177082200E100FD
:1032E0007A08E2006108D03C031D96296208073C79
:1032F000031D962920002A082200E30020002B0845
:103300002200E40080312000AE2198317908E000ED
:103310007808DF0060082200E40020005F08220037
:10332000E300803120005220983122004E08E40052
:103330004D08E3001730E6007130E50080312000D1
:10334000CB25983177082200E1007A08E200610875
:10335000A03C031DCB2962080F3C031DCB29200094
:103360002A082200E300200021082200E400803126
:103370002000AE2198317908E0007808DF0060086D
:103380002200E40020005F082200E30080312000DA
:103390005220983122004E08E4004D08E300173017
:1033A000E6007130E50080312000CB2598317708A8
:1033B0002200E1007A08E2006108703C031D022A45
:1033C0006208173C031D022A20002A082200E3009D
:1033D000200022082200E40080312000AE21983134
:1033E0007908E0007808DF0060082200E40020008F
:1033F0005F082200E3008031200052209831220033
:10340000CE01CD012C2D5B1F742ADB1F742A4E08C0
:10341000E4004D08E3000F30E600A130E500803104
:103420002000CB25983177082200E1007A08E200DD
:103430006108D03C031D3C2A6208073C031D3C2A5E
:1034400020002A082200E300200021082200E400D6
:1034500080312000AE2198317908E0007808DF0043
:1034600060082200E40020005F082200E3008031B1
:1034700020005220983122004E08E4004D08E3005D
:103480000F30E600A130E50080312000CB259831D7
:1034900077082200E1007A08E2006108A03C031DE1
:1034A000732A62080F3C031D732A20002A08220099
:1034B000E300200022082200E40080312000AE2139
:1034C00098317908E0007808DF0060082200E40005
:1034D00020005F082200E300803120005220983154
:1034E0002200CE01CD012C2D5B1FE52A5C1CE52AB4
:1034F0004E08E4004D08E3000F30E600A130E5007F
:1035000080312000CB25983177082200E1007A082D
:10351000E2006108D03C031DAD2A6208073C031D90
:10352000AD2A20002A082200E30020002B082200F8
:10353000E40080312000AE2198317908E00078085D
:10354000DF0060082200E40020005F082200E300A2
:10355000803120005220983122004E08E4004D08AE
:10356000E3000F30E600A130E50080312000CB25DC
:10357000983177082200E1007A08E2006108A03C57
:10358000031DE42A62080F3C031DE42A20002A08D8
:103590002200E300200021082200E4008031200006
:1035A000AE2198317908E0007808DF006008220039
:1035B000E40020005F082200E30080312000522058
:1035C00098312200CE01CD012C2DDB1F562B5C1C27
:1035D000562B4E08E4004D08E3000F30E600A13002
:1035E000E50080312000CB25983177082200E100EA
:1035F0007A08E2006108D03C031D1E2B6208073CDC
:10360000031D1E2B20002A082200E30020002B08A7
:103610002200E40080312000AE2198317908E000DA
:103620007808DF0060082200E40020005F08220024
:10363000E300803120005220983122004E08E4003F
:103640004D08E3000F30E600A130E5008031200096
:10365000CB25983177082200E1007A08E200610862
:10366000A03C031D552B62080F3C031D552B200069
:103670002A082200E300200022082200E400803112
:103680002000AE2198317908E0007808DF0060085A
:103690002200E40020005F082200E30080312000C7
:1036A000522098312200CE01CD012C2D5B1F902B92
:1036B0004E08E4004D08E3000730E600D130E50095
:1036C00080312000CB25983177082200E1007A086C
:1036D000E2006108D03C031D8F2B6208073C031DEC
:1036E0008F2B20002A082200E3002000210822005E
:1036F000E40080312000AE2198317908E00078089C
:10370000DF0060082200E40020005F082200E300E0
:1037100080312000522098312200CE01CD012C2D85
:10372000DB1F2C2C4E08E4004D08E3000F30E600B0
:10373000A130E50080312000CB25983177082200A8
:10374000E1007A08E2006108D03C031DC72B620843
:10375000073C031DC72B20002A082200E30020009D
:1037600022082200E40080312000AE21983179083F
:10377000E0007808DF0060082200E40020005F0815
:103780002200E300803120005220983122004E08B0
:10379000E4004D08E3000F30E600A130E500803181
:1037A0002000CB25983177082200E1007A08E2005A
:1037B0006108A03C031D2B2C62080F3C031D2B2C21
:1037C000210025082200E400210024082200E30053
:1037D000E6010A30E50088312000B72798317808E3
:1037E000D400210025082200E40021002408220042
:1037F000E300E6010A30E50088312000B727983160
:103800007708AD00540884002030850000082200AD
:10381000E10020002D0884002030850000082200EF
:10382000E2006108E3006208E40080312000AE217C
:1038300098317908E0007808DF0060082200E40091
:1038400020005F082200E3008031200052209831E0
:103850002200CE01CD012C2D5C1CC82C4E08E400AA
:103860004D08E3000F30E600A130E5008031200074
:10387000CB25983177082200E1007A08E200610840
:10388000D03C031D632C6208073C031D632C200001
:103890002A082200E30020002B082200E4008031E7
:1038A0002000AE2198317908E0007808DF00600838
:1038B0002200E40020005F082200E30080312000A5
:1038C0005220983122004E08E4004D08E3000F30EA
:1038D000E600A130E50080312000CB259831770843
:1038E0002200E1007A08E2006108A03C031DC72C19
:1038F00062080F3C031DC72C210025082200E400AC
:10390000210024082200E300E6010A30E5008831A6
:103910002000B72798317808D4002100250822001C
:10392000E400210024082200E300E6010A30E5005B
:1039300088312000B72798317708AD0054088400FB
:103940002030850000082200E10020002D088400BE
:103950002030850000082200E2006108E3006208D0
:10396000E40080312000AE2198317908E000780829
:10397000DF0060082200E40020005F082200E3006E
:1039800080312000522098312200CE01CD012C2D13
:103990004E08E4004D08E3000730E600D130E500B2
:1039A00080312000CB25983177082200E1007A0889
:1039B000E2006108D03C031D2C2D6208073C031D6A
:1039C0002C2D210025082200E400210024082200DB
:1039D000E300E6010A30E50088312000B72798317E
:1039E0007808D400210025082200E40021002408E2
:1039F0002200E300E6010A30E50088312000B72705
:103A000098317708AD005408840020308500000804
:103A10002200E10020002D088400203085000008ED
:103A20002200E2006108E3006208E4008031200027
:103A3000AE2198317908E0007808DF0060082200A4
:103A4000E40020005F082200E300803120005220C3
:103A500098312200CE01CD01A0312000892B220017
:103A6000591D392DD91D392D26008D1127008D1195
:103A700022005919552DD91D552D20006E08220000
:103A8000E1000330E20088312000CE269831F708AB
:103A9000031D502D26008D1127008D11542D20005F
:103AA00026008D1127008D152200591D712DD91961
:103AB000712D20006F082200E1000330E200883100
:103AC0002000CE269831F708031D6C2D26008D119D
:103AD00027008D11702D200026008D1127008D15D7
:103AE00022005919992DD919992D20006E0822000C
:103AF000E1000330E20088312000CE269831F7083B
:103B0000031D942D6F082200E1000330E20088318C
:103B10002000CE269831F708031D942D26008D1124
:103B200027008D11982D200026008D1127008D155E
:103B30002200A03120008C2B2200200820006902E6
:103B40000319A92D8831D423983169082200A000D7
:103B500020002200210820006A020319B62D8831B6
:103B6000702498316A082200A10020002200220857
:103B700020006B020319C32D9031002098316B088F
:103B80002200A20020002200230820006C0203195A
:103B9000D02D22005F1020006C082200A30020001E
:103BA00022005F18D82D88312000E52698312200A8
:103BB000240820006D020319E42D2200DF102000EC
:103BC0006D082200A40020002200DF18EC2D9031A7
:103BD00020005A2198312200250820006E02031986
:103BE000F82D22005F1120006E082200A5002000A1
:103BF00022005F19002E90312000BE219831220052
:103C0000260820006F0203190C2E2200DF1120006D
:103C10006F082200A60020002200DF19142E903128
:103C20002000972298312200A03120008F2B220003
:103C30005C18722E21009015200090196B2E220026
:103C4000DB18242E20006B2EDB10F00ADE145C172C
:103C5000DC105C11DC115C12DC12E0105E11DC1770
:103C60005D105D11DD10DD155D125D13DD12E012DA
:103C7000F101FE30E200FF30E10080312000402001
:103C80009831FF302200E200EF30E1008031200067
:103C90004020983170080139031D672E2200DB1285
:103CA000DF1260105F13DF13F0012000E901EA0169
:103CB000EB012100DB01DA01DD01DC0126000D1240
:103CC00027000D1226000D1127000D1120002200E3
:103CD000D201D1012000210090152000901D732EEB
:103CE0002200DB1420002200D10A0319D20A510855
:103CF000D03C031D942E5208073C031D942E0B0844
:103D0000F7008B137C082300910070089300951333
:103D1000151555309600AA309600951495188E2EDC
:103D2000151177088B0422005B1EA02E7C0823004F
:103D30009100951315141308F000F10122005B1295
:103D4000A0312000922B210010172000101B382FCB
:103D500022005B18AD2E2000382F5B10F10A601F87
:103D6000C22E601320006A082200D50020006C08D3
:103D70002200D60020006D082200D70020006E0827
:103D80002200D80070080139031DF92E710801398D
:103D9000031DE52EFF30E200EF30E100803120000E
:103DA00040209831F101220055082000EA0022004D
:103DB00056082000EC00220057082000ED002200E9
:103DC00058082000EE002200601771080139013CFC
:103DD000031DF92EE2011030E10080312000C220E5
:103DE00098310330EA000130EC00ED010230EE00C2
:103DF000220070080139013C031D392F7108013977
:103E0000031D1E2FFF30E200EF30E1008031200063
:103E1000402098312200E012F10155082000EA000C
:103E2000220056082000EC00220057082000ED0078
:103E3000220058082000EE002200601771080139A6
:103E4000013C031D392FE016DC175D105D11DD10FC
:103E50005F13E2011030E10080312000C220983170
:103E60000330EA00E9010130EC00ED010230EE0020
:103E70002200210010172000101F412F22005B1488
:103E80002000A031952B210090172000901BA12F1E
:103E90002200DA184D2F2000A12FDA107008013906
:103EA000031D782F71080139031D592F2000EA0ADC
:103EB000220071080139013C031D782FF1015508DA
:103EC0002000EA00220056082000EC0022005708DB
:103ED0002000ED00220058082000EE00FF302200F4
:103EE000E200EF30E10080312000402098312200D4
:103EF00070080139013C031DA22F2000EA0A2200AC
:103F00005C155C165E1571080139013C031DA22F7A
:103F1000F10155082000EA00220056082000EC00BC
:103F2000220057082000ED00220058082000EE0073
:103F3000FF302200E200EF30E1008031200040201D
:103F400098312200210090172000901FAA2F2200F4
:103F5000DA142000A0319B2B2200D919E52F210073
:103F6000101420001018DE2F2200DA1BB92F2000B9
:103F7000DE2FDA132000EF0A70080139013C031D1F
:103F8000C72F2200DC16DC14DC155E1520000B08A0
:103F9000F7008B1375082300910020006F082300A1
:103FA00093009513151555309600AA309600951478
:103FB0009518D82F151177088B04200021001014B4
:103FC0002000101CE62F2200DA172000A031A42BBD
:1040000071080139031D7528210090162000901AAF
:1040100036282200DA190E2820003628DA1120006E
:104020006C08023C031D17280130EC001F28EC0827
:10403000031D1D280230EC001F280130EC000B0886
:10404000F7008B1372082300910020006C082300F6
:1040500093009513151555309600AA3096009514C7
:1040600095183028151177088B0420002100901630
:104070002000901E3E282200DA1520002100901416
:10408000200090186D2822005A1A482820006D2818
:104090005A1220006C08023C031D5028EC015628DF
:1040A0006C0B55280230EC005628EC010B08F70089
:1040B0008B1372082300910020006C0823009300EA
:1040C0009513151555309600AA309600951495183D
:1040D0006728151177088B04200021009014200018
:1040E000901C752822005A16200071080139013CE5
:1040F000031DD228210090162000901A9E2822002D
:10410000DA19842820009E28DA11F10155082000D0
:10411000EA00220056082000EC0022005708200088
:10412000ED00220058082000EE00FF302200E200DF
:10413000EF30E100803120004020A03121009016B6
:104140002000901EA6282200DA15200021009014DD
:1041500020009018CA2822005A1AB0282000CA2825
:104160005A12F10155082000EA00220056082000EA
:10417000EC00220057082000ED0022005808200023
:10418000EE00FF302200E200EF30E100803120003D
:104190004020A031210090142000901CD228220041
:1041A0005A162000A031A02B210010152000101954
:1041B00047292200DA1ADE2820004729DA1270087F
:1041C0000139031D092971080139031DEA2820005E
:1041D000ED0A220071080139013C031D0929F10192
:1041E00055082000EA00220056082000EC002200BA
:1041F00057082000ED00220058082000EE00FF3094
:104200002200E200EF30E100803120004020A031A8
:10421000220070080139013C031D30292000ED0AFD
:1042200071080139013C031D2F29F10122005508B5
:104230002000EA00220056082000EC002200570867
:104240002000ED00220058082000EE00FF30220080
:10425000E200EF30E100803120004020A031220058
:104260000B08F7008B1373082300910020006D08E2
:10427000230093009513151555309600AA3096002B
:10428000951495184129151177088B0420002100F9
:1042900010152000101D4F292200DA162000A03131
:1042A000A12B22005919D129210010162000101A23
:1042B000CA2922005A1B5E292000CA295A137008F5
:1042C0000139031D892971080139031D6A2920005C
:1042D000EE0A220071080139013C031D8929F10110
:1042E00055082000EA00220056082000EC002200B9
:1042F00057082000ED00220058082000EE00FF3093
:104300002200E200EF30E100803120004020A031A7
:10431000220070080139013C031DB3292000EE0A78
:1043200022005C165C155E1571080139013C031D05
:10433000B329F10155082000EA00220056082000A8
:10434000EC00220057082000ED0022005808200051
:10435000EE00FF302200E200EF30E100803120006B
:104360004020A03122000B08F7008B1374082300B3
:10437000910020006E082300930095131515553009
:104380009600AA30960095149518C429151177083F
:104390008B042000210010162000101ED2292200BC
:1043A0005A172000A031A22B22005C18052A5F1B9F
:1043B000DB29DF1FF02926000D1227000D16220031
:1043C000DF16DF1BE014601EE7295F1BE0142000EE
:1043D00069080339031DEE290130E900F72922009D
:1043E00026000D1227000D122200DF1220002200ED
:1043F0005F1F002A26000D1127000D15042A220038
:1044000026000D1127000D112200200008006A303F
:10441000210099002000AD01D401D501D601D701BA
:10442000D801DA01D901DC01DB01DE01DD01E001A7
:10443000DF01E201E101E401E301E601E501E80158
:10444000E701E901EA01EB01EC01ED01EE01EF0109
:10445000F001F1010130F2000230F3000330F4000A
:104460000430F5000530F6000630FB000730FC0094
:104470002100A101A001A301A201A5011830A400FF
:10448000A7011630A600FF30A900F430A800AB0148
:10449000AA01FF30AD00F430AC00AF01AE01B101B4
:1044A000B001B301B201B501B401B701B601B90160
:1044B000B801BB01BA01BD01BC01BF01BE01C3010E
:1044C000C201C101C001C501C401C701C601C901C2
:1044D000C801CB01CA01CD01CC01CF01CE01D10170
:1044E000D001D301D201D501D401D701D601D90120
:1044F000D801DB01DA01DD01DC01FD01FE01DE0195
:10450000DF01E101E001E301E201E501E401E7018E
:10451000E601E901E801EB01EA01ED01EC01EF013F
:10452000EE012200A001A101A201A301A401A501A5
:10453000A601A801A701AC01AB01AA01A901B00124
:10454000AF01AE01AD01B401B301B201B101B801D7
:10455000B701B601B501BC01BB01BA01B901C00187
:10456000BF01BE01BD01C401C301C201C101C80137
:10457000C701C601C501CC01CB01CA01C901CE01E9
:10458000CD01D001CF01D201D101D401D301D50198
:10459000D601D701D8015910D9105911D911591282
:1045A000D9125913D9135A14DA145A15DA155A169E
:1045B000DA165A17DA175B14DB145B15DB155B167A
:1045C000DB125B13DB135C10DC105C11DC115C1282
:1045D000DC125C17DC135D14DD105D11DD115D165E
:1045E000DD125D13DD175E14DE145E11DE155E163E
:1045F000DE165E17DE175F10DF105F11DF115F162A
:10460000DF125F13DF136010E0106011E011601221
:10461000E01260132F0091019201980199019A0113
:104620009B019C019D0123008C01900128008C01BD
:104630008D01220092019101512B0D340034203460
:104640003F3406345B344F3466346D347D34073484
:104650007F346F347934503400340B3400342E34CA
:104660000034003476340034793400343834003483
:10467000383400343F340934C03400340D348034CD
:104680007C3400346E340034793400340034003427
:104690007C3400346E34003479340534C034003452
:1046A0000034233085001D30840085171200F70088
:1046B000003A03196B2B1200F800F81B632B0F391B
:1046C000870012008600781B1200781F12001E005F
:1046D000F70B652B562B80312000D428A031803178
:1046E000922BA03188310028A0318031F22DA031E9
:1046F0008031A12FA03188314B2BA03188319623F6
:10470000A0319031522FA0319031622FA0319831D9
:10471000B928A03198312F2DA03198319C2DA0318E
:104720009831172EA0319831A32EA0319031B62F99
:10473000A0319831432FA0319031D62FA0310028DD
:10474000D42851299831AC2FA03190318B23A0313E
:0A475000A8310028A031872B630078
:1050000022005C18D92E70080139013C031DD92EED
:105010005E1912280130E200E10180312000C22037
:10502000A83122005E1D3A28D30A0319D40A530876
:10503000703C031D28285408173C031D2828FE3007
:10504000E200FF30E100803120004020A831220042
:105050005308E03C031D3A2854082E3C031D3A280F
:105060000130E200E10180312000C220A83122009D
:10507000D401D301E01AFE282100240820022200D6
:10508000E10021002508213B2200E200FA0061082E
:10509000E21F52286108003CF7000030FA00620865
:1050A000FA3B7708E1007A08E200E21B6028E20898
:1050B000031D5E286108013C03186028DC175D10A1
:1050C000DC1F86282100240820022200E1002100A4
:1050D0002508213B2200E200FA006108E21F78283F
:1050E0006108003CF7000030FA006208FA3B7708DC
:1050F000E1007A08E200E21B8428E208031D86280A
:105100006108023C031C8628DC135D145D1CB42876
:105110002100A51F8E28A11F9A289028A11B9F2837
:1051200025082102031C9F28031D9A282008240219
:1051300003189F2822005D15DD105D102100A11FBE
:10514000A428A51FB028A628A51BB528210825023C
:10515000031CB528031DB028240820020318B52815
:1051600022005D11DD145D10210022005D1DDA2892
:105170002100200824022200E10021002108253B13
:105180002200E200E21BDA28E208031DCB286108B6
:10519000003C0318DA285B1F5F135D115C19D328EC
:1051A0002000EA0122005C1ADA285919DA282000C6
:1051B000EE012200DD1CFE2821002408200222002E
:1051C000E10021002508213B2200E200E21BFE282D
:1051D000E208031DEF286108003C0318FE285B1F4E
:1051E0005F13DD105C19F7282000EA0122005C1A29
:1051F000FE285919FE282000EE0122002100260871
:1052000022022200E10021002708233B2200E200C5
:10521000FA006108E21F14296108003CF700003021
:10522000FA006208FA3B7708E1007A08E200E21B24
:105230002229E208031D20296108013C03182229C4
:10524000DD155D12DD1D48292100260822022200FD
:10525000E10021002708233B2200E200FA00610858
:10526000E21F3A296108003CF7000030FA006208AA
:10527000FA3B7708E1007A08E200E21B4629E208DF
:10528000031D48296108023C031C4829DD115D16F5
:105290005D1E76292100A71F5029A31F5C295229D2
:1052A000A31B612927082302031C6129031D5C2914
:1052B000220826020318612922005D17DD125D1203
:1052C0002100A31F6629A71F72296829A71B772918
:1052D00023082702031C7729031D722926082202AE
:1052E0000318772922005D13DD165D1221002200CC
:1052F0005D1FBB292100220826022200E1002100B7
:105300002308273B2200E200E21BBB29E208031D21
:105310008D296108003C0318BB29DB1FDF135D13D7
:10532000DC18AF29DF1B96295F1F9C290130200064
:10533000E90022006014AF296018AA29DF1EA42901
:1053400001302000E9002200DF1AA9292000E9012C
:105350002200AF2901302000E90022006014DC198E
:10536000B4292000EB012200DC1ABB29D919BB2982
:105370002000EF012200DD1EFD2921002608220267
:105380002200E10021002708233B2200E200E21B6B
:10539000FD29E208031DD0296108003C0318FD29FE
:1053A000DB1FDF13DD12DC18F129DF1FDC290130E0
:1053B0002000E90022006014DF1BF1296018EC29AD
:1053C000DF1EE62901302000E9002200DF1AEB2968
:1053D0002000E9012200F12901302000E90022002B
:1053E0006014DC19F6292000EB012200DC1AFD29EB
:1053F000D919FD292000EF012200E01A352A2100E9
:10540000200824022200E10021002108253B22007F
:10541000E200E21B122AE208031D352A6108043C5F
:10542000031C352A2100200824022200E10021006B
:105430002108253B2200E200E21B352AE208031D79
:10544000252A6108023C0318352A5B1F5F135C198B
:105450002D2A01302000EA0022005C1A352A591951
:10546000352A01302000EE00220021002208260209
:105470002200E10021002308273B2200E200E21B7A
:10548000482AE208031D922A6108043C031C922A60
:105490002100220826022200E10021002308273BE8
:1054A0002200E200E21B922AE208031D5B2A610847
:1054B000023C0318922A6012DB1FDF13DC187D2ADE
:1054C0002100A31B702AA308031D6A2A22080A3C94
:1054D0000318702A01302000E90022006014210026
:1054E000A31B792AA308031D7C2A22080A3C031C5B
:1054F0007C2A2000E90121002200DC198A2AE01C14
:10550000842A2000EB012200E0188A2A01302000C2
:10551000EB002200DC1A922AD919922A01302000CD
:10552000EF002200E01ACA2A2100200824022200EB
:10553000E10021002108253B2200E200E21BA72A0E
:10554000E208031DCA2A6108063C031CCA2A21007E
:10555000200824022200E10021002108253B22002E
:10556000E200E21BCA2AE208031DBA2A6108043CD1
:105570000318CA2A5B1F5F135C19C22A023020007D
:10558000EA0022005C1ACA2A5919CA2A02302000ED
:10559000EE0022002100220826022200E100210064
:1055A0002308273B2200E200E21BDD2AE208031D5C
:1055B000282B6108063C031C282B21002208260208
:1055C0002200E10021002308273B2200E200E21B29
:1055D000282BE208031DF02A6108043C0318282B3D
:1055E0006012DB1FDF13DC18122B2100A31B052B1D
:1055F000A308031DFF2A22080A3C0318052B0130CB
:105600002000E900220060142100A31B0E2BA30838
:10561000031D112B22080A3C031C112B2000E90159
:1056200021002200DC19202BE01C1A2B0130200065
:10563000EB002200E018202B02302000EB002200BB
:10564000DC1A282BD919282B02302000EF00220069
:10565000E01A4D2B2100200824022200E100210045
:105660002108253B2200E200E21B4D2BE208031D2E
:105670003D2B6108063C03184D2B5B1F5F135C1923
:10568000452B03302000EA0022005C1A4D2B5919EB
:105690004D2B02302000EE002200210022082602BD
:1056A0002200E10021002308273B2200E200E21B48
:1056B000902BE208031D602B6108063C0318902B19
:1056C0006012DB1FDF13DC18822B2100A31B752B5C
:1056D000A308031D6F2B22080A3C0318752B013009
:1056E0002000E900220060142100A31B7E2BA308E8
:1056F000031D812B22080A3C031C812B2000E90199
:1057000021002200DC19882B02302000EB0022004F
:10571000DC1A902BD919902B02302000EF002200C8
:10572000E01AE82B2100240820022200E1002100D9
:105730002508213B2200E200E21BA52BE208031D05
:10574000E82B6108043C031CE82B210024082002FC
:105750002200E10021002508213B2200E200E21B9B
:10576000E82BE208031DB82B6108023C0318E82B64
:105770005B1BDB2B5C1ECE2B20006E082200E100A1
:105780000330E20088312000CE26A831F708031D3F
:10579000CB2B2200CE2B22005F13DB2B5C1DDA2BE0
:1057A00020006A0803390319D72B2200DA2B2200C4
:1057B0005F13DB2B5F175C19E12B01302000EA003F
:1057C00022005C1AE82B5919E82B2000EE01220078
:1057D0002100260822022200E10021002708233BA5
:1057E0002200E200E21BFB2BE208031D512C6108A2
:1057F000043C031C512C2100260822022200E10057
:1058000021002708233B2200E200E21B512CE20882
:10581000031D0E2C6108023C0318512C6012DB1B87
:10582000262CDC1E252C20006F082200E10003300E
:10583000E20088312000CE26A831F708031D222C73
:105840002200252C2200DF13262CDF17DC18452C24
:105850002100A31B382CA308031D322C22080A3C6C
:105860000318382C01302000E900220060142100C8
:10587000A31B412CA308031D442C22080A3C031C33
:10588000442C2000E90121002200DC194A2C2000D0
:10589000EB012200DC1A512CD919512C2000EF0108
:1058A0002200E01AA92C2100240820022200E10095
:1058B00021002508213B2200E200E21B662CE208C1
:1058C000031DA92C6108063C031CA92C21002408F7
:1058D00020022200E10021002508213B2200E200F5
:1058E000E21BA92CE208031D792C6108043C031873
:1058F000A92C5B1B9C2C5C1E8F2C20006E082200A8
:10590000E1000330E20088312000CE26A831F708FC
:10591000031D8C2C22008F2C22005F139C2C5C1DFD
:105920009B2C20006A0803390319982C22009B2C19
:1059300022005F139C2C5F175C19A22C0230200000
:10594000EA0022005C1AA92C5919A92C2000EE01AA
:1059500022002100260822022200E100210027085F
:10596000233B2200E200E21BBC2CE208031D122DA7
:105970006108063C031C122D210026082202220089
:10598000E10021002708233B2200E200E21B122D48
:10599000E208031DCF2C6108043C0318122D60128D
:1059A000DB1BE72CDC1EE62C20006F082200E10048
:1059B0000330E20088312000CE26A831F708031D0D
:1059C000E32C2200E62C2200DF13E72CDF17DC1883
:1059D000062D2100A31BF92CA308031DF32C22087C
:1059E0000A3C0318F92C02302000E9002200601460
:1059F0002100A31B022DA308031D052D22080A3C2C
:105A0000031C052D2000E90121002200DC190B2DCB
:105A10002000EB012200DC1A122DD919122D2000D2
:105A2000EF012200E01A572D210024082002220055
:105A3000E10021002508213B2200E200E21B572D56
:105A4000E208031D272D6108063C0318572D5B1B38
:105A50004A2D5C1E3D2D20006E082200E10003301F
:105A6000E20088312000CE26A831F708031D3A2D28
:105A700022003D2D22005F134A2D5C1D492D200080
:105A80006A0803390319462D2200492D22005F13AD
:105A90004A2D5F175C19502D03302000EA002200C8
:105AA0005C1A572D5919572D2000EE0122002100B4
:105AB000260822022200E10021002708233B2200C1
:105AC000E200E21BAD2DE208031D6A2D6108063CD1
:105AD0000318AD2D6012DB1B822DDC1E812D2000F2
:105AE0006F082200E1000330E20088312000CE265A
:105AF000A831F708031D7E2D2200812D2200DF131F
:105B0000822DDF17DC18A12D2100A31B942DA308E3
:105B1000031D8E2D22080A3C0318942D033020000B
:105B2000E900220060142100A31B9D2DA308031D82
:105B3000A02D22080A3C031CA02D2000E901210011
:105B40002200DC19A62D2000EB012200DC1AAD2D6D
:105B5000D919AD2D2000EF012200DE1C1E2EA03130
:105B60002000D421A8312100240820022200E100D5
:105B700021002508213B2200E200FA006108E21F13
:105B8000C92D6108003CF7000030FA006208FA3BBA
:105B90007708E1007A08E200E21BD52DE208031D38
:105BA000D92D6108023C031CD92D2000EA01EE0129
:105BB00022002100260822022200E10021002708FD
:105BC000233B2200E200FA006108E21FEF2D61088A
:105BD000003CF7000030FA006208FA3B7708E10069
:105BE0007A08E200E21BFB2DE208031D1D2E61086E
:105BF000023C031C1D2E6016DF1B002E5F1F062EAD
:105C000001302000E90022006014192E6018142EC3
:105C1000DF1E0E2E01302000E9002200DF1A132EB5
:105C20002000E9012200192E01302000E9002200A5
:105C300060142000EB01EF012200DE10A0312000F3
:105C4000D421A83122005B1B292EDB1B292EDD1756
:105C50005E145B1F502EDB1B502EDD1F392E5E1590
:105C60002000EA0122005C152000EE0122005C16F3
:105C7000DD1320006A08033903194E2E6E08220036
:105C8000E1000330E20088312000CE26A831F70879
:105C9000031D4E2E22005F17502E200022005F139E
:105CA0005B1B832EDB1F832E5E1C642E5E15200083
:105CB000E9012200DC142000EB012200DC152000A9
:105CC000EF012200DC165E1020006B082200E100CC
:105CD0000330E20088312000CE26A831F708031DEA
:105CE000812E6F082200E1000330E200883120009D
:105CF000CE26A831F708031D812E2200DF17832E40
:105D000020002200DF135B1FD92EDB1FD92EDD1FE1
:105D1000932E5E152000EA0122005C152000EE01A2
:105D200022005C16DD135E1CA32E5E152000E90127
:105D30002200DC142000EB012200DC152000EF0122
:105D40002200DC165E1020006A0803390319B82E01
:105D50006E082200E1000330E20088312000CE26E8
:105D6000A831F708031DB82E22005F17BA2E2000B5
:105D700022005F1320006B082200E1000330E200E4
:105D800088312000CE26A831F708031DD72E6F08D2
:105D90002200E1000330E20088312000CE26A83145
:105DA000F708031DD72E2200DF17D92E200022006E
:085DB000DF13A0312000AA2B33
:020000040001F9
:04000E008439FF1E14
:00000001FF
;PIC16F1947
;CRC=B052  CREATED="06-Dec-18 08:42"
