:10000000803115290000203085001230840000085E
:10001000031918280130A100A001A00B0D28A10B85
:100020000C284A30A000A00B13281628800B0A28A1
:10003000080021008C0122008C0132302000B20027
:100040000320023065000030A10004389C00FF301E
:100050009B00A91485019E308400FC3080052A088D
:100060008004013085008C30840029088000210044
:100070001E169E121E139E171D1404302000B10080
:10008000FA30B2000320B10B402880312E29220023
:100090001D109D1021000C1122000C110C302500A8
:1000A00093009401950101309600FF3091001308F0
:1000B000CF3930389300803120002F2921008C1255
:1000C00022008C1621000C1222000C1220000800C5
:1000D000A501A401B1013108093C031C8F2804309B
:1000E000A10021001D0883392000210421009D006A
:1000F00005302000B200032021009D149D187E28A9
:100100001C082000A30021001B082000A6002308D3
:10011000A7002608A4072708A53DB10A6B282508D3
:10012000B3002408B200B5010A30B400A101A20155
:10013000A001A3013508031DA02834080319BA281B
:100140001030B6000310B20DB30DA00DA30D35088D
:100150002302031DAD2834082002031CB6283408EE
:10016000A002031CA3033508A3020314A10DA20DD2
:10017000B60BA2282208A5002108A400080021002F
:100180008C1222008C12200008005E200430B10086
:10019000FA30B2000320B10BC82830103018E6281E
:1001A0005E206430B20003206820A508031DDC280F
:1001B0002408083C0318E5283014BF200230B100A1
:1001C000FA30B2000320B10BE028CE28803130296C
:1001D00021008C1222008C1621000C1222000C1619
:1001E00020000800E8200430B100FA30B2000320FB
:1001F000B10BF528B010B0181329E8206430B20014
:1002000003206820A508031D09292408083C0318B9
:100210001229B014BF200230B100FA30B20003201E
:10022000B10B0D29FB28803131296A30210099005A
:100230002000A501A401A701A601AB01AA01A90103
:10024000A801AD01AC01AF01AE013010B010230028
:100250008C01220092019101200019284728C5280D
:06026000F2282F296300C3
:020000040001F9
:04000E002439FF1E74
:00000001FF
;PIC12F1822
;CRC=1305  CREATED="23-May-19 10:03"
